{
  "contractName": "DiagnosticRegistration",
  "abi": [
    {
      "anonymous": false,
      "inputs": [
        {
          "indexed": false,
          "internalType": "string",
          "name": "licenseNumber",
          "type": "string"
        },
        {
          "indexed": false,
          "internalType": "string",
          "name": "dispensaryName",
          "type": "string"
        },
        {
          "indexed": false,
          "internalType": "address",
          "name": "cryptoWalletAddress",
          "type": "address"
        }
      ],
      "name": "DiagnosticRegistered",
      "type": "event"
    },
    {
      "constant": false,
      "inputs": [
        {
          "internalType": "string",
          "name": "_dispensaryName",
          "type": "string"
        },
        {
          "internalType": "string",
          "name": "_hospitalName",
          "type": "string"
        },
        {
          "internalType": "string",
          "name": "_licenseNumber",
          "type": "string"
        },
        {
          "internalType": "string",
          "name": "_email",
          "type": "string"
        },
        {
          "internalType": "string",
          "name": "_password",
          "type": "string"
        }
      ],
      "name": "registerDiagnostic",
      "outputs": [],
      "payable": false,
      "stateMutability": "nonpayable",
      "type": "function"
    },
    {
      "constant": true,
      "inputs": [
        {
          "internalType": "string",
          "name": "_licenseNumber",
          "type": "string"
        }
      ],
      "name": "isRegisteredDiagnostic",
      "outputs": [
        {
          "internalType": "bool",
          "name": "",
          "type": "bool"
        }
      ],
      "payable": false,
      "stateMutability": "view",
      "type": "function"
    },
    {
      "constant": true,
      "inputs": [
        {
          "internalType": "string",
          "name": "_licenseNumber",
          "type": "string"
        }
      ],
      "name": "getDiagnosticDetails",
      "outputs": [
        {
          "internalType": "address",
          "name": "_cryptoWalletAddress",
          "type": "address"
        },
        {
          "internalType": "string",
          "name": "_dispensaryName",
          "type": "string"
        },
        {
          "internalType": "string",
          "name": "_hospitalName",
          "type": "string"
        },
        {
          "internalType": "string",
          "name": "_email",
          "type": "string"
        }
      ],
      "payable": false,
      "stateMutability": "view",
      "type": "function"
    },
    {
      "constant": true,
      "inputs": [
        {
          "internalType": "string",
          "name": "_licenseNumber",
          "type": "string"
        },
        {
          "internalType": "string",
          "name": "_password",
          "type": "string"
        }
      ],
      "name": "validatePassword",
      "outputs": [
        {
          "internalType": "bool",
          "name": "",
          "type": "bool"
        }
      ],
      "payable": false,
      "stateMutability": "view",
      "type": "function"
    }
  ],
  "bytecode": "0x608060405234801561001057600080fd5b50611661806100206000396000f3fe608060405234801561001057600080fd5b506004361061004c5760003560e01c806325b4c9c7146100515780637babdb2614610290578063cf9ff022146103fa578063d9104df4146104cd575b600080fd5b61010a6004803603602081101561006757600080fd5b810190808035906020019064010000000081111561008457600080fd5b82018360208201111561009657600080fd5b803590602001918460018302840111640100000000831117156100b857600080fd5b91908080601f016020809104026020016040519081016040528093929190818152602001838380828437600081840152601f19601f8201169050808301925050505050505091929192905050506107e4565b604051808573ffffffffffffffffffffffffffffffffffffffff1673ffffffffffffffffffffffffffffffffffffffff168152602001806020018060200180602001848103845287818151815260200191508051906020019080838360005b83811015610184578082015181840152602081019050610169565b50505050905090810190601f1680156101b15780820380516001836020036101000a031916815260200191505b50848103835286818151815260200191508051906020019080838360005b838110156101ea5780820151818401526020810190506101cf565b50505050905090810190601f1680156102175780820380516001836020036101000a031916815260200191505b50848103825285818151815260200191508051906020019080838360005b83811015610250578082015181840152602081019050610235565b50505050905090810190601f16801561027d5780820380516001836020036101000a031916815260200191505b5097505050505050505060405180910390f35b6103e0600480360360408110156102a657600080fd5b81019080803590602001906401000000008111156102c357600080fd5b8201836020820111156102d557600080fd5b803590602001918460018302840111640100000000831117156102f757600080fd5b91908080601f016020809104026020016040519081016040528093929190818152602001838380828437600081840152601f19601f8201169050808301925050505050505091929192908035906020019064010000000081111561035a57600080fd5b82018360208201111561036c57600080fd5b8035906020019184600183028401116401000000008311171561038e57600080fd5b91908080601f016020809104026020016040519081016040528093929190818152602001838380828437600081840152601f19601f820116905080830192505050505050509192919290505050610d42565b604051808215151515815260200191505060405180910390f35b6104b36004803603602081101561041057600080fd5b810190808035906020019064010000000081111561042d57600080fd5b82018360208201111561043f57600080fd5b8035906020019184600183028401116401000000008311171561046157600080fd5b91908080601f016020809104026020016040519081016040528093929190818152602001838380828437600081840152601f19601f820116905080830192505050505050509192919290505050610fcf565b604051808215151515815260200191505060405180910390f35b6107e2600480360360a08110156104e357600080fd5b810190808035906020019064010000000081111561050057600080fd5b82018360208201111561051257600080fd5b8035906020019184600183028401116401000000008311171561053457600080fd5b91908080601f016020809104026020016040519081016040528093929190818152602001838380828437600081840152601f19601f8201169050808301925050505050505091929192908035906020019064010000000081111561059757600080fd5b8201836020820111156105a957600080fd5b803590602001918460018302840111640100000000831117156105cb57600080fd5b91908080601f016020809104026020016040519081016040528093929190818152602001838380828437600081840152601f19601f8201169050808301925050505050505091929192908035906020019064010000000081111561062e57600080fd5b82018360208201111561064057600080fd5b8035906020019184600183028401116401000000008311171561066257600080fd5b91908080601f016020809104026020016040519081016040528093929190818152602001838380828437600081840152601f19601f820116905080830192505050505050509192919290803590602001906401000000008111156106c557600080fd5b8201836020820111156106d757600080fd5b803590602001918460018302840111640100000000831117156106f957600080fd5b91908080601f016020809104026020016040519081016040528093929190818152602001838380828437600081840152601f19601f8201169050808301925050505050505091929192908035906020019064010000000081111561075c57600080fd5b82018360208201111561076e57600080fd5b8035906020019184600183028401116401000000008311171561079057600080fd5b91908080601f016020809104026020016040519081016040528093929190818152602001838380828437600081840152601f19601f820116905080830192505050505050509192919290505050611091565b005b60006060806060600073ffffffffffffffffffffffffffffffffffffffff166000866040518082805190602001908083835b602083106108395780518252602082019150602081019050602083039250610816565b6001836020036101000a038019825116818451168082178552505050505050905001915050908152602001604051809103902060009054906101000a900473ffffffffffffffffffffffffffffffffffffffff1673ffffffffffffffffffffffffffffffffffffffff161415610917576040517f08c379a00000000000000000000000000000000000000000000000000000000081526004018080602001828103825260198152602001807f446961676e6f73746963206e6f7420726567697374657265640000000000000081525060200191505060405180910390fd5b61091f61153b565b6001866040518082805190602001908083835b602083106109555780518252602082019150602081019050602083039250610932565b6001836020036101000a03801982511681845116808217855250505050505090500191505090815260200160405180910390206040518060c00160405290816000820160009054906101000a900473ffffffffffffffffffffffffffffffffffffffff1673ffffffffffffffffffffffffffffffffffffffff1673ffffffffffffffffffffffffffffffffffffffff168152602001600182018054600181600116156101000203166002900480601f016020809104026020016040519081016040528092919081815260200182805460018160011615610100020316600290048015610a825780601f10610a5757610100808354040283529160200191610a82565b820191906000526020600020905b815481529060010190602001808311610a6557829003601f168201915b50505050508152602001600282018054600181600116156101000203166002900480601f016020809104026020016040519081016040528092919081815260200182805460018160011615610100020316600290048015610b245780601f10610af957610100808354040283529160200191610b24565b820191906000526020600020905b815481529060010190602001808311610b0757829003601f168201915b50505050508152602001600382018054600181600116156101000203166002900480601f016020809104026020016040519081016040528092919081815260200182805460018160011615610100020316600290048015610bc65780601f10610b9b57610100808354040283529160200191610bc6565b820191906000526020600020905b815481529060010190602001808311610ba957829003601f168201915b50505050508152602001600482018054600181600116156101000203166002900480601f016020809104026020016040519081016040528092919081815260200182805460018160011615610100020316600290048015610c685780601f10610c3d57610100808354040283529160200191610c68565b820191906000526020600020905b815481529060010190602001808311610c4b57829003601f168201915b50505050508152602001600582018054600181600116156101000203166002900480601f016020809104026020016040519081016040528092919081815260200182805460018160011615610100020316600290048015610d0a5780601f10610cdf57610100808354040283529160200191610d0a565b820191906000526020600020905b815481529060010190602001808311610ced57829003601f168201915b505050505081525050905080600001518160200151826040015183608001518292508191508090509450945094509450509193509193565b60008073ffffffffffffffffffffffffffffffffffffffff166000846040518082805190602001908083835b60208310610d915780518252602082019150602081019050602083039250610d6e565b6001836020036101000a038019825116818451168082178552505050505050905001915050908152602001604051809103902060009054906101000a900473ffffffffffffffffffffffffffffffffffffffff1673ffffffffffffffffffffffffffffffffffffffff161415610e6f576040517f08c379a00000000000000000000000000000000000000000000000000000000081526004018080602001828103825260198152602001807f446961676e6f73746963206e6f7420726567697374657265640000000000000081525060200191505060405180910390fd5b6001836040518082805190602001908083835b60208310610ea55780518252602082019150602081019050602083039250610e82565b6001836020036101000a03801982511681845116808217855250505050505090500191505090815260200160405180910390206005016040516020018082805460018160011615610100020316600290048015610f395780601f10610f17576101008083540402835291820191610f39565b820191906000526020600020905b815481529060010190602001808311610f25575b505091505060405160208183030381529060405280519060200120826040516020018082805190602001908083835b60208310610f8b5780518252602082019150602081019050602083039250610f68565b6001836020036101000a0380198251168184511680821785525050505050509050019150506040516020818303038152906040528051906020012014905092915050565b60008073ffffffffffffffffffffffffffffffffffffffff166000836040518082805190602001908083835b6020831061101e5780518252602082019150602081019050602083039250610ffb565b6001836020036101000a038019825116818451168082178552505050505050905001915050908152602001604051809103902060009054906101000a900473ffffffffffffffffffffffffffffffffffffffff1673ffffffffffffffffffffffffffffffffffffffff1614159050919050565b600073ffffffffffffffffffffffffffffffffffffffff166000846040518082805190602001908083835b602083106110df57805182526020820191506020810190506020830392506110bc565b6001836020036101000a038019825116818451168082178552505050505050905001915050908152602001604051809103902060009054906101000a900473ffffffffffffffffffffffffffffffffffffffff1673ffffffffffffffffffffffffffffffffffffffff16146111bc576040517f08c379a000000000000000000000000000000000000000000000000000000000815260040180806020018281038252601d8152602001807f446961676e6f7374696320616c7265616479207265676973746572656400000081525060200191505060405180910390fd5b6111c461153b565b6040518060c001604052803373ffffffffffffffffffffffffffffffffffffffff168152602001878152602001868152602001858152602001848152602001838152509050806001856040518082805190602001908083835b60208310611240578051825260208201915060208101905060208303925061121d565b6001836020036101000a038019825116818451168082178552505050505050905001915050908152602001604051809103902060008201518160000160006101000a81548173ffffffffffffffffffffffffffffffffffffffff021916908373ffffffffffffffffffffffffffffffffffffffff16021790555060208201518160010190805190602001906112d6929190611587565b5060408201518160020190805190602001906112f3929190611587565b506060820151816003019080519060200190611310929190611587565b50608082015181600401908051906020019061132d929190611587565b5060a082015181600501908051906020019061134a929190611587565b50905050336000856040518082805190602001908083835b602083106113855780518252602082019150602081019050602083039250611362565b6001836020036101000a038019825116818451168082178552505050505050905001915050908152602001604051809103902060006101000a81548173ffffffffffffffffffffffffffffffffffffffff021916908373ffffffffffffffffffffffffffffffffffffffff1602179055507f018b729007b12778ed503e400556113a91191a1cd9f17a22387db8e25fa67d558487336040518080602001806020018473ffffffffffffffffffffffffffffffffffffffff1673ffffffffffffffffffffffffffffffffffffffff168152602001838103835286818151815260200191508051906020019080838360005b83811015611490578082015181840152602081019050611475565b50505050905090810190601f1680156114bd5780820380516001836020036101000a031916815260200191505b50838103825285818151815260200191508051906020019080838360005b838110156114f65780820151818401526020810190506114db565b50505050905090810190601f1680156115235780820380516001836020036101000a031916815260200191505b509550505050505060405180910390a1505050505050565b6040518060c00160405280600073ffffffffffffffffffffffffffffffffffffffff16815260200160608152602001606081526020016060815260200160608152602001606081525090565b828054600181600116156101000203166002900490600052602060002090601f016020900481019282601f106115c857805160ff19168380011785556115f6565b828001600101855582156115f6579182015b828111156115f55782518255916020019190600101906115da565b5b5090506116039190611607565b5090565b61162991905b8082111561162557600081600090555060010161160d565b5090565b9056fea265627a7a723158208aa98fedb3b184b78176f91e26b0f3d745e8ea6aaa393469ed0922b0ec8e349964736f6c63430005100032",
  "source": "// SPDX-License-Identifier: MIT\r\npragma solidity ^0.5.16;\r\n\r\ncontract DiagnosticRegistration {\r\n    struct Diagnostic {\r\n        address cryptoWalletAddress;\r\n        string dispensaryName;\r\n        string hospitalName;\r\n        string licenseNumber;\r\n        string email;\r\n        string password;\r\n    }\r\n\r\n    mapping(string => address) private diagnosticAddresses;\r\n    mapping(string => Diagnostic) private diagnostics;\r\n\r\n    event DiagnosticRegistered(string licenseNumber, string dispensaryName, address cryptoWalletAddress);\r\n\r\n    function registerDiagnostic( string memory _dispensaryName, string memory _hospitalName, string memory _licenseNumber, string memory _email, string memory _password ) public {\r\n        require(diagnosticAddresses[_licenseNumber] == address(0), \"Diagnostic already registered\");\r\n        Diagnostic memory newDiagnostic = Diagnostic({\r\n            cryptoWalletAddress: msg.sender,\r\n            dispensaryName: _dispensaryName,\r\n            hospitalName: _hospitalName,\r\n            licenseNumber: _licenseNumber,\r\n            email: _email,\r\n            password: _password\r\n        });\r\n\r\n        diagnostics[_licenseNumber] = newDiagnostic;\r\n        diagnosticAddresses[_licenseNumber] = msg.sender;\r\n        emit DiagnosticRegistered(_licenseNumber, _dispensaryName, msg.sender);\r\n    }\r\n\r\n    function isRegisteredDiagnostic(string memory _licenseNumber) public view returns (bool) {\r\n        return diagnosticAddresses[_licenseNumber] != address(0);\r\n    }\r\n\r\n    function getDiagnosticDetails(string memory _licenseNumber) public view returns ( address _cryptoWalletAddress, string memory _dispensaryName, string memory _hospitalName, string memory _email ) {\r\n        require(diagnosticAddresses[_licenseNumber] != address(0), \"Diagnostic not registered\");\r\n        Diagnostic memory diagnostic = diagnostics[_licenseNumber];\r\n        return ( diagnostic.cryptoWalletAddress, diagnostic.dispensaryName, diagnostic.hospitalName, diagnostic.email );\r\n    }\r\n\r\n    function validatePassword(string memory _licenseNumber, string memory _password) public view returns (bool) {\r\n        require(diagnosticAddresses[_licenseNumber] != address(0), \"Diagnostic not registered\");\r\n        return keccak256(abi.encodePacked(_password)) == keccak256(abi.encodePacked(diagnostics[_licenseNumber].password));\r\n    }\r\n}",
  "sourcePath": "C:\\Users\\Aman\\Desktop\\GITHUB\\WellWise_Core\\src\\contracts\\DispensaryRegistration.sol",
  "compiler": {
    "name": "solc",
    "version": "0.5.16+commit.9c3226ce.Emscripten.clang"
  },
  "schemaVersion": "3.4.16",
  "updatedAt": "2024-12-25T21:10:54.464Z",
  "networkType": "ethereum",
  "devdoc": {
    "methods": {}
  },
  "userdoc": {
    "methods": {}
  }
}