{
  "contractName": "DispensaryRegistration",
  "abi": [
    {
      "anonymous": false,
      "inputs": [
        {
          "indexed": false,
          "internalType": "string",
          "name": "licenseNumber",
          "type": "string"
        },
        {
          "indexed": false,
          "internalType": "string",
          "name": "dispensaryName",
          "type": "string"
        },
        {
          "indexed": false,
          "internalType": "address",
          "name": "cryptoWalletAddress",
          "type": "address"
        }
      ],
      "name": "DiagnosticRegistered",
      "type": "event"
    },
    {
      "constant": false,
      "inputs": [
        {
          "internalType": "string",
          "name": "_name",
          "type": "string"
        },
        {
          "internalType": "string",
          "name": "_licenseNumber",
          "type": "string"
        },
        {
          "internalType": "string",
          "name": "_email",
          "type": "string"
        },
        {
          "internalType": "string",
          "name": "_password",
          "type": "string"
        }
      ],
      "name": "registerDispensaryCredentials",
      "outputs": [],
      "payable": false,
      "stateMutability": "nonpayable",
      "type": "function"
    },
    {
      "constant": false,
      "inputs": [
        {
          "internalType": "string",
          "name": "_licenseNumber",
          "type": "string"
        },
        {
          "internalType": "string",
          "name": "_ownerName",
          "type": "string"
        },
        {
          "internalType": "string",
          "name": "_ownerPhoneNumber",
          "type": "string"
        },
        {
          "internalType": "string",
          "name": "_ownerGender",
          "type": "string"
        },
        {
          "internalType": "string",
          "name": "_age",
          "type": "string"
        }
      ],
      "name": "registerDispensaryOwnerDetails",
      "outputs": [],
      "payable": false,
      "stateMutability": "nonpayable",
      "type": "function"
    },
    {
      "constant": false,
      "inputs": [
        {
          "internalType": "string",
          "name": "_licenseNumber",
          "type": "string"
        },
        {
          "internalType": "string",
          "name": "_contactNumber",
          "type": "string"
        },
        {
          "internalType": "string",
          "name": "_dispensaryWebsite",
          "type": "string"
        },
        {
          "internalType": "string",
          "name": "_operationalHours",
          "type": "string"
        }
      ],
      "name": "registerDispensaryContactDetails",
      "outputs": [],
      "payable": false,
      "stateMutability": "nonpayable",
      "type": "function"
    },
    {
      "constant": true,
      "inputs": [
        {
          "internalType": "string",
          "name": "_licenseNumber",
          "type": "string"
        },
        {
          "internalType": "string",
          "name": "_password",
          "type": "string"
        }
      ],
      "name": "validatePassword",
      "outputs": [
        {
          "internalType": "bool",
          "name": "",
          "type": "bool"
        }
      ],
      "payable": false,
      "stateMutability": "view",
      "type": "function"
    },
    {
      "constant": true,
      "inputs": [
        {
          "internalType": "string",
          "name": "_licenseNumber",
          "type": "string"
        }
      ],
      "name": "isDispensaryRegistered",
      "outputs": [
        {
          "internalType": "bool",
          "name": "",
          "type": "bool"
        }
      ],
      "payable": false,
      "stateMutability": "view",
      "type": "function"
    },
    {
      "constant": true,
      "inputs": [
        {
          "internalType": "string",
          "name": "_licenseNumber",
          "type": "string"
        }
      ],
      "name": "getDispensaryCredentials",
      "outputs": [
        {
          "internalType": "string",
          "name": "dispensaryName",
          "type": "string"
        },
        {
          "internalType": "string",
          "name": "licenceNumber",
          "type": "string"
        },
        {
          "internalType": "string",
          "name": "email",
          "type": "string"
        },
        {
          "internalType": "address",
          "name": "walletAddress",
          "type": "address"
        }
      ],
      "payable": false,
      "stateMutability": "view",
      "type": "function"
    },
    {
      "constant": true,
      "inputs": [
        {
          "internalType": "string",
          "name": "_licenseNumber",
          "type": "string"
        }
      ],
      "name": "getDispensaryOwnerDetails",
      "outputs": [
        {
          "internalType": "string",
          "name": "ownerName",
          "type": "string"
        },
        {
          "internalType": "string",
          "name": "ownerPhoneNumber",
          "type": "string"
        },
        {
          "internalType": "string",
          "name": "ownerGender",
          "type": "string"
        },
        {
          "internalType": "string",
          "name": "age",
          "type": "string"
        }
      ],
      "payable": false,
      "stateMutability": "view",
      "type": "function"
    },
    {
      "constant": true,
      "inputs": [
        {
          "internalType": "string",
          "name": "_licenseNumber",
          "type": "string"
        }
      ],
      "name": "getDispensaryContactDetails",
      "outputs": [
        {
          "internalType": "string",
          "name": "contactNumber",
          "type": "string"
        },
        {
          "internalType": "string",
          "name": "dispensaryWebsite",
          "type": "string"
        },
        {
          "internalType": "string",
          "name": "operationalHours",
          "type": "string"
        }
      ],
      "payable": false,
      "stateMutability": "view",
      "type": "function"
    }
  ],
  "bytecode": "0x608060405234801561001057600080fd5b50612c2f806100206000396000f3fe608060405234801561001057600080fd5b50600436106100885760003560e01c80637c0cf8e81161005b5780637c0cf8e81461074e5780637cc238f8146109ce578063c53437c214610c0d578063cc29df8614610e8d57610088565b806307cea7351461008d578063096337af146102995780634a7689a4146105115780637babdb26146105e4575b600080fd5b610146600480360360208110156100a357600080fd5b81019080803590602001906401000000008111156100c057600080fd5b8201836020820111156100d257600080fd5b803590602001918460018302840111640100000000831117156100f457600080fd5b91908080601f016020809104026020016040519081016040528093929190818152602001838380828437600081840152601f19601f8201169050808301925050505050505091929192905050506111a4565b60405180806020018060200180602001848103845287818151815260200191508051906020019080838360005b8381101561018e578082015181840152602081019050610173565b50505050905090810190601f1680156101bb5780820380516001836020036101000a031916815260200191505b50848103835286818151815260200191508051906020019080838360005b838110156101f45780820151818401526020810190506101d9565b50505050905090810190601f1680156102215780820380516001836020036101000a031916815260200191505b50848103825285818151815260200191508051906020019080838360005b8381101561025a57808201518184015260208101905061023f565b50505050905090810190601f1680156102875780820380516001836020036101000a031916815260200191505b50965050505050505060405180910390f35b610352600480360360208110156102af57600080fd5b81019080803590602001906401000000008111156102cc57600080fd5b8201836020820111156102de57600080fd5b8035906020019184600183028401116401000000008311171561030057600080fd5b91908080601f016020809104026020016040519081016040528093929190818152602001838380828437600081840152601f19601f820116905080830192505050505050509192919290505050611539565b6040518080602001806020018060200180602001858103855289818151815260200191508051906020019080838360005b8381101561039e578082015181840152602081019050610383565b50505050905090810190601f1680156103cb5780820380516001836020036101000a031916815260200191505b50858103845288818151815260200191508051906020019080838360005b838110156104045780820151818401526020810190506103e9565b50505050905090810190601f1680156104315780820380516001836020036101000a031916815260200191505b50858103835287818151815260200191508051906020019080838360005b8381101561046a57808201518184015260208101905061044f565b50505050905090810190601f1680156104975780820380516001836020036101000a031916815260200191505b50858103825286818151815260200191508051906020019080838360005b838110156104d05780820151818401526020810190506104b5565b50505050905090810190601f1680156104fd5780820380516001836020036101000a031916815260200191505b509850505050505050505060405180910390f35b6105ca6004803603602081101561052757600080fd5b810190808035906020019064010000000081111561054457600080fd5b82018360208201111561055657600080fd5b8035906020019184600183028401116401000000008311171561057857600080fd5b91908080601f016020809104026020016040519081016040528093929190818152602001838380828437600081840152601f19601f820116905080830192505050505050509192919290505050611974565b604051808215151515815260200191505060405180910390f35b610734600480360360408110156105fa57600080fd5b810190808035906020019064010000000081111561061757600080fd5b82018360208201111561062957600080fd5b8035906020019184600183028401116401000000008311171561064b57600080fd5b91908080601f016020809104026020016040519081016040528093929190818152602001838380828437600081840152601f19601f820116905080830192505050505050509192919290803590602001906401000000008111156106ae57600080fd5b8201836020820111156106c057600080fd5b803590602001918460018302840111640100000000831117156106e257600080fd5b91908080601f016020809104026020016040519081016040528093929190818152602001838380828437600081840152601f19601f820116905080830192505050505050509192919290505050611a36565b604051808215151515815260200191505060405180910390f35b6109cc6004803603608081101561076457600080fd5b810190808035906020019064010000000081111561078157600080fd5b82018360208201111561079357600080fd5b803590602001918460018302840111640100000000831117156107b557600080fd5b91908080601f016020809104026020016040519081016040528093929190818152602001838380828437600081840152601f19601f8201169050808301925050505050505091929192908035906020019064010000000081111561081857600080fd5b82018360208201111561082a57600080fd5b8035906020019184600183028401116401000000008311171561084c57600080fd5b91908080601f016020809104026020016040519081016040528093929190818152602001838380828437600081840152601f19601f820116905080830192505050505050509192919290803590602001906401000000008111156108af57600080fd5b8201836020820111156108c157600080fd5b803590602001918460018302840111640100000000831117156108e357600080fd5b91908080601f016020809104026020016040519081016040528093929190818152602001838380828437600081840152601f19601f8201169050808301925050505050505091929192908035906020019064010000000081111561094657600080fd5b82018360208201111561095857600080fd5b8035906020019184600183028401116401000000008311171561097a57600080fd5b91908080601f016020809104026020016040519081016040528093929190818152602001838380828437600081840152601f19601f820116905080830192505050505050509192919290505050611fb4565b005b610a87600480360360208110156109e457600080fd5b8101908080359060200190640100000000811115610a0157600080fd5b820183602082011115610a1357600080fd5b80359060200191846001830284011164010000000083111715610a3557600080fd5b91908080601f016020809104026020016040519081016040528093929190818152602001838380828437600081840152601f19601f820116905080830192505050505050509192919290505050612306565b604051808060200180602001806020018573ffffffffffffffffffffffffffffffffffffffff1673ffffffffffffffffffffffffffffffffffffffff168152602001848103845288818151815260200191508051906020019080838360005b83811015610b01578082015181840152602081019050610ae6565b50505050905090810190601f168015610b2e5780820380516001836020036101000a031916815260200191505b50848103835287818151815260200191508051906020019080838360005b83811015610b67578082015181840152602081019050610b4c565b50505050905090810190601f168015610b945780820380516001836020036101000a031916815260200191505b50848103825286818151815260200191508051906020019080838360005b83811015610bcd578082015181840152602081019050610bb2565b50505050905090810190601f168015610bfa5780820380516001836020036101000a031916815260200191505b5097505050505050505060405180910390f35b610e8b60048036036080811015610c2357600080fd5b8101908080359060200190640100000000811115610c4057600080fd5b820183602082011115610c5257600080fd5b80359060200191846001830284011164010000000083111715610c7457600080fd5b91908080601f016020809104026020016040519081016040528093929190818152602001838380828437600081840152601f19601f82011690508083019250505050505050919291929080359060200190640100000000811115610cd757600080fd5b820183602082011115610ce957600080fd5b80359060200191846001830284011164010000000083111715610d0b57600080fd5b91908080601f016020809104026020016040519081016040528093929190818152602001838380828437600081840152601f19601f82011690508083019250505050505050919291929080359060200190640100000000811115610d6e57600080fd5b820183602082011115610d8057600080fd5b80359060200191846001830284011164010000000083111715610da257600080fd5b91908080601f016020809104026020016040519081016040528093929190818152602001838380828437600081840152601f19601f82011690508083019250505050505050919291929080359060200190640100000000811115610e0557600080fd5b820183602082011115610e1757600080fd5b80359060200191846001830284011164010000000083111715610e3957600080fd5b91908080601f016020809104026020016040519081016040528093929190818152602001838380828437600081840152601f19601f8201169050808301925050505050505091929192905050506126c6565b005b6111a2600480360360a0811015610ea357600080fd5b8101908080359060200190640100000000811115610ec057600080fd5b820183602082011115610ed257600080fd5b80359060200191846001830284011164010000000083111715610ef457600080fd5b91908080601f016020809104026020016040519081016040528093929190818152602001838380828437600081840152601f19601f82011690508083019250505050505050919291929080359060200190640100000000811115610f5757600080fd5b820183602082011115610f6957600080fd5b80359060200191846001830284011164010000000083111715610f8b57600080fd5b91908080601f016020809104026020016040519081016040528093929190818152602001838380828437600081840152601f19601f82011690508083019250505050505050919291929080359060200190640100000000811115610fee57600080fd5b82018360208201111561100057600080fd5b8035906020019184600183028401116401000000008311171561102257600080fd5b91908080601f016020809104026020016040519081016040528093929190818152602001838380828437600081840152601f19601f8201169050808301925050505050505091929192908035906020019064010000000081111561108557600080fd5b82018360208201111561109757600080fd5b803590602001918460018302840111640100000000831117156110b957600080fd5b91908080601f016020809104026020016040519081016040528093929190818152602001838380828437600081840152601f19601f8201169050808301925050505050505091929192908035906020019064010000000081111561111c57600080fd5b82018360208201111561112e57600080fd5b8035906020019184600183028401116401000000008311171561115057600080fd5b91908080601f016020809104026020016040519081016040528093929190818152602001838380828437600081840152601f19601f8201169050808301925050505050505091929192905050506128d9565b005b6060806060600073ffffffffffffffffffffffffffffffffffffffff166000856040518082805190602001908083835b602083106111f757805182526020820191506020810190506020830392506111d4565b6001836020036101000a038019825116818451168082178552505050505050905001915050908152602001604051809103902060009054906101000a900473ffffffffffffffffffffffffffffffffffffffff1673ffffffffffffffffffffffffffffffffffffffff1614156112d5576040517f08c379a00000000000000000000000000000000000000000000000000000000081526004018080602001828103825260148152602001807f44697370656e73617279206e6f7420666f756e6400000000000000000000000081525060200191505060405180910390fd5b60006001856040518082805190602001908083835b6020831061130d57805182526020820191506020810190506020830392506112ea565b6001836020036101000a03801982511681845116808217855250505050505090500191505090815260200160405180910390209050806009016000018160090160010182600901600201828054600181600116156101000203166002900480601f0160208091040260200160405190810160405280929190818152602001828054600181600116156101000203166002900480156113ec5780601f106113c1576101008083540402835291602001916113ec565b820191906000526020600020905b8154815290600101906020018083116113cf57829003601f168201915b50505050509250818054600181600116156101000203166002900480601f0160208091040260200160405190810160405280929190818152602001828054600181600116156101000203166002900480156114885780601f1061145d57610100808354040283529160200191611488565b820191906000526020600020905b81548152906001019060200180831161146b57829003601f168201915b50505050509150808054600181600116156101000203166002900480601f0160208091040260200160405190810160405280929190818152602001828054600181600116156101000203166002900480156115245780601f106114f957610100808354040283529160200191611524565b820191906000526020600020905b81548152906001019060200180831161150757829003601f168201915b50505050509050935093509350509193909250565b606080606080600073ffffffffffffffffffffffffffffffffffffffff166000866040518082805190602001908083835b6020831061158d578051825260208201915060208101905060208303925061156a565b6001836020036101000a038019825116818451168082178552505050505050905001915050908152602001604051809103902060009054906101000a900473ffffffffffffffffffffffffffffffffffffffff1673ffffffffffffffffffffffffffffffffffffffff16141561166b576040517f08c379a00000000000000000000000000000000000000000000000000000000081526004018080602001828103825260148152602001807f44697370656e73617279206e6f7420666f756e6400000000000000000000000081525060200191505060405180910390fd5b60006001866040518082805190602001908083835b602083106116a35780518252602082019150602081019050602083039250611680565b6001836020036101000a0380198251168184511680821785525050505050509050019150509081526020016040518091039020905080600501600001816005016001018260050160020183600501600301838054600181600116156101000203166002900480601f0160208091040260200160405190810160405280929190818152602001828054600181600116156101000203166002900480156117895780601f1061175e57610100808354040283529160200191611789565b820191906000526020600020905b81548152906001019060200180831161176c57829003601f168201915b50505050509350828054600181600116156101000203166002900480601f0160208091040260200160405190810160405280929190818152602001828054600181600116156101000203166002900480156118255780601f106117fa57610100808354040283529160200191611825565b820191906000526020600020905b81548152906001019060200180831161180857829003601f168201915b50505050509250818054600181600116156101000203166002900480601f0160208091040260200160405190810160405280929190818152602001828054600181600116156101000203166002900480156118c15780601f10611896576101008083540402835291602001916118c1565b820191906000526020600020905b8154815290600101906020018083116118a457829003601f168201915b50505050509150808054600181600116156101000203166002900480601f01602080910402602001604051908101604052809291908181526020018280546001816001161561010002031660029004801561195d5780601f106119325761010080835404028352916020019161195d565b820191906000526020600020905b81548152906001019060200180831161194057829003601f168201915b505050505090509450945094509450509193509193565b60008073ffffffffffffffffffffffffffffffffffffffff166000836040518082805190602001908083835b602083106119c357805182526020820191506020810190506020830392506119a0565b6001836020036101000a038019825116818451168082178552505050505050905001915050908152602001604051809103902060009054906101000a900473ffffffffffffffffffffffffffffffffffffffff1673ffffffffffffffffffffffffffffffffffffffff1614159050919050565b60008073ffffffffffffffffffffffffffffffffffffffff166000846040518082805190602001908083835b60208310611a855780518252602082019150602081019050602083039250611a62565b6001836020036101000a038019825116818451168082178552505050505050905001915050908152602001604051809103902060009054906101000a900473ffffffffffffffffffffffffffffffffffffffff1673ffffffffffffffffffffffffffffffffffffffff161415611b63576040517f08c379a00000000000000000000000000000000000000000000000000000000081526004018080602001828103825260148152602001807f44697370656e73617279206e6f7420666f756e6400000000000000000000000081525060200191505060405180910390fd5b611b6b612b10565b6001846040518082805190602001908083835b60208310611ba15780518252602082019150602081019050602083039250611b7e565b6001836020036101000a03801982511681845116808217855250505050505090500191505090815260200160405180910390206000016040518060a00160405290816000820160009054906101000a900473ffffffffffffffffffffffffffffffffffffffff1673ffffffffffffffffffffffffffffffffffffffff1673ffffffffffffffffffffffffffffffffffffffff168152602001600182018054600181600116156101000203166002900480601f016020809104026020016040519081016040528092919081815260200182805460018160011615610100020316600290048015611cd15780601f10611ca657610100808354040283529160200191611cd1565b820191906000526020600020905b815481529060010190602001808311611cb457829003601f168201915b50505050508152602001600282018054600181600116156101000203166002900480601f016020809104026020016040519081016040528092919081815260200182805460018160011615610100020316600290048015611d735780601f10611d4857610100808354040283529160200191611d73565b820191906000526020600020905b815481529060010190602001808311611d5657829003601f168201915b50505050508152602001600382018054600181600116156101000203166002900480601f016020809104026020016040519081016040528092919081815260200182805460018160011615610100020316600290048015611e155780601f10611dea57610100808354040283529160200191611e15565b820191906000526020600020905b815481529060010190602001808311611df857829003601f168201915b50505050508152602001600482018054600181600116156101000203166002900480601f016020809104026020016040519081016040528092919081815260200182805460018160011615610100020316600290048015611eb75780601f10611e8c57610100808354040283529160200191611eb7565b820191906000526020600020905b815481529060010190602001808311611e9a57829003601f168201915b5050505050815250509050826040516020018082805190602001908083835b60208310611ef95780518252602082019150602081019050602083039250611ed6565b6001836020036101000a0380198251168184511680821785525050505050509050019150506040516020818303038152906040528051906020012081608001516040516020018082805190602001908083835b60208310611f6f5780518252602082019150602081019050602083039250611f4c565b6001836020036101000a038019825116818451168082178552505050505050905001915050604051602081830303815290604052805190602001201491505092915050565b6040518060a001604052803373ffffffffffffffffffffffffffffffffffffffff168152602001858152602001848152602001838152602001828152506001846040518082805190602001908083835b602083106120275780518252602082019150602081019050602083039250612004565b6001836020036101000a038019825116818451168082178552505050505050905001915050908152602001604051809103902060000160008201518160000160006101000a81548173ffffffffffffffffffffffffffffffffffffffff021916908373ffffffffffffffffffffffffffffffffffffffff16021790555060208201518160010190805190602001906120c0929190612b55565b5060408201518160020190805190602001906120dd929190612b55565b5060608201518160030190805190602001906120fa929190612b55565b506080820151816004019080519060200190612117929190612b55565b50905050336000846040518082805190602001908083835b60208310612152578051825260208201915060208101905060208303925061212f565b6001836020036101000a038019825116818451168082178552505050505050905001915050908152602001604051809103902060006101000a81548173ffffffffffffffffffffffffffffffffffffffff021916908373ffffffffffffffffffffffffffffffffffffffff1602179055507f018b729007b12778ed503e400556113a91191a1cd9f17a22387db8e25fa67d558385336040518080602001806020018473ffffffffffffffffffffffffffffffffffffffff1673ffffffffffffffffffffffffffffffffffffffff168152602001838103835286818151815260200191508051906020019080838360005b8381101561225d578082015181840152602081019050612242565b50505050905090810190601f16801561228a5780820380516001836020036101000a031916815260200191505b50838103825285818151815260200191508051906020019080838360005b838110156122c35780820151818401526020810190506122a8565b50505050905090810190601f1680156122f05780820380516001836020036101000a031916815260200191505b509550505050505060405180910390a150505050565b606080606060008073ffffffffffffffffffffffffffffffffffffffff166000866040518082805190602001908083835b6020831061235a5780518252602082019150602081019050602083039250612337565b6001836020036101000a038019825116818451168082178552505050505050905001915050908152602001604051809103902060009054906101000a900473ffffffffffffffffffffffffffffffffffffffff1673ffffffffffffffffffffffffffffffffffffffff161415612438576040517f08c379a00000000000000000000000000000000000000000000000000000000081526004018080602001828103825260148152602001807f44697370656e73617279206e6f7420666f756e6400000000000000000000000081525060200191505060405180910390fd5b60006001866040518082805190602001908083835b60208310612470578051825260208201915060208101905060208303925061244d565b6001836020036101000a038019825116818451168082178552505050505050905001915050908152602001604051809103902090508060000160010181600001600201826000016003018360000160000160009054906101000a900473ffffffffffffffffffffffffffffffffffffffff16838054600181600116156101000203166002900480601f0160208091040260200160405190810160405280929190818152602001828054600181600116156101000203166002900480156125775780601f1061254c57610100808354040283529160200191612577565b820191906000526020600020905b81548152906001019060200180831161255a57829003601f168201915b50505050509350828054600181600116156101000203166002900480601f0160208091040260200160405190810160405280929190818152602001828054600181600116156101000203166002900480156126135780601f106125e857610100808354040283529160200191612613565b820191906000526020600020905b8154815290600101906020018083116125f657829003601f168201915b50505050509250818054600181600116156101000203166002900480601f0160208091040260200160405190810160405280929190818152602001828054600181600116156101000203166002900480156126af5780601f10612684576101008083540402835291602001916126af565b820191906000526020600020905b81548152906001019060200180831161269257829003601f168201915b505050505091509450945094509450509193509193565b600073ffffffffffffffffffffffffffffffffffffffff166000856040518082805190602001908083835b6020831061271457805182526020820191506020810190506020830392506126f1565b6001836020036101000a038019825116818451168082178552505050505050905001915050908152602001604051809103902060009054906101000a900473ffffffffffffffffffffffffffffffffffffffff1673ffffffffffffffffffffffffffffffffffffffff1614156127f2576040517f08c379a00000000000000000000000000000000000000000000000000000000081526004018080602001828103825260148152602001807f44697370656e73617279206e6f7420666f756e6400000000000000000000000081525060200191505060405180910390fd5b6040518060600160405280848152602001838152602001828152506001856040518082805190602001908083835b602083106128435780518252602082019150602081019050602083039250612820565b6001836020036101000a03801982511681845116808217855250505050505090500191505090815260200160405180910390206009016000820151816000019080519060200190612895929190612b55565b5060208201518160010190805190602001906128b2929190612b55565b5060408201518160020190805190602001906128cf929190612b55565b5090505050505050565b600073ffffffffffffffffffffffffffffffffffffffff166000866040518082805190602001908083835b602083106129275780518252602082019150602081019050602083039250612904565b6001836020036101000a038019825116818451168082178552505050505050905001915050908152602001604051809103902060009054906101000a900473ffffffffffffffffffffffffffffffffffffffff1673ffffffffffffffffffffffffffffffffffffffff161415612a05576040517f08c379a00000000000000000000000000000000000000000000000000000000081526004018080602001828103825260148152602001807f44697370656e73617279206e6f7420666f756e6400000000000000000000000081525060200191505060405180910390fd5b6040518060800160405280858152602001848152602001838152602001828152506001866040518082805190602001908083835b60208310612a5c5780518252602082019150602081019050602083039250612a39565b6001836020036101000a03801982511681845116808217855250505050505090500191505090815260200160405180910390206005016000820151816000019080519060200190612aae929190612b55565b506020820151816001019080519060200190612acb929190612b55565b506040820151816002019080519060200190612ae8929190612b55565b506060820151816003019080519060200190612b05929190612b55565b509050505050505050565b6040518060a00160405280600073ffffffffffffffffffffffffffffffffffffffff168152602001606081526020016060815260200160608152602001606081525090565b828054600181600116156101000203166002900490600052602060002090601f016020900481019282601f10612b9657805160ff1916838001178555612bc4565b82800160010185558215612bc4579182015b82811115612bc3578251825591602001919060010190612ba8565b5b509050612bd19190612bd5565b5090565b612bf791905b80821115612bf3576000816000905550600101612bdb565b5090565b9056fea265627a7a7231582012c8685cf5fa5849f8690e54dd14a5da85cbba3834fccab07c8ae4ec6660833e64736f6c63430005100032",
  "source": "// SPDX-License-Identifier: MIT\r\npragma solidity ^0.5.16;\r\n\r\ncontract DispensaryRegistration {\r\n    struct dispensaryCredentials {\r\n        address walletAddress;\r\n        string dispensaryName;\r\n        string licenceNumber;\r\n        string email;\r\n        string password;\r\n    }\r\n\r\n    struct dispensaryOwnerDetails {\r\n        string ownerName;\r\n        string ownerPhoneNumber;\r\n        string ownerGender;\r\n        string age;\r\n    }\r\n\r\n    struct dispensaryContactDetails {\r\n        string contactNumber;\r\n        string dispensaryWebsite;\r\n        string operationalHours;\r\n    }\r\n\r\n    struct dispensary {\r\n        dispensaryCredentials credential;\r\n        dispensaryOwnerDetails ownerDetails;\r\n        dispensaryContactDetails contactDetails;\r\n    }\r\n\r\n    mapping(string => address) private dispensaryAddresses;\r\n    mapping(string => dispensary) private dispensaries;\r\n\r\n    event DiagnosticRegistered(string licenseNumber, string dispensaryName, address cryptoWalletAddress);\r\n\r\n    function registerDispensaryCredentials( \r\n        string memory _name, \r\n        string memory _licenseNumber, \r\n        string memory _email, \r\n        string memory _password \r\n    ) public {\r\n        dispensaries[_licenseNumber].credential = dispensaryCredentials({\r\n            walletAddress: msg.sender,\r\n            dispensaryName: _name,\r\n            licenceNumber: _licenseNumber,\r\n            email: _email,\r\n            password: _password\r\n        });\r\n\r\n        dispensaryAddresses[_licenseNumber] = msg.sender;\r\n        emit DiagnosticRegistered(_licenseNumber, _name, msg.sender);\r\n    }\r\n\r\n    function registerDispensaryOwnerDetails( \r\n        string memory _licenseNumber, \r\n        string memory _ownerName,\r\n        string memory _ownerPhoneNumber, \r\n        string memory _ownerGender, \r\n        string memory _age \r\n    ) public {\r\n        require(dispensaryAddresses[_licenseNumber] != address(0), \"Dispensary not found\");\r\n        dispensaries[_licenseNumber].ownerDetails = dispensaryOwnerDetails({\r\n            ownerName: _ownerName,\r\n            ownerPhoneNumber: _ownerPhoneNumber,\r\n            ownerGender: _ownerGender,\r\n            age: _age\r\n        });\r\n    }\r\n\r\n    function registerDispensaryContactDetails( \r\n        string memory _licenseNumber, \r\n        string memory _contactNumber, \r\n        string memory _dispensaryWebsite, \r\n        string memory _operationalHours \r\n    ) public {\r\n        require(dispensaryAddresses[_licenseNumber] != address(0), \"Dispensary not found\");\r\n        dispensaries[_licenseNumber].contactDetails = dispensaryContactDetails({\r\n            contactNumber: _contactNumber,\r\n            dispensaryWebsite: _dispensaryWebsite,\r\n            operationalHours: _operationalHours\r\n        });\r\n    }\r\n\r\n    function validatePassword(\r\n        string memory _licenseNumber, \r\n        string memory _password\r\n    ) public view returns (bool) {\r\n        require(dispensaryAddresses[_licenseNumber] != address(0), \"Dispensary not found\");\r\n        dispensaryCredentials memory credentials = dispensaries[_licenseNumber].credential;\r\n        return (keccak256(abi.encodePacked(credentials.password)) == keccak256(abi.encodePacked(_password)));\r\n    }\r\n\r\n    function isDispensaryRegistered(string memory _licenseNumber) public view returns (bool) {\r\n        return dispensaryAddresses[_licenseNumber] != address(0);\r\n    }\r\n\r\n    function getDispensaryCredentials(string memory _licenseNumber) public view returns ( string memory dispensaryName, string memory licenceNumber, string memory email, address walletAddress ) {\r\n        require(dispensaryAddresses[_licenseNumber] != address(0), \"Dispensary not found\");\r\n        dispensary storage d = dispensaries[_licenseNumber];\r\n        return (\r\n            d.credential.dispensaryName,\r\n            d.credential.licenceNumber,\r\n            d.credential.email,\r\n            d.credential.walletAddress\r\n        );\r\n    }\r\n\r\n    function getDispensaryOwnerDetails(string memory _licenseNumber) public view returns ( string memory ownerName, string memory ownerPhoneNumber, string memory ownerGender, string memory age ) {\r\n        require(dispensaryAddresses[_licenseNumber] != address(0), \"Dispensary not found\");\r\n        dispensary storage d = dispensaries[_licenseNumber];\r\n        return (\r\n            d.ownerDetails.ownerName,\r\n            d.ownerDetails.ownerPhoneNumber,\r\n            d.ownerDetails.ownerGender,\r\n            d.ownerDetails.age\r\n        );\r\n    }\r\n\r\n    function getDispensaryContactDetails(string memory _licenseNumber) public view returns ( string memory contactNumber, string memory dispensaryWebsite, string memory operationalHours ) {\r\n        require(dispensaryAddresses[_licenseNumber] != address(0), \"Dispensary not found\");\r\n        dispensary storage d = dispensaries[_licenseNumber];\r\n        return (\r\n            d.contactDetails.contactNumber,\r\n            d.contactDetails.dispensaryWebsite,\r\n            d.contactDetails.operationalHours\r\n        );\r\n    }\r\n}",
  "sourcePath": "C:\\Users\\Aman\\Desktop\\GITHUB\\WellWise_Core\\src\\contracts\\DispensaryRegistration.sol",
  "compiler": {
    "name": "solc",
    "version": "0.5.16+commit.9c3226ce.Emscripten.clang"
  },
  "schemaVersion": "3.4.16",
  "updatedAt": "2025-01-11T07:46:54.393Z",
  "networkType": "ethereum",
  "devdoc": {
    "methods": {}
  },
  "userdoc": {
    "methods": {}
  }
}