{
  "contractName": "DispensaryRegistration",
  "abi": [
    {
      "anonymous": false,
      "inputs": [
        {
          "indexed": false,
          "internalType": "string",
          "name": "licenseNumber",
          "type": "string"
        },
        {
          "indexed": false,
          "internalType": "string",
          "name": "dispensaryName",
          "type": "string"
        },
        {
          "indexed": false,
          "internalType": "address",
          "name": "cryptoWalletAddress",
          "type": "address"
        }
      ],
      "name": "DiagnosticRegistered",
      "type": "event"
    },
    {
      "constant": false,
      "inputs": [
        {
          "internalType": "address",
          "name": "_cryptoWalletAddress",
          "type": "address"
        },
        {
          "internalType": "string",
          "name": "_name",
          "type": "string"
        },
        {
          "internalType": "string",
          "name": "_licenseNumber",
          "type": "string"
        },
        {
          "internalType": "string",
          "name": "_email",
          "type": "string"
        },
        {
          "internalType": "string",
          "name": "_password",
          "type": "string"
        }
      ],
      "name": "registerDispensaryCredentials",
      "outputs": [],
      "payable": false,
      "stateMutability": "nonpayable",
      "type": "function"
    },
    {
      "constant": false,
      "inputs": [
        {
          "internalType": "string",
          "name": "_licenseNumber",
          "type": "string"
        },
        {
          "internalType": "string",
          "name": "_ownerName",
          "type": "string"
        },
        {
          "internalType": "string",
          "name": "_ownerEmail",
          "type": "string"
        },
        {
          "internalType": "uint256",
          "name": "_ownerPhoneNumber",
          "type": "uint256"
        },
        {
          "internalType": "string",
          "name": "_ownerGender",
          "type": "string"
        },
        {
          "internalType": "uint256",
          "name": "_age",
          "type": "uint256"
        }
      ],
      "name": "registerDispensaryOwnerDetails",
      "outputs": [],
      "payable": false,
      "stateMutability": "nonpayable",
      "type": "function"
    },
    {
      "constant": false,
      "inputs": [
        {
          "internalType": "string",
          "name": "_licenseNumber",
          "type": "string"
        },
        {
          "internalType": "uint256",
          "name": "_contactNumber",
          "type": "uint256"
        },
        {
          "internalType": "string",
          "name": "_dispensaryWebsite",
          "type": "string"
        },
        {
          "internalType": "string",
          "name": "_operationalHours",
          "type": "string"
        }
      ],
      "name": "registerDispensaryContactDetails",
      "outputs": [],
      "payable": false,
      "stateMutability": "nonpayable",
      "type": "function"
    },
    {
      "constant": true,
      "inputs": [
        {
          "internalType": "string",
          "name": "_licenseNumber",
          "type": "string"
        },
        {
          "internalType": "string",
          "name": "_password",
          "type": "string"
        }
      ],
      "name": "validatePassword",
      "outputs": [
        {
          "internalType": "bool",
          "name": "",
          "type": "bool"
        }
      ],
      "payable": false,
      "stateMutability": "view",
      "type": "function"
    },
    {
      "constant": true,
      "inputs": [
        {
          "internalType": "string",
          "name": "_licenseNumber",
          "type": "string"
        }
      ],
      "name": "isDispensaryRegistered",
      "outputs": [
        {
          "internalType": "bool",
          "name": "",
          "type": "bool"
        }
      ],
      "payable": false,
      "stateMutability": "view",
      "type": "function"
    },
    {
      "constant": true,
      "inputs": [
        {
          "internalType": "string",
          "name": "_licenseNumber",
          "type": "string"
        }
      ],
      "name": "getDispensaryCredentials",
      "outputs": [
        {
          "internalType": "string",
          "name": "dispensaryName",
          "type": "string"
        },
        {
          "internalType": "string",
          "name": "licenceNumber",
          "type": "string"
        },
        {
          "internalType": "string",
          "name": "email",
          "type": "string"
        },
        {
          "internalType": "address",
          "name": "walletAddress",
          "type": "address"
        }
      ],
      "payable": false,
      "stateMutability": "view",
      "type": "function"
    },
    {
      "constant": true,
      "inputs": [
        {
          "internalType": "string",
          "name": "_licenseNumber",
          "type": "string"
        }
      ],
      "name": "getDispensaryOwnerDetails",
      "outputs": [
        {
          "internalType": "string",
          "name": "ownerName",
          "type": "string"
        },
        {
          "internalType": "string",
          "name": "ownerEmail",
          "type": "string"
        },
        {
          "internalType": "uint256",
          "name": "ownerPhoneNumber",
          "type": "uint256"
        },
        {
          "internalType": "string",
          "name": "ownerGender",
          "type": "string"
        },
        {
          "internalType": "uint256",
          "name": "age",
          "type": "uint256"
        }
      ],
      "payable": false,
      "stateMutability": "view",
      "type": "function"
    },
    {
      "constant": true,
      "inputs": [
        {
          "internalType": "string",
          "name": "_licenseNumber",
          "type": "string"
        }
      ],
      "name": "getDispensaryContactDetails",
      "outputs": [
        {
          "internalType": "uint256",
          "name": "contactNumber",
          "type": "uint256"
        },
        {
          "internalType": "string",
          "name": "dispensaryWebsite",
          "type": "string"
        },
        {
          "internalType": "string",
          "name": "operationalHours",
          "type": "string"
        }
      ],
      "payable": false,
      "stateMutability": "view",
      "type": "function"
    }
  ],
  "bytecode": "0x608060405234801561001057600080fd5b50612940806100206000396000f3fe608060405234801561001057600080fd5b50600436106100885760003560e01c8063717ecf171161005b578063717ecf17146107145780637babdb26146109a85780637cc238f814610b12578063da31450114610d5157610088565b806307cea7351461008d578063096337af146102345780634a7689a41461044e57806360de856914610521575b600080fd5b610146600480360360208110156100a357600080fd5b81019080803590602001906401000000008111156100c057600080fd5b8201836020820111156100d257600080fd5b803590602001918460018302840111640100000000831117156100f457600080fd5b91908080601f016020809104026020016040519081016040528093929190818152602001838380828437600081840152601f19601f820116905080830192505050505050509192919290505050610ff1565b604051808481526020018060200180602001838103835285818151815260200191508051906020019080838360005b83811015610190578082015181840152602081019050610175565b50505050905090810190601f1680156101bd5780820380516001836020036101000a031916815260200191505b50838103825284818151815260200191508051906020019080838360005b838110156101f65780820151818401526020810190506101db565b50505050905090810190601f1680156102235780820380516001836020036101000a031916815260200191505b509550505050505060405180910390f35b6102ed6004803603602081101561024a57600080fd5b810190808035906020019064010000000081111561026757600080fd5b82018360208201111561027957600080fd5b8035906020019184600183028401116401000000008311171561029b57600080fd5b91908080601f016020809104026020016040519081016040528093929190818152602001838380828437600081840152601f19601f8201169050808301925050505050505091929192905050506112eb565b60405180806020018060200186815260200180602001858152602001848103845289818151815260200191508051906020019080838360005b83811015610341578082015181840152602081019050610326565b50505050905090810190601f16801561036e5780820380516001836020036101000a031916815260200191505b50848103835288818151815260200191508051906020019080838360005b838110156103a757808201518184015260208101905061038c565b50505050905090810190601f1680156103d45780820380516001836020036101000a031916815260200191505b50848103825286818151815260200191508051906020019080838360005b8381101561040d5780820151818401526020810190506103f2565b50505050905090810190601f16801561043a5780820380516001836020036101000a031916815260200191505b509850505050505050505060405180910390f35b6105076004803603602081101561046457600080fd5b810190808035906020019064010000000081111561048157600080fd5b82018360208201111561049357600080fd5b803590602001918460018302840111640100000000831117156104b557600080fd5b91908080601f016020809104026020016040519081016040528093929190818152602001838380828437600081840152601f19601f820116905080830192505050505050509192919290505050611699565b604051808215151515815260200191505060405180910390f35b6107126004803603608081101561053757600080fd5b810190808035906020019064010000000081111561055457600080fd5b82018360208201111561056657600080fd5b8035906020019184600183028401116401000000008311171561058857600080fd5b91908080601f016020809104026020016040519081016040528093929190818152602001838380828437600081840152601f19601f82011690508083019250505050505050919291929080359060200190929190803590602001906401000000008111156105f557600080fd5b82018360208201111561060757600080fd5b8035906020019184600183028401116401000000008311171561062957600080fd5b91908080601f016020809104026020016040519081016040528093929190818152602001838380828437600081840152601f19601f8201169050808301925050505050505091929192908035906020019064010000000081111561068c57600080fd5b82018360208201111561069e57600080fd5b803590602001918460018302840111640100000000831117156106c057600080fd5b91908080601f016020809104026020016040519081016040528093929190818152602001838380828437600081840152601f19601f82011690508083019250505050505050919291929050505061175b565b005b6109a6600480360360c081101561072a57600080fd5b810190808035906020019064010000000081111561074757600080fd5b82018360208201111561075957600080fd5b8035906020019184600183028401116401000000008311171561077b57600080fd5b91908080601f016020809104026020016040519081016040528093929190818152602001838380828437600081840152601f19601f820116905080830192505050505050509192919290803590602001906401000000008111156107de57600080fd5b8201836020820111156107f057600080fd5b8035906020019184600183028401116401000000008311171561081257600080fd5b91908080601f016020809104026020016040519081016040528093929190818152602001838380828437600081840152601f19601f8201169050808301925050505050505091929192908035906020019064010000000081111561087557600080fd5b82018360208201111561088757600080fd5b803590602001918460018302840111640100000000831117156108a957600080fd5b91908080601f016020809104026020016040519081016040528093929190818152602001838380828437600081840152601f19601f820116905080830192505050505050509192919290803590602001909291908035906020019064010000000081111561091657600080fd5b82018360208201111561092857600080fd5b8035906020019184600183028401116401000000008311171561094a57600080fd5b91908080601f016020809104026020016040519081016040528093929190818152602001838380828437600081840152601f19601f8201169050808301925050505050505091929192908035906020019092919050505061195b565b005b610af8600480360360408110156109be57600080fd5b81019080803590602001906401000000008111156109db57600080fd5b8201836020820111156109ed57600080fd5b80359060200191846001830284011164010000000083111715610a0f57600080fd5b91908080601f016020809104026020016040519081016040528093929190818152602001838380828437600081840152601f19601f82011690508083019250505050505050919291929080359060200190640100000000811115610a7257600080fd5b820183602082011115610a8457600080fd5b80359060200191846001830284011164010000000083111715610aa657600080fd5b91908080601f016020809104026020016040519081016040528093929190818152602001838380828437600081840152601f19601f820116905080830192505050505050509192919290505050611b90565b604051808215151515815260200191505060405180910390f35b610bcb60048036036020811015610b2857600080fd5b8101908080359060200190640100000000811115610b4557600080fd5b820183602082011115610b5757600080fd5b80359060200191846001830284011164010000000083111715610b7957600080fd5b91908080601f016020809104026020016040519081016040528093929190818152602001838380828437600081840152601f19601f82011690508083019250505050505050919291929050505061210e565b604051808060200180602001806020018573ffffffffffffffffffffffffffffffffffffffff1673ffffffffffffffffffffffffffffffffffffffff168152602001848103845288818151815260200191508051906020019080838360005b83811015610c45578082015181840152602081019050610c2a565b50505050905090810190601f168015610c725780820380516001836020036101000a031916815260200191505b50848103835287818151815260200191508051906020019080838360005b83811015610cab578082015181840152602081019050610c90565b50505050905090810190601f168015610cd85780820380516001836020036101000a031916815260200191505b50848103825286818151815260200191508051906020019080838360005b83811015610d11578082015181840152602081019050610cf6565b50505050905090810190601f168015610d3e5780820380516001836020036101000a031916815260200191505b5097505050505050505060405180910390f35b610fef600480360360a0811015610d6757600080fd5b81019080803573ffffffffffffffffffffffffffffffffffffffff16906020019092919080359060200190640100000000811115610da457600080fd5b820183602082011115610db657600080fd5b80359060200191846001830284011164010000000083111715610dd857600080fd5b91908080601f016020809104026020016040519081016040528093929190818152602001838380828437600081840152601f19601f82011690508083019250505050505050919291929080359060200190640100000000811115610e3b57600080fd5b820183602082011115610e4d57600080fd5b80359060200191846001830284011164010000000083111715610e6f57600080fd5b91908080601f016020809104026020016040519081016040528093929190818152602001838380828437600081840152601f19601f82011690508083019250505050505050919291929080359060200190640100000000811115610ed257600080fd5b820183602082011115610ee457600080fd5b80359060200191846001830284011164010000000083111715610f0657600080fd5b91908080601f016020809104026020016040519081016040528093929190818152602001838380828437600081840152601f19601f82011690508083019250505050505050919291929080359060200190640100000000811115610f6957600080fd5b820183602082011115610f7b57600080fd5b80359060200191846001830284011164010000000083111715610f9d57600080fd5b91908080601f016020809104026020016040519081016040528093929190818152602001838380828437600081840152601f19601f8201169050808301925050505050505091929192905050506124ce565b005b6000606080600073ffffffffffffffffffffffffffffffffffffffff166000856040518082805190602001908083835b602083106110445780518252602082019150602081019050602083039250611021565b6001836020036101000a038019825116818451168082178552505050505050905001915050908152602001604051809103902060009054906101000a900473ffffffffffffffffffffffffffffffffffffffff1673ffffffffffffffffffffffffffffffffffffffff161415611122576040517f08c379a00000000000000000000000000000000000000000000000000000000081526004018080602001828103825260148152602001807f44697370656e73617279206e6f7420666f756e6400000000000000000000000081525060200191505060405180910390fd5b60006001856040518082805190602001908083835b6020831061115a5780518252602082019150602081019050602083039250611137565b6001836020036101000a0380198251168184511680821785525050505050509050019150509081526020016040518091039020905080600a016000015481600a0160010182600a01600201818054600181600116156101000203166002900480601f01602080910402602001604051908101604052809291908181526020018280546001816001161561010002031660029004801561123a5780601f1061120f5761010080835404028352916020019161123a565b820191906000526020600020905b81548152906001019060200180831161121d57829003601f168201915b50505050509150808054600181600116156101000203166002900480601f0160208091040260200160405190810160405280929190818152602001828054600181600116156101000203166002900480156112d65780601f106112ab576101008083540402835291602001916112d6565b820191906000526020600020905b8154815290600101906020018083116112b957829003601f168201915b50505050509050935093509350509193909250565b6060806000606060008073ffffffffffffffffffffffffffffffffffffffff166000876040518082805190602001908083835b60208310611341578051825260208201915060208101905060208303925061131e565b6001836020036101000a038019825116818451168082178552505050505050905001915050908152602001604051809103902060009054906101000a900473ffffffffffffffffffffffffffffffffffffffff1673ffffffffffffffffffffffffffffffffffffffff16141561141f576040517f08c379a00000000000000000000000000000000000000000000000000000000081526004018080602001828103825260148152602001807f44697370656e73617279206e6f7420666f756e6400000000000000000000000081525060200191505060405180910390fd5b60006001876040518082805190602001908083835b602083106114575780518252602082019150602081019050602083039250611434565b6001836020036101000a0380198251168184511680821785525050505050509050019150509081526020016040518091039020905080600501600001816005016001018260050160020154836005016003018460050160040154848054600181600116156101000203166002900480601f0160208091040260200160405190810160405280929190818152602001828054600181600116156101000203166002900480156115465780601f1061151b57610100808354040283529160200191611546565b820191906000526020600020905b81548152906001019060200180831161152957829003601f168201915b50505050509450838054600181600116156101000203166002900480601f0160208091040260200160405190810160405280929190818152602001828054600181600116156101000203166002900480156115e25780601f106115b7576101008083540402835291602001916115e2565b820191906000526020600020905b8154815290600101906020018083116115c557829003601f168201915b50505050509350818054600181600116156101000203166002900480601f01602080910402602001604051908101604052809291908181526020018280546001816001161561010002031660029004801561167e5780601f106116535761010080835404028352916020019161167e565b820191906000526020600020905b81548152906001019060200180831161166157829003601f168201915b50505050509150955095509550955095505091939590929450565b60008073ffffffffffffffffffffffffffffffffffffffff166000836040518082805190602001908083835b602083106116e857805182526020820191506020810190506020830392506116c5565b6001836020036101000a038019825116818451168082178552505050505050905001915050908152602001604051809103902060009054906101000a900473ffffffffffffffffffffffffffffffffffffffff1673ffffffffffffffffffffffffffffffffffffffff1614159050919050565b600073ffffffffffffffffffffffffffffffffffffffff166000856040518082805190602001908083835b602083106117a95780518252602082019150602081019050602083039250611786565b6001836020036101000a038019825116818451168082178552505050505050905001915050908152602001604051809103902060009054906101000a900473ffffffffffffffffffffffffffffffffffffffff1673ffffffffffffffffffffffffffffffffffffffff161415611887576040517f08c379a00000000000000000000000000000000000000000000000000000000081526004018080602001828103825260148152602001807f44697370656e73617279206e6f7420666f756e6400000000000000000000000081525060200191505060405180910390fd5b6040518060600160405280848152602001838152602001828152506001856040518082805190602001908083835b602083106118d857805182526020820191506020810190506020830392506118b5565b6001836020036101000a0380198251168184511680821785525050505050509050019150509081526020016040518091039020600a01600082015181600001556020820151816001019080519060200190611934929190612821565b506040820151816002019080519060200190611951929190612821565b5090505050505050565b600073ffffffffffffffffffffffffffffffffffffffff166000876040518082805190602001908083835b602083106119a95780518252602082019150602081019050602083039250611986565b6001836020036101000a038019825116818451168082178552505050505050905001915050908152602001604051809103902060009054906101000a900473ffffffffffffffffffffffffffffffffffffffff1673ffffffffffffffffffffffffffffffffffffffff161415611a87576040517f08c379a00000000000000000000000000000000000000000000000000000000081526004018080602001828103825260148152602001807f44697370656e73617279206e6f7420666f756e6400000000000000000000000081525060200191505060405180910390fd5b6040518060a00160405280868152602001858152602001848152602001838152602001828152506001876040518082805190602001908083835b60208310611ae45780518252602082019150602081019050602083039250611ac1565b6001836020036101000a03801982511681845116808217855250505050505090500191505090815260200160405180910390206005016000820151816000019080519060200190611b36929190612821565b506020820151816001019080519060200190611b53929190612821565b50604082015181600201556060820151816003019080519060200190611b7a929190612821565b5060808201518160040155905050505050505050565b60008073ffffffffffffffffffffffffffffffffffffffff166000846040518082805190602001908083835b60208310611bdf5780518252602082019150602081019050602083039250611bbc565b6001836020036101000a038019825116818451168082178552505050505050905001915050908152602001604051809103902060009054906101000a900473ffffffffffffffffffffffffffffffffffffffff1673ffffffffffffffffffffffffffffffffffffffff161415611cbd576040517f08c379a00000000000000000000000000000000000000000000000000000000081526004018080602001828103825260148152602001807f44697370656e73617279206e6f7420666f756e6400000000000000000000000081525060200191505060405180910390fd5b611cc56128a1565b6001846040518082805190602001908083835b60208310611cfb5780518252602082019150602081019050602083039250611cd8565b6001836020036101000a03801982511681845116808217855250505050505090500191505090815260200160405180910390206000016040518060a00160405290816000820160009054906101000a900473ffffffffffffffffffffffffffffffffffffffff1673ffffffffffffffffffffffffffffffffffffffff1673ffffffffffffffffffffffffffffffffffffffff168152602001600182018054600181600116156101000203166002900480601f016020809104026020016040519081016040528092919081815260200182805460018160011615610100020316600290048015611e2b5780601f10611e0057610100808354040283529160200191611e2b565b820191906000526020600020905b815481529060010190602001808311611e0e57829003601f168201915b50505050508152602001600282018054600181600116156101000203166002900480601f016020809104026020016040519081016040528092919081815260200182805460018160011615610100020316600290048015611ecd5780601f10611ea257610100808354040283529160200191611ecd565b820191906000526020600020905b815481529060010190602001808311611eb057829003601f168201915b50505050508152602001600382018054600181600116156101000203166002900480601f016020809104026020016040519081016040528092919081815260200182805460018160011615610100020316600290048015611f6f5780601f10611f4457610100808354040283529160200191611f6f565b820191906000526020600020905b815481529060010190602001808311611f5257829003601f168201915b50505050508152602001600482018054600181600116156101000203166002900480601f0160208091040260200160405190810160405280929190818152602001828054600181600116156101000203166002900480156120115780601f10611fe657610100808354040283529160200191612011565b820191906000526020600020905b815481529060010190602001808311611ff457829003601f168201915b5050505050815250509050826040516020018082805190602001908083835b602083106120535780518252602082019150602081019050602083039250612030565b6001836020036101000a0380198251168184511680821785525050505050509050019150506040516020818303038152906040528051906020012081608001516040516020018082805190602001908083835b602083106120c957805182526020820191506020810190506020830392506120a6565b6001836020036101000a038019825116818451168082178552505050505050905001915050604051602081830303815290604052805190602001201491505092915050565b606080606060008073ffffffffffffffffffffffffffffffffffffffff166000866040518082805190602001908083835b60208310612162578051825260208201915060208101905060208303925061213f565b6001836020036101000a038019825116818451168082178552505050505050905001915050908152602001604051809103902060009054906101000a900473ffffffffffffffffffffffffffffffffffffffff1673ffffffffffffffffffffffffffffffffffffffff161415612240576040517f08c379a00000000000000000000000000000000000000000000000000000000081526004018080602001828103825260148152602001807f44697370656e73617279206e6f7420666f756e6400000000000000000000000081525060200191505060405180910390fd5b60006001866040518082805190602001908083835b602083106122785780518252602082019150602081019050602083039250612255565b6001836020036101000a038019825116818451168082178552505050505050905001915050908152602001604051809103902090508060000160010181600001600201826000016003018360000160000160009054906101000a900473ffffffffffffffffffffffffffffffffffffffff16838054600181600116156101000203166002900480601f01602080910402602001604051908101604052809291908181526020018280546001816001161561010002031660029004801561237f5780601f106123545761010080835404028352916020019161237f565b820191906000526020600020905b81548152906001019060200180831161236257829003601f168201915b50505050509350828054600181600116156101000203166002900480601f01602080910402602001604051908101604052809291908181526020018280546001816001161561010002031660029004801561241b5780601f106123f05761010080835404028352916020019161241b565b820191906000526020600020905b8154815290600101906020018083116123fe57829003601f168201915b50505050509250818054600181600116156101000203166002900480601f0160208091040260200160405190810160405280929190818152602001828054600181600116156101000203166002900480156124b75780601f1061248c576101008083540402835291602001916124b7565b820191906000526020600020905b81548152906001019060200180831161249a57829003601f168201915b505050505091509450945094509450509193509193565b6040518060a001604052808673ffffffffffffffffffffffffffffffffffffffff168152602001858152602001848152602001838152602001828152506001846040518082805190602001908083835b60208310612541578051825260208201915060208101905060208303925061251e565b6001836020036101000a038019825116818451168082178552505050505050905001915050908152602001604051809103902060000160008201518160000160006101000a81548173ffffffffffffffffffffffffffffffffffffffff021916908373ffffffffffffffffffffffffffffffffffffffff16021790555060208201518160010190805190602001906125da929190612821565b5060408201518160020190805190602001906125f7929190612821565b506060820151816003019080519060200190612614929190612821565b506080820151816004019080519060200190612631929190612821565b50905050846000846040518082805190602001908083835b6020831061266c5780518252602082019150602081019050602083039250612649565b6001836020036101000a038019825116818451168082178552505050505050905001915050908152602001604051809103902060006101000a81548173ffffffffffffffffffffffffffffffffffffffff021916908373ffffffffffffffffffffffffffffffffffffffff1602179055507f018b729007b12778ed503e400556113a91191a1cd9f17a22387db8e25fa67d558385876040518080602001806020018473ffffffffffffffffffffffffffffffffffffffff1673ffffffffffffffffffffffffffffffffffffffff168152602001838103835286818151815260200191508051906020019080838360005b8381101561277757808201518184015260208101905061275c565b50505050905090810190601f1680156127a45780820380516001836020036101000a031916815260200191505b50838103825285818151815260200191508051906020019080838360005b838110156127dd5780820151818401526020810190506127c2565b50505050905090810190601f16801561280a5780820380516001836020036101000a031916815260200191505b509550505050505060405180910390a15050505050565b828054600181600116156101000203166002900490600052602060002090601f016020900481019282601f1061286257805160ff1916838001178555612890565b82800160010185558215612890579182015b8281111561288f578251825591602001919060010190612874565b5b50905061289d91906128e6565b5090565b6040518060a00160405280600073ffffffffffffffffffffffffffffffffffffffff168152602001606081526020016060815260200160608152602001606081525090565b61290891905b808211156129045760008160009055506001016128ec565b5090565b9056fea265627a7a723158204ba0106b3bdbc2a691f1c9f5a8e8a52b0ec82174ac54c169609baf0dd73eee7d64736f6c63430005100032",
  "source": "// SPDX-License-Identifier: MIT\r\npragma solidity ^0.5.16;\r\n\r\ncontract DispensaryRegistration {\r\n    struct dispensaryCredentials {\r\n        address walletAddress;\r\n        string dispensaryName;\r\n        string licenceNumber;\r\n        string email;\r\n        string password;\r\n    }\r\n\r\n    struct dispensaryOwnerDetails {\r\n        string ownerName;\r\n        string ownerEmail;\r\n        uint256 ownerPhoneNumber;\r\n        string ownerGender;\r\n        uint256 age;\r\n    }\r\n\r\n    struct dispensaryContactDetails {\r\n        uint256 contactNumber;\r\n        string dispensaryWebsite;\r\n        string operationalHours;\r\n    }\r\n\r\n    struct dispensary {\r\n        dispensaryCredentials credential;\r\n        dispensaryOwnerDetails ownerDetails;\r\n        dispensaryContactDetails contactDetails;\r\n    }\r\n\r\n    mapping(string => address) private dispensaryAddresses;\r\n    mapping(string => dispensary) private dispensaries;\r\n\r\n    event DiagnosticRegistered(string licenseNumber, string dispensaryName, address cryptoWalletAddress);\r\n\r\n    function registerDispensaryCredentials( address _cryptoWalletAddress, string memory _name, string memory _licenseNumber, string memory _email, string memory _password ) public {\r\n        dispensaries[_licenseNumber].credential = dispensaryCredentials({\r\n            walletAddress: _cryptoWalletAddress,\r\n            dispensaryName: _name,\r\n            licenceNumber: _licenseNumber,\r\n            email: _email,\r\n            password: _password\r\n        });\r\n\r\n        dispensaryAddresses[_licenseNumber] = _cryptoWalletAddress;\r\n        emit DiagnosticRegistered(_licenseNumber, _name, _cryptoWalletAddress);\r\n    }\r\n\r\n    function registerDispensaryOwnerDetails( string memory _licenseNumber, string memory _ownerName, string memory _ownerEmail, uint256 _ownerPhoneNumber, string memory _ownerGender, uint256 _age ) public {\r\n        require(dispensaryAddresses[_licenseNumber] != address(0), \"Dispensary not found\");\r\n        dispensaries[_licenseNumber].ownerDetails = dispensaryOwnerDetails({\r\n            ownerName: _ownerName,\r\n            ownerEmail: _ownerEmail,\r\n            ownerPhoneNumber: _ownerPhoneNumber,\r\n            ownerGender: _ownerGender,\r\n            age: _age\r\n        });\r\n    }\r\n\r\n    function registerDispensaryContactDetails( string memory _licenseNumber, uint256 _contactNumber, string memory _dispensaryWebsite, string memory _operationalHours ) public {\r\n        require(dispensaryAddresses[_licenseNumber] != address(0), \"Dispensary not found\");\r\n        dispensaries[_licenseNumber].contactDetails = dispensaryContactDetails({\r\n            contactNumber: _contactNumber,\r\n            dispensaryWebsite: _dispensaryWebsite,\r\n            operationalHours: _operationalHours\r\n        });\r\n    }\r\n\r\n    function validatePassword(string memory _licenseNumber, string memory _password) public view returns (bool) {\r\n        require(dispensaryAddresses[_licenseNumber] != address(0), \"Dispensary not found\");\r\n        dispensaryCredentials memory credentials = dispensaries[_licenseNumber].credential;\r\n        return (keccak256(abi.encodePacked(credentials.password)) == keccak256(abi.encodePacked(_password)));\r\n    }\r\n\r\n    function isDispensaryRegistered(string memory _licenseNumber) public view returns (bool) {\r\n        return dispensaryAddresses[_licenseNumber] != address(0);\r\n    }\r\n\r\n    function getDispensaryCredentials(string memory _licenseNumber) public view returns ( string memory dispensaryName, string memory licenceNumber, string memory email, address walletAddress ) {\r\n        require(dispensaryAddresses[_licenseNumber] != address(0), \"Dispensary not found\");\r\n        dispensary storage d = dispensaries[_licenseNumber];\r\n        return (\r\n            d.credential.dispensaryName,\r\n            d.credential.licenceNumber,\r\n            d.credential.email,\r\n            d.credential.walletAddress\r\n        );\r\n    }\r\n\r\n    function getDispensaryOwnerDetails(string memory _licenseNumber) public view returns ( string memory ownerName, string memory ownerEmail, uint256 ownerPhoneNumber, string memory ownerGender, uint256 age ) {\r\n        require(dispensaryAddresses[_licenseNumber] != address(0), \"Dispensary not found\");\r\n        dispensary storage d = dispensaries[_licenseNumber];\r\n        return (\r\n            d.ownerDetails.ownerName,\r\n            d.ownerDetails.ownerEmail,\r\n            d.ownerDetails.ownerPhoneNumber,\r\n            d.ownerDetails.ownerGender,\r\n            d.ownerDetails.age\r\n        );\r\n    }\r\n\r\n    function getDispensaryContactDetails(string memory _licenseNumber) public view returns ( uint256 contactNumber, string memory dispensaryWebsite, string memory operationalHours ) {\r\n        require(dispensaryAddresses[_licenseNumber] != address(0), \"Dispensary not found\");\r\n        dispensary storage d = dispensaries[_licenseNumber];\r\n        return (\r\n            d.contactDetails.contactNumber,\r\n            d.contactDetails.dispensaryWebsite,\r\n            d.contactDetails.operationalHours\r\n        );\r\n    }\r\n}",
  "sourcePath": "C:\\Users\\Aman\\Desktop\\GITHUB\\WellWise_Core\\src\\contracts\\DispensaryRegistration.sol",
  "compiler": {
    "name": "solc",
    "version": "0.5.16+commit.9c3226ce.Emscripten.clang"
  },
  "schemaVersion": "3.4.16",
  "updatedAt": "2024-12-26T13:54:43.759Z",
  "networkType": "ethereum",
  "devdoc": {
    "methods": {}
  },
  "userdoc": {
    "methods": {}
  }
}