{
  "contractName": "DoctorRegistration",
  "abi": [
    {
      "anonymous": false,
      "inputs": [
        {
          "indexed": false,
          "internalType": "string",
          "name": "licenseNumber",
          "type": "string"
        },
        {
          "indexed": false,
          "internalType": "string",
          "name": "doctorName",
          "type": "string"
        },
        {
          "indexed": false,
          "internalType": "address",
          "name": "cryptoWalletAddress",
          "type": "address"
        }
      ],
      "name": "DoctorRegistered",
      "type": "event"
    },
    {
      "anonymous": false,
      "inputs": [
        {
          "indexed": false,
          "internalType": "string",
          "name": "doctorNumber",
          "type": "string"
        },
        {
          "indexed": false,
          "internalType": "string",
          "name": "patientNumber",
          "type": "string"
        },
        {
          "indexed": false,
          "internalType": "string",
          "name": "patientName",
          "type": "string"
        }
      ],
      "name": "PatientPermissionGranted",
      "type": "event"
    },
    {
      "constant": true,
      "inputs": [
        {
          "internalType": "string",
          "name": "",
          "type": "string"
        },
        {
          "internalType": "string",
          "name": "",
          "type": "string"
        }
      ],
      "name": "doctorPermissions",
      "outputs": [
        {
          "internalType": "bool",
          "name": "",
          "type": "bool"
        }
      ],
      "payable": false,
      "stateMutability": "view",
      "type": "function"
    },
    {
      "constant": false,
      "inputs": [
        {
          "internalType": "string",
          "name": "_doctorName",
          "type": "string"
        },
        {
          "internalType": "string",
          "name": "_hospitalName",
          "type": "string"
        },
        {
          "internalType": "string",
          "name": "_gender",
          "type": "string"
        },
        {
          "internalType": "string",
          "name": "_email",
          "type": "string"
        },
        {
          "internalType": "string",
          "name": "_licenseNumber",
          "type": "string"
        },
        {
          "internalType": "string",
          "name": "_specialization",
          "type": "string"
        },
        {
          "internalType": "string",
          "name": "_password",
          "type": "string"
        }
      ],
      "name": "registerDoctor",
      "outputs": [],
      "payable": false,
      "stateMutability": "nonpayable",
      "type": "function"
    },
    {
      "constant": true,
      "inputs": [
        {
          "internalType": "string",
          "name": "_licenseNumber",
          "type": "string"
        }
      ],
      "name": "isRegisteredDoctor",
      "outputs": [
        {
          "internalType": "bool",
          "name": "",
          "type": "bool"
        }
      ],
      "payable": false,
      "stateMutability": "view",
      "type": "function"
    },
    {
      "constant": true,
      "inputs": [
        {
          "internalType": "string",
          "name": "_licenseNumber",
          "type": "string"
        }
      ],
      "name": "getDoctorDetails",
      "outputs": [
        {
          "internalType": "address",
          "name": "",
          "type": "address"
        },
        {
          "internalType": "string",
          "name": "",
          "type": "string"
        },
        {
          "internalType": "string",
          "name": "",
          "type": "string"
        },
        {
          "internalType": "string",
          "name": "",
          "type": "string"
        },
        {
          "internalType": "string",
          "name": "",
          "type": "string"
        },
        {
          "internalType": "string",
          "name": "",
          "type": "string"
        }
      ],
      "payable": false,
      "stateMutability": "view",
      "type": "function"
    },
    {
      "constant": true,
      "inputs": [
        {
          "internalType": "string",
          "name": "_licenseNumber",
          "type": "string"
        },
        {
          "internalType": "string",
          "name": "_password",
          "type": "string"
        }
      ],
      "name": "validatePassword",
      "outputs": [
        {
          "internalType": "bool",
          "name": "",
          "type": "bool"
        }
      ],
      "payable": false,
      "stateMutability": "view",
      "type": "function"
    },
    {
      "constant": false,
      "inputs": [
        {
          "internalType": "string",
          "name": "_patientNumber",
          "type": "string"
        },
        {
          "internalType": "string",
          "name": "_doctorNumber",
          "type": "string"
        },
        {
          "internalType": "string",
          "name": "_patientName",
          "type": "string"
        }
      ],
      "name": "grantPermission",
      "outputs": [],
      "payable": false,
      "stateMutability": "nonpayable",
      "type": "function"
    },
    {
      "constant": true,
      "inputs": [
        {
          "internalType": "string",
          "name": "_patientNumber",
          "type": "string"
        },
        {
          "internalType": "string",
          "name": "_doctorNumber",
          "type": "string"
        }
      ],
      "name": "isPermissionGranted",
      "outputs": [
        {
          "internalType": "bool",
          "name": "",
          "type": "bool"
        }
      ],
      "payable": false,
      "stateMutability": "view",
      "type": "function"
    },
    {
      "constant": false,
      "inputs": [
        {
          "internalType": "string",
          "name": "_patientNumber",
          "type": "string"
        },
        {
          "internalType": "string",
          "name": "_doctorNumber",
          "type": "string"
        }
      ],
      "name": "revokePermission",
      "outputs": [],
      "payable": false,
      "stateMutability": "nonpayable",
      "type": "function"
    },
    {
      "constant": true,
      "inputs": [
        {
          "internalType": "string",
          "name": "_doctorNumber",
          "type": "string"
        }
      ],
      "name": "getPatientCount",
      "outputs": [
        {
          "internalType": "uint256",
          "name": "",
          "type": "uint256"
        }
      ],
      "payable": false,
      "stateMutability": "view",
      "type": "function"
    },
    {
      "constant": true,
      "inputs": [
        {
          "internalType": "string",
          "name": "_doctorNumber",
          "type": "string"
        },
        {
          "internalType": "uint256",
          "name": "index",
          "type": "uint256"
        }
      ],
      "name": "getPatientByIndex",
      "outputs": [
        {
          "internalType": "string",
          "name": "",
          "type": "string"
        },
        {
          "internalType": "string",
          "name": "",
          "type": "string"
        }
      ],
      "payable": false,
      "stateMutability": "view",
      "type": "function"
    }
  ],
  "bytecode": "0x608060405234801561001057600080fd5b5061318d806100206000396000f3fe608060405234801561001057600080fd5b506004361061009e5760003560e01c80638c69059c116100665780638c69059c14610cbc578063a46bef1514610e66578063ac5f9fd014610f39578063d120c10c1461108b578063f2ccf15c146111f55761009e565b80630d7c3ea0146100a35780633e769767146104e857806344334733146107ff5780635df67040146109695780637babdb2614610b52575b600080fd5b6104e6600480360360e08110156100b957600080fd5b81019080803590602001906401000000008111156100d657600080fd5b8201836020820111156100e857600080fd5b8035906020019184600183028401116401000000008311171561010a57600080fd5b91908080601f016020809104026020016040519081016040528093929190818152602001838380828437600081840152601f19601f8201169050808301925050505050505091929192908035906020019064010000000081111561016d57600080fd5b82018360208201111561017f57600080fd5b803590602001918460018302840111640100000000831117156101a157600080fd5b91908080601f016020809104026020016040519081016040528093929190818152602001838380828437600081840152601f19601f8201169050808301925050505050505091929192908035906020019064010000000081111561020457600080fd5b82018360208201111561021657600080fd5b8035906020019184600183028401116401000000008311171561023857600080fd5b91908080601f016020809104026020016040519081016040528093929190818152602001838380828437600081840152601f19601f8201169050808301925050505050505091929192908035906020019064010000000081111561029b57600080fd5b8201836020820111156102ad57600080fd5b803590602001918460018302840111640100000000831117156102cf57600080fd5b91908080601f016020809104026020016040519081016040528093929190818152602001838380828437600081840152601f19601f8201169050808301925050505050505091929192908035906020019064010000000081111561033257600080fd5b82018360208201111561034457600080fd5b8035906020019184600183028401116401000000008311171561036657600080fd5b91908080601f016020809104026020016040519081016040528093929190818152602001838380828437600081840152601f19601f820116905080830192505050505050509192919290803590602001906401000000008111156103c957600080fd5b8201836020820111156103db57600080fd5b803590602001918460018302840111640100000000831117156103fd57600080fd5b91908080601f016020809104026020016040519081016040528093929190818152602001838380828437600081840152601f19601f8201169050808301925050505050505091929192908035906020019064010000000081111561046057600080fd5b82018360208201111561047257600080fd5b8035906020019184600183028401116401000000008311171561049457600080fd5b91908080601f016020809104026020016040519081016040528093929190818152602001838380828437600081840152601f19601f8201169050808301925050505050505091929192905050506112c4565b005b6105a1600480360360208110156104fe57600080fd5b810190808035906020019064010000000081111561051b57600080fd5b82018360208201111561052d57600080fd5b8035906020019184600183028401116401000000008311171561054f57600080fd5b91908080601f016020809104026020016040519081016040528093929190818152602001838380828437600081840152601f19601f8201169050808301925050505050505091929192905050506117b7565b604051808773ffffffffffffffffffffffffffffffffffffffff1673ffffffffffffffffffffffffffffffffffffffff168152602001806020018060200180602001806020018060200186810386528b818151815260200191508051906020019080838360005b83811015610623578082015181840152602081019050610608565b50505050905090810190601f1680156106505780820380516001836020036101000a031916815260200191505b5086810385528a818151815260200191508051906020019080838360005b8381101561068957808201518184015260208101905061066e565b50505050905090810190601f1680156106b65780820380516001836020036101000a031916815260200191505b50868103845289818151815260200191508051906020019080838360005b838110156106ef5780820151818401526020810190506106d4565b50505050905090810190601f16801561071c5780820380516001836020036101000a031916815260200191505b50868103835288818151815260200191508051906020019080838360005b8381101561075557808201518184015260208101905061073a565b50505050905090810190601f1680156107825780820380516001836020036101000a031916815260200191505b50868103825287818151815260200191508051906020019080838360005b838110156107bb5780820151818401526020810190506107a0565b50505050905090810190601f1680156107e85780820380516001836020036101000a031916815260200191505b509b50505050505050505050505060405180910390f35b61094f6004803603604081101561081557600080fd5b810190808035906020019064010000000081111561083257600080fd5b82018360208201111561084457600080fd5b8035906020019184600183028401116401000000008311171561086657600080fd5b91908080601f016020809104026020016040519081016040528093929190818152602001838380828437600081840152601f19601f820116905080830192505050505050509192919290803590602001906401000000008111156108c957600080fd5b8201836020820111156108db57600080fd5b803590602001918460018302840111640100000000831117156108fd57600080fd5b91908080601f016020809104026020016040519081016040528093929190818152602001838380828437600081840152601f19601f820116905080830192505050505050509192919290505050611e73565b604051808215151515815260200191505060405180910390f35b610b506004803603606081101561097f57600080fd5b810190808035906020019064010000000081111561099c57600080fd5b8201836020820111156109ae57600080fd5b803590602001918460018302840111640100000000831117156109d057600080fd5b91908080601f016020809104026020016040519081016040528093929190818152602001838380828437600081840152601f19601f82011690508083019250505050505050919291929080359060200190640100000000811115610a3357600080fd5b820183602082011115610a4557600080fd5b80359060200191846001830284011164010000000083111715610a6757600080fd5b91908080601f016020809104026020016040519081016040528093929190818152602001838380828437600081840152601f19601f82011690508083019250505050505050919291929080359060200190640100000000811115610aca57600080fd5b820183602082011115610adc57600080fd5b80359060200191846001830284011164010000000083111715610afe57600080fd5b91908080601f016020809104026020016040519081016040528093929190818152602001838380828437600081840152601f19601f820116905080830192505050505050509192919290505050611ece565b005b610ca260048036036040811015610b6857600080fd5b8101908080359060200190640100000000811115610b8557600080fd5b820183602082011115610b9757600080fd5b80359060200191846001830284011164010000000083111715610bb957600080fd5b91908080601f016020809104026020016040519081016040528093929190818152602001838380828437600081840152601f19601f82011690508083019250505050505050919291929080359060200190640100000000811115610c1c57600080fd5b820183602082011115610c2e57600080fd5b80359060200191846001830284011164010000000083111715610c5057600080fd5b91908080601f016020809104026020016040519081016040528093929190818152602001838380828437600081840152601f19601f820116905080830192505050505050509192919290505050612224565b604051808215151515815260200191505060405180910390f35b610d7f60048036036040811015610cd257600080fd5b8101908080359060200190640100000000811115610cef57600080fd5b820183602082011115610d0157600080fd5b80359060200191846001830284011164010000000083111715610d2357600080fd5b91908080601f016020809104026020016040519081016040528093929190818152602001838380828437600081840152601f19601f820116905080830192505050505050509192919290803590602001909291905050506124b1565b604051808060200180602001838103835285818151815260200191508051906020019080838360005b83811015610dc3578082015181840152602081019050610da8565b50505050905090810190601f168015610df05780820380516001836020036101000a031916815260200191505b50838103825284818151815260200191508051906020019080838360005b83811015610e29578082015181840152602081019050610e0e565b50505050905090810190601f168015610e565780820380516001836020036101000a031916815260200191505b5094505050505060405180910390f35b610f1f60048036036020811015610e7c57600080fd5b8101908080359060200190640100000000811115610e9957600080fd5b820183602082011115610eab57600080fd5b80359060200191846001830284011164010000000083111715610ecd57600080fd5b91908080601f016020809104026020016040519081016040528093929190818152602001838380828437600081840152601f19601f82011690508083019250505050505050919291929050505061278c565b604051808215151515815260200191505060405180910390f35b61108960048036036040811015610f4f57600080fd5b8101908080359060200190640100000000811115610f6c57600080fd5b820183602082011115610f7e57600080fd5b80359060200191846001830284011164010000000083111715610fa057600080fd5b91908080601f016020809104026020016040519081016040528093929190818152602001838380828437600081840152601f19601f8201169050808301925050505050505091929192908035906020019064010000000081111561100357600080fd5b82018360208201111561101557600080fd5b8035906020019184600183028401116401000000008311171561103757600080fd5b91908080601f016020809104026020016040519081016040528093929190818152602001838380828437600081840152601f19601f82011690508083019250505050505050919291929050505061284e565b005b6111db600480360360408110156110a157600080fd5b81019080803590602001906401000000008111156110be57600080fd5b8201836020820111156110d057600080fd5b803590602001918460018302840111640100000000831117156110f257600080fd5b91908080601f016020809104026020016040519081016040528093929190818152602001838380828437600081840152601f19601f8201169050808301925050505050505091929192908035906020019064010000000081111561115557600080fd5b82018360208201111561116757600080fd5b8035906020019184600183028401116401000000008311171561118957600080fd5b91908080601f016020809104026020016040519081016040528093929190818152602001838380828437600081840152601f19601f820116905080830192505050505050509192919290505050612da0565b604051808215151515815260200191505060405180910390f35b6112ae6004803603602081101561120b57600080fd5b810190808035906020019064010000000081111561122857600080fd5b82018360208201111561123a57600080fd5b8035906020019184600183028401116401000000008311171561125c57600080fd5b91908080601f016020809104026020016040519081016040528093929190818152602001838380828437600081840152601f19601f820116905080830192505050505050509192919290505050612e88565b6040518082815260200191505060405180910390f35b600073ffffffffffffffffffffffffffffffffffffffff166000846040518082805190602001908083835b6020831061131257805182526020820191506020810190506020830392506112ef565b6001836020036101000a038019825116818451168082178552505050505050905001915050908152602001604051809103902060009054906101000a900473ffffffffffffffffffffffffffffffffffffffff1673ffffffffffffffffffffffffffffffffffffffff16146113ef576040517f08c379a00000000000000000000000000000000000000000000000000000000081526004018080602001828103825260198152602001807f446f63746f7220616c726561647920726567697374657265640000000000000081525060200191505060405180910390fd5b6113f7612efe565b6040518061010001604052803373ffffffffffffffffffffffffffffffffffffffff168152602001898152602001878152602001888152602001848152602001858152602001868152602001838152509050806001856040518082805190602001908083835b60208310611480578051825260208201915060208101905060208303925061145d565b6001836020036101000a038019825116818451168082178552505050505050905001915050908152602001604051809103902060008201518160000160006101000a81548173ffffffffffffffffffffffffffffffffffffffff021916908373ffffffffffffffffffffffffffffffffffffffff1602179055506020820151816001019080519060200190611516929190612f59565b506040820151816002019080519060200190611533929190612f59565b506060820151816003019080519060200190611550929190612f59565b50608082015181600401908051906020019061156d929190612f59565b5060a082015181600501908051906020019061158a929190612f59565b5060c08201518160060190805190602001906115a7929190612f59565b5060e08201518160070190805190602001906115c4929190612f59565b50905050336000856040518082805190602001908083835b602083106115ff57805182526020820191506020810190506020830392506115dc565b6001836020036101000a038019825116818451168082178552505050505050905001915050908152602001604051809103902060006101000a81548173ffffffffffffffffffffffffffffffffffffffff021916908373ffffffffffffffffffffffffffffffffffffffff1602179055507f8d3f9c8a09dcd94bc9c847110caac40824996b777a45809b38b82b9aa3f71ec88489336040518080602001806020018473ffffffffffffffffffffffffffffffffffffffff1673ffffffffffffffffffffffffffffffffffffffff168152602001838103835286818151815260200191508051906020019080838360005b8381101561170a5780820151818401526020810190506116ef565b50505050905090810190601f1680156117375780820380516001836020036101000a031916815260200191505b50838103825285818151815260200191508051906020019080838360005b83811015611770578082015181840152602081019050611755565b50505050905090810190601f16801561179d5780820380516001836020036101000a031916815260200191505b509550505050505060405180910390a15050505050505050565b60006060806060806060600073ffffffffffffffffffffffffffffffffffffffff166000886040518082805190602001908083835b6020831061180f57805182526020820191506020810190506020830392506117ec565b6001836020036101000a038019825116818451168082178552505050505050905001915050908152602001604051809103902060009054906101000a900473ffffffffffffffffffffffffffffffffffffffff1673ffffffffffffffffffffffffffffffffffffffff1614156118ed576040517f08c379a00000000000000000000000000000000000000000000000000000000081526004018080602001828103825260158152602001807f446f63746f72206e6f742072656769737465726564000000000000000000000081525060200191505060405180910390fd5b6118f5612efe565b6001886040518082805190602001908083835b6020831061192b5780518252602082019150602081019050602083039250611908565b6001836020036101000a0380198251168184511680821785525050505050509050019150509081526020016040518091039020604051806101000160405290816000820160009054906101000a900473ffffffffffffffffffffffffffffffffffffffff1673ffffffffffffffffffffffffffffffffffffffff1673ffffffffffffffffffffffffffffffffffffffff168152602001600182018054600181600116156101000203166002900480601f016020809104026020016040519081016040528092919081815260200182805460018160011615610100020316600290048015611a595780601f10611a2e57610100808354040283529160200191611a59565b820191906000526020600020905b815481529060010190602001808311611a3c57829003601f168201915b50505050508152602001600282018054600181600116156101000203166002900480601f016020809104026020016040519081016040528092919081815260200182805460018160011615610100020316600290048015611afb5780601f10611ad057610100808354040283529160200191611afb565b820191906000526020600020905b815481529060010190602001808311611ade57829003601f168201915b50505050508152602001600382018054600181600116156101000203166002900480601f016020809104026020016040519081016040528092919081815260200182805460018160011615610100020316600290048015611b9d5780601f10611b7257610100808354040283529160200191611b9d565b820191906000526020600020905b815481529060010190602001808311611b8057829003601f168201915b50505050508152602001600482018054600181600116156101000203166002900480601f016020809104026020016040519081016040528092919081815260200182805460018160011615610100020316600290048015611c3f5780601f10611c1457610100808354040283529160200191611c3f565b820191906000526020600020905b815481529060010190602001808311611c2257829003601f168201915b50505050508152602001600582018054600181600116156101000203166002900480601f016020809104026020016040519081016040528092919081815260200182805460018160011615610100020316600290048015611ce15780601f10611cb657610100808354040283529160200191611ce1565b820191906000526020600020905b815481529060010190602001808311611cc457829003601f168201915b50505050508152602001600682018054600181600116156101000203166002900480601f016020809104026020016040519081016040528092919081815260200182805460018160011615610100020316600290048015611d835780601f10611d5857610100808354040283529160200191611d83565b820191906000526020600020905b815481529060010190602001808311611d6657829003601f168201915b50505050508152602001600782018054600181600116156101000203166002900480601f016020809104026020016040519081016040528092919081815260200182805460018160011615610100020316600290048015611e255780601f10611dfa57610100808354040283529160200191611e25565b820191906000526020600020905b815481529060010190602001808311611e0857829003601f168201915b505050505081525050905080600001518160200151826060015183604001518460c0015185608001518494508393508292508191508090509650965096509650965096505091939550919395565b600382805160208101820180518482526020830160208501208183528095505050505050818051602081018201805184825260208301602085012081835280955050505050506000915091509054906101000a900460ff1681565b611ed6612fd9565b60405180604001604052808581526020018381525090506002836040518082805190602001908083835b60208310611f235780518252602082019150602081019050602083039250611f00565b6001836020036101000a038019825116818451168082178552505050505050905001915050908152602001604051809103902081908060018154018082558091505090600182039060005260206000209060020201600090919290919091506000820151816000019080519060200190611f9e929190612f59565b506020820151816001019080519060200190611fbb929190612f59565b5050505060016003856040518082805190602001908083835b60208310611ff75780518252602082019150602081019050602083039250611fd4565b6001836020036101000a0380198251168184511680821785525050505050509050019150509081526020016040518091039020846040518082805190602001908083835b6020831061205e578051825260208201915060208101905060208303925061203b565b6001836020036101000a038019825116818451168082178552505050505050905001915050908152602001604051809103902060006101000a81548160ff0219169083151502179055507ffa3dcc1da40ccbbcea4f3a831d7259493b2bad0ef7179d5519de55aa3eec5f4283858460405180806020018060200180602001848103845287818151815260200191508051906020019080838360005b838110156121145780820151818401526020810190506120f9565b50505050905090810190601f1680156121415780820380516001836020036101000a031916815260200191505b50848103835286818151815260200191508051906020019080838360005b8381101561217a57808201518184015260208101905061215f565b50505050905090810190601f1680156121a75780820380516001836020036101000a031916815260200191505b50848103825285818151815260200191508051906020019080838360005b838110156121e05780820151818401526020810190506121c5565b50505050905090810190601f16801561220d5780820380516001836020036101000a031916815260200191505b50965050505050505060405180910390a150505050565b60008073ffffffffffffffffffffffffffffffffffffffff166000846040518082805190602001908083835b602083106122735780518252602082019150602081019050602083039250612250565b6001836020036101000a038019825116818451168082178552505050505050905001915050908152602001604051809103902060009054906101000a900473ffffffffffffffffffffffffffffffffffffffff1673ffffffffffffffffffffffffffffffffffffffff161415612351576040517f08c379a00000000000000000000000000000000000000000000000000000000081526004018080602001828103825260158152602001807f446f63746f72206e6f742072656769737465726564000000000000000000000081525060200191505060405180910390fd5b6001836040518082805190602001908083835b602083106123875780518252602082019150602081019050602083039250612364565b6001836020036101000a0380198251168184511680821785525050505050509050019150509081526020016040518091039020600701604051602001808280546001816001161561010002031660029004801561241b5780601f106123f957610100808354040283529182019161241b565b820191906000526020600020905b815481529060010190602001808311612407575b505091505060405160208183030381529060405280519060200120826040516020018082805190602001908083835b6020831061246d578051825260208201915060208101905060208303925061244a565b6001836020036101000a0380198251168184511680821785525050505050509050019150506040516020818303038152906040528051906020012014905092915050565b6060806002846040518082805190602001908083835b602083106124ea57805182526020820191506020810190506020830392506124c7565b6001836020036101000a0380198251168184511680821785525050505050509050019150509081526020016040518091039020805490508310612595576040517f08c379a000000000000000000000000000000000000000000000000000000000815260040180806020018281038252600d8152602001807f496e76616c696420696e6465780000000000000000000000000000000000000081525060200191505060405180910390fd5b61259d612fd9565b6002856040518082805190602001908083835b602083106125d357805182526020820191506020810190506020830392506125b0565b6001836020036101000a0380198251168184511680821785525050505050509050019150509081526020016040518091039020848154811061261157fe5b9060005260206000209060020201604051806040016040529081600082018054600181600116156101000203166002900480601f0160208091040260200160405190810160405280929190818152602001828054600181600116156101000203166002900480156126c35780601f10612698576101008083540402835291602001916126c3565b820191906000526020600020905b8154815290600101906020018083116126a657829003601f168201915b50505050508152602001600182018054600181600116156101000203166002900480601f0160208091040260200160405190810160405280929190818152602001828054600181600116156101000203166002900480156127655780601f1061273a57610100808354040283529160200191612765565b820191906000526020600020905b81548152906001019060200180831161274857829003601f168201915b50505050508152505090508060000151816020015181915080905092509250509250929050565b60008073ffffffffffffffffffffffffffffffffffffffff166000836040518082805190602001908083835b602083106127db57805182526020820191506020810190506020830392506127b8565b6001836020036101000a038019825116818451168082178552505050505050905001915050908152602001604051809103902060009054906101000a900473ffffffffffffffffffffffffffffffffffffffff1673ffffffffffffffffffffffffffffffffffffffff1614159050919050565b60006003836040518082805190602001908083835b602083106128865780518252602082019150602081019050602083039250612863565b6001836020036101000a0380198251168184511680821785525050505050509050019150509081526020016040518091039020826040518082805190602001908083835b602083106128ed57805182526020820191506020810190506020830392506128ca565b6001836020036101000a038019825116818451168082178552505050505050905001915050908152602001604051809103902060006101000a81548160ff02191690831515021790555060008090505b6002826040518082805190602001908083835b602083106129735780518252602082019150602081019050602083039250612950565b6001836020036101000a038019825116818451168082178552505050505050905001915050908152602001604051809103902080549050811015612d9b57826040516020018082805190602001908083835b602083106129e857805182526020820191506020810190506020830392506129c5565b6001836020036101000a038019825116818451168082178552505050505050905001915050604051602081830303815290604052805190602001206002836040518082805190602001908083835b60208310612a595780518252602082019150602081019050602083039250612a36565b6001836020036101000a03801982511681845116808217855250505050505090500191505090815260200160405180910390208281548110612a9757fe5b90600052602060002090600202016000016040516020018082805460018160011615610100020316600290048015612b065780601f10612ae4576101008083540402835291820191612b06565b820191906000526020600020905b815481529060010190602001808311612af2575b5050915050604051602081830303815290604052805190602001201415612d8e5760008190505b60016002846040518082805190602001908083835b60208310612b655780518252602082019150602081019050602083039250612b42565b6001836020036101000a03801982511681845116808217855250505050505090500191505090815260200160405180910390208054905003811015612d0b576002836040518082805190602001908083835b60208310612bda5780518252602082019150602081019050602083039250612bb7565b6001836020036101000a03801982511681845116808217855250505050505090500191505090815260200160405180910390206001820181548110612c1b57fe5b90600052602060002090600202016002846040518082805190602001908083835b60208310612c5f5780518252602082019150602081019050602083039250612c3c565b6001836020036101000a03801982511681845116808217855250505050505090500191505090815260200160405180910390208281548110612c9d57fe5b906000526020600020906002020160008201816000019080546001816001161561010002031660029004612cd2929190612ff3565b5060018201816001019080546001816001161561010002031660029004612cfa929190612ff3565b509050508080600101915050612b2d565b506002826040518082805190602001908083835b60208310612d425780518252602082019150602081019050602083039250612d1f565b6001836020036101000a0380198251168184511680821785525050505050509050019150509081526020016040518091039020805480919060019003612d88919061307a565b50612d9b565b808060010191505061293d565b505050565b60006003836040518082805190602001908083835b60208310612dd85780518252602082019150602081019050602083039250612db5565b6001836020036101000a0380198251168184511680821785525050505050509050019150509081526020016040518091039020826040518082805190602001908083835b60208310612e3f5780518252602082019150602081019050602083039250612e1c565b6001836020036101000a038019825116818451168082178552505050505050905001915050908152602001604051809103902060009054906101000a900460ff16905092915050565b60006002826040518082805190602001908083835b60208310612ec05780518252602082019150602081019050602083039250612e9d565b6001836020036101000a0380198251168184511680821785525050505050509050019150509081526020016040518091039020805490509050919050565b604051806101000160405280600073ffffffffffffffffffffffffffffffffffffffff168152602001606081526020016060815260200160608152602001606081526020016060815260200160608152602001606081525090565b828054600181600116156101000203166002900490600052602060002090601f016020900481019282601f10612f9a57805160ff1916838001178555612fc8565b82800160010185558215612fc8579182015b82811115612fc7578251825591602001919060010190612fac565b5b509050612fd591906130ac565b5090565b604051806040016040528060608152602001606081525090565b828054600181600116156101000203166002900490600052602060002090601f016020900481019282601f1061302c5780548555613069565b8280016001018555821561306957600052602060002091601f016020900482015b8281111561306857825482559160010191906001019061304d565b5b50905061307691906130ac565b5090565b8154818355818111156130a7576002028160020283600052602060002091820191016130a691906130d1565b5b505050565b6130ce91905b808211156130ca5760008160009055506001016130b2565b5090565b90565b61310d91905b8082111561310957600080820160006130f09190613110565b6001820160006131009190613110565b506002016130d7565b5090565b90565b50805460018160011615610100020316600290046000825580601f106131365750613155565b601f01602090049060005260206000209081019061315491906130ac565b5b5056fea265627a7a7231582040972f5e7779c50352ae8d5e3caf7fa1280330ab54b8d02ed58d65dd5ca38a3f64736f6c63430005100032",
  "source": "// SPDX-License-Identifier: MIT\r\npragma solidity ^0.5.16;\r\n\r\ncontract DoctorRegistration {\r\n    struct Doctor {\r\n        address cryptoWalletAddress;\r\n        string doctorName;\r\n        string gender;\r\n        string hospitalName;\r\n        string specialization;\r\n        string licenseNumber;\r\n        string email;\r\n        string password;\r\n    }\r\n\r\n    struct PatientList {\r\n        string patient_number;\r\n        string patient_name;\r\n    }\r\n\r\n    mapping(string => address) private doctorAddresses;\r\n    mapping(string => Doctor) private doctors;\r\n    mapping(string => PatientList[]) private Dpermission;\r\n    mapping(string => mapping(string => bool)) public doctorPermissions;\r\n\r\n    event DoctorRegistered(string licenseNumber, string doctorName, address cryptoWalletAddress);\r\n    event PatientPermissionGranted(string doctorNumber, string patientNumber, string patientName);\r\n\r\n    function registerDoctor(\r\n        string memory _doctorName,\r\n        string memory _hospitalName,\r\n        string memory _gender,\r\n        string memory _email,\r\n        string memory _licenseNumber,\r\n        string memory _specialization,\r\n        string memory _password\r\n    ) public {\r\n        require(doctorAddresses[_licenseNumber] == address(0), \"Doctor already registered\");\r\n\r\n        Doctor memory newDoctor = Doctor({\r\n            cryptoWalletAddress: msg.sender,\r\n            doctorName: _doctorName,\r\n            hospitalName: _hospitalName,\r\n            gender: _gender,\r\n            email: _email,\r\n            licenseNumber: _licenseNumber,\r\n            specialization: _specialization,\r\n            password: _password\r\n        });\r\n\r\n        doctors[_licenseNumber] = newDoctor;\r\n        doctorAddresses[_licenseNumber] = msg.sender;\r\n        emit DoctorRegistered(_licenseNumber, _doctorName, msg.sender);\r\n    }\r\n\r\n    function isRegisteredDoctor(string memory _licenseNumber) public view returns (bool) {\r\n        return doctorAddresses[_licenseNumber] != address(0);\r\n    }\r\n\r\n    function getDoctorDetails(string memory _licenseNumber)\r\n        public\r\n        view\r\n        returns (\r\n            address,\r\n            string memory,\r\n            string memory,\r\n            string memory,\r\n            string memory,\r\n            string memory\r\n        )\r\n    {\r\n        require(doctorAddresses[_licenseNumber] != address(0), \"Doctor not registered\");\r\n        Doctor memory doctor = doctors[_licenseNumber];\r\n        return (\r\n            doctor.cryptoWalletAddress,\r\n            doctor.doctorName,\r\n            doctor.hospitalName,\r\n            doctor.gender,\r\n            doctor.email,\r\n            doctor.specialization\r\n        );\r\n    }\r\n\r\n    function validatePassword(string memory _licenseNumber, string memory _password) public view returns (bool) {\r\n        require(doctorAddresses[_licenseNumber] != address(0), \"Doctor not registered\");\r\n        return keccak256(abi.encodePacked(_password)) == keccak256(abi.encodePacked(doctors[_licenseNumber].password));\r\n    }\r\n\r\n    function grantPermission(\r\n        string memory _patientNumber,\r\n        string memory _doctorNumber,\r\n        string memory _patientName\r\n    ) public {\r\n        PatientList memory newRecord = PatientList({\r\n            patient_number: _patientNumber,\r\n            patient_name: _patientName\r\n        });\r\n        Dpermission[_doctorNumber].push(newRecord);\r\n        doctorPermissions[_patientNumber][_doctorNumber] = true;\r\n        emit PatientPermissionGranted(_doctorNumber, _patientNumber, _patientName);\r\n    }\r\n\r\n    function isPermissionGranted(string memory _patientNumber, string memory _doctorNumber) public view returns (bool) {\r\n        return doctorPermissions[_patientNumber][_doctorNumber];\r\n    }\r\n\r\n    function revokePermission(string memory _patientNumber, string memory _doctorNumber) public {\r\n        doctorPermissions[_patientNumber][_doctorNumber] = false;\r\n\r\n        for (uint i = 0; i < Dpermission[_doctorNumber].length; i++) {\r\n            if (\r\n                keccak256(abi.encodePacked(Dpermission[_doctorNumber][i].patient_number)) ==\r\n                keccak256(abi.encodePacked(_patientNumber))\r\n            ) {\r\n                for (uint j = i; j < Dpermission[_doctorNumber].length - 1; j++) {\r\n                    Dpermission[_doctorNumber][j] = Dpermission[_doctorNumber][j + 1];\r\n                }\r\n                Dpermission[_doctorNumber].length--;\r\n                break;\r\n            }\r\n        }\r\n    }\r\n\r\n    function getPatientCount(string memory _doctorNumber) public view returns (uint) {\r\n        return Dpermission[_doctorNumber].length;\r\n    }\r\n\r\n    function getPatientByIndex(string memory _doctorNumber, uint index)\r\n        public\r\n        view\r\n        returns (string memory, string memory)\r\n    {\r\n        require(index < Dpermission[_doctorNumber].length, \"Invalid index\");\r\n        PatientList memory patient = Dpermission[_doctorNumber][index];\r\n        return (patient.patient_number, patient.patient_name);\r\n    }\r\n}",
  "sourcePath": "C:\\Users\\Aman\\Desktop\\PROJECTS\\EHR\\src\\contracts\\DoctorRegistration.sol",
  "compiler": {
    "name": "solc",
    "version": "0.5.16+commit.9c3226ce.Emscripten.clang"
  },
  "schemaVersion": "3.4.16",
  "updatedAt": "2024-12-24T13:49:37.434Z",
  "networkType": "ethereum",
  "devdoc": {
    "methods": {}
  },
  "userdoc": {
    "methods": {}
  }
}