{
  "contractName": "DoctorRegistration",
  "abi": [
    {
      "anonymous": false,
      "inputs": [
        {
          "indexed": false,
          "internalType": "string",
          "name": "licenseNumber",
          "type": "string"
        },
        {
          "indexed": false,
          "internalType": "string",
          "name": "doctorName",
          "type": "string"
        },
        {
          "indexed": false,
          "internalType": "address",
          "name": "cryptoWalletAddress",
          "type": "address"
        }
      ],
      "name": "DoctorRegistered",
      "type": "event"
    },
    {
      "constant": false,
      "inputs": [
        {
          "internalType": "string",
          "name": "_name",
          "type": "string"
        },
        {
          "internalType": "string",
          "name": "_medicalLicenseNumber",
          "type": "string"
        },
        {
          "internalType": "string",
          "name": "_email",
          "type": "string"
        },
        {
          "internalType": "string",
          "name": "_password",
          "type": "string"
        }
      ],
      "name": "registerDoctorCredentials",
      "outputs": [],
      "payable": false,
      "stateMutability": "nonpayable",
      "type": "function"
    },
    {
      "constant": false,
      "inputs": [
        {
          "internalType": "string",
          "name": "_licenseNumber",
          "type": "string"
        },
        {
          "internalType": "string",
          "name": "_gender",
          "type": "string"
        },
        {
          "internalType": "uint256",
          "name": "_age",
          "type": "uint256"
        },
        {
          "internalType": "uint256",
          "name": "_date",
          "type": "uint256"
        },
        {
          "internalType": "uint256",
          "name": "_month",
          "type": "uint256"
        },
        {
          "internalType": "uint256",
          "name": "_year",
          "type": "uint256"
        },
        {
          "internalType": "bool",
          "name": "_maritalStatus",
          "type": "bool"
        }
      ],
      "name": "registerDoctorPersonalDetails",
      "outputs": [],
      "payable": false,
      "stateMutability": "nonpayable",
      "type": "function"
    },
    {
      "constant": false,
      "inputs": [
        {
          "internalType": "string",
          "name": "_licenseNumber",
          "type": "string"
        },
        {
          "internalType": "uint256",
          "name": "_contactNumber",
          "type": "uint256"
        },
        {
          "internalType": "string",
          "name": "_appartmentNumber",
          "type": "string"
        },
        {
          "internalType": "string",
          "name": "_street",
          "type": "string"
        },
        {
          "internalType": "string",
          "name": "_city",
          "type": "string"
        },
        {
          "internalType": "string",
          "name": "_state",
          "type": "string"
        },
        {
          "internalType": "string",
          "name": "_country",
          "type": "string"
        }
      ],
      "name": "registerDoctorContactDetails",
      "outputs": [],
      "payable": false,
      "stateMutability": "nonpayable",
      "type": "function"
    },
    {
      "constant": false,
      "inputs": [
        {
          "internalType": "string",
          "name": "_licenseNumber",
          "type": "string"
        },
        {
          "internalType": "string",
          "name": "_specialization",
          "type": "string"
        },
        {
          "internalType": "string",
          "name": "_highestQualification",
          "type": "string"
        },
        {
          "internalType": "uint256",
          "name": "_experience",
          "type": "uint256"
        },
        {
          "internalType": "string",
          "name": "_medicalSchool",
          "type": "string"
        },
        {
          "internalType": "uint256",
          "name": "_graduationYear",
          "type": "uint256"
        }
      ],
      "name": "registerDoctorEducationalDetails",
      "outputs": [],
      "payable": false,
      "stateMutability": "nonpayable",
      "type": "function"
    },
    {
      "constant": false,
      "inputs": [
        {
          "internalType": "string",
          "name": "_licenseNumber",
          "type": "string"
        },
        {
          "internalType": "string",
          "name": "_hospitalName",
          "type": "string"
        },
        {
          "internalType": "string",
          "name": "_designation",
          "type": "string"
        },
        {
          "internalType": "string",
          "name": "_department",
          "type": "string"
        },
        {
          "internalType": "uint256",
          "name": "_consultantFees",
          "type": "uint256"
        }
      ],
      "name": "registerDoctorProfessionalDetails",
      "outputs": [],
      "payable": false,
      "stateMutability": "nonpayable",
      "type": "function"
    },
    {
      "constant": true,
      "inputs": [
        {
          "internalType": "string",
          "name": "_licenseNumber",
          "type": "string"
        },
        {
          "internalType": "string",
          "name": "_password",
          "type": "string"
        }
      ],
      "name": "validatePassword",
      "outputs": [
        {
          "internalType": "bool",
          "name": "",
          "type": "bool"
        }
      ],
      "payable": false,
      "stateMutability": "view",
      "type": "function"
    },
    {
      "constant": true,
      "inputs": [
        {
          "internalType": "string",
          "name": "_licenseNumber",
          "type": "string"
        }
      ],
      "name": "isDoctorRegistered",
      "outputs": [
        {
          "internalType": "bool",
          "name": "",
          "type": "bool"
        }
      ],
      "payable": false,
      "stateMutability": "view",
      "type": "function"
    },
    {
      "constant": true,
      "inputs": [
        {
          "internalType": "string",
          "name": "_licenseNumber",
          "type": "string"
        }
      ],
      "name": "getDoctorCredentials",
      "outputs": [
        {
          "internalType": "string",
          "name": "doctorName",
          "type": "string"
        },
        {
          "internalType": "string",
          "name": "licenseNumber",
          "type": "string"
        },
        {
          "internalType": "string",
          "name": "email",
          "type": "string"
        },
        {
          "internalType": "address",
          "name": "walletAddress",
          "type": "address"
        }
      ],
      "payable": false,
      "stateMutability": "view",
      "type": "function"
    },
    {
      "constant": true,
      "inputs": [
        {
          "internalType": "string",
          "name": "_licenseNumber",
          "type": "string"
        }
      ],
      "name": "getDoctorPersonalDetails",
      "outputs": [
        {
          "internalType": "string",
          "name": "gender",
          "type": "string"
        },
        {
          "internalType": "uint256",
          "name": "age",
          "type": "uint256"
        },
        {
          "internalType": "uint256",
          "name": "date",
          "type": "uint256"
        },
        {
          "internalType": "uint256",
          "name": "month",
          "type": "uint256"
        },
        {
          "internalType": "uint256",
          "name": "year",
          "type": "uint256"
        },
        {
          "internalType": "bool",
          "name": "maritalStatus",
          "type": "bool"
        }
      ],
      "payable": false,
      "stateMutability": "view",
      "type": "function"
    },
    {
      "constant": true,
      "inputs": [
        {
          "internalType": "string",
          "name": "_licenseNumber",
          "type": "string"
        }
      ],
      "name": "getDoctorContactDetails",
      "outputs": [
        {
          "internalType": "uint256",
          "name": "contactNumber",
          "type": "uint256"
        },
        {
          "internalType": "string",
          "name": "appartmentNumber",
          "type": "string"
        },
        {
          "internalType": "string",
          "name": "street",
          "type": "string"
        },
        {
          "internalType": "string",
          "name": "city",
          "type": "string"
        },
        {
          "internalType": "string",
          "name": "state",
          "type": "string"
        },
        {
          "internalType": "string",
          "name": "country",
          "type": "string"
        }
      ],
      "payable": false,
      "stateMutability": "view",
      "type": "function"
    },
    {
      "constant": true,
      "inputs": [
        {
          "internalType": "string",
          "name": "_licenseNumber",
          "type": "string"
        }
      ],
      "name": "getDoctorEducationalDetails",
      "outputs": [
        {
          "internalType": "string",
          "name": "specialization",
          "type": "string"
        },
        {
          "internalType": "string",
          "name": "highestQualification",
          "type": "string"
        },
        {
          "internalType": "uint256",
          "name": "experience",
          "type": "uint256"
        },
        {
          "internalType": "string",
          "name": "medicalSchool",
          "type": "string"
        },
        {
          "internalType": "uint256",
          "name": "graduationYear",
          "type": "uint256"
        }
      ],
      "payable": false,
      "stateMutability": "view",
      "type": "function"
    },
    {
      "constant": true,
      "inputs": [
        {
          "internalType": "string",
          "name": "_licenseNumber",
          "type": "string"
        }
      ],
      "name": "getDoctorProfessionalDetails",
      "outputs": [
        {
          "internalType": "string",
          "name": "hospitalName",
          "type": "string"
        },
        {
          "internalType": "string",
          "name": "designation",
          "type": "string"
        },
        {
          "internalType": "string",
          "name": "department",
          "type": "string"
        },
        {
          "internalType": "uint256",
          "name": "consultantFees",
          "type": "uint256"
        }
      ],
      "payable": false,
      "stateMutability": "view",
      "type": "function"
    }
  ],
  "bytecode": "0x608060405234801561001057600080fd5b506140c0806100206000396000f3fe608060405234801561001057600080fd5b50600436106100b45760003560e01c80637babdb26116100715780637babdb2614610da65780639255f2f314610f105780639cf9d7491461106b578063c587701114611356578063cb5d3d83146115ea578063d283e0a71461186a576100b4565b806329d9da05146100b957806344a58d11146102cc57806350e6a63d14610556578063528bd8a2146106dc5780637662134314610a9457806377fc3e3614610cd3575b600080fd5b610172600480360360208110156100cf57600080fd5b81019080803590602001906401000000008111156100ec57600080fd5b8201836020820111156100fe57600080fd5b8035906020019184600183028401116401000000008311171561012057600080fd5b91908080601f016020809104026020016040519081016040528093929190818152602001838380828437600081840152601f19601f820116905080830192505050505050509192919290505050611a84565b60405180806020018060200180602001858152602001848103845288818151815260200191508051906020019080838360005b838110156101c05780820151818401526020810190506101a5565b50505050905090810190601f1680156101ed5780820380516001836020036101000a031916815260200191505b50848103835287818151815260200191508051906020019080838360005b8381101561022657808201518184015260208101905061020b565b50505050905090810190601f1680156102535780820380516001836020036101000a031916815260200191505b50848103825286818151815260200191508051906020019080838360005b8381101561028c578082015181840152602081019050610271565b50505050905090810190601f1680156102b95780820380516001836020036101000a031916815260200191505b5097505050505050505060405180910390f35b610554600480360360a08110156102e257600080fd5b81019080803590602001906401000000008111156102ff57600080fd5b82018360208201111561031157600080fd5b8035906020019184600183028401116401000000008311171561033357600080fd5b91908080601f016020809104026020016040519081016040528093929190818152602001838380828437600081840152601f19601f8201169050808301925050505050505091929192908035906020019064010000000081111561039657600080fd5b8201836020820111156103a857600080fd5b803590602001918460018302840111640100000000831117156103ca57600080fd5b91908080601f016020809104026020016040519081016040528093929190818152602001838380828437600081840152601f19601f8201169050808301925050505050505091929192908035906020019064010000000081111561042d57600080fd5b82018360208201111561043f57600080fd5b8035906020019184600183028401116401000000008311171561046157600080fd5b91908080601f016020809104026020016040519081016040528093929190818152602001838380828437600081840152601f19601f820116905080830192505050505050509192919290803590602001906401000000008111156104c457600080fd5b8201836020820111156104d657600080fd5b803590602001918460018302840111640100000000831117156104f857600080fd5b91908080601f016020809104026020016040519081016040528093929190818152602001838380828437600081840152601f19601f82011690508083019250505050505050919291929080359060200190929190505050611e24565b005b6106da600480360360e081101561056c57600080fd5b810190808035906020019064010000000081111561058957600080fd5b82018360208201111561059b57600080fd5b803590602001918460018302840111640100000000831117156105bd57600080fd5b91908080601f016020809104026020016040519081016040528093929190818152602001838380828437600081840152601f19601f8201169050808301925050505050505091929192908035906020019064010000000081111561062057600080fd5b82018360208201111561063257600080fd5b8035906020019184600183028401116401000000008311171561065457600080fd5b91908080601f016020809104026020016040519081016040528093929190818152602001838380828437600081840152601f19601f82011690508083019250505050505050919291929080359060200190929190803590602001909291908035906020019092919080359060200190929190803515159060200190929190505050612048565b005b610a92600480360360e08110156106f257600080fd5b810190808035906020019064010000000081111561070f57600080fd5b82018360208201111561072157600080fd5b8035906020019184600183028401116401000000008311171561074357600080fd5b91908080601f016020809104026020016040519081016040528093929190818152602001838380828437600081840152601f19601f82011690508083019250505050505050919291929080359060200190929190803590602001906401000000008111156107b057600080fd5b8201836020820111156107c257600080fd5b803590602001918460018302840111640100000000831117156107e457600080fd5b91908080601f016020809104026020016040519081016040528093929190818152602001838380828437600081840152601f19601f8201169050808301925050505050505091929192908035906020019064010000000081111561084757600080fd5b82018360208201111561085957600080fd5b8035906020019184600183028401116401000000008311171561087b57600080fd5b91908080601f016020809104026020016040519081016040528093929190818152602001838380828437600081840152601f19601f820116905080830192505050505050509192919290803590602001906401000000008111156108de57600080fd5b8201836020820111156108f057600080fd5b8035906020019184600183028401116401000000008311171561091257600080fd5b91908080601f016020809104026020016040519081016040528093929190818152602001838380828437600081840152601f19601f8201169050808301925050505050505091929192908035906020019064010000000081111561097557600080fd5b82018360208201111561098757600080fd5b803590602001918460018302840111640100000000831117156109a957600080fd5b91908080601f016020809104026020016040519081016040528093929190818152602001838380828437600081840152601f19601f82011690508083019250505050505050919291929080359060200190640100000000811115610a0c57600080fd5b820183602082011115610a1e57600080fd5b80359060200191846001830284011164010000000083111715610a4057600080fd5b91908080601f016020809104026020016040519081016040528093929190818152602001838380828437600081840152601f19601f820116905080830192505050505050509192919290505050612280565b005b610b4d60048036036020811015610aaa57600080fd5b8101908080359060200190640100000000811115610ac757600080fd5b820183602082011115610ad957600080fd5b80359060200191846001830284011164010000000083111715610afb57600080fd5b91908080601f016020809104026020016040519081016040528093929190818152602001838380828437600081840152601f19601f8201169050808301925050505050505091929192905050506124ec565b604051808060200180602001806020018573ffffffffffffffffffffffffffffffffffffffff1673ffffffffffffffffffffffffffffffffffffffff168152602001848103845288818151815260200191508051906020019080838360005b83811015610bc7578082015181840152602081019050610bac565b50505050905090810190601f168015610bf45780820380516001836020036101000a031916815260200191505b50848103835287818151815260200191508051906020019080838360005b83811015610c2d578082015181840152602081019050610c12565b50505050905090810190601f168015610c5a5780820380516001836020036101000a031916815260200191505b50848103825286818151815260200191508051906020019080838360005b83811015610c93578082015181840152602081019050610c78565b50505050905090810190601f168015610cc05780820380516001836020036101000a031916815260200191505b5097505050505050505060405180910390f35b610d8c60048036036020811015610ce957600080fd5b8101908080359060200190640100000000811115610d0657600080fd5b820183602082011115610d1857600080fd5b80359060200191846001830284011164010000000083111715610d3a57600080fd5b91908080601f016020809104026020016040519081016040528093929190818152602001838380828437600081840152601f19601f8201169050808301925050505050505091929192905050506128ac565b604051808215151515815260200191505060405180910390f35b610ef660048036036040811015610dbc57600080fd5b8101908080359060200190640100000000811115610dd957600080fd5b820183602082011115610deb57600080fd5b80359060200191846001830284011164010000000083111715610e0d57600080fd5b91908080601f016020809104026020016040519081016040528093929190818152602001838380828437600081840152601f19601f82011690508083019250505050505050919291929080359060200190640100000000811115610e7057600080fd5b820183602082011115610e8257600080fd5b80359060200191846001830284011164010000000083111715610ea457600080fd5b91908080601f016020809104026020016040519081016040528093929190818152602001838380828437600081840152601f19601f82011690508083019250505050505050919291929050505061296e565b604051808215151515815260200191505060405180910390f35b610fc960048036036020811015610f2657600080fd5b8101908080359060200190640100000000811115610f4357600080fd5b820183602082011115610f5557600080fd5b80359060200191846001830284011164010000000083111715610f7757600080fd5b91908080601f016020809104026020016040519081016040528093929190818152602001838380828437600081840152601f19601f820116905080830192505050505050509192919290505050612eec565b604051808060200187815260200186815260200185815260200184815260200183151515158152602001828103825288818151815260200191508051906020019080838360005b8381101561102b578082015181840152602081019050611010565b50505050905090810190601f1680156110585780820380516001836020036101000a031916815260200191505b5097505050505050505060405180910390f35b6111246004803603602081101561108157600080fd5b810190808035906020019064010000000081111561109e57600080fd5b8201836020820111156110b057600080fd5b803590602001918460018302840111640100000000831117156110d257600080fd5b91908080601f016020809104026020016040519081016040528093929190818152602001838380828437600081840152601f19601f82011690508083019250505050505050919291929050505061317c565b60405180878152602001806020018060200180602001806020018060200186810386528b818151815260200191508051906020019080838360005b8381101561117a57808201518184015260208101905061115f565b50505050905090810190601f1680156111a75780820380516001836020036101000a031916815260200191505b5086810385528a818151815260200191508051906020019080838360005b838110156111e05780820151818401526020810190506111c5565b50505050905090810190601f16801561120d5780820380516001836020036101000a031916815260200191505b50868103845289818151815260200191508051906020019080838360005b8381101561124657808201518184015260208101905061122b565b50505050905090810190601f1680156112735780820380516001836020036101000a031916815260200191505b50868103835288818151815260200191508051906020019080838360005b838110156112ac578082015181840152602081019050611291565b50505050905090810190601f1680156112d95780820380516001836020036101000a031916815260200191505b50868103825287818151815260200191508051906020019080838360005b838110156113125780820151818401526020810190506112f7565b50505050905090810190601f16801561133f5780820380516001836020036101000a031916815260200191505b509b50505050505050505050505060405180910390f35b6115e8600480360360c081101561136c57600080fd5b810190808035906020019064010000000081111561138957600080fd5b82018360208201111561139b57600080fd5b803590602001918460018302840111640100000000831117156113bd57600080fd5b91908080601f016020809104026020016040519081016040528093929190818152602001838380828437600081840152601f19601f8201169050808301925050505050505091929192908035906020019064010000000081111561142057600080fd5b82018360208201111561143257600080fd5b8035906020019184600183028401116401000000008311171561145457600080fd5b91908080601f016020809104026020016040519081016040528093929190818152602001838380828437600081840152601f19601f820116905080830192505050505050509192919290803590602001906401000000008111156114b757600080fd5b8201836020820111156114c957600080fd5b803590602001918460018302840111640100000000831117156114eb57600080fd5b91908080601f016020809104026020016040519081016040528093929190818152602001838380828437600081840152601f19601f820116905080830192505050505050509192919290803590602001909291908035906020019064010000000081111561155857600080fd5b82018360208201111561156a57600080fd5b8035906020019184600183028401116401000000008311171561158c57600080fd5b91908080601f016020809104026020016040519081016040528093929190818152602001838380828437600081840152601f19601f8201169050808301925050505050505091929192908035906020019092919050505061366c565b005b6118686004803603608081101561160057600080fd5b810190808035906020019064010000000081111561161d57600080fd5b82018360208201111561162f57600080fd5b8035906020019184600183028401116401000000008311171561165157600080fd5b91908080601f016020809104026020016040519081016040528093929190818152602001838380828437600081840152601f19601f820116905080830192505050505050509192919290803590602001906401000000008111156116b457600080fd5b8201836020820111156116c657600080fd5b803590602001918460018302840111640100000000831117156116e857600080fd5b91908080601f016020809104026020016040519081016040528093929190818152602001838380828437600081840152601f19601f8201169050808301925050505050505091929192908035906020019064010000000081111561174b57600080fd5b82018360208201111561175d57600080fd5b8035906020019184600183028401116401000000008311171561177f57600080fd5b91908080601f016020809104026020016040519081016040528093929190818152602001838380828437600081840152601f19601f820116905080830192505050505050509192919290803590602001906401000000008111156117e257600080fd5b8201836020820111156117f457600080fd5b8035906020019184600183028401116401000000008311171561181657600080fd5b91908080601f016020809104026020016040519081016040528093929190818152602001838380828437600081840152601f19601f8201169050808301925050505050505091929192905050506138a1565b005b6119236004803603602081101561188057600080fd5b810190808035906020019064010000000081111561189d57600080fd5b8201836020820111156118af57600080fd5b803590602001918460018302840111640100000000831117156118d157600080fd5b91908080601f016020809104026020016040519081016040528093929190818152602001838380828437600081840152601f19601f820116905080830192505050505050509192919290505050613bf3565b60405180806020018060200186815260200180602001858152602001848103845289818151815260200191508051906020019080838360005b8381101561197757808201518184015260208101905061195c565b50505050905090810190601f1680156119a45780820380516001836020036101000a031916815260200191505b50848103835288818151815260200191508051906020019080838360005b838110156119dd5780820151818401526020810190506119c2565b50505050905090810190601f168015611a0a5780820380516001836020036101000a031916815260200191505b50848103825286818151815260200191508051906020019080838360005b83811015611a43578082015181840152602081019050611a28565b50505050905090810190601f168015611a705780820380516001836020036101000a031916815260200191505b509850505050505050505060405180910390f35b606080606060008073ffffffffffffffffffffffffffffffffffffffff166000866040518082805190602001908083835b60208310611ad85780518252602082019150602081019050602083039250611ab5565b6001836020036101000a038019825116818451168082178552505050505050905001915050908152602001604051809103902060009054906101000a900473ffffffffffffffffffffffffffffffffffffffff1673ffffffffffffffffffffffffffffffffffffffff161415611bb6576040517f08c379a00000000000000000000000000000000000000000000000000000000081526004018080602001828103825260158152602001807f446f63746f72206e6f742072656769737465726564000000000000000000000081525060200191505060405180910390fd5b60006001866040518082805190602001908083835b60208310611bee5780518252602082019150602081019050602083039250611bcb565b6001836020036101000a038019825116818451168082178552505050505050905001915050908152602001604051809103902090508060160160000181601601600101826016016002018360160160030154838054600181600116156101000203166002900480601f016020809104026020016040519081016040528092919081815260200182805460018160011615610100020316600290048015611cd55780601f10611caa57610100808354040283529160200191611cd5565b820191906000526020600020905b815481529060010190602001808311611cb857829003601f168201915b50505050509350828054600181600116156101000203166002900480601f016020809104026020016040519081016040528092919081815260200182805460018160011615610100020316600290048015611d715780601f10611d4657610100808354040283529160200191611d71565b820191906000526020600020905b815481529060010190602001808311611d5457829003601f168201915b50505050509250818054600181600116156101000203166002900480601f016020809104026020016040519081016040528092919081815260200182805460018160011615610100020316600290048015611e0d5780601f10611de257610100808354040283529160200191611e0d565b820191906000526020600020905b815481529060010190602001808311611df057829003601f168201915b505050505091509450945094509450509193509193565b600073ffffffffffffffffffffffffffffffffffffffff166000866040518082805190602001908083835b60208310611e725780518252602082019150602081019050602083039250611e4f565b6001836020036101000a038019825116818451168082178552505050505050905001915050908152602001604051809103902060009054906101000a900473ffffffffffffffffffffffffffffffffffffffff1673ffffffffffffffffffffffffffffffffffffffff161415611f50576040517f08c379a00000000000000000000000000000000000000000000000000000000081526004018080602001828103825260108152602001807f446f63746f72206e6f7420666f756e640000000000000000000000000000000081525060200191505060405180910390fd5b6040518060800160405280858152602001848152602001838152602001828152506001866040518082805190602001908083835b60208310611fa75780518252602082019150602081019050602083039250611f84565b6001836020036101000a03801982511681845116808217855250505050505090500191505090815260200160405180910390206016016000820151816000019080519060200190611ff9929190613fa1565b506020820151816001019080519060200190612016929190613fa1565b506040820151816002019080519060200190612033929190613fa1565b50606082015181600301559050505050505050565b600073ffffffffffffffffffffffffffffffffffffffff166000886040518082805190602001908083835b602083106120965780518252602082019150602081019050602083039250612073565b6001836020036101000a038019825116818451168082178552505050505050905001915050908152602001604051809103902060009054906101000a900473ffffffffffffffffffffffffffffffffffffffff1673ffffffffffffffffffffffffffffffffffffffff161415612174576040517f08c379a00000000000000000000000000000000000000000000000000000000081526004018080602001828103825260108152602001807f446f63746f72206e6f7420666f756e640000000000000000000000000000000081525060200191505060405180910390fd5b6040518060c001604052808781526020018681526020018581526020018481526020018381526020018215158152506001886040518082805190602001908083835b602083106121d957805182526020820191506020810190506020830392506121b6565b6001836020036101000a0380198251168184511680821785525050505050509050019150509081526020016040518091039020600501600082015181600001908051906020019061222b929190613fa1565b506020820151816001015560408201518160020155606082015181600301556080820151816004015560a08201518160050160006101000a81548160ff02191690831515021790555090505050505050505050565b600073ffffffffffffffffffffffffffffffffffffffff166000886040518082805190602001908083835b602083106122ce57805182526020820191506020810190506020830392506122ab565b6001836020036101000a038019825116818451168082178552505050505050905001915050908152602001604051809103902060009054906101000a900473ffffffffffffffffffffffffffffffffffffffff1673ffffffffffffffffffffffffffffffffffffffff1614156123ac576040517f08c379a00000000000000000000000000000000000000000000000000000000081526004018080602001828103825260108152602001807f446f63746f72206e6f7420666f756e640000000000000000000000000000000081525060200191505060405180910390fd5b6040518060c00160405280878152602001868152602001858152602001848152602001838152602001828152506001886040518082805190602001908083835b6020831061240f57805182526020820191506020810190506020830392506123ec565b6001836020036101000a0380198251168184511680821785525050505050509050019150509081526020016040518091039020600b0160008201518160000155602082015181600101908051906020019061246b929190613fa1565b506040820151816002019080519060200190612488929190613fa1565b5060608201518160030190805190602001906124a5929190613fa1565b5060808201518160040190805190602001906124c2929190613fa1565b5060a08201518160050190805190602001906124df929190613fa1565b5090505050505050505050565b606080606060008073ffffffffffffffffffffffffffffffffffffffff166000866040518082805190602001908083835b60208310612540578051825260208201915060208101905060208303925061251d565b6001836020036101000a038019825116818451168082178552505050505050905001915050908152602001604051809103902060009054906101000a900473ffffffffffffffffffffffffffffffffffffffff1673ffffffffffffffffffffffffffffffffffffffff16141561261e576040517f08c379a00000000000000000000000000000000000000000000000000000000081526004018080602001828103825260158152602001807f446f63746f72206e6f742072656769737465726564000000000000000000000081525060200191505060405180910390fd5b60006001866040518082805190602001908083835b602083106126565780518252602082019150602081019050602083039250612633565b6001836020036101000a038019825116818451168082178552505050505050905001915050908152602001604051809103902090508060000160010181600001600201826000016003018360000160000160009054906101000a900473ffffffffffffffffffffffffffffffffffffffff16838054600181600116156101000203166002900480601f01602080910402602001604051908101604052809291908181526020018280546001816001161561010002031660029004801561275d5780601f106127325761010080835404028352916020019161275d565b820191906000526020600020905b81548152906001019060200180831161274057829003601f168201915b50505050509350828054600181600116156101000203166002900480601f0160208091040260200160405190810160405280929190818152602001828054600181600116156101000203166002900480156127f95780601f106127ce576101008083540402835291602001916127f9565b820191906000526020600020905b8154815290600101906020018083116127dc57829003601f168201915b50505050509250818054600181600116156101000203166002900480601f0160208091040260200160405190810160405280929190818152602001828054600181600116156101000203166002900480156128955780601f1061286a57610100808354040283529160200191612895565b820191906000526020600020905b81548152906001019060200180831161287857829003601f168201915b505050505091509450945094509450509193509193565b60008073ffffffffffffffffffffffffffffffffffffffff166000836040518082805190602001908083835b602083106128fb57805182526020820191506020810190506020830392506128d8565b6001836020036101000a038019825116818451168082178552505050505050905001915050908152602001604051809103902060009054906101000a900473ffffffffffffffffffffffffffffffffffffffff1673ffffffffffffffffffffffffffffffffffffffff1614159050919050565b60008073ffffffffffffffffffffffffffffffffffffffff166000846040518082805190602001908083835b602083106129bd578051825260208201915060208101905060208303925061299a565b6001836020036101000a038019825116818451168082178552505050505050905001915050908152602001604051809103902060009054906101000a900473ffffffffffffffffffffffffffffffffffffffff1673ffffffffffffffffffffffffffffffffffffffff161415612a9b576040517f08c379a00000000000000000000000000000000000000000000000000000000081526004018080602001828103825260108152602001807f446f63746f72206e6f7420666f756e640000000000000000000000000000000081525060200191505060405180910390fd5b612aa3614021565b6001846040518082805190602001908083835b60208310612ad95780518252602082019150602081019050602083039250612ab6565b6001836020036101000a03801982511681845116808217855250505050505090500191505090815260200160405180910390206000016040518060a00160405290816000820160009054906101000a900473ffffffffffffffffffffffffffffffffffffffff1673ffffffffffffffffffffffffffffffffffffffff1673ffffffffffffffffffffffffffffffffffffffff168152602001600182018054600181600116156101000203166002900480601f016020809104026020016040519081016040528092919081815260200182805460018160011615610100020316600290048015612c095780601f10612bde57610100808354040283529160200191612c09565b820191906000526020600020905b815481529060010190602001808311612bec57829003601f168201915b50505050508152602001600282018054600181600116156101000203166002900480601f016020809104026020016040519081016040528092919081815260200182805460018160011615610100020316600290048015612cab5780601f10612c8057610100808354040283529160200191612cab565b820191906000526020600020905b815481529060010190602001808311612c8e57829003601f168201915b50505050508152602001600382018054600181600116156101000203166002900480601f016020809104026020016040519081016040528092919081815260200182805460018160011615610100020316600290048015612d4d5780601f10612d2257610100808354040283529160200191612d4d565b820191906000526020600020905b815481529060010190602001808311612d3057829003601f168201915b50505050508152602001600482018054600181600116156101000203166002900480601f016020809104026020016040519081016040528092919081815260200182805460018160011615610100020316600290048015612def5780601f10612dc457610100808354040283529160200191612def565b820191906000526020600020905b815481529060010190602001808311612dd257829003601f168201915b5050505050815250509050826040516020018082805190602001908083835b60208310612e315780518252602082019150602081019050602083039250612e0e565b6001836020036101000a0380198251168184511680821785525050505050509050019150506040516020818303038152906040528051906020012081608001516040516020018082805190602001908083835b60208310612ea75780518252602082019150602081019050602083039250612e84565b6001836020036101000a038019825116818451168082178552505050505050905001915050604051602081830303815290604052805190602001201491505092915050565b606060008060008060008073ffffffffffffffffffffffffffffffffffffffff166000886040518082805190602001908083835b60208310612f435780518252602082019150602081019050602083039250612f20565b6001836020036101000a038019825116818451168082178552505050505050905001915050908152602001604051809103902060009054906101000a900473ffffffffffffffffffffffffffffffffffffffff1673ffffffffffffffffffffffffffffffffffffffff161415613021576040517f08c379a00000000000000000000000000000000000000000000000000000000081526004018080602001828103825260158152602001807f446f63746f72206e6f742072656769737465726564000000000000000000000081525060200191505060405180910390fd5b60006001886040518082805190602001908083835b602083106130595780518252602082019150602081019050602083039250613036565b6001836020036101000a038019825116818451168082178552505050505050905001915050908152602001604051809103902090508060050160000181600501600101548260050160020154836005016003015484600501600401548560050160050160009054906101000a900460ff16858054600181600116156101000203166002900480601f01602080910402602001604051908101604052809291908181526020018280546001816001161561010002031660029004801561315f5780601f106131345761010080835404028352916020019161315f565b820191906000526020600020905b81548152906001019060200180831161314257829003601f168201915b505050505095509650965096509650965096505091939550919395565b60006060806060806060600073ffffffffffffffffffffffffffffffffffffffff166000886040518082805190602001908083835b602083106131d457805182526020820191506020810190506020830392506131b1565b6001836020036101000a038019825116818451168082178552505050505050905001915050908152602001604051809103902060009054906101000a900473ffffffffffffffffffffffffffffffffffffffff1673ffffffffffffffffffffffffffffffffffffffff1614156132b2576040517f08c379a00000000000000000000000000000000000000000000000000000000081526004018080602001828103825260158152602001807f446f63746f72206e6f742072656769737465726564000000000000000000000081525060200191505060405180910390fd5b60006001886040518082805190602001908083835b602083106132ea57805182526020820191506020810190506020830392506132c7565b6001836020036101000a0380198251168184511680821785525050505050509050019150509081526020016040518091039020905080600b016000015481600b0160010182600b0160020183600b0160030184600b0160040185600b01600501848054600181600116156101000203166002900480601f0160208091040260200160405190810160405280929190818152602001828054600181600116156101000203166002900480156133df5780601f106133b4576101008083540402835291602001916133df565b820191906000526020600020905b8154815290600101906020018083116133c257829003601f168201915b50505050509450838054600181600116156101000203166002900480601f01602080910402602001604051908101604052809291908181526020018280546001816001161561010002031660029004801561347b5780601f106134505761010080835404028352916020019161347b565b820191906000526020600020905b81548152906001019060200180831161345e57829003601f168201915b50505050509350828054600181600116156101000203166002900480601f0160208091040260200160405190810160405280929190818152602001828054600181600116156101000203166002900480156135175780601f106134ec57610100808354040283529160200191613517565b820191906000526020600020905b8154815290600101906020018083116134fa57829003601f168201915b50505050509250818054600181600116156101000203166002900480601f0160208091040260200160405190810160405280929190818152602001828054600181600116156101000203166002900480156135b35780601f10613588576101008083540402835291602001916135b3565b820191906000526020600020905b81548152906001019060200180831161359657829003601f168201915b50505050509150808054600181600116156101000203166002900480601f01602080910402602001604051908101604052809291908181526020018280546001816001161561010002031660029004801561364f5780601f106136245761010080835404028352916020019161364f565b820191906000526020600020905b81548152906001019060200180831161363257829003601f168201915b505050505090509650965096509650965096505091939550919395565b600073ffffffffffffffffffffffffffffffffffffffff166000876040518082805190602001908083835b602083106136ba5780518252602082019150602081019050602083039250613697565b6001836020036101000a038019825116818451168082178552505050505050905001915050908152602001604051809103902060009054906101000a900473ffffffffffffffffffffffffffffffffffffffff1673ffffffffffffffffffffffffffffffffffffffff161415613798576040517f08c379a00000000000000000000000000000000000000000000000000000000081526004018080602001828103825260108152602001807f446f63746f72206e6f7420666f756e640000000000000000000000000000000081525060200191505060405180910390fd5b6040518060a00160405280868152602001858152602001848152602001838152602001828152506001876040518082805190602001908083835b602083106137f557805182526020820191506020810190506020830392506137d2565b6001836020036101000a03801982511681845116808217855250505050505090500191505090815260200160405180910390206011016000820151816000019080519060200190613847929190613fa1565b506020820151816001019080519060200190613864929190613fa1565b5060408201518160020155606082015181600301908051906020019061388b929190613fa1565b5060808201518160040155905050505050505050565b6040518060a001604052803373ffffffffffffffffffffffffffffffffffffffff168152602001858152602001848152602001838152602001828152506001846040518082805190602001908083835b6020831061391457805182526020820191506020810190506020830392506138f1565b6001836020036101000a038019825116818451168082178552505050505050905001915050908152602001604051809103902060000160008201518160000160006101000a81548173ffffffffffffffffffffffffffffffffffffffff021916908373ffffffffffffffffffffffffffffffffffffffff16021790555060208201518160010190805190602001906139ad929190613fa1565b5060408201518160020190805190602001906139ca929190613fa1565b5060608201518160030190805190602001906139e7929190613fa1565b506080820151816004019080519060200190613a04929190613fa1565b50905050336000846040518082805190602001908083835b60208310613a3f5780518252602082019150602081019050602083039250613a1c565b6001836020036101000a038019825116818451168082178552505050505050905001915050908152602001604051809103902060006101000a81548173ffffffffffffffffffffffffffffffffffffffff021916908373ffffffffffffffffffffffffffffffffffffffff1602179055507f8d3f9c8a09dcd94bc9c847110caac40824996b777a45809b38b82b9aa3f71ec88385336040518080602001806020018473ffffffffffffffffffffffffffffffffffffffff1673ffffffffffffffffffffffffffffffffffffffff168152602001838103835286818151815260200191508051906020019080838360005b83811015613b4a578082015181840152602081019050613b2f565b50505050905090810190601f168015613b775780820380516001836020036101000a031916815260200191505b50838103825285818151815260200191508051906020019080838360005b83811015613bb0578082015181840152602081019050613b95565b50505050905090810190601f168015613bdd5780820380516001836020036101000a031916815260200191505b509550505050505060405180910390a150505050565b6060806000606060008073ffffffffffffffffffffffffffffffffffffffff166000876040518082805190602001908083835b60208310613c495780518252602082019150602081019050602083039250613c26565b6001836020036101000a038019825116818451168082178552505050505050905001915050908152602001604051809103902060009054906101000a900473ffffffffffffffffffffffffffffffffffffffff1673ffffffffffffffffffffffffffffffffffffffff161415613d27576040517f08c379a00000000000000000000000000000000000000000000000000000000081526004018080602001828103825260158152602001807f446f63746f72206e6f742072656769737465726564000000000000000000000081525060200191505060405180910390fd5b60006001876040518082805190602001908083835b60208310613d5f5780518252602082019150602081019050602083039250613d3c565b6001836020036101000a0380198251168184511680821785525050505050509050019150509081526020016040518091039020905080601101600001816011016001018260110160020154836011016003018460110160040154848054600181600116156101000203166002900480601f016020809104026020016040519081016040528092919081815260200182805460018160011615610100020316600290048015613e4e5780601f10613e2357610100808354040283529160200191613e4e565b820191906000526020600020905b815481529060010190602001808311613e3157829003601f168201915b50505050509450838054600181600116156101000203166002900480601f016020809104026020016040519081016040528092919081815260200182805460018160011615610100020316600290048015613eea5780601f10613ebf57610100808354040283529160200191613eea565b820191906000526020600020905b815481529060010190602001808311613ecd57829003601f168201915b50505050509350818054600181600116156101000203166002900480601f016020809104026020016040519081016040528092919081815260200182805460018160011615610100020316600290048015613f865780601f10613f5b57610100808354040283529160200191613f86565b820191906000526020600020905b815481529060010190602001808311613f6957829003601f168201915b50505050509150955095509550955095505091939590929450565b828054600181600116156101000203166002900490600052602060002090601f016020900481019282601f10613fe257805160ff1916838001178555614010565b82800160010185558215614010579182015b8281111561400f578251825591602001919060010190613ff4565b5b50905061401d9190614066565b5090565b6040518060a00160405280600073ffffffffffffffffffffffffffffffffffffffff168152602001606081526020016060815260200160608152602001606081525090565b61408891905b8082111561408457600081600090555060010161406c565b5090565b9056fea265627a7a72315820ce814f39c37443f1220d612b9fe1a89375dd3afa51c5f95ae12823f59a0c602f64736f6c63430005100032",
  "source": "// SPDX-License-Identifier: MIT\r\npragma solidity ^0.5.16;\r\n\r\ncontract DoctorRegistration {\r\n    struct DoctorCredentials {\r\n        address walletAddress;\r\n        string doctorName;\r\n        string licenseNumber;\r\n        string email;\r\n        string password;\r\n    }\r\n\r\n    struct DoctorPersonalDetails {\r\n        string gender;\r\n        uint256 age;\r\n        uint256 date;\r\n        uint256 month;\r\n        uint256 year;\r\n        bool maritalStatus;\r\n    }\r\n\r\n    struct DoctorContactDetails {\r\n        uint256 contactNumber;\r\n        string appartmentNumber;\r\n        string street;\r\n        string city;\r\n        string state;\r\n        string country;\r\n    }\r\n\r\n    struct DoctorEducationalDetails {\r\n        string specialization;\r\n        string heighestQualification;\r\n        uint256 experience;\r\n        string medicalSchool;\r\n        uint256 graduationYear;\r\n    }\r\n\r\n    struct DoctorProfessionalDetails {\r\n        string hospitalName;\r\n        string designation;\r\n        string department;\r\n        uint256 consultantFees;\r\n    }\r\n\r\n    struct Doctor {\r\n        DoctorCredentials credential;\r\n        DoctorPersonalDetails personalDetails;\r\n        DoctorContactDetails contactDetails;\r\n        DoctorEducationalDetails educationalDetails;\r\n        DoctorProfessionalDetails professionalDetails;\r\n    }\r\n\r\n    mapping(string => address) private doctorAddresses;\r\n    mapping(string => Doctor) private doctors;\r\n\r\n    event DoctorRegistered(string licenseNumber, string doctorName, address cryptoWalletAddress);\r\n\r\n    function registerDoctorCredentials(\r\n        string memory _name,\r\n        string memory _medicalLicenseNumber,\r\n        string memory _email,\r\n        string memory _password\r\n    ) public {\r\n        doctors[_medicalLicenseNumber].credential = DoctorCredentials({\r\n            walletAddress: msg.sender,\r\n            doctorName: _name,\r\n            licenseNumber: _medicalLicenseNumber,\r\n            email: _email,\r\n            password: _password\r\n        });\r\n\r\n        doctorAddresses[_medicalLicenseNumber] = msg.sender;\r\n        emit DoctorRegistered(_medicalLicenseNumber, _name, msg.sender);\r\n    }\r\n\r\n    function registerDoctorPersonalDetails(\r\n        string memory _licenseNumber,\r\n        string memory _gender,\r\n        uint256 _age,\r\n        uint256 _date,\r\n        uint256 _month,\r\n        uint256 _year,\r\n        bool _maritalStatus\r\n    ) public {\r\n        require(doctorAddresses[_licenseNumber] != address(0), \"Doctor not found\");\r\n        doctors[_licenseNumber].personalDetails = DoctorPersonalDetails({\r\n            gender: _gender,\r\n            age: _age,\r\n            date: _date,\r\n            month: _month,\r\n            year: _year,\r\n            maritalStatus: _maritalStatus\r\n        });\r\n    }\r\n\r\n    function registerDoctorContactDetails(\r\n        string memory _licenseNumber,\r\n        uint256 _contactNumber,\r\n        string memory _appartmentNumber,\r\n        string memory _street,\r\n        string memory _city,\r\n        string memory _state,\r\n        string memory _country\r\n    ) public {\r\n        require(doctorAddresses[_licenseNumber] != address(0), \"Doctor not found\");\r\n        doctors[_licenseNumber].contactDetails = DoctorContactDetails({\r\n            contactNumber: _contactNumber,\r\n            appartmentNumber: _appartmentNumber,\r\n            street: _street,\r\n            city: _city,\r\n            state: _state,\r\n            country: _country\r\n        });\r\n    }\r\n\r\n    function registerDoctorEducationalDetails(\r\n        string memory _licenseNumber,\r\n        string memory _specialization,\r\n        string memory _highestQualification,\r\n        uint256 _experience,\r\n        string memory _medicalSchool,\r\n        uint256 _graduationYear\r\n    ) public {\r\n        require(doctorAddresses[_licenseNumber] != address(0), \"Doctor not found\");\r\n        doctors[_licenseNumber].educationalDetails = DoctorEducationalDetails({\r\n            specialization: _specialization,\r\n            heighestQualification: _highestQualification,\r\n            experience: _experience,\r\n            medicalSchool: _medicalSchool,\r\n            graduationYear: _graduationYear\r\n        });\r\n    }\r\n\r\n    function registerDoctorProfessionalDetails(\r\n        string memory _licenseNumber,\r\n        string memory _hospitalName,\r\n        string memory _designation,\r\n        string memory _department,\r\n        uint256 _consultantFees\r\n    ) public {\r\n        require(doctorAddresses[_licenseNumber] != address(0), \"Doctor not found\");\r\n        doctors[_licenseNumber].professionalDetails = DoctorProfessionalDetails({\r\n            hospitalName: _hospitalName,\r\n            designation: _designation,\r\n            department: _department,\r\n            consultantFees: _consultantFees\r\n        });\r\n    }\r\n\r\n    function validatePassword(string memory _licenseNumber, string memory _password) public view returns (bool) {\r\n        require(doctorAddresses[_licenseNumber] != address(0), \"Doctor not found\");\r\n        DoctorCredentials memory credentials = doctors[_licenseNumber].credential;\r\n        return (keccak256(abi.encodePacked(credentials.password)) == keccak256(abi.encodePacked(_password)));\r\n    }\r\n\r\n    function isDoctorRegistered(string memory _licenseNumber) public view returns (bool) {\r\n        return doctorAddresses[_licenseNumber] != address(0);\r\n    }\r\n\r\n    function getDoctorCredentials(string memory _licenseNumber) public view returns ( string memory doctorName, string memory licenseNumber, string memory email, address walletAddress ) {\r\n        require(doctorAddresses[_licenseNumber] != address(0), \"Doctor not registered\");\r\n\r\n        Doctor storage doctor = doctors[_licenseNumber];\r\n\r\n        return (\r\n            doctor.credential.doctorName,\r\n            doctor.credential.licenseNumber,\r\n            doctor.credential.email,\r\n            doctor.credential.walletAddress\r\n        );\r\n    }\r\n\r\n    function getDoctorPersonalDetails(string memory _licenseNumber) public view returns ( string memory gender, uint256 age, uint256 date, uint256 month, uint256 year, bool maritalStatus ) {\r\n        require(doctorAddresses[_licenseNumber] != address(0), \"Doctor not registered\");\r\n\r\n        Doctor storage doctor = doctors[_licenseNumber];\r\n\r\n        return (\r\n            doctor.personalDetails.gender,\r\n            doctor.personalDetails.age,\r\n            doctor.personalDetails.date,\r\n            doctor.personalDetails.month,\r\n            doctor.personalDetails.year,\r\n            doctor.personalDetails.maritalStatus\r\n        );\r\n    }\r\n\r\n    function getDoctorContactDetails(string memory _licenseNumber) public view returns ( uint256 contactNumber, string memory appartmentNumber, string memory street, string memory city, string memory state, string memory country ) {\r\n        require(doctorAddresses[_licenseNumber] != address(0), \"Doctor not registered\");\r\n\r\n        Doctor storage doctor = doctors[_licenseNumber];\r\n\r\n        return (\r\n            doctor.contactDetails.contactNumber,\r\n            doctor.contactDetails.appartmentNumber,\r\n            doctor.contactDetails.street,\r\n            doctor.contactDetails.city,\r\n            doctor.contactDetails.state,\r\n            doctor.contactDetails.country\r\n        );\r\n    }\r\n\r\n    function getDoctorEducationalDetails(string memory _licenseNumber) public view returns ( string memory specialization, string memory highestQualification, uint256 experience, string memory medicalSchool, uint256 graduationYear ) {\r\n        require(doctorAddresses[_licenseNumber] != address(0), \"Doctor not registered\");\r\n\r\n        Doctor storage doctor = doctors[_licenseNumber];\r\n\r\n        return (\r\n            doctor.educationalDetails.specialization,\r\n            doctor.educationalDetails.heighestQualification,\r\n            doctor.educationalDetails.experience,\r\n            doctor.educationalDetails.medicalSchool,\r\n            doctor.educationalDetails.graduationYear\r\n        );\r\n    }\r\n\r\n    function getDoctorProfessionalDetails(string memory _licenseNumber) public view returns ( string memory hospitalName, string memory designation, string memory department, uint256 consultantFees ) {\r\n        require(doctorAddresses[_licenseNumber] != address(0), \"Doctor not registered\");\r\n\r\n        Doctor storage doctor = doctors[_licenseNumber];\r\n\r\n        return (\r\n            doctor.professionalDetails.hospitalName,\r\n            doctor.professionalDetails.designation,\r\n            doctor.professionalDetails.department,\r\n            doctor.professionalDetails.consultantFees\r\n        );\r\n    }\r\n}",
  "sourcePath": "C:\\Users\\Aman\\Desktop\\GITHUB\\WellWise_Core\\src\\contracts\\DoctorRegistration.sol",
  "compiler": {
    "name": "solc",
    "version": "0.5.16+commit.9c3226ce.Emscripten.clang"
  },
  "schemaVersion": "3.4.16",
  "updatedAt": "2024-12-26T17:29:05.667Z",
  "networkType": "ethereum",
  "devdoc": {
    "methods": {}
  },
  "userdoc": {
    "methods": {}
  }
}