{
  "contractName": "DoctorRegistration",
  "abi": [
    {
      "anonymous": false,
      "inputs": [
        {
          "indexed": false,
          "internalType": "string",
          "name": "licenseNumber",
          "type": "string"
        },
        {
          "indexed": false,
          "internalType": "string",
          "name": "doctorName",
          "type": "string"
        },
        {
          "indexed": false,
          "internalType": "address",
          "name": "cryptoWalletAddress",
          "type": "address"
        }
      ],
      "name": "DoctorRegistered",
      "type": "event"
    },
    {
      "constant": false,
      "inputs": [
        {
          "internalType": "string",
          "name": "_name",
          "type": "string"
        },
        {
          "internalType": "string",
          "name": "_medicalLicenseNumber",
          "type": "string"
        },
        {
          "internalType": "string",
          "name": "_email",
          "type": "string"
        },
        {
          "internalType": "string",
          "name": "_password",
          "type": "string"
        }
      ],
      "name": "registerDoctorCredentials",
      "outputs": [],
      "payable": false,
      "stateMutability": "nonpayable",
      "type": "function"
    },
    {
      "constant": false,
      "inputs": [
        {
          "internalType": "string",
          "name": "_licenseNumber",
          "type": "string"
        },
        {
          "internalType": "string",
          "name": "_gender",
          "type": "string"
        },
        {
          "internalType": "string",
          "name": "_age",
          "type": "string"
        },
        {
          "internalType": "string",
          "name": "_date",
          "type": "string"
        },
        {
          "internalType": "string",
          "name": "_month",
          "type": "string"
        },
        {
          "internalType": "string",
          "name": "_year",
          "type": "string"
        },
        {
          "internalType": "string",
          "name": "_maritalStatus",
          "type": "string"
        }
      ],
      "name": "registerDoctorPersonalDetails",
      "outputs": [],
      "payable": false,
      "stateMutability": "nonpayable",
      "type": "function"
    },
    {
      "constant": false,
      "inputs": [
        {
          "internalType": "string",
          "name": "_licenseNumber",
          "type": "string"
        },
        {
          "internalType": "string",
          "name": "_contactNumber",
          "type": "string"
        },
        {
          "internalType": "string",
          "name": "_appartmentNumber",
          "type": "string"
        },
        {
          "internalType": "string",
          "name": "_street",
          "type": "string"
        },
        {
          "internalType": "string",
          "name": "_city",
          "type": "string"
        },
        {
          "internalType": "string",
          "name": "_state",
          "type": "string"
        },
        {
          "internalType": "string",
          "name": "_country",
          "type": "string"
        }
      ],
      "name": "registerDoctorContactDetails",
      "outputs": [],
      "payable": false,
      "stateMutability": "nonpayable",
      "type": "function"
    },
    {
      "constant": false,
      "inputs": [
        {
          "internalType": "string",
          "name": "_licenseNumber",
          "type": "string"
        },
        {
          "internalType": "string",
          "name": "_specialization",
          "type": "string"
        },
        {
          "internalType": "string",
          "name": "_highestQualification",
          "type": "string"
        },
        {
          "internalType": "string",
          "name": "_experience",
          "type": "string"
        },
        {
          "internalType": "string",
          "name": "_medicalSchool",
          "type": "string"
        },
        {
          "internalType": "string",
          "name": "_graduationYear",
          "type": "string"
        }
      ],
      "name": "registerDoctorEducationalDetails",
      "outputs": [],
      "payable": false,
      "stateMutability": "nonpayable",
      "type": "function"
    },
    {
      "constant": false,
      "inputs": [
        {
          "internalType": "string",
          "name": "_licenseNumber",
          "type": "string"
        },
        {
          "internalType": "string",
          "name": "_hospitalName",
          "type": "string"
        },
        {
          "internalType": "string",
          "name": "_designation",
          "type": "string"
        },
        {
          "internalType": "string",
          "name": "_department",
          "type": "string"
        },
        {
          "internalType": "string",
          "name": "_consultantFees",
          "type": "string"
        }
      ],
      "name": "registerDoctorProfessionalDetails",
      "outputs": [],
      "payable": false,
      "stateMutability": "nonpayable",
      "type": "function"
    },
    {
      "constant": true,
      "inputs": [
        {
          "internalType": "string",
          "name": "_licenseNumber",
          "type": "string"
        },
        {
          "internalType": "string",
          "name": "_password",
          "type": "string"
        }
      ],
      "name": "validatePassword",
      "outputs": [
        {
          "internalType": "bool",
          "name": "",
          "type": "bool"
        }
      ],
      "payable": false,
      "stateMutability": "view",
      "type": "function"
    },
    {
      "constant": true,
      "inputs": [
        {
          "internalType": "string",
          "name": "_licenseNumber",
          "type": "string"
        }
      ],
      "name": "isDoctorRegistered",
      "outputs": [
        {
          "internalType": "bool",
          "name": "",
          "type": "bool"
        }
      ],
      "payable": false,
      "stateMutability": "view",
      "type": "function"
    },
    {
      "constant": true,
      "inputs": [
        {
          "internalType": "string",
          "name": "_licenseNumber",
          "type": "string"
        }
      ],
      "name": "getDoctorCredentials",
      "outputs": [
        {
          "internalType": "string",
          "name": "doctorName",
          "type": "string"
        },
        {
          "internalType": "string",
          "name": "licenseNumber",
          "type": "string"
        },
        {
          "internalType": "string",
          "name": "email",
          "type": "string"
        },
        {
          "internalType": "address",
          "name": "walletAddress",
          "type": "address"
        }
      ],
      "payable": false,
      "stateMutability": "view",
      "type": "function"
    },
    {
      "constant": true,
      "inputs": [
        {
          "internalType": "string",
          "name": "_licenseNumber",
          "type": "string"
        }
      ],
      "name": "getDoctorPersonalDetails",
      "outputs": [
        {
          "internalType": "string",
          "name": "gender",
          "type": "string"
        },
        {
          "internalType": "string",
          "name": "age",
          "type": "string"
        },
        {
          "internalType": "string",
          "name": "date",
          "type": "string"
        },
        {
          "internalType": "string",
          "name": "month",
          "type": "string"
        },
        {
          "internalType": "string",
          "name": "year",
          "type": "string"
        },
        {
          "internalType": "string",
          "name": "maritalStatus",
          "type": "string"
        }
      ],
      "payable": false,
      "stateMutability": "view",
      "type": "function"
    },
    {
      "constant": true,
      "inputs": [
        {
          "internalType": "string",
          "name": "_licenseNumber",
          "type": "string"
        }
      ],
      "name": "getDoctorContactDetails",
      "outputs": [
        {
          "internalType": "string",
          "name": "contactNumber",
          "type": "string"
        },
        {
          "internalType": "string",
          "name": "appartmentNumber",
          "type": "string"
        },
        {
          "internalType": "string",
          "name": "street",
          "type": "string"
        },
        {
          "internalType": "string",
          "name": "city",
          "type": "string"
        },
        {
          "internalType": "string",
          "name": "state",
          "type": "string"
        },
        {
          "internalType": "string",
          "name": "country",
          "type": "string"
        }
      ],
      "payable": false,
      "stateMutability": "view",
      "type": "function"
    },
    {
      "constant": true,
      "inputs": [
        {
          "internalType": "string",
          "name": "_licenseNumber",
          "type": "string"
        }
      ],
      "name": "getDoctorEducationalDetails",
      "outputs": [
        {
          "internalType": "string",
          "name": "specialization",
          "type": "string"
        },
        {
          "internalType": "string",
          "name": "highestQualification",
          "type": "string"
        },
        {
          "internalType": "string",
          "name": "experience",
          "type": "string"
        },
        {
          "internalType": "string",
          "name": "medicalSchool",
          "type": "string"
        },
        {
          "internalType": "string",
          "name": "graduationYear",
          "type": "string"
        }
      ],
      "payable": false,
      "stateMutability": "view",
      "type": "function"
    },
    {
      "constant": true,
      "inputs": [
        {
          "internalType": "string",
          "name": "_licenseNumber",
          "type": "string"
        }
      ],
      "name": "getDoctorProfessionalDetails",
      "outputs": [
        {
          "internalType": "string",
          "name": "hospitalName",
          "type": "string"
        },
        {
          "internalType": "string",
          "name": "designation",
          "type": "string"
        },
        {
          "internalType": "string",
          "name": "department",
          "type": "string"
        },
        {
          "internalType": "string",
          "name": "consultantFees",
          "type": "string"
        }
      ],
      "payable": false,
      "stateMutability": "view",
      "type": "function"
    }
  ],
  "bytecode": "0x608060405234801561001057600080fd5b50614f34806100206000396000f3fe608060405234801561001057600080fd5b50600436106100b45760003560e01c80638aa2db2b116100715780638aa2db2b14610fa05780639255f2f3146113e55780639cf9d74914611735578063c887b7c914611a85578063cb5d3d8314611d9c578063d283e0a71461201c576100b4565b806329d9da05146100b95780637662134314610331578063768604271461057057806377fc3e361461091e5780637babdb26146109f15780637bd8309b14610b5b575b600080fd5b610172600480360360208110156100cf57600080fd5b81019080803590602001906401000000008111156100ec57600080fd5b8201836020820111156100fe57600080fd5b8035906020019184600183028401116401000000008311171561012057600080fd5b91908080601f016020809104026020016040519081016040528093929190818152602001838380828437600081840152601f19601f820116905080830192505050505050509192919290505050612300565b6040518080602001806020018060200180602001858103855289818151815260200191508051906020019080838360005b838110156101be5780820151818401526020810190506101a3565b50505050905090810190601f1680156101eb5780820380516001836020036101000a031916815260200191505b50858103845288818151815260200191508051906020019080838360005b83811015610224578082015181840152602081019050610209565b50505050905090810190601f1680156102515780820380516001836020036101000a031916815260200191505b50858103835287818151815260200191508051906020019080838360005b8381101561028a57808201518184015260208101905061026f565b50505050905090810190601f1680156102b75780820380516001836020036101000a031916815260200191505b50858103825286818151815260200191508051906020019080838360005b838110156102f05780820151818401526020810190506102d5565b50505050905090810190601f16801561031d5780820380516001836020036101000a031916815260200191505b509850505050505050505060405180910390f35b6103ea6004803603602081101561034757600080fd5b810190808035906020019064010000000081111561036457600080fd5b82018360208201111561037657600080fd5b8035906020019184600183028401116401000000008311171561039857600080fd5b91908080601f016020809104026020016040519081016040528093929190818152602001838380828437600081840152601f19601f82011690508083019250505050505050919291929050505061273b565b604051808060200180602001806020018573ffffffffffffffffffffffffffffffffffffffff1673ffffffffffffffffffffffffffffffffffffffff168152602001848103845288818151815260200191508051906020019080838360005b83811015610464578082015181840152602081019050610449565b50505050905090810190601f1680156104915780820380516001836020036101000a031916815260200191505b50848103835287818151815260200191508051906020019080838360005b838110156104ca5780820151818401526020810190506104af565b50505050905090810190601f1680156104f75780820380516001836020036101000a031916815260200191505b50848103825286818151815260200191508051906020019080838360005b83811015610530578082015181840152602081019050610515565b50505050905090810190601f16801561055d5780820380516001836020036101000a031916815260200191505b5097505050505050505060405180910390f35b61091c600480360360c081101561058657600080fd5b81019080803590602001906401000000008111156105a357600080fd5b8201836020820111156105b557600080fd5b803590602001918460018302840111640100000000831117156105d757600080fd5b91908080601f016020809104026020016040519081016040528093929190818152602001838380828437600081840152601f19601f8201169050808301925050505050505091929192908035906020019064010000000081111561063a57600080fd5b82018360208201111561064c57600080fd5b8035906020019184600183028401116401000000008311171561066e57600080fd5b91908080601f016020809104026020016040519081016040528093929190818152602001838380828437600081840152601f19601f820116905080830192505050505050509192919290803590602001906401000000008111156106d157600080fd5b8201836020820111156106e357600080fd5b8035906020019184600183028401116401000000008311171561070557600080fd5b91908080601f016020809104026020016040519081016040528093929190818152602001838380828437600081840152601f19601f8201169050808301925050505050505091929192908035906020019064010000000081111561076857600080fd5b82018360208201111561077a57600080fd5b8035906020019184600183028401116401000000008311171561079c57600080fd5b91908080601f016020809104026020016040519081016040528093929190818152602001838380828437600081840152601f19601f820116905080830192505050505050509192919290803590602001906401000000008111156107ff57600080fd5b82018360208201111561081157600080fd5b8035906020019184600183028401116401000000008311171561083357600080fd5b91908080601f016020809104026020016040519081016040528093929190818152602001838380828437600081840152601f19601f8201169050808301925050505050505091929192908035906020019064010000000081111561089657600080fd5b8201836020820111156108a857600080fd5b803590602001918460018302840111640100000000831117156108ca57600080fd5b91908080601f016020809104026020016040519081016040528093929190818152602001838380828437600081840152601f19601f820116905080830192505050505050509192919290505050612afb565b005b6109d76004803603602081101561093457600080fd5b810190808035906020019064010000000081111561095157600080fd5b82018360208201111561096357600080fd5b8035906020019184600183028401116401000000008311171561098557600080fd5b91908080601f016020809104026020016040519081016040528093929190818152602001838380828437600081840152601f19601f820116905080830192505050505050509192919290505050612d56565b604051808215151515815260200191505060405180910390f35b610b4160048036036040811015610a0757600080fd5b8101908080359060200190640100000000811115610a2457600080fd5b820183602082011115610a3657600080fd5b80359060200191846001830284011164010000000083111715610a5857600080fd5b91908080601f016020809104026020016040519081016040528093929190818152602001838380828437600081840152601f19601f82011690508083019250505050505050919291929080359060200190640100000000811115610abb57600080fd5b820183602082011115610acd57600080fd5b80359060200191846001830284011164010000000083111715610aef57600080fd5b91908080601f016020809104026020016040519081016040528093929190818152602001838380828437600081840152601f19601f820116905080830192505050505050509192919290505050612e18565b604051808215151515815260200191505060405180910390f35b610f9e600480360360e0811015610b7157600080fd5b8101908080359060200190640100000000811115610b8e57600080fd5b820183602082011115610ba057600080fd5b80359060200191846001830284011164010000000083111715610bc257600080fd5b91908080601f016020809104026020016040519081016040528093929190818152602001838380828437600081840152601f19601f82011690508083019250505050505050919291929080359060200190640100000000811115610c2557600080fd5b820183602082011115610c3757600080fd5b80359060200191846001830284011164010000000083111715610c5957600080fd5b91908080601f016020809104026020016040519081016040528093929190818152602001838380828437600081840152601f19601f82011690508083019250505050505050919291929080359060200190640100000000811115610cbc57600080fd5b820183602082011115610cce57600080fd5b80359060200191846001830284011164010000000083111715610cf057600080fd5b91908080601f016020809104026020016040519081016040528093929190818152602001838380828437600081840152601f19601f82011690508083019250505050505050919291929080359060200190640100000000811115610d5357600080fd5b820183602082011115610d6557600080fd5b80359060200191846001830284011164010000000083111715610d8757600080fd5b91908080601f016020809104026020016040519081016040528093929190818152602001838380828437600081840152601f19601f82011690508083019250505050505050919291929080359060200190640100000000811115610dea57600080fd5b820183602082011115610dfc57600080fd5b80359060200191846001830284011164010000000083111715610e1e57600080fd5b91908080601f016020809104026020016040519081016040528093929190818152602001838380828437600081840152601f19601f82011690508083019250505050505050919291929080359060200190640100000000811115610e8157600080fd5b820183602082011115610e9357600080fd5b80359060200191846001830284011164010000000083111715610eb557600080fd5b91908080601f016020809104026020016040519081016040528093929190818152602001838380828437600081840152601f19601f82011690508083019250505050505050919291929080359060200190640100000000811115610f1857600080fd5b820183602082011115610f2a57600080fd5b80359060200191846001830284011164010000000083111715610f4c57600080fd5b91908080601f016020809104026020016040519081016040528093929190818152602001838380828437600081840152601f19601f820116905080830192505050505050509192919290505050613396565b005b6113e3600480360360e0811015610fb657600080fd5b8101908080359060200190640100000000811115610fd357600080fd5b820183602082011115610fe557600080fd5b8035906020019184600183028401116401000000008311171561100757600080fd5b91908080601f016020809104026020016040519081016040528093929190818152602001838380828437600081840152601f19601f8201169050808301925050505050505091929192908035906020019064010000000081111561106a57600080fd5b82018360208201111561107c57600080fd5b8035906020019184600183028401116401000000008311171561109e57600080fd5b91908080601f016020809104026020016040519081016040528093929190818152602001838380828437600081840152601f19601f8201169050808301925050505050505091929192908035906020019064010000000081111561110157600080fd5b82018360208201111561111357600080fd5b8035906020019184600183028401116401000000008311171561113557600080fd5b91908080601f016020809104026020016040519081016040528093929190818152602001838380828437600081840152601f19601f8201169050808301925050505050505091929192908035906020019064010000000081111561119857600080fd5b8201836020820111156111aa57600080fd5b803590602001918460018302840111640100000000831117156111cc57600080fd5b91908080601f016020809104026020016040519081016040528093929190818152602001838380828437600081840152601f19601f8201169050808301925050505050505091929192908035906020019064010000000081111561122f57600080fd5b82018360208201111561124157600080fd5b8035906020019184600183028401116401000000008311171561126357600080fd5b91908080601f016020809104026020016040519081016040528093929190818152602001838380828437600081840152601f19601f820116905080830192505050505050509192919290803590602001906401000000008111156112c657600080fd5b8201836020820111156112d857600080fd5b803590602001918460018302840111640100000000831117156112fa57600080fd5b91908080601f016020809104026020016040519081016040528093929190818152602001838380828437600081840152601f19601f8201169050808301925050505050505091929192908035906020019064010000000081111561135d57600080fd5b82018360208201111561136f57600080fd5b8035906020019184600183028401116401000000008311171561139157600080fd5b91908080601f016020809104026020016040519081016040528093929190818152602001838380828437600081840152601f19601f820116905080830192505050505050509192919290505050613615565b005b61149e600480360360208110156113fb57600080fd5b810190808035906020019064010000000081111561141857600080fd5b82018360208201111561142a57600080fd5b8035906020019184600183028401116401000000008311171561144c57600080fd5b91908080601f016020809104026020016040519081016040528093929190818152602001838380828437600081840152601f19601f820116905080830192505050505050509192919290505050613894565b6040518080602001806020018060200180602001806020018060200187810387528d818151815260200191508051906020019080838360005b838110156114f25780820151818401526020810190506114d7565b50505050905090810190601f16801561151f5780820380516001836020036101000a031916815260200191505b5087810386528c818151815260200191508051906020019080838360005b8381101561155857808201518184015260208101905061153d565b50505050905090810190601f1680156115855780820380516001836020036101000a031916815260200191505b5087810385528b818151815260200191508051906020019080838360005b838110156115be5780820151818401526020810190506115a3565b50505050905090810190601f1680156115eb5780820380516001836020036101000a031916815260200191505b5087810384528a818151815260200191508051906020019080838360005b83811015611624578082015181840152602081019050611609565b50505050905090810190601f1680156116515780820380516001836020036101000a031916815260200191505b50878103835289818151815260200191508051906020019080838360005b8381101561168a57808201518184015260208101905061166f565b50505050905090810190601f1680156116b75780820380516001836020036101000a031916815260200191505b50878103825288818151815260200191508051906020019080838360005b838110156116f05780820151818401526020810190506116d5565b50505050905090810190601f16801561171d5780820380516001836020036101000a031916815260200191505b509c5050505050505050505050505060405180910390f35b6117ee6004803603602081101561174b57600080fd5b810190808035906020019064010000000081111561176857600080fd5b82018360208201111561177a57600080fd5b8035906020019184600183028401116401000000008311171561179c57600080fd5b91908080601f016020809104026020016040519081016040528093929190818152602001838380828437600081840152601f19601f820116905080830192505050505050509192919290505050613e1e565b6040518080602001806020018060200180602001806020018060200187810387528d818151815260200191508051906020019080838360005b83811015611842578082015181840152602081019050611827565b50505050905090810190601f16801561186f5780820380516001836020036101000a031916815260200191505b5087810386528c818151815260200191508051906020019080838360005b838110156118a857808201518184015260208101905061188d565b50505050905090810190601f1680156118d55780820380516001836020036101000a031916815260200191505b5087810385528b818151815260200191508051906020019080838360005b8381101561190e5780820151818401526020810190506118f3565b50505050905090810190601f16801561193b5780820380516001836020036101000a031916815260200191505b5087810384528a818151815260200191508051906020019080838360005b83811015611974578082015181840152602081019050611959565b50505050905090810190601f1680156119a15780820380516001836020036101000a031916815260200191505b50878103835289818151815260200191508051906020019080838360005b838110156119da5780820151818401526020810190506119bf565b50505050905090810190601f168015611a075780820380516001836020036101000a031916815260200191505b50878103825288818151815260200191508051906020019080838360005b83811015611a40578082015181840152602081019050611a25565b50505050905090810190601f168015611a6d5780820380516001836020036101000a031916815260200191505b509c5050505050505050505050505060405180910390f35b611d9a600480360360a0811015611a9b57600080fd5b8101908080359060200190640100000000811115611ab857600080fd5b820183602082011115611aca57600080fd5b80359060200191846001830284011164010000000083111715611aec57600080fd5b91908080601f016020809104026020016040519081016040528093929190818152602001838380828437600081840152601f19601f82011690508083019250505050505050919291929080359060200190640100000000811115611b4f57600080fd5b820183602082011115611b6157600080fd5b80359060200191846001830284011164010000000083111715611b8357600080fd5b91908080601f016020809104026020016040519081016040528093929190818152602001838380828437600081840152601f19601f82011690508083019250505050505050919291929080359060200190640100000000811115611be657600080fd5b820183602082011115611bf857600080fd5b80359060200191846001830284011164010000000083111715611c1a57600080fd5b91908080601f016020809104026020016040519081016040528093929190818152602001838380828437600081840152601f19601f82011690508083019250505050505050919291929080359060200190640100000000811115611c7d57600080fd5b820183602082011115611c8f57600080fd5b80359060200191846001830284011164010000000083111715611cb157600080fd5b91908080601f016020809104026020016040519081016040528093929190818152602001838380828437600081840152601f19601f82011690508083019250505050505050919291929080359060200190640100000000811115611d1457600080fd5b820183602082011115611d2657600080fd5b80359060200191846001830284011164010000000083111715611d4857600080fd5b91908080601f016020809104026020016040519081016040528093929190818152602001838380828437600081840152601f19601f8201169050808301925050505050505091929192905050506143a8565b005b61201a60048036036080811015611db257600080fd5b8101908080359060200190640100000000811115611dcf57600080fd5b820183602082011115611de157600080fd5b80359060200191846001830284011164010000000083111715611e0357600080fd5b91908080601f016020809104026020016040519081016040528093929190818152602001838380828437600081840152601f19601f82011690508083019250505050505050919291929080359060200190640100000000811115611e6657600080fd5b820183602082011115611e7857600080fd5b80359060200191846001830284011164010000000083111715611e9a57600080fd5b91908080601f016020809104026020016040519081016040528093929190818152602001838380828437600081840152601f19601f82011690508083019250505050505050919291929080359060200190640100000000811115611efd57600080fd5b820183602082011115611f0f57600080fd5b80359060200191846001830284011164010000000083111715611f3157600080fd5b91908080601f016020809104026020016040519081016040528093929190818152602001838380828437600081840152601f19601f82011690508083019250505050505050919291929080359060200190640100000000811115611f9457600080fd5b820183602082011115611fa657600080fd5b80359060200191846001830284011164010000000083111715611fc857600080fd5b91908080601f016020809104026020016040519081016040528093929190818152602001838380828437600081840152601f19601f8201169050808301925050505050505091929192905050506145df565b005b6120d56004803603602081101561203257600080fd5b810190808035906020019064010000000081111561204f57600080fd5b82018360208201111561206157600080fd5b8035906020019184600183028401116401000000008311171561208357600080fd5b91908080601f016020809104026020016040519081016040528093929190818152602001838380828437600081840152601f19601f820116905080830192505050505050509192919290505050614931565b60405180806020018060200180602001806020018060200186810386528b818151815260200191508051906020019080838360005b8381101561212557808201518184015260208101905061210a565b50505050905090810190601f1680156121525780820380516001836020036101000a031916815260200191505b5086810385528a818151815260200191508051906020019080838360005b8381101561218b578082015181840152602081019050612170565b50505050905090810190601f1680156121b85780820380516001836020036101000a031916815260200191505b50868103845289818151815260200191508051906020019080838360005b838110156121f15780820151818401526020810190506121d6565b50505050905090810190601f16801561221e5780820380516001836020036101000a031916815260200191505b50868103835288818151815260200191508051906020019080838360005b8381101561225757808201518184015260208101905061223c565b50505050905090810190601f1680156122845780820380516001836020036101000a031916815260200191505b50868103825287818151815260200191508051906020019080838360005b838110156122bd5780820151818401526020810190506122a2565b50505050905090810190601f1680156122ea5780820380516001836020036101000a031916815260200191505b509a505050505050505050505060405180910390f35b606080606080600073ffffffffffffffffffffffffffffffffffffffff166000866040518082805190602001908083835b602083106123545780518252602082019150602081019050602083039250612331565b6001836020036101000a038019825116818451168082178552505050505050905001915050908152602001604051809103902060009054906101000a900473ffffffffffffffffffffffffffffffffffffffff1673ffffffffffffffffffffffffffffffffffffffff161415612432576040517f08c379a00000000000000000000000000000000000000000000000000000000081526004018080602001828103825260158152602001807f446f63746f72206e6f742072656769737465726564000000000000000000000081525060200191505060405180910390fd5b60006001866040518082805190602001908083835b6020831061246a5780518252602082019150602081019050602083039250612447565b6001836020036101000a0380198251168184511680821785525050505050509050019150509081526020016040518091039020905080601601600001816016016001018260160160020183601601600301838054600181600116156101000203166002900480601f0160208091040260200160405190810160405280929190818152602001828054600181600116156101000203166002900480156125505780601f1061252557610100808354040283529160200191612550565b820191906000526020600020905b81548152906001019060200180831161253357829003601f168201915b50505050509350828054600181600116156101000203166002900480601f0160208091040260200160405190810160405280929190818152602001828054600181600116156101000203166002900480156125ec5780601f106125c1576101008083540402835291602001916125ec565b820191906000526020600020905b8154815290600101906020018083116125cf57829003601f168201915b50505050509250818054600181600116156101000203166002900480601f0160208091040260200160405190810160405280929190818152602001828054600181600116156101000203166002900480156126885780601f1061265d57610100808354040283529160200191612688565b820191906000526020600020905b81548152906001019060200180831161266b57829003601f168201915b50505050509150808054600181600116156101000203166002900480601f0160208091040260200160405190810160405280929190818152602001828054600181600116156101000203166002900480156127245780601f106126f957610100808354040283529160200191612724565b820191906000526020600020905b81548152906001019060200180831161270757829003601f168201915b505050505090509450945094509450509193509193565b606080606060008073ffffffffffffffffffffffffffffffffffffffff166000866040518082805190602001908083835b6020831061278f578051825260208201915060208101905060208303925061276c565b6001836020036101000a038019825116818451168082178552505050505050905001915050908152602001604051809103902060009054906101000a900473ffffffffffffffffffffffffffffffffffffffff1673ffffffffffffffffffffffffffffffffffffffff16141561286d576040517f08c379a00000000000000000000000000000000000000000000000000000000081526004018080602001828103825260158152602001807f446f63746f72206e6f742072656769737465726564000000000000000000000081525060200191505060405180910390fd5b60006001866040518082805190602001908083835b602083106128a55780518252602082019150602081019050602083039250612882565b6001836020036101000a038019825116818451168082178552505050505050905001915050908152602001604051809103902090508060000160010181600001600201826000016003018360000160000160009054906101000a900473ffffffffffffffffffffffffffffffffffffffff16838054600181600116156101000203166002900480601f0160208091040260200160405190810160405280929190818152602001828054600181600116156101000203166002900480156129ac5780601f10612981576101008083540402835291602001916129ac565b820191906000526020600020905b81548152906001019060200180831161298f57829003601f168201915b50505050509350828054600181600116156101000203166002900480601f016020809104026020016040519081016040528092919081815260200182805460018160011615610100020316600290048015612a485780601f10612a1d57610100808354040283529160200191612a48565b820191906000526020600020905b815481529060010190602001808311612a2b57829003601f168201915b50505050509250818054600181600116156101000203166002900480601f016020809104026020016040519081016040528092919081815260200182805460018160011615610100020316600290048015612ae45780601f10612ab957610100808354040283529160200191612ae4565b820191906000526020600020905b815481529060010190602001808311612ac757829003601f168201915b505050505091509450945094509450509193509193565b600073ffffffffffffffffffffffffffffffffffffffff166000876040518082805190602001908083835b60208310612b495780518252602082019150602081019050602083039250612b26565b6001836020036101000a038019825116818451168082178552505050505050905001915050908152602001604051809103902060009054906101000a900473ffffffffffffffffffffffffffffffffffffffff1673ffffffffffffffffffffffffffffffffffffffff161415612c27576040517f08c379a00000000000000000000000000000000000000000000000000000000081526004018080602001828103825260108152602001807f446f63746f72206e6f7420666f756e640000000000000000000000000000000081525060200191505060405180910390fd5b6040518060a00160405280868152602001858152602001848152602001838152602001828152506001876040518082805190602001908083835b60208310612c845780518252602082019150602081019050602083039250612c61565b6001836020036101000a03801982511681845116808217855250505050505090500191505090815260200160405180910390206011016000820151816000019080519060200190612cd6929190614e15565b506020820151816001019080519060200190612cf3929190614e15565b506040820151816002019080519060200190612d10929190614e15565b506060820151816003019080519060200190612d2d929190614e15565b506080820151816004019080519060200190612d4a929190614e15565b50905050505050505050565b60008073ffffffffffffffffffffffffffffffffffffffff166000836040518082805190602001908083835b60208310612da55780518252602082019150602081019050602083039250612d82565b6001836020036101000a038019825116818451168082178552505050505050905001915050908152602001604051809103902060009054906101000a900473ffffffffffffffffffffffffffffffffffffffff1673ffffffffffffffffffffffffffffffffffffffff1614159050919050565b60008073ffffffffffffffffffffffffffffffffffffffff166000846040518082805190602001908083835b60208310612e675780518252602082019150602081019050602083039250612e44565b6001836020036101000a038019825116818451168082178552505050505050905001915050908152602001604051809103902060009054906101000a900473ffffffffffffffffffffffffffffffffffffffff1673ffffffffffffffffffffffffffffffffffffffff161415612f45576040517f08c379a00000000000000000000000000000000000000000000000000000000081526004018080602001828103825260108152602001807f446f63746f72206e6f7420666f756e640000000000000000000000000000000081525060200191505060405180910390fd5b612f4d614e95565b6001846040518082805190602001908083835b60208310612f835780518252602082019150602081019050602083039250612f60565b6001836020036101000a03801982511681845116808217855250505050505090500191505090815260200160405180910390206000016040518060a00160405290816000820160009054906101000a900473ffffffffffffffffffffffffffffffffffffffff1673ffffffffffffffffffffffffffffffffffffffff1673ffffffffffffffffffffffffffffffffffffffff168152602001600182018054600181600116156101000203166002900480601f0160208091040260200160405190810160405280929190818152602001828054600181600116156101000203166002900480156130b35780601f10613088576101008083540402835291602001916130b3565b820191906000526020600020905b81548152906001019060200180831161309657829003601f168201915b50505050508152602001600282018054600181600116156101000203166002900480601f0160208091040260200160405190810160405280929190818152602001828054600181600116156101000203166002900480156131555780601f1061312a57610100808354040283529160200191613155565b820191906000526020600020905b81548152906001019060200180831161313857829003601f168201915b50505050508152602001600382018054600181600116156101000203166002900480601f0160208091040260200160405190810160405280929190818152602001828054600181600116156101000203166002900480156131f75780601f106131cc576101008083540402835291602001916131f7565b820191906000526020600020905b8154815290600101906020018083116131da57829003601f168201915b50505050508152602001600482018054600181600116156101000203166002900480601f0160208091040260200160405190810160405280929190818152602001828054600181600116156101000203166002900480156132995780601f1061326e57610100808354040283529160200191613299565b820191906000526020600020905b81548152906001019060200180831161327c57829003601f168201915b5050505050815250509050826040516020018082805190602001908083835b602083106132db57805182526020820191506020810190506020830392506132b8565b6001836020036101000a0380198251168184511680821785525050505050509050019150506040516020818303038152906040528051906020012081608001516040516020018082805190602001908083835b60208310613351578051825260208201915060208101905060208303925061332e565b6001836020036101000a038019825116818451168082178552505050505050905001915050604051602081830303815290604052805190602001201491505092915050565b600073ffffffffffffffffffffffffffffffffffffffff166000886040518082805190602001908083835b602083106133e457805182526020820191506020810190506020830392506133c1565b6001836020036101000a038019825116818451168082178552505050505050905001915050908152602001604051809103902060009054906101000a900473ffffffffffffffffffffffffffffffffffffffff1673ffffffffffffffffffffffffffffffffffffffff1614156134c2576040517f08c379a00000000000000000000000000000000000000000000000000000000081526004018080602001828103825260108152602001807f446f63746f72206e6f7420666f756e640000000000000000000000000000000081525060200191505060405180910390fd5b6040518060c00160405280878152602001868152602001858152602001848152602001838152602001828152506001886040518082805190602001908083835b602083106135255780518252602082019150602081019050602083039250613502565b6001836020036101000a0380198251168184511680821785525050505050509050019150509081526020016040518091039020600b016000820151816000019080519060200190613577929190614e15565b506020820151816001019080519060200190613594929190614e15565b5060408201518160020190805190602001906135b1929190614e15565b5060608201518160030190805190602001906135ce929190614e15565b5060808201518160040190805190602001906135eb929190614e15565b5060a0820151816005019080519060200190613608929190614e15565b5090505050505050505050565b600073ffffffffffffffffffffffffffffffffffffffff166000886040518082805190602001908083835b602083106136635780518252602082019150602081019050602083039250613640565b6001836020036101000a038019825116818451168082178552505050505050905001915050908152602001604051809103902060009054906101000a900473ffffffffffffffffffffffffffffffffffffffff1673ffffffffffffffffffffffffffffffffffffffff161415613741576040517f08c379a00000000000000000000000000000000000000000000000000000000081526004018080602001828103825260108152602001807f446f63746f72206e6f7420666f756e640000000000000000000000000000000081525060200191505060405180910390fd5b6040518060c00160405280878152602001868152602001858152602001848152602001838152602001828152506001886040518082805190602001908083835b602083106137a45780518252602082019150602081019050602083039250613781565b6001836020036101000a038019825116818451168082178552505050505050905001915050908152602001604051809103902060050160008201518160000190805190602001906137f6929190614e15565b506020820151816001019080519060200190613813929190614e15565b506040820151816002019080519060200190613830929190614e15565b50606082015181600301908051906020019061384d929190614e15565b50608082015181600401908051906020019061386a929190614e15565b5060a0820151816005019080519060200190613887929190614e15565b5090505050505050505050565b606080606080606080600073ffffffffffffffffffffffffffffffffffffffff166000886040518082805190602001908083835b602083106138eb57805182526020820191506020810190506020830392506138c8565b6001836020036101000a038019825116818451168082178552505050505050905001915050908152602001604051809103902060009054906101000a900473ffffffffffffffffffffffffffffffffffffffff1673ffffffffffffffffffffffffffffffffffffffff1614156139c9576040517f08c379a00000000000000000000000000000000000000000000000000000000081526004018080602001828103825260158152602001807f446f63746f72206e6f742072656769737465726564000000000000000000000081525060200191505060405180910390fd5b60006001886040518082805190602001908083835b60208310613a0157805182526020820191506020810190506020830392506139de565b6001836020036101000a03801982511681845116808217855250505050505090500191505090815260200160405180910390209050806005016000018160050160010182600501600201836005016003018460050160040185600501600501858054600181600116156101000203166002900480601f016020809104026020016040519081016040528092919081815260200182805460018160011615610100020316600290048015613af55780601f10613aca57610100808354040283529160200191613af5565b820191906000526020600020905b815481529060010190602001808311613ad857829003601f168201915b50505050509550848054600181600116156101000203166002900480601f016020809104026020016040519081016040528092919081815260200182805460018160011615610100020316600290048015613b915780601f10613b6657610100808354040283529160200191613b91565b820191906000526020600020905b815481529060010190602001808311613b7457829003601f168201915b50505050509450838054600181600116156101000203166002900480601f016020809104026020016040519081016040528092919081815260200182805460018160011615610100020316600290048015613c2d5780601f10613c0257610100808354040283529160200191613c2d565b820191906000526020600020905b815481529060010190602001808311613c1057829003601f168201915b50505050509350828054600181600116156101000203166002900480601f016020809104026020016040519081016040528092919081815260200182805460018160011615610100020316600290048015613cc95780601f10613c9e57610100808354040283529160200191613cc9565b820191906000526020600020905b815481529060010190602001808311613cac57829003601f168201915b50505050509250818054600181600116156101000203166002900480601f016020809104026020016040519081016040528092919081815260200182805460018160011615610100020316600290048015613d655780601f10613d3a57610100808354040283529160200191613d65565b820191906000526020600020905b815481529060010190602001808311613d4857829003601f168201915b50505050509150808054600181600116156101000203166002900480601f016020809104026020016040519081016040528092919081815260200182805460018160011615610100020316600290048015613e015780601f10613dd657610100808354040283529160200191613e01565b820191906000526020600020905b815481529060010190602001808311613de457829003601f168201915b505050505090509650965096509650965096505091939550919395565b606080606080606080600073ffffffffffffffffffffffffffffffffffffffff166000886040518082805190602001908083835b60208310613e755780518252602082019150602081019050602083039250613e52565b6001836020036101000a038019825116818451168082178552505050505050905001915050908152602001604051809103902060009054906101000a900473ffffffffffffffffffffffffffffffffffffffff1673ffffffffffffffffffffffffffffffffffffffff161415613f53576040517f08c379a00000000000000000000000000000000000000000000000000000000081526004018080602001828103825260158152602001807f446f63746f72206e6f742072656769737465726564000000000000000000000081525060200191505060405180910390fd5b60006001886040518082805190602001908083835b60208310613f8b5780518252602082019150602081019050602083039250613f68565b6001836020036101000a0380198251168184511680821785525050505050509050019150509081526020016040518091039020905080600b0160000181600b0160010182600b0160020183600b0160030184600b0160040185600b01600501858054600181600116156101000203166002900480601f01602080910402602001604051908101604052809291908181526020018280546001816001161561010002031660029004801561407f5780601f106140545761010080835404028352916020019161407f565b820191906000526020600020905b81548152906001019060200180831161406257829003601f168201915b50505050509550848054600181600116156101000203166002900480601f01602080910402602001604051908101604052809291908181526020018280546001816001161561010002031660029004801561411b5780601f106140f05761010080835404028352916020019161411b565b820191906000526020600020905b8154815290600101906020018083116140fe57829003601f168201915b50505050509450838054600181600116156101000203166002900480601f0160208091040260200160405190810160405280929190818152602001828054600181600116156101000203166002900480156141b75780601f1061418c576101008083540402835291602001916141b7565b820191906000526020600020905b81548152906001019060200180831161419a57829003601f168201915b50505050509350828054600181600116156101000203166002900480601f0160208091040260200160405190810160405280929190818152602001828054600181600116156101000203166002900480156142535780601f1061422857610100808354040283529160200191614253565b820191906000526020600020905b81548152906001019060200180831161423657829003601f168201915b50505050509250818054600181600116156101000203166002900480601f0160208091040260200160405190810160405280929190818152602001828054600181600116156101000203166002900480156142ef5780601f106142c4576101008083540402835291602001916142ef565b820191906000526020600020905b8154815290600101906020018083116142d257829003601f168201915b50505050509150808054600181600116156101000203166002900480601f01602080910402602001604051908101604052809291908181526020018280546001816001161561010002031660029004801561438b5780601f106143605761010080835404028352916020019161438b565b820191906000526020600020905b81548152906001019060200180831161436e57829003601f168201915b505050505090509650965096509650965096505091939550919395565b600073ffffffffffffffffffffffffffffffffffffffff166000866040518082805190602001908083835b602083106143f657805182526020820191506020810190506020830392506143d3565b6001836020036101000a038019825116818451168082178552505050505050905001915050908152602001604051809103902060009054906101000a900473ffffffffffffffffffffffffffffffffffffffff1673ffffffffffffffffffffffffffffffffffffffff1614156144d4576040517f08c379a00000000000000000000000000000000000000000000000000000000081526004018080602001828103825260108152602001807f446f63746f72206e6f7420666f756e640000000000000000000000000000000081525060200191505060405180910390fd5b6040518060800160405280858152602001848152602001838152602001828152506001866040518082805190602001908083835b6020831061452b5780518252602082019150602081019050602083039250614508565b6001836020036101000a0380198251168184511680821785525050505050509050019150509081526020016040518091039020601601600082015181600001908051906020019061457d929190614e15565b50602082015181600101908051906020019061459a929190614e15565b5060408201518160020190805190602001906145b7929190614e15565b5060608201518160030190805190602001906145d4929190614e15565b509050505050505050565b6040518060a001604052803373ffffffffffffffffffffffffffffffffffffffff168152602001858152602001848152602001838152602001828152506001846040518082805190602001908083835b60208310614652578051825260208201915060208101905060208303925061462f565b6001836020036101000a038019825116818451168082178552505050505050905001915050908152602001604051809103902060000160008201518160000160006101000a81548173ffffffffffffffffffffffffffffffffffffffff021916908373ffffffffffffffffffffffffffffffffffffffff16021790555060208201518160010190805190602001906146eb929190614e15565b506040820151816002019080519060200190614708929190614e15565b506060820151816003019080519060200190614725929190614e15565b506080820151816004019080519060200190614742929190614e15565b50905050336000846040518082805190602001908083835b6020831061477d578051825260208201915060208101905060208303925061475a565b6001836020036101000a038019825116818451168082178552505050505050905001915050908152602001604051809103902060006101000a81548173ffffffffffffffffffffffffffffffffffffffff021916908373ffffffffffffffffffffffffffffffffffffffff1602179055507f8d3f9c8a09dcd94bc9c847110caac40824996b777a45809b38b82b9aa3f71ec88385336040518080602001806020018473ffffffffffffffffffffffffffffffffffffffff1673ffffffffffffffffffffffffffffffffffffffff168152602001838103835286818151815260200191508051906020019080838360005b8381101561488857808201518184015260208101905061486d565b50505050905090810190601f1680156148b55780820380516001836020036101000a031916815260200191505b50838103825285818151815260200191508051906020019080838360005b838110156148ee5780820151818401526020810190506148d3565b50505050905090810190601f16801561491b5780820380516001836020036101000a031916815260200191505b509550505050505060405180910390a150505050565b6060806060806060600073ffffffffffffffffffffffffffffffffffffffff166000876040518082805190602001908083835b602083106149875780518252602082019150602081019050602083039250614964565b6001836020036101000a038019825116818451168082178552505050505050905001915050908152602001604051809103902060009054906101000a900473ffffffffffffffffffffffffffffffffffffffff1673ffffffffffffffffffffffffffffffffffffffff161415614a65576040517f08c379a00000000000000000000000000000000000000000000000000000000081526004018080602001828103825260158152602001807f446f63746f72206e6f742072656769737465726564000000000000000000000081525060200191505060405180910390fd5b60006001876040518082805190602001908083835b60208310614a9d5780518252602082019150602081019050602083039250614a7a565b6001836020036101000a038019825116818451168082178552505050505050905001915050908152602001604051809103902090508060110160000181601101600101826011016002018360110160030184601101600401848054600181600116156101000203166002900480601f016020809104026020016040519081016040528092919081815260200182805460018160011615610100020316600290048015614b8a5780601f10614b5f57610100808354040283529160200191614b8a565b820191906000526020600020905b815481529060010190602001808311614b6d57829003601f168201915b50505050509450838054600181600116156101000203166002900480601f016020809104026020016040519081016040528092919081815260200182805460018160011615610100020316600290048015614c265780601f10614bfb57610100808354040283529160200191614c26565b820191906000526020600020905b815481529060010190602001808311614c0957829003601f168201915b50505050509350828054600181600116156101000203166002900480601f016020809104026020016040519081016040528092919081815260200182805460018160011615610100020316600290048015614cc25780601f10614c9757610100808354040283529160200191614cc2565b820191906000526020600020905b815481529060010190602001808311614ca557829003601f168201915b50505050509250818054600181600116156101000203166002900480601f016020809104026020016040519081016040528092919081815260200182805460018160011615610100020316600290048015614d5e5780601f10614d3357610100808354040283529160200191614d5e565b820191906000526020600020905b815481529060010190602001808311614d4157829003601f168201915b50505050509150808054600181600116156101000203166002900480601f016020809104026020016040519081016040528092919081815260200182805460018160011615610100020316600290048015614dfa5780601f10614dcf57610100808354040283529160200191614dfa565b820191906000526020600020905b815481529060010190602001808311614ddd57829003601f168201915b50505050509050955095509550955095505091939590929450565b828054600181600116156101000203166002900490600052602060002090601f016020900481019282601f10614e5657805160ff1916838001178555614e84565b82800160010185558215614e84579182015b82811115614e83578251825591602001919060010190614e68565b5b509050614e919190614eda565b5090565b6040518060a00160405280600073ffffffffffffffffffffffffffffffffffffffff168152602001606081526020016060815260200160608152602001606081525090565b614efc91905b80821115614ef8576000816000905550600101614ee0565b5090565b9056fea265627a7a723158200790aceca940874edad78700912e308f9de3428daf63755b36c9a4ec0ce21a8264736f6c63430005100032",
  "source": "// SPDX-License-Identifier: MIT\r\npragma solidity ^0.5.16;\r\n\r\ncontract DoctorRegistration {\r\n    struct DoctorCredentials {\r\n        address walletAddress;\r\n        string doctorName;\r\n        string licenseNumber;\r\n        string email;\r\n        string password;\r\n    }\r\n\r\n    struct DoctorPersonalDetails {\r\n        string gender;\r\n        string age;\r\n        string date;\r\n        string month;\r\n        string year;\r\n        string maritalStatus;\r\n    }\r\n\r\n    struct DoctorContactDetails {\r\n        string contactNumber;\r\n        string appartmentNumber;\r\n        string street;\r\n        string city;\r\n        string state;\r\n        string country;\r\n    }\r\n\r\n    struct DoctorEducationalDetails {\r\n        string specialization;\r\n        string heighestQualification;\r\n        string experience;\r\n        string medicalSchool;\r\n        string graduationYear;\r\n    }\r\n\r\n    struct DoctorProfessionalDetails {\r\n        string hospitalName;\r\n        string designation;\r\n        string department;\r\n        string consultantFees;\r\n    }\r\n\r\n    struct Doctor {\r\n        DoctorCredentials credential;\r\n        DoctorPersonalDetails personalDetails;\r\n        DoctorContactDetails contactDetails;\r\n        DoctorEducationalDetails educationalDetails;\r\n        DoctorProfessionalDetails professionalDetails;\r\n    }\r\n\r\n    mapping(string => address) private doctorAddresses;\r\n    mapping(string => Doctor) private doctors;\r\n\r\n    event DoctorRegistered(string licenseNumber, string doctorName, address cryptoWalletAddress);\r\n\r\n    function registerDoctorCredentials(\r\n        string memory _name,\r\n        string memory _medicalLicenseNumber,\r\n        string memory _email,\r\n        string memory _password\r\n    ) public {\r\n        doctors[_medicalLicenseNumber].credential = DoctorCredentials({\r\n            walletAddress: msg.sender,\r\n            doctorName: _name,\r\n            licenseNumber: _medicalLicenseNumber,\r\n            email: _email,\r\n            password: _password\r\n        });\r\n\r\n        doctorAddresses[_medicalLicenseNumber] = msg.sender;\r\n        emit DoctorRegistered(_medicalLicenseNumber, _name, msg.sender);\r\n    }\r\n\r\n    function registerDoctorPersonalDetails(\r\n        string memory _licenseNumber,\r\n        string memory _gender,\r\n        string memory _age,\r\n        string memory _date,\r\n        string memory _month,\r\n        string memory _year,\r\n        string memory _maritalStatus\r\n    ) public {\r\n        require(doctorAddresses[_licenseNumber] != address(0), \"Doctor not found\");\r\n        doctors[_licenseNumber].personalDetails = DoctorPersonalDetails({\r\n            gender: _gender,\r\n            age: _age,\r\n            date: _date,\r\n            month: _month,\r\n            year: _year,\r\n            maritalStatus: _maritalStatus\r\n        });\r\n    }\r\n\r\n    function registerDoctorContactDetails(\r\n        string memory _licenseNumber,\r\n        string memory _contactNumber,\r\n        string memory _appartmentNumber,\r\n        string memory _street,\r\n        string memory _city,\r\n        string memory _state,\r\n        string memory _country\r\n    ) public {\r\n        require(doctorAddresses[_licenseNumber] != address(0), \"Doctor not found\");\r\n        doctors[_licenseNumber].contactDetails = DoctorContactDetails({\r\n            contactNumber: _contactNumber,\r\n            appartmentNumber: _appartmentNumber,\r\n            street: _street,\r\n            city: _city,\r\n            state: _state,\r\n            country: _country\r\n        });\r\n    }\r\n\r\n    function registerDoctorEducationalDetails(\r\n        string memory _licenseNumber,\r\n        string memory _specialization,\r\n        string memory _highestQualification,\r\n        string memory _experience,\r\n        string memory _medicalSchool,\r\n        string memory _graduationYear\r\n    ) public {\r\n        require(doctorAddresses[_licenseNumber] != address(0), \"Doctor not found\");\r\n        doctors[_licenseNumber].educationalDetails = DoctorEducationalDetails({\r\n            specialization: _specialization,\r\n            heighestQualification: _highestQualification,\r\n            experience: _experience,\r\n            medicalSchool: _medicalSchool,\r\n            graduationYear: _graduationYear\r\n        });\r\n    }\r\n\r\n    function registerDoctorProfessionalDetails(\r\n        string memory _licenseNumber,\r\n        string memory _hospitalName,\r\n        string memory _designation,\r\n        string memory _department,\r\n        string memory _consultantFees\r\n    ) public {\r\n        require(doctorAddresses[_licenseNumber] != address(0), \"Doctor not found\");\r\n        doctors[_licenseNumber].professionalDetails = DoctorProfessionalDetails({\r\n            hospitalName: _hospitalName,\r\n            designation: _designation,\r\n            department: _department,\r\n            consultantFees: _consultantFees\r\n        });\r\n    }\r\n\r\n    function validatePassword(string memory _licenseNumber, string memory _password) public view returns (bool) {\r\n        require(doctorAddresses[_licenseNumber] != address(0), \"Doctor not found\");\r\n        DoctorCredentials memory credentials = doctors[_licenseNumber].credential;\r\n        return (keccak256(abi.encodePacked(credentials.password)) == keccak256(abi.encodePacked(_password)));\r\n    }\r\n\r\n    function isDoctorRegistered(string memory _licenseNumber) public view returns (bool) {\r\n        return doctorAddresses[_licenseNumber] != address(0);\r\n    }\r\n\r\n    function getDoctorCredentials(string memory _licenseNumber) public view returns ( string memory doctorName, string memory licenseNumber, string memory email, address walletAddress ) {\r\n        require(doctorAddresses[_licenseNumber] != address(0), \"Doctor not registered\");\r\n\r\n        Doctor storage doctor = doctors[_licenseNumber];\r\n\r\n        return (\r\n            doctor.credential.doctorName,\r\n            doctor.credential.licenseNumber,\r\n            doctor.credential.email,\r\n            doctor.credential.walletAddress\r\n        );\r\n    }\r\n\r\n    function getDoctorPersonalDetails(string memory _licenseNumber) public view returns ( string memory gender, string memory age, string memory date, string memory month, string memory year, string memory maritalStatus ) {\r\n        require(doctorAddresses[_licenseNumber] != address(0), \"Doctor not registered\");\r\n\r\n        Doctor storage doctor = doctors[_licenseNumber];\r\n\r\n        return (\r\n            doctor.personalDetails.gender,\r\n            doctor.personalDetails.age,\r\n            doctor.personalDetails.date,\r\n            doctor.personalDetails.month,\r\n            doctor.personalDetails.year,\r\n            doctor.personalDetails.maritalStatus\r\n        );\r\n    }\r\n\r\n    function getDoctorContactDetails(string memory _licenseNumber) public view returns ( string memory contactNumber, string memory appartmentNumber, string memory street, string memory city, string memory state, string memory country ) {\r\n        require(doctorAddresses[_licenseNumber] != address(0), \"Doctor not registered\");\r\n\r\n        Doctor storage doctor = doctors[_licenseNumber];\r\n\r\n        return (\r\n            doctor.contactDetails.contactNumber,\r\n            doctor.contactDetails.appartmentNumber,\r\n            doctor.contactDetails.street,\r\n            doctor.contactDetails.city,\r\n            doctor.contactDetails.state,\r\n            doctor.contactDetails.country\r\n        );\r\n    }\r\n\r\n    function getDoctorEducationalDetails(string memory _licenseNumber) public view returns ( string memory specialization, string memory highestQualification, string memory experience, string memory medicalSchool, string memory graduationYear ) {\r\n        require(doctorAddresses[_licenseNumber] != address(0), \"Doctor not registered\");\r\n\r\n        Doctor storage doctor = doctors[_licenseNumber];\r\n\r\n        return (\r\n            doctor.educationalDetails.specialization,\r\n            doctor.educationalDetails.heighestQualification,\r\n            doctor.educationalDetails.experience,\r\n            doctor.educationalDetails.medicalSchool,\r\n            doctor.educationalDetails.graduationYear\r\n        );\r\n    }\r\n\r\n    function getDoctorProfessionalDetails(string memory _licenseNumber) public view returns ( string memory hospitalName, string memory designation, string memory department, string memory consultantFees ) {\r\n        require(doctorAddresses[_licenseNumber] != address(0), \"Doctor not registered\");\r\n\r\n        Doctor storage doctor = doctors[_licenseNumber];\r\n\r\n        return (\r\n            doctor.professionalDetails.hospitalName,\r\n            doctor.professionalDetails.designation,\r\n            doctor.professionalDetails.department,\r\n            doctor.professionalDetails.consultantFees\r\n        );\r\n    }\r\n}",
  "sourcePath": "C:\\Users\\Aman\\Desktop\\GITHUB\\WellWise_Core\\src\\contracts\\DoctorRegistration.sol",
  "compiler": {
    "name": "solc",
    "version": "0.5.16+commit.9c3226ce.Emscripten.clang"
  },
  "schemaVersion": "3.4.16",
  "updatedAt": "2025-01-08T21:00:44.081Z",
  "networkType": "ethereum",
  "devdoc": {
    "methods": {}
  },
  "userdoc": {
    "methods": {}
  }
}