{
  "contractName": "MentalHealth",
  "abi": [
    {
      "constant": false,
      "inputs": [
        {
          "internalType": "string",
          "name": "_healthID",
          "type": "string"
        },
        {
          "internalType": "string",
          "name": "_testID",
          "type": "string"
        },
        {
          "internalType": "address",
          "name": "_cryptoWalletAddress",
          "type": "address"
        }
      ],
      "name": "initializePatientMHTest",
      "outputs": [],
      "payable": false,
      "stateMutability": "nonpayable",
      "type": "function"
    },
    {
      "constant": false,
      "inputs": [
        {
          "internalType": "string",
          "name": "_healthID",
          "type": "string"
        },
        {
          "internalType": "string",
          "name": "_questionOne",
          "type": "string"
        },
        {
          "internalType": "string",
          "name": "_questionTwo",
          "type": "string"
        },
        {
          "internalType": "string",
          "name": "_questionThree",
          "type": "string"
        },
        {
          "internalType": "string",
          "name": "_questionFour",
          "type": "string"
        },
        {
          "internalType": "string",
          "name": "_questionFive",
          "type": "string"
        }
      ],
      "name": "initializeChildhoodDetails",
      "outputs": [],
      "payable": false,
      "stateMutability": "nonpayable",
      "type": "function"
    },
    {
      "constant": false,
      "inputs": [
        {
          "internalType": "string",
          "name": "_healthID",
          "type": "string"
        },
        {
          "internalType": "string",
          "name": "_questionOne",
          "type": "string"
        },
        {
          "internalType": "string",
          "name": "_questionTwo",
          "type": "string"
        },
        {
          "internalType": "string",
          "name": "_questionThree",
          "type": "string"
        },
        {
          "internalType": "string",
          "name": "_questionFour",
          "type": "string"
        },
        {
          "internalType": "string",
          "name": "_questionFive",
          "type": "string"
        }
      ],
      "name": "initializePHQ9SectionOne",
      "outputs": [],
      "payable": false,
      "stateMutability": "nonpayable",
      "type": "function"
    },
    {
      "constant": false,
      "inputs": [
        {
          "internalType": "string",
          "name": "_healthID",
          "type": "string"
        },
        {
          "internalType": "string",
          "name": "_questionSix",
          "type": "string"
        },
        {
          "internalType": "string",
          "name": "_questionSeven",
          "type": "string"
        },
        {
          "internalType": "string",
          "name": "_questionEight",
          "type": "string"
        },
        {
          "internalType": "string",
          "name": "_questionNine",
          "type": "string"
        }
      ],
      "name": "initializePHQ9SectionTwo",
      "outputs": [],
      "payable": false,
      "stateMutability": "nonpayable",
      "type": "function"
    },
    {
      "constant": false,
      "inputs": [
        {
          "internalType": "string",
          "name": "_healthID",
          "type": "string"
        },
        {
          "internalType": "string",
          "name": "_text",
          "type": "string"
        },
        {
          "internalType": "string",
          "name": "_hash",
          "type": "string"
        }
      ],
      "name": "initializeSentimentAnalysis",
      "outputs": [],
      "payable": false,
      "stateMutability": "nonpayable",
      "type": "function"
    },
    {
      "constant": true,
      "inputs": [
        {
          "internalType": "string",
          "name": "_healthID",
          "type": "string"
        }
      ],
      "name": "getSentimentAnalysis",
      "outputs": [
        {
          "internalType": "string",
          "name": "text",
          "type": "string"
        },
        {
          "internalType": "string",
          "name": "audioHash",
          "type": "string"
        }
      ],
      "payable": false,
      "stateMutability": "view",
      "type": "function"
    },
    {
      "constant": true,
      "inputs": [
        {
          "internalType": "string",
          "name": "_healthID",
          "type": "string"
        }
      ],
      "name": "getChildhoodDetails",
      "outputs": [
        {
          "internalType": "string",
          "name": "questionOne",
          "type": "string"
        },
        {
          "internalType": "string",
          "name": "questionTwo",
          "type": "string"
        },
        {
          "internalType": "string",
          "name": "questionThree",
          "type": "string"
        },
        {
          "internalType": "string",
          "name": "questionFour",
          "type": "string"
        },
        {
          "internalType": "string",
          "name": "questionFive",
          "type": "string"
        }
      ],
      "payable": false,
      "stateMutability": "view",
      "type": "function"
    },
    {
      "constant": true,
      "inputs": [
        {
          "internalType": "string",
          "name": "_healthID",
          "type": "string"
        }
      ],
      "name": "getPHQ9SectionOne",
      "outputs": [
        {
          "internalType": "string",
          "name": "questionOne",
          "type": "string"
        },
        {
          "internalType": "string",
          "name": "questionTwo",
          "type": "string"
        },
        {
          "internalType": "string",
          "name": "questionThree",
          "type": "string"
        },
        {
          "internalType": "string",
          "name": "questionFour",
          "type": "string"
        },
        {
          "internalType": "string",
          "name": "questionFive",
          "type": "string"
        }
      ],
      "payable": false,
      "stateMutability": "view",
      "type": "function"
    },
    {
      "constant": true,
      "inputs": [
        {
          "internalType": "string",
          "name": "_healthID",
          "type": "string"
        }
      ],
      "name": "getPHQ9SectionTwo",
      "outputs": [
        {
          "internalType": "string",
          "name": "questionSix",
          "type": "string"
        },
        {
          "internalType": "string",
          "name": "questionSeven",
          "type": "string"
        },
        {
          "internalType": "string",
          "name": "questionEight",
          "type": "string"
        },
        {
          "internalType": "string",
          "name": "questionNine",
          "type": "string"
        }
      ],
      "payable": false,
      "stateMutability": "view",
      "type": "function"
    }
  ],
  "bytecode": "0x608060405234801561001057600080fd5b50613082806100206000396000f3fe608060405234801561001057600080fd5b50600436106100935760003560e01c8063890d116411610066578063890d116414610a3c578063a32035ae14610d20578063c3152e1414611037578063db9bbcff146113e5578063dcea57dc1461165d57610093565b80631f15ea9414610098578063292ad39f1461020a578063473502c1146104ee5780636f90c56c1461089c575b600080fd5b610208600480360360608110156100ae57600080fd5b81019080803590602001906401000000008111156100cb57600080fd5b8201836020820111156100dd57600080fd5b803590602001918460018302840111640100000000831117156100ff57600080fd5b91908080601f016020809104026020016040519081016040528093929190818152602001838380828437600081840152601f19601f8201169050808301925050505050505091929192908035906020019064010000000081111561016257600080fd5b82018360208201111561017457600080fd5b8035906020019184600183028401116401000000008311171561019657600080fd5b91908080601f016020809104026020016040519081016040528093929190818152602001838380828437600081840152601f19601f820116905080830192505050505050509192919290803573ffffffffffffffffffffffffffffffffffffffff169060200190929190505050611846565b005b6102c36004803603602081101561022057600080fd5b810190808035906020019064010000000081111561023d57600080fd5b82018360208201111561024f57600080fd5b8035906020019184600183028401116401000000008311171561027157600080fd5b91908080601f016020809104026020016040519081016040528093929190818152602001838380828437600081840152601f19601f820116905080830192505050505050509192919290505050611cd5565b60405180806020018060200180602001806020018060200186810386528b818151815260200191508051906020019080838360005b838110156103135780820151818401526020810190506102f8565b50505050905090810190601f1680156103405780820380516001836020036101000a031916815260200191505b5086810385528a818151815260200191508051906020019080838360005b8381101561037957808201518184015260208101905061035e565b50505050905090810190601f1680156103a65780820380516001836020036101000a031916815260200191505b50868103845289818151815260200191508051906020019080838360005b838110156103df5780820151818401526020810190506103c4565b50505050905090810190601f16801561040c5780820380516001836020036101000a031916815260200191505b50868103835288818151815260200191508051906020019080838360005b8381101561044557808201518184015260208101905061042a565b50505050905090810190601f1680156104725780820380516001836020036101000a031916815260200191505b50868103825287818151815260200191508051906020019080838360005b838110156104ab578082015181840152602081019050610490565b50505050905090810190601f1680156104d85780820380516001836020036101000a031916815260200191505b509a505050505050505050505060405180910390f35b61089a600480360360c081101561050457600080fd5b810190808035906020019064010000000081111561052157600080fd5b82018360208201111561053357600080fd5b8035906020019184600183028401116401000000008311171561055557600080fd5b91908080601f016020809104026020016040519081016040528093929190818152602001838380828437600081840152601f19601f820116905080830192505050505050509192919290803590602001906401000000008111156105b857600080fd5b8201836020820111156105ca57600080fd5b803590602001918460018302840111640100000000831117156105ec57600080fd5b91908080601f016020809104026020016040519081016040528093929190818152602001838380828437600081840152601f19601f8201169050808301925050505050505091929192908035906020019064010000000081111561064f57600080fd5b82018360208201111561066157600080fd5b8035906020019184600183028401116401000000008311171561068357600080fd5b91908080601f016020809104026020016040519081016040528093929190818152602001838380828437600081840152601f19601f820116905080830192505050505050509192919290803590602001906401000000008111156106e657600080fd5b8201836020820111156106f857600080fd5b8035906020019184600183028401116401000000008311171561071a57600080fd5b91908080601f016020809104026020016040519081016040528093929190818152602001838380828437600081840152601f19601f8201169050808301925050505050505091929192908035906020019064010000000081111561077d57600080fd5b82018360208201111561078f57600080fd5b803590602001918460018302840111640100000000831117156107b157600080fd5b91908080601f016020809104026020016040519081016040528093929190818152602001838380828437600081840152601f19601f8201169050808301925050505050505091929192908035906020019064010000000081111561081457600080fd5b82018360208201111561082657600080fd5b8035906020019184600183028401116401000000008311171561084857600080fd5b91908080601f016020809104026020016040519081016040528093929190818152602001838380828437600081840152601f19601f8201169050808301925050505050505091929192905050506120c4565b005b610955600480360360208110156108b257600080fd5b81019080803590602001906401000000008111156108cf57600080fd5b8201836020820111156108e157600080fd5b8035906020019184600183028401116401000000008311171561090357600080fd5b91908080601f016020809104026020016040519081016040528093929190818152602001838380828437600081840152601f19601f8201169050808301925050505050505091929192905050506121ff565b604051808060200180602001838103835285818151815260200191508051906020019080838360005b8381101561099957808201518184015260208101905061097e565b50505050905090810190601f1680156109c65780820380516001836020036101000a031916815260200191505b50838103825284818151815260200191508051906020019080838360005b838110156109ff5780820151818401526020810190506109e4565b50505050905090810190601f168015610a2c5780820380516001836020036101000a031916815260200191505b5094505050505060405180910390f35b610af560048036036020811015610a5257600080fd5b8101908080359060200190640100000000811115610a6f57600080fd5b820183602082011115610a8157600080fd5b80359060200191846001830284011164010000000083111715610aa357600080fd5b91908080601f016020809104026020016040519081016040528093929190818152602001838380828437600081840152601f19601f82011690508083019250505050505050919291929050505061241b565b60405180806020018060200180602001806020018060200186810386528b818151815260200191508051906020019080838360005b83811015610b45578082015181840152602081019050610b2a565b50505050905090810190601f168015610b725780820380516001836020036101000a031916815260200191505b5086810385528a818151815260200191508051906020019080838360005b83811015610bab578082015181840152602081019050610b90565b50505050905090810190601f168015610bd85780820380516001836020036101000a031916815260200191505b50868103845289818151815260200191508051906020019080838360005b83811015610c11578082015181840152602081019050610bf6565b50505050905090810190601f168015610c3e5780820380516001836020036101000a031916815260200191505b50868103835288818151815260200191508051906020019080838360005b83811015610c77578082015181840152602081019050610c5c565b50505050905090810190601f168015610ca45780820380516001836020036101000a031916815260200191505b50868103825287818151815260200191508051906020019080838360005b83811015610cdd578082015181840152602081019050610cc2565b50505050905090810190601f168015610d0a5780820380516001836020036101000a031916815260200191505b509a505050505050505050505060405180910390f35b611035600480360360a0811015610d3657600080fd5b8101908080359060200190640100000000811115610d5357600080fd5b820183602082011115610d6557600080fd5b80359060200191846001830284011164010000000083111715610d8757600080fd5b91908080601f016020809104026020016040519081016040528093929190818152602001838380828437600081840152601f19601f82011690508083019250505050505050919291929080359060200190640100000000811115610dea57600080fd5b820183602082011115610dfc57600080fd5b80359060200191846001830284011164010000000083111715610e1e57600080fd5b91908080601f016020809104026020016040519081016040528093929190818152602001838380828437600081840152601f19601f82011690508083019250505050505050919291929080359060200190640100000000811115610e8157600080fd5b820183602082011115610e9357600080fd5b80359060200191846001830284011164010000000083111715610eb557600080fd5b91908080601f016020809104026020016040519081016040528093929190818152602001838380828437600081840152601f19601f82011690508083019250505050505050919291929080359060200190640100000000811115610f1857600080fd5b820183602082011115610f2a57600080fd5b80359060200191846001830284011164010000000083111715610f4c57600080fd5b91908080601f016020809104026020016040519081016040528093929190818152602001838380828437600081840152601f19601f82011690508083019250505050505050919291929080359060200190640100000000811115610faf57600080fd5b820183602082011115610fc157600080fd5b80359060200191846001830284011164010000000083111715610fe357600080fd5b91908080601f016020809104026020016040519081016040528093929190818152602001838380828437600081840152601f19601f82011690508083019250505050505050919291929050505061280a565b005b6113e3600480360360c081101561104d57600080fd5b810190808035906020019064010000000081111561106a57600080fd5b82018360208201111561107c57600080fd5b8035906020019184600183028401116401000000008311171561109e57600080fd5b91908080601f016020809104026020016040519081016040528093929190818152602001838380828437600081840152601f19601f8201169050808301925050505050505091929192908035906020019064010000000081111561110157600080fd5b82018360208201111561111357600080fd5b8035906020019184600183028401116401000000008311171561113557600080fd5b91908080601f016020809104026020016040519081016040528093929190818152602001838380828437600081840152601f19601f8201169050808301925050505050505091929192908035906020019064010000000081111561119857600080fd5b8201836020820111156111aa57600080fd5b803590602001918460018302840111640100000000831117156111cc57600080fd5b91908080601f016020809104026020016040519081016040528093929190818152602001838380828437600081840152601f19601f8201169050808301925050505050505091929192908035906020019064010000000081111561122f57600080fd5b82018360208201111561124157600080fd5b8035906020019184600183028401116401000000008311171561126357600080fd5b91908080601f016020809104026020016040519081016040528093929190818152602001838380828437600081840152601f19601f820116905080830192505050505050509192919290803590602001906401000000008111156112c657600080fd5b8201836020820111156112d857600080fd5b803590602001918460018302840111640100000000831117156112fa57600080fd5b91908080601f016020809104026020016040519081016040528093929190818152602001838380828437600081840152601f19601f8201169050808301925050505050505091929192908035906020019064010000000081111561135d57600080fd5b82018360208201111561136f57600080fd5b8035906020019184600183028401116401000000008311171561139157600080fd5b91908080601f016020809104026020016040519081016040528093929190818152602001838380828437600081840152601f19601f820116905080830192505050505050509192919290505050612921565b005b61149e600480360360208110156113fb57600080fd5b810190808035906020019064010000000081111561141857600080fd5b82018360208201111561142a57600080fd5b8035906020019184600183028401116401000000008311171561144c57600080fd5b91908080601f016020809104026020016040519081016040528093929190818152602001838380828437600081840152601f19601f820116905080830192505050505050509192919290505050612a5c565b6040518080602001806020018060200180602001858103855289818151815260200191508051906020019080838360005b838110156114ea5780820151818401526020810190506114cf565b50505050905090810190601f1680156115175780820380516001836020036101000a031916815260200191505b50858103845288818151815260200191508051906020019080838360005b83811015611550578082015181840152602081019050611535565b50505050905090810190601f16801561157d5780820380516001836020036101000a031916815260200191505b50858103835287818151815260200191508051906020019080838360005b838110156115b657808201518184015260208101905061159b565b50505050905090810190601f1680156115e35780820380516001836020036101000a031916815260200191505b50858103825286818151815260200191508051906020019080838360005b8381101561161c578082015181840152602081019050611601565b50505050905090810190601f1680156116495780820380516001836020036101000a031916815260200191505b509850505050505050505060405180910390f35b6118446004803603606081101561167357600080fd5b810190808035906020019064010000000081111561169057600080fd5b8201836020820111156116a257600080fd5b803590602001918460018302840111640100000000831117156116c457600080fd5b91908080601f016020809104026020016040519081016040528093929190818152602001838380828437600081840152601f19601f8201169050808301925050505050505091929192908035906020019064010000000081111561172757600080fd5b82018360208201111561173957600080fd5b8035906020019184600183028401116401000000008311171561175b57600080fd5b91908080601f016020809104026020016040519081016040528093929190818152602001838380828437600081840152601f19601f820116905080830192505050505050509192919290803590602001906401000000008111156117be57600080fd5b8201836020820111156117d057600080fd5b803590602001918460018302840111640100000000831117156117f257600080fd5b91908080601f016020809104026020016040519081016040528093929190818152602001838380828437600081840152601f19601f820116905080830192505050505050509192919290505050612d9b565b005b6040518061010001604052808273ffffffffffffffffffffffffffffffffffffffff1681526020018481526020018381526020016040518060a001604052806040518060200160405280600081525081526020016040518060200160405280600081525081526020016040518060200160405280600081525081526020016040518060200160405280600081525081526020016040518060200160405280600081525081525081526020016040518060a001604052806040518060200160405280600081525081526020016040518060200160405280600081525081526020016040518060200160405280600081525081526020016040518060200160405280600081525081526020016040518060200160405280600081525081525081526020016040518060800160405280604051806020016040528060008152508152602001604051806020016040528060008152508152602001604051806020016040528060008152508152602001604051806020016040528060008152508152508152602001604051806020016040528060008152508152602001604051806020016040528060008152508152506000846040518082805190602001908083835b60208310611a285780518252602082019150602081019050602083039250611a05565b6001836020036101000a038019825116818451168082178552505050505050905001915050908152602001604051809103902060008201518160000160006101000a81548173ffffffffffffffffffffffffffffffffffffffff021916908373ffffffffffffffffffffffffffffffffffffffff1602179055506020820151816001019080519060200190611abe929190612ea2565b506040820151816002019080519060200190611adb929190612ea2565b506060820151816003016000820151816000019080519060200190611b01929190612ea2565b506020820151816001019080519060200190611b1e929190612ea2565b506040820151816002019080519060200190611b3b929190612ea2565b506060820151816003019080519060200190611b58929190612ea2565b506080820151816004019080519060200190611b75929190612ea2565b5050506080820151816008016000820151816000019080519060200190611b9d929190612ea2565b506020820151816001019080519060200190611bba929190612ea2565b506040820151816002019080519060200190611bd7929190612ea2565b506060820151816003019080519060200190611bf4929190612ea2565b506080820151816004019080519060200190611c11929190612ea2565b50505060a082015181600d016000820151816000019080519060200190611c39929190612ea2565b506020820151816001019080519060200190611c56929190612ea2565b506040820151816002019080519060200190611c73929190612ea2565b506060820151816003019080519060200190611c90929190612ea2565b50505060c0820151816011019080519060200190611caf929190612ea2565b5060e0820151816012019080519060200190611ccc929190612ea2565b50905050505050565b6060806060806060611ce5612f22565b6000876040518082805190602001908083835b60208310611d1b5780518252602082019150602081019050602083039250611cf8565b6001836020036101000a03801982511681845116808217855250505050505090500191505090815260200160405180910390206008016040518060a0016040529081600082018054600181600116156101000203166002900480601f016020809104026020016040519081016040528092919081815260200182805460018160011615610100020316600290048015611df55780601f10611dca57610100808354040283529160200191611df5565b820191906000526020600020905b815481529060010190602001808311611dd857829003601f168201915b50505050508152602001600182018054600181600116156101000203166002900480601f016020809104026020016040519081016040528092919081815260200182805460018160011615610100020316600290048015611e975780601f10611e6c57610100808354040283529160200191611e97565b820191906000526020600020905b815481529060010190602001808311611e7a57829003601f168201915b50505050508152602001600282018054600181600116156101000203166002900480601f016020809104026020016040519081016040528092919081815260200182805460018160011615610100020316600290048015611f395780601f10611f0e57610100808354040283529160200191611f39565b820191906000526020600020905b815481529060010190602001808311611f1c57829003601f168201915b50505050508152602001600382018054600181600116156101000203166002900480601f016020809104026020016040519081016040528092919081815260200182805460018160011615610100020316600290048015611fdb5780601f10611fb057610100808354040283529160200191611fdb565b820191906000526020600020905b815481529060010190602001808311611fbe57829003601f168201915b50505050508152602001600482018054600181600116156101000203166002900480601f01602080910402602001604051908101604052809291908181526020018280546001816001161561010002031660029004801561207d5780601f106120525761010080835404028352916020019161207d565b820191906000526020600020905b81548152906001019060200180831161206057829003601f168201915b505050505081525050905080600001518160200151826040015183606001518460800151849450839350829250819150809050955095509550955095505091939590929450565b6120cc612f22565b6040518060a00160405280878152602001868152602001858152602001848152602001838152509050806000886040518082805190602001908083835b6020831061212c5780518252602082019150602081019050602083039250612109565b6001836020036101000a0380198251168184511680821785525050505050509050019150509081526020016040518091039020600801600082015181600001908051906020019061217e929190612ea2565b50602082015181600101908051906020019061219b929190612ea2565b5060408201518160020190805190602001906121b8929190612ea2565b5060608201518160030190805190602001906121d5929190612ea2565b5060808201518160040190805190602001906121f2929190612ea2565b5090505050505050505050565b6060806000836040518082805190602001908083835b602083106122385780518252602082019150602081019050602083039250612215565b6001836020036101000a03801982511681845116808217855250505050505090500191505090815260200160405180910390206011016000846040518082805190602001908083835b602083106122a45780518252602082019150602081019050602083039250612281565b6001836020036101000a0380198251168184511680821785525050505050509050019150509081526020016040518091039020601201818054600181600116156101000203166002900480601f01602080910402602001604051908101604052809291908181526020018280546001816001161561010002031660029004801561236f5780601f106123445761010080835404028352916020019161236f565b820191906000526020600020905b81548152906001019060200180831161235257829003601f168201915b50505050509150808054600181600116156101000203166002900480601f01602080910402602001604051908101604052809291908181526020018280546001816001161561010002031660029004801561240b5780601f106123e05761010080835404028352916020019161240b565b820191906000526020600020905b8154815290600101906020018083116123ee57829003601f168201915b5050505050905091509150915091565b606080606080606061242b612f51565b6000876040518082805190602001908083835b60208310612461578051825260208201915060208101905060208303925061243e565b6001836020036101000a03801982511681845116808217855250505050505090500191505090815260200160405180910390206003016040518060a0016040529081600082018054600181600116156101000203166002900480601f01602080910402602001604051908101604052809291908181526020018280546001816001161561010002031660029004801561253b5780601f106125105761010080835404028352916020019161253b565b820191906000526020600020905b81548152906001019060200180831161251e57829003601f168201915b50505050508152602001600182018054600181600116156101000203166002900480601f0160208091040260200160405190810160405280929190818152602001828054600181600116156101000203166002900480156125dd5780601f106125b2576101008083540402835291602001916125dd565b820191906000526020600020905b8154815290600101906020018083116125c057829003601f168201915b50505050508152602001600282018054600181600116156101000203166002900480601f01602080910402602001604051908101604052809291908181526020018280546001816001161561010002031660029004801561267f5780601f106126545761010080835404028352916020019161267f565b820191906000526020600020905b81548152906001019060200180831161266257829003601f168201915b50505050508152602001600382018054600181600116156101000203166002900480601f0160208091040260200160405190810160405280929190818152602001828054600181600116156101000203166002900480156127215780601f106126f657610100808354040283529160200191612721565b820191906000526020600020905b81548152906001019060200180831161270457829003601f168201915b50505050508152602001600482018054600181600116156101000203166002900480601f0160208091040260200160405190810160405280929190818152602001828054600181600116156101000203166002900480156127c35780601f10612798576101008083540402835291602001916127c3565b820191906000526020600020905b8154815290600101906020018083116127a657829003601f168201915b505050505081525050905080600001518160200151826040015183606001518460800151849450839350829250819150809050955095509550955095505091939590929450565b612812612f80565b6040518060800160405280868152602001858152602001848152602001838152509050806000876040518082805190602001908083835b6020831061286c5780518252602082019150602081019050602083039250612849565b6001836020036101000a0380198251168184511680821785525050505050509050019150509081526020016040518091039020600d0160008201518160000190805190602001906128be929190612ea2565b5060208201518160010190805190602001906128db929190612ea2565b5060408201518160020190805190602001906128f8929190612ea2565b506060820151816003019080519060200190612915929190612ea2565b50905050505050505050565b612929612f51565b6040518060a00160405280878152602001868152602001858152602001848152602001838152509050806000886040518082805190602001908083835b602083106129895780518252602082019150602081019050602083039250612966565b6001836020036101000a038019825116818451168082178552505050505050905001915050908152602001604051809103902060030160008201518160000190805190602001906129db929190612ea2565b5060208201518160010190805190602001906129f8929190612ea2565b506040820151816002019080519060200190612a15929190612ea2565b506060820151816003019080519060200190612a32929190612ea2565b506080820151816004019080519060200190612a4f929190612ea2565b5090505050505050505050565b606080606080612a6a612f80565b6000866040518082805190602001908083835b60208310612aa05780518252602082019150602081019050602083039250612a7d565b6001836020036101000a0380198251168184511680821785525050505050509050019150509081526020016040518091039020600d01604051806080016040529081600082018054600181600116156101000203166002900480601f016020809104026020016040519081016040528092919081815260200182805460018160011615610100020316600290048015612b7a5780601f10612b4f57610100808354040283529160200191612b7a565b820191906000526020600020905b815481529060010190602001808311612b5d57829003601f168201915b50505050508152602001600182018054600181600116156101000203166002900480601f016020809104026020016040519081016040528092919081815260200182805460018160011615610100020316600290048015612c1c5780601f10612bf157610100808354040283529160200191612c1c565b820191906000526020600020905b815481529060010190602001808311612bff57829003601f168201915b50505050508152602001600282018054600181600116156101000203166002900480601f016020809104026020016040519081016040528092919081815260200182805460018160011615610100020316600290048015612cbe5780601f10612c9357610100808354040283529160200191612cbe565b820191906000526020600020905b815481529060010190602001808311612ca157829003601f168201915b50505050508152602001600382018054600181600116156101000203166002900480601f016020809104026020016040519081016040528092919081815260200182805460018160011615610100020316600290048015612d605780601f10612d3557610100808354040283529160200191612d60565b820191906000526020600020905b815481529060010190602001808311612d4357829003601f168201915b505050505081525050905080600001518160200151826040015183606001518393508292508191508090509450945094509450509193509193565b816000846040518082805190602001908083835b60208310612dd25780518252602082019150602081019050602083039250612daf565b6001836020036101000a03801982511681845116808217855250505050505090500191505090815260200160405180910390206011019080519060200190612e1b929190612fa8565b50806000846040518082805190602001908083835b60208310612e535780518252602082019150602081019050602083039250612e30565b6001836020036101000a03801982511681845116808217855250505050505090500191505090815260200160405180910390206012019080519060200190612e9c929190612fa8565b50505050565b828054600181600116156101000203166002900490600052602060002090601f016020900481019282601f10612ee357805160ff1916838001178555612f11565b82800160010185558215612f11579182015b82811115612f10578251825591602001919060010190612ef5565b5b509050612f1e9190613028565b5090565b6040518060a0016040528060608152602001606081526020016060815260200160608152602001606081525090565b6040518060a0016040528060608152602001606081526020016060815260200160608152602001606081525090565b6040518060800160405280606081526020016060815260200160608152602001606081525090565b828054600181600116156101000203166002900490600052602060002090601f016020900481019282601f10612fe957805160ff1916838001178555613017565b82800160010185558215613017579182015b82811115613016578251825591602001919060010190612ffb565b5b5090506130249190613028565b5090565b61304a91905b8082111561304657600081600090555060010161302e565b5090565b9056fea265627a7a72315820e720d41ed1b606e69a1c3a83b39318eafa78c253eec97bdbed9f2115eb698ed964736f6c63430005100032",
  "source": "// SPDX-License-Identifier: MIT\r\npragma solidity ^0.5.16;\r\n\r\ncontract MentalHealth {\r\n    struct mhtChildhoodDetails {\r\n        string questionOne;\r\n        string questionTwo;\r\n        string questionThree;\r\n        string questionFour;\r\n        string questionFive;\r\n    }\r\n\r\n    struct mhtphq9SectionOne {\r\n        string questionOne;\r\n        string questionTwo;\r\n        string questionThree;\r\n        string questionFour;\r\n        string questionFive;\r\n    }\r\n\r\n    struct mhtphq9SectionTwo {\r\n        string questionSix;\r\n        string questionSeven;\r\n        string questionEight;\r\n        string questionNine;\r\n    }\r\n\r\n    struct PatientMHTest {\r\n        address cryptoWalletAddress;\r\n        string healthID;\r\n        string testID;\r\n        mhtChildhoodDetails mhtcd;\r\n        mhtphq9SectionOne mhtphqOne;\r\n        mhtphq9SectionTwo mhtphqTwo;\r\n        string textSentiment;\r\n        string audioHash;\r\n    }\r\n\r\n    mapping(string => PatientMHTest) private patientTests;\r\n\r\n    function initializePatientMHTest( string memory _healthID, string memory _testID, address _cryptoWalletAddress ) public {\r\n        patientTests[_healthID] = PatientMHTest({\r\n            healthID: _healthID,\r\n            testID: _testID,\r\n            cryptoWalletAddress: _cryptoWalletAddress,\r\n            mhtcd: mhtChildhoodDetails(\"\", \"\", \"\", \"\", \"\"),\r\n            mhtphqOne: mhtphq9SectionOne(\"\", \"\", \"\", \"\", \"\"),\r\n            mhtphqTwo: mhtphq9SectionTwo(\"\", \"\", \"\", \"\"),\r\n            textSentiment: \"\",\r\n            audioHash: \"\"\r\n        });\r\n    }\r\n\r\n    function initializeChildhoodDetails( string memory _healthID, string memory _questionOne, string memory _questionTwo, string memory _questionThree, string memory _questionFour, string memory _questionFive ) public {\r\n        mhtChildhoodDetails memory mhtcd = mhtChildhoodDetails({\r\n            questionOne: _questionOne,\r\n            questionTwo: _questionTwo,\r\n            questionThree: _questionThree,\r\n            questionFour: _questionFour,\r\n            questionFive: _questionFive\r\n        });\r\n\r\n        patientTests[_healthID].mhtcd = mhtcd;\r\n    }\r\n\r\n    function initializePHQ9SectionOne( string memory _healthID, string memory _questionOne, string memory _questionTwo, string memory _questionThree, string memory _questionFour, string memory _questionFive ) public {\r\n        mhtphq9SectionOne memory mhtphqOne = mhtphq9SectionOne({\r\n            questionOne: _questionOne,\r\n            questionTwo: _questionTwo,\r\n            questionThree: _questionThree,\r\n            questionFour: _questionFour,\r\n            questionFive: _questionFive\r\n        });\r\n\r\n        patientTests[_healthID].mhtphqOne = mhtphqOne;\r\n    }\r\n\r\n    function initializePHQ9SectionTwo( string memory _healthID, string memory _questionSix, string memory _questionSeven, string memory _questionEight, string memory _questionNine ) public {\r\n        mhtphq9SectionTwo memory mhtphqTwo = mhtphq9SectionTwo({\r\n            questionSix: _questionSix,\r\n            questionSeven: _questionSeven,\r\n            questionEight: _questionEight,\r\n            questionNine: _questionNine\r\n        });\r\n\r\n        patientTests[_healthID].mhtphqTwo = mhtphqTwo;\r\n    }\r\n\r\n    function initializeSentimentAnalysis(string memory _healthID, string memory _text, string memory _hash) public {\r\n        patientTests[_healthID].textSentiment = _text;\r\n        patientTests[_healthID].audioHash = _hash;\r\n    }\r\n\r\n    function getSentimentAnalysis(string memory _healthID) public view returns ( string memory text, string memory audioHash){\r\n        return(\r\n            patientTests[_healthID].textSentiment,\r\n            patientTests[_healthID].audioHash\r\n        );\r\n    }\r\n\r\n    function getChildhoodDetails(string memory _healthID) public view returns ( string memory questionOne, string memory questionTwo, string memory questionThree, string memory questionFour, string memory questionFive ) {\r\n        mhtChildhoodDetails memory mhtcd = patientTests[_healthID].mhtcd;\r\n        return (\r\n            mhtcd.questionOne,\r\n            mhtcd.questionTwo,\r\n            mhtcd.questionThree,\r\n            mhtcd.questionFour,\r\n            mhtcd.questionFive\r\n        );\r\n    }\r\n\r\n    function getPHQ9SectionOne(string memory _healthID) public view returns ( string memory questionOne, string memory questionTwo, string memory questionThree, string memory questionFour, string memory questionFive ) {\r\n        mhtphq9SectionOne memory mhtphqOne = patientTests[_healthID].mhtphqOne;\r\n        return (\r\n            mhtphqOne.questionOne,\r\n            mhtphqOne.questionTwo,\r\n            mhtphqOne.questionThree,\r\n            mhtphqOne.questionFour,\r\n            mhtphqOne.questionFive\r\n        );\r\n    }\r\n\r\n    function getPHQ9SectionTwo(string memory _healthID) public view returns ( string memory questionSix, string memory questionSeven, string memory questionEight, string memory questionNine ) {\r\n        mhtphq9SectionTwo memory mhtphqTwo = patientTests[_healthID].mhtphqTwo;\r\n        return (\r\n            mhtphqTwo.questionSix,\r\n            mhtphqTwo.questionSeven,\r\n            mhtphqTwo.questionEight,\r\n            mhtphqTwo.questionNine\r\n        );\r\n    }\r\n}",
  "sourcePath": "C:\\Users\\Aman\\Desktop\\GITHUB\\WellWise_Core\\src\\contracts\\MentalHealth.sol",
  "compiler": {
    "name": "solc",
    "version": "0.5.16+commit.9c3226ce.Emscripten.clang"
  },
  "schemaVersion": "3.4.16",
  "updatedAt": "2025-01-08T21:00:44.679Z",
  "networkType": "ethereum",
  "devdoc": {
    "methods": {}
  },
  "userdoc": {
    "methods": {}
  }
}