{
  "contractName": "MentalHealth",
  "abi": [
    {
      "constant": false,
      "inputs": [
        {
          "internalType": "string",
          "name": "_healthID",
          "type": "string"
        },
        {
          "internalType": "string",
          "name": "_testID",
          "type": "string"
        },
        {
          "internalType": "address",
          "name": "_cryptoWalletAddress",
          "type": "address"
        }
      ],
      "name": "initializePatientMHTest",
      "outputs": [],
      "payable": false,
      "stateMutability": "nonpayable",
      "type": "function"
    },
    {
      "constant": false,
      "inputs": [
        {
          "internalType": "string",
          "name": "_testID",
          "type": "string"
        },
        {
          "internalType": "string",
          "name": "_questionOne",
          "type": "string"
        },
        {
          "internalType": "string",
          "name": "_questionTwo",
          "type": "string"
        },
        {
          "internalType": "string",
          "name": "_questionThree",
          "type": "string"
        },
        {
          "internalType": "string",
          "name": "_questionFour",
          "type": "string"
        },
        {
          "internalType": "string",
          "name": "_questionFive",
          "type": "string"
        },
        {
          "internalType": "string",
          "name": "_score",
          "type": "string"
        }
      ],
      "name": "initializeChildhoodDetails",
      "outputs": [],
      "payable": false,
      "stateMutability": "nonpayable",
      "type": "function"
    },
    {
      "constant": false,
      "inputs": [
        {
          "internalType": "string",
          "name": "_testID",
          "type": "string"
        },
        {
          "internalType": "string",
          "name": "_questionOne",
          "type": "string"
        },
        {
          "internalType": "string",
          "name": "_questionTwo",
          "type": "string"
        },
        {
          "internalType": "string",
          "name": "_questionThree",
          "type": "string"
        },
        {
          "internalType": "string",
          "name": "_questionFour",
          "type": "string"
        },
        {
          "internalType": "string",
          "name": "_questionFive",
          "type": "string"
        },
        {
          "internalType": "string",
          "name": "_questionSix",
          "type": "string"
        },
        {
          "internalType": "string",
          "name": "_questionSeven",
          "type": "string"
        },
        {
          "internalType": "string",
          "name": "_questionEight",
          "type": "string"
        },
        {
          "internalType": "string",
          "name": "_questionNine",
          "type": "string"
        },
        {
          "internalType": "string",
          "name": "_score",
          "type": "string"
        }
      ],
      "name": "initializePHQ9Details",
      "outputs": [],
      "payable": false,
      "stateMutability": "nonpayable",
      "type": "function"
    },
    {
      "constant": false,
      "inputs": [
        {
          "internalType": "string",
          "name": "_testID",
          "type": "string"
        },
        {
          "internalType": "string",
          "name": "_text",
          "type": "string"
        },
        {
          "internalType": "string",
          "name": "_hash",
          "type": "string"
        }
      ],
      "name": "initializeSentimentDetails",
      "outputs": [],
      "payable": false,
      "stateMutability": "nonpayable",
      "type": "function"
    },
    {
      "constant": false,
      "inputs": [
        {
          "internalType": "string",
          "name": "_testID",
          "type": "string"
        },
        {
          "internalType": "string",
          "name": "_score",
          "type": "string"
        }
      ],
      "name": "initializeSentimentalScore",
      "outputs": [],
      "payable": false,
      "stateMutability": "nonpayable",
      "type": "function"
    },
    {
      "constant": true,
      "inputs": [
        {
          "internalType": "string",
          "name": "_healthID",
          "type": "string"
        }
      ],
      "name": "getAllTestIDs",
      "outputs": [
        {
          "internalType": "string[]",
          "name": "",
          "type": "string[]"
        }
      ],
      "payable": false,
      "stateMutability": "view",
      "type": "function"
    },
    {
      "constant": true,
      "inputs": [
        {
          "internalType": "string",
          "name": "_testID",
          "type": "string"
        }
      ],
      "name": "getChildhoodDetails",
      "outputs": [
        {
          "components": [
            {
              "internalType": "string",
              "name": "questionOne",
              "type": "string"
            },
            {
              "internalType": "string",
              "name": "questionTwo",
              "type": "string"
            },
            {
              "internalType": "string",
              "name": "questionThree",
              "type": "string"
            },
            {
              "internalType": "string",
              "name": "questionFour",
              "type": "string"
            },
            {
              "internalType": "string",
              "name": "questionFive",
              "type": "string"
            },
            {
              "internalType": "string",
              "name": "score",
              "type": "string"
            }
          ],
          "internalType": "struct MentalHealth.mhtChildhoodDetails",
          "name": "",
          "type": "tuple"
        }
      ],
      "payable": false,
      "stateMutability": "view",
      "type": "function"
    },
    {
      "constant": true,
      "inputs": [
        {
          "internalType": "string",
          "name": "_testID",
          "type": "string"
        }
      ],
      "name": "getPHQ9Details",
      "outputs": [
        {
          "components": [
            {
              "internalType": "string",
              "name": "questionOne",
              "type": "string"
            },
            {
              "internalType": "string",
              "name": "questionTwo",
              "type": "string"
            },
            {
              "internalType": "string",
              "name": "questionThree",
              "type": "string"
            },
            {
              "internalType": "string",
              "name": "questionFour",
              "type": "string"
            },
            {
              "internalType": "string",
              "name": "questionFive",
              "type": "string"
            },
            {
              "internalType": "string",
              "name": "questionSix",
              "type": "string"
            },
            {
              "internalType": "string",
              "name": "questionSeven",
              "type": "string"
            },
            {
              "internalType": "string",
              "name": "questionEight",
              "type": "string"
            },
            {
              "internalType": "string",
              "name": "questionNine",
              "type": "string"
            },
            {
              "internalType": "string",
              "name": "score",
              "type": "string"
            }
          ],
          "internalType": "struct MentalHealth.mhtPHQ9Details",
          "name": "",
          "type": "tuple"
        }
      ],
      "payable": false,
      "stateMutability": "view",
      "type": "function"
    },
    {
      "constant": true,
      "inputs": [
        {
          "internalType": "string",
          "name": "_testID",
          "type": "string"
        }
      ],
      "name": "getSentimentDetails",
      "outputs": [
        {
          "components": [
            {
              "internalType": "string",
              "name": "textSentiment",
              "type": "string"
            },
            {
              "internalType": "string",
              "name": "audioHash",
              "type": "string"
            },
            {
              "internalType": "string",
              "name": "score",
              "type": "string"
            }
          ],
          "internalType": "struct MentalHealth.SentimentDetails",
          "name": "",
          "type": "tuple"
        }
      ],
      "payable": false,
      "stateMutability": "view",
      "type": "function"
    },
    {
      "constant": true,
      "inputs": [
        {
          "internalType": "string",
          "name": "_testID",
          "type": "string"
        }
      ],
      "name": "getCompleteTestDetails",
      "outputs": [
        {
          "components": [
            {
              "components": [
                {
                  "internalType": "address",
                  "name": "cryptoWalletAddress",
                  "type": "address"
                },
                {
                  "internalType": "string",
                  "name": "healthID",
                  "type": "string"
                },
                {
                  "internalType": "string",
                  "name": "testID",
                  "type": "string"
                }
              ],
              "internalType": "struct MentalHealth.PatientCredentials",
              "name": "credentials",
              "type": "tuple"
            },
            {
              "components": [
                {
                  "internalType": "string",
                  "name": "questionOne",
                  "type": "string"
                },
                {
                  "internalType": "string",
                  "name": "questionTwo",
                  "type": "string"
                },
                {
                  "internalType": "string",
                  "name": "questionThree",
                  "type": "string"
                },
                {
                  "internalType": "string",
                  "name": "questionFour",
                  "type": "string"
                },
                {
                  "internalType": "string",
                  "name": "questionFive",
                  "type": "string"
                },
                {
                  "internalType": "string",
                  "name": "score",
                  "type": "string"
                }
              ],
              "internalType": "struct MentalHealth.mhtChildhoodDetails",
              "name": "mhtcd",
              "type": "tuple"
            },
            {
              "components": [
                {
                  "internalType": "string",
                  "name": "questionOne",
                  "type": "string"
                },
                {
                  "internalType": "string",
                  "name": "questionTwo",
                  "type": "string"
                },
                {
                  "internalType": "string",
                  "name": "questionThree",
                  "type": "string"
                },
                {
                  "internalType": "string",
                  "name": "questionFour",
                  "type": "string"
                },
                {
                  "internalType": "string",
                  "name": "questionFive",
                  "type": "string"
                },
                {
                  "internalType": "string",
                  "name": "questionSix",
                  "type": "string"
                },
                {
                  "internalType": "string",
                  "name": "questionSeven",
                  "type": "string"
                },
                {
                  "internalType": "string",
                  "name": "questionEight",
                  "type": "string"
                },
                {
                  "internalType": "string",
                  "name": "questionNine",
                  "type": "string"
                },
                {
                  "internalType": "string",
                  "name": "score",
                  "type": "string"
                }
              ],
              "internalType": "struct MentalHealth.mhtPHQ9Details",
              "name": "mhtphqDetails",
              "type": "tuple"
            },
            {
              "components": [
                {
                  "internalType": "string",
                  "name": "textSentiment",
                  "type": "string"
                },
                {
                  "internalType": "string",
                  "name": "audioHash",
                  "type": "string"
                },
                {
                  "internalType": "string",
                  "name": "score",
                  "type": "string"
                }
              ],
              "internalType": "struct MentalHealth.SentimentDetails",
              "name": "sentimentDetails",
              "type": "tuple"
            },
            {
              "components": [
                {
                  "internalType": "string",
                  "name": "blinkCount",
                  "type": "string"
                }
              ],
              "internalType": "struct MentalHealth.VideoAnalysis",
              "name": "videoDetails",
              "type": "tuple"
            }
          ],
          "internalType": "struct MentalHealth.PatientMHTest",
          "name": "",
          "type": "tuple"
        }
      ],
      "payable": false,
      "stateMutability": "view",
      "type": "function"
    }
  ],
  "bytecode": "0x608060405234801561001057600080fd5b50613c18806100206000396000f3fe608060405234801561001057600080fd5b506004361061009e5760003560e01c8063b8b9369e11610066578063b8b9369e1461016b578063cba6e47c14610187578063d2a0537b146101a3578063d34a2e46146101bf578063f2f1ef28146101ef5761009e565b80631f15ea94146100a35780632f5cb220146100bf57806371330671146100ef578063890d11641461011f5780638e9bcc2d1461014f575b600080fd5b6100bd60048036036100b89190810190612e94565b61021f565b005b6100d960048036036100d49190810190612de7565b610835565b6040516100e6919061399a565b60405180910390f35b61010960048036036101049190810190612de7565b61093c565b60405161011691906139fe565b60405180910390f35b61013960048036036101349190810190612de7565b610b5d565b6040516101469190613a20565b60405180910390f35b61016960048036036101649190810190612faa565b610f64565b005b610185600480360361018091908101906130f0565b611078565b005b6101a1600480360361019c9190810190612f13565b61121f565b005b6101bd60048036036101b89190810190612e28565b6112d5565b005b6101d960048036036101d49190810190612de7565b6114ff565b6040516101e691906139dc565b60405180910390f35b61020960048036036102049190810190612de7565b6123de565b6040516102169190613a42565b60405180910390f35b60006001836040516102319190613983565b90815260200160405180910390206000016002018054600181600116156101000203166002900490501461029a576040517f08c379a0000000000000000000000000000000000000000000000000000000008152600401610291906139bc565b60405180910390fd5b6000836040516102aa9190613983565b90815260200160405180910390208290806001815401808255809150509060018203906000526020600020016000909192909190915090805190602001906102f3929190612a6e565b50506040518060a0016040528060405180606001604052808473ffffffffffffffffffffffffffffffffffffffff1681526020018681526020018581525081526020016040518060c0016040528060405180602001604052806000815250815260200160405180602001604052806000815250815260200160405180602001604052806000815250815260200160405180602001604052806000815250815260200160405180602001604052806000815250815260200160405180602001604052806000815250815250815260200160405180610140016040528060405180602001604052806000815250815260200160405180602001604052806000815250815260200160405180602001604052806000815250815260200160405180602001604052806000815250815260200160405180602001604052806000815250815260200160405180602001604052806000815250815260200160405180602001604052806000815250815260200160405180602001604052806000815250815260200160405180602001604052806000815250815260200160405180602001604052806000815250815250815260200160405180606001604052806040518060200160405280600081525081526020016040518060200160405280600081525081526020016040518060200160405280600081525081525081526020016040518060200160405280604051806020016040528060008152508152508152506001836040516105219190613983565b908152602001604051809103902060008201518160000160008201518160000160006101000a81548173ffffffffffffffffffffffffffffffffffffffff021916908373ffffffffffffffffffffffffffffffffffffffff160217905550602082015181600101908051906020019061059b929190612aee565b5060408201518160020190805190602001906105b8929190612aee565b50505060208201518160030160008201518160000190805190602001906105e0929190612aee565b5060208201518160010190805190602001906105fd929190612aee565b50604082015181600201908051906020019061061a929190612aee565b506060820151816003019080519060200190610637929190612aee565b506080820151816004019080519060200190610654929190612aee565b5060a0820151816005019080519060200190610671929190612aee565b5050506040820151816009016000820151816000019080519060200190610699929190612aee565b5060208201518160010190805190602001906106b6929190612aee565b5060408201518160020190805190602001906106d3929190612aee565b5060608201518160030190805190602001906106f0929190612aee565b50608082015181600401908051906020019061070d929190612aee565b5060a082015181600501908051906020019061072a929190612aee565b5060c0820151816006019080519060200190610747929190612aee565b5060e0820151816007019080519060200190610764929190612aee565b50610100820151816008019080519060200190610782929190612aee565b506101208201518160090190805190602001906107a0929190612aee565b50505060608201518160130160008201518160000190805190602001906107c8929190612aee565b5060208201518160010190805190602001906107e5929190612aee565b506040820151816002019080519060200190610802929190612aee565b505050608082015181601601600082015181600001908051906020019061082a929190612aee565b505050905050505050565b60606000826040516108479190613983565b9081526020016040518091039020805480602002602001604051908101604052809291908181526020016000905b82821015610931578382906000526020600020018054600181600116156101000203166002900480601f01602080910402602001604051908101604052809291908181526020018280546001816001161561010002031660029004801561091d5780601f106108f25761010080835404028352916020019161091d565b820191906000526020600020905b81548152906001019060200180831161090057829003601f168201915b505050505081526020019060010190610875565b505050509050919050565b610944612b6e565b6001826040516109549190613983565b9081526020016040518091039020601301604051806060016040529081600082018054600181600116156101000203166002900480601f016020809104026020016040519081016040528092919081815260200182805460018160011615610100020316600290048015610a095780601f106109de57610100808354040283529160200191610a09565b820191906000526020600020905b8154815290600101906020018083116109ec57829003601f168201915b50505050508152602001600182018054600181600116156101000203166002900480601f016020809104026020016040519081016040528092919081815260200182805460018160011615610100020316600290048015610aab5780601f10610a8057610100808354040283529160200191610aab565b820191906000526020600020905b815481529060010190602001808311610a8e57829003601f168201915b50505050508152602001600282018054600181600116156101000203166002900480601f016020809104026020016040519081016040528092919081815260200182805460018160011615610100020316600290048015610b4d5780601f10610b2257610100808354040283529160200191610b4d565b820191906000526020600020905b815481529060010190602001808311610b3057829003601f168201915b5050505050815250509050919050565b610b65612b8f565b600182604051610b759190613983565b90815260200160405180910390206003016040518060c0016040529081600082018054600181600116156101000203166002900480601f016020809104026020016040519081016040528092919081815260200182805460018160011615610100020316600290048015610c2a5780601f10610bff57610100808354040283529160200191610c2a565b820191906000526020600020905b815481529060010190602001808311610c0d57829003601f168201915b50505050508152602001600182018054600181600116156101000203166002900480601f016020809104026020016040519081016040528092919081815260200182805460018160011615610100020316600290048015610ccc5780601f10610ca157610100808354040283529160200191610ccc565b820191906000526020600020905b815481529060010190602001808311610caf57829003601f168201915b50505050508152602001600282018054600181600116156101000203166002900480601f016020809104026020016040519081016040528092919081815260200182805460018160011615610100020316600290048015610d6e5780601f10610d4357610100808354040283529160200191610d6e565b820191906000526020600020905b815481529060010190602001808311610d5157829003601f168201915b50505050508152602001600382018054600181600116156101000203166002900480601f016020809104026020016040519081016040528092919081815260200182805460018160011615610100020316600290048015610e105780601f10610de557610100808354040283529160200191610e10565b820191906000526020600020905b815481529060010190602001808311610df357829003601f168201915b50505050508152602001600482018054600181600116156101000203166002900480601f016020809104026020016040519081016040528092919081815260200182805460018160011615610100020316600290048015610eb25780601f10610e8757610100808354040283529160200191610eb2565b820191906000526020600020905b815481529060010190602001808311610e9557829003601f168201915b50505050508152602001600582018054600181600116156101000203166002900480601f016020809104026020016040519081016040528092919081815260200182805460018160011615610100020316600290048015610f545780601f10610f2957610100808354040283529160200191610f54565b820191906000526020600020905b815481529060010190602001808311610f3757829003601f168201915b5050505050815250509050919050565b610f6c612b8f565b6040518060c0016040528088815260200187815260200186815260200185815260200184815260200183815250905080600189604051610fac9190613983565b90815260200160405180910390206003016000820151816000019080519060200190610fd9929190612aee565b506020820151816001019080519060200190610ff6929190612aee565b506040820151816002019080519060200190611013929190612aee565b506060820151816003019080519060200190611030929190612aee565b50608082015181600401908051906020019061104d929190612aee565b5060a082015181600501908051906020019061106a929190612aee565b509050505050505050505050565b611080612bc5565b6040518061014001604052808c81526020018b81526020018a81526020018981526020018881526020018781526020018681526020018581526020018481526020018381525090508060018d6040516110d99190613983565b90815260200160405180910390206009016000820151816000019080519060200190611106929190612aee565b506020820151816001019080519060200190611123929190612aee565b506040820151816002019080519060200190611140929190612aee565b50606082015181600301908051906020019061115d929190612aee565b50608082015181600401908051906020019061117a929190612aee565b5060a0820151816005019080519060200190611197929190612aee565b5060c08201518160060190805190602001906111b4929190612aee565b5060e08201518160070190805190602001906111d1929190612aee565b506101008201518160080190805190602001906111ef929190612aee565b5061012082015181600901908051906020019061120d929190612aee565b50905050505050505050505050505050565b611227612b6e565b6040518060600160405280848152602001838152602001604051806020016040528060008152508152509050806001856040516112649190613983565b90815260200160405180910390206013016000820151816000019080519060200190611291929190612aee565b5060208201518160010190805190602001906112ae929190612aee565b5060408201518160020190805190602001906112cb929190612aee565b5090505050505050565b60606001836040516112e79190613983565b90815260200160405180910390206013016000018054600181600116156101000203166002900480601f01602080910402602001604051908101604052809291908181526020018280546001816001161561010002031660029004801561138f5780601f106113645761010080835404028352916020019161138f565b820191906000526020600020905b81548152906001019060200180831161137257829003601f168201915b5050505050905060606001846040516113a89190613983565b90815260200160405180910390206013016001018054600181600116156101000203166002900480601f0160208091040260200160405190810160405280929190818152602001828054600181600116156101000203166002900480156114505780601f1061142557610100808354040283529160200191611450565b820191906000526020600020905b81548152906001019060200180831161143357829003601f168201915b5050505050905061145f612b6e565b60405180606001604052808481526020018381526020018581525090508060018660405161148d9190613983565b908152602001604051809103902060130160008201518160000190805190602001906114ba929190612aee565b5060208201518160010190805190602001906114d7929190612aee565b5060408201518160020190805190602001906114f4929190612aee565b509050505050505050565b611507612c18565b6001826040516115179190613983565b90815260200160405180910390206040518060a0016040529081600082016040518060600160405290816000820160009054906101000a900473ffffffffffffffffffffffffffffffffffffffff1673ffffffffffffffffffffffffffffffffffffffff1673ffffffffffffffffffffffffffffffffffffffff168152602001600182018054600181600116156101000203166002900480601f01602080910402602001604051908101604052809291908181526020018280546001816001161561010002031660029004801561162f5780601f106116045761010080835404028352916020019161162f565b820191906000526020600020905b81548152906001019060200180831161161257829003601f168201915b50505050508152602001600282018054600181600116156101000203166002900480601f0160208091040260200160405190810160405280929190818152602001828054600181600116156101000203166002900480156116d15780601f106116a6576101008083540402835291602001916116d1565b820191906000526020600020905b8154815290600101906020018083116116b457829003601f168201915b5050505050815250508152602001600382016040518060c0016040529081600082018054600181600116156101000203166002900480601f0160208091040260200160405190810160405280929190818152602001828054600181600116156101000203166002900480156117875780601f1061175c57610100808354040283529160200191611787565b820191906000526020600020905b81548152906001019060200180831161176a57829003601f168201915b50505050508152602001600182018054600181600116156101000203166002900480601f0160208091040260200160405190810160405280929190818152602001828054600181600116156101000203166002900480156118295780601f106117fe57610100808354040283529160200191611829565b820191906000526020600020905b81548152906001019060200180831161180c57829003601f168201915b50505050508152602001600282018054600181600116156101000203166002900480601f0160208091040260200160405190810160405280929190818152602001828054600181600116156101000203166002900480156118cb5780601f106118a0576101008083540402835291602001916118cb565b820191906000526020600020905b8154815290600101906020018083116118ae57829003601f168201915b50505050508152602001600382018054600181600116156101000203166002900480601f01602080910402602001604051908101604052809291908181526020018280546001816001161561010002031660029004801561196d5780601f106119425761010080835404028352916020019161196d565b820191906000526020600020905b81548152906001019060200180831161195057829003601f168201915b50505050508152602001600482018054600181600116156101000203166002900480601f016020809104026020016040519081016040528092919081815260200182805460018160011615610100020316600290048015611a0f5780601f106119e457610100808354040283529160200191611a0f565b820191906000526020600020905b8154815290600101906020018083116119f257829003601f168201915b50505050508152602001600582018054600181600116156101000203166002900480601f016020809104026020016040519081016040528092919081815260200182805460018160011615610100020316600290048015611ab15780601f10611a8657610100808354040283529160200191611ab1565b820191906000526020600020905b815481529060010190602001808311611a9457829003601f168201915b50505050508152505081526020016009820160405180610140016040529081600082018054600181600116156101000203166002900480601f016020809104026020016040519081016040528092919081815260200182805460018160011615610100020316600290048015611b685780601f10611b3d57610100808354040283529160200191611b68565b820191906000526020600020905b815481529060010190602001808311611b4b57829003601f168201915b50505050508152602001600182018054600181600116156101000203166002900480601f016020809104026020016040519081016040528092919081815260200182805460018160011615610100020316600290048015611c0a5780601f10611bdf57610100808354040283529160200191611c0a565b820191906000526020600020905b815481529060010190602001808311611bed57829003601f168201915b50505050508152602001600282018054600181600116156101000203166002900480601f016020809104026020016040519081016040528092919081815260200182805460018160011615610100020316600290048015611cac5780601f10611c8157610100808354040283529160200191611cac565b820191906000526020600020905b815481529060010190602001808311611c8f57829003601f168201915b50505050508152602001600382018054600181600116156101000203166002900480601f016020809104026020016040519081016040528092919081815260200182805460018160011615610100020316600290048015611d4e5780601f10611d2357610100808354040283529160200191611d4e565b820191906000526020600020905b815481529060010190602001808311611d3157829003601f168201915b50505050508152602001600482018054600181600116156101000203166002900480601f016020809104026020016040519081016040528092919081815260200182805460018160011615610100020316600290048015611df05780601f10611dc557610100808354040283529160200191611df0565b820191906000526020600020905b815481529060010190602001808311611dd357829003601f168201915b50505050508152602001600582018054600181600116156101000203166002900480601f016020809104026020016040519081016040528092919081815260200182805460018160011615610100020316600290048015611e925780601f10611e6757610100808354040283529160200191611e92565b820191906000526020600020905b815481529060010190602001808311611e7557829003601f168201915b50505050508152602001600682018054600181600116156101000203166002900480601f016020809104026020016040519081016040528092919081815260200182805460018160011615610100020316600290048015611f345780601f10611f0957610100808354040283529160200191611f34565b820191906000526020600020905b815481529060010190602001808311611f1757829003601f168201915b50505050508152602001600782018054600181600116156101000203166002900480601f016020809104026020016040519081016040528092919081815260200182805460018160011615610100020316600290048015611fd65780601f10611fab57610100808354040283529160200191611fd6565b820191906000526020600020905b815481529060010190602001808311611fb957829003601f168201915b50505050508152602001600882018054600181600116156101000203166002900480601f0160208091040260200160405190810160405280929190818152602001828054600181600116156101000203166002900480156120785780601f1061204d57610100808354040283529160200191612078565b820191906000526020600020905b81548152906001019060200180831161205b57829003601f168201915b50505050508152602001600982018054600181600116156101000203166002900480601f01602080910402602001604051908101604052809291908181526020018280546001816001161561010002031660029004801561211a5780601f106120ef5761010080835404028352916020019161211a565b820191906000526020600020905b8154815290600101906020018083116120fd57829003601f168201915b505050505081525050815260200160138201604051806060016040529081600082018054600181600116156101000203166002900480601f0160208091040260200160405190810160405280929190818152602001828054600181600116156101000203166002900480156121d05780601f106121a5576101008083540402835291602001916121d0565b820191906000526020600020905b8154815290600101906020018083116121b357829003601f168201915b50505050508152602001600182018054600181600116156101000203166002900480601f0160208091040260200160405190810160405280929190818152602001828054600181600116156101000203166002900480156122725780601f1061224757610100808354040283529160200191612272565b820191906000526020600020905b81548152906001019060200180831161225557829003601f168201915b50505050508152602001600282018054600181600116156101000203166002900480601f0160208091040260200160405190810160405280929190818152602001828054600181600116156101000203166002900480156123145780601f106122e957610100808354040283529160200191612314565b820191906000526020600020905b8154815290600101906020018083116122f757829003601f168201915b505050505081525050815260200160168201604051806020016040529081600082018054600181600116156101000203166002900480601f0160208091040260200160405190810160405280929190818152602001828054600181600116156101000203166002900480156123ca5780601f1061239f576101008083540402835291602001916123ca565b820191906000526020600020905b8154815290600101906020018083116123ad57829003601f168201915b505050505081525050815250509050919050565b6123e6612bc5565b6001826040516123f69190613983565b908152602001604051809103902060090160405180610140016040529081600082018054600181600116156101000203166002900480601f0160208091040260200160405190810160405280929190818152602001828054600181600116156101000203166002900480156124ac5780601f10612481576101008083540402835291602001916124ac565b820191906000526020600020905b81548152906001019060200180831161248f57829003601f168201915b50505050508152602001600182018054600181600116156101000203166002900480601f01602080910402602001604051908101604052809291908181526020018280546001816001161561010002031660029004801561254e5780601f106125235761010080835404028352916020019161254e565b820191906000526020600020905b81548152906001019060200180831161253157829003601f168201915b50505050508152602001600282018054600181600116156101000203166002900480601f0160208091040260200160405190810160405280929190818152602001828054600181600116156101000203166002900480156125f05780601f106125c5576101008083540402835291602001916125f0565b820191906000526020600020905b8154815290600101906020018083116125d357829003601f168201915b50505050508152602001600382018054600181600116156101000203166002900480601f0160208091040260200160405190810160405280929190818152602001828054600181600116156101000203166002900480156126925780601f1061266757610100808354040283529160200191612692565b820191906000526020600020905b81548152906001019060200180831161267557829003601f168201915b50505050508152602001600482018054600181600116156101000203166002900480601f0160208091040260200160405190810160405280929190818152602001828054600181600116156101000203166002900480156127345780601f1061270957610100808354040283529160200191612734565b820191906000526020600020905b81548152906001019060200180831161271757829003601f168201915b50505050508152602001600582018054600181600116156101000203166002900480601f0160208091040260200160405190810160405280929190818152602001828054600181600116156101000203166002900480156127d65780601f106127ab576101008083540402835291602001916127d6565b820191906000526020600020905b8154815290600101906020018083116127b957829003601f168201915b50505050508152602001600682018054600181600116156101000203166002900480601f0160208091040260200160405190810160405280929190818152602001828054600181600116156101000203166002900480156128785780601f1061284d57610100808354040283529160200191612878565b820191906000526020600020905b81548152906001019060200180831161285b57829003601f168201915b50505050508152602001600782018054600181600116156101000203166002900480601f01602080910402602001604051908101604052809291908181526020018280546001816001161561010002031660029004801561291a5780601f106128ef5761010080835404028352916020019161291a565b820191906000526020600020905b8154815290600101906020018083116128fd57829003601f168201915b50505050508152602001600882018054600181600116156101000203166002900480601f0160208091040260200160405190810160405280929190818152602001828054600181600116156101000203166002900480156129bc5780601f10612991576101008083540402835291602001916129bc565b820191906000526020600020905b81548152906001019060200180831161299f57829003601f168201915b50505050508152602001600982018054600181600116156101000203166002900480601f016020809104026020016040519081016040528092919081815260200182805460018160011615610100020316600290048015612a5e5780601f10612a3357610100808354040283529160200191612a5e565b820191906000526020600020905b815481529060010190602001808311612a4157829003601f168201915b5050505050815250509050919050565b828054600181600116156101000203166002900490600052602060002090601f016020900481019282601f10612aaf57805160ff1916838001178555612add565b82800160010185558215612add579182015b82811115612adc578251825591602001919060010190612ac1565b5b509050612aea9190612c65565b5090565b828054600181600116156101000203166002900490600052602060002090601f016020900481019282601f10612b2f57805160ff1916838001178555612b5d565b82800160010185558215612b5d579182015b82811115612b5c578251825591602001919060010190612b41565b5b509050612b6a9190612c65565b5090565b60405180606001604052806060815260200160608152602001606081525090565b6040518060c001604052806060815260200160608152602001606081526020016060815260200160608152602001606081525090565b604051806101400160405280606081526020016060815260200160608152602001606081526020016060815260200160608152602001606081526020016060815260200160608152602001606081525090565b6040518060a00160405280612c2b612c8a565b8152602001612c38612cc1565b8152602001612c45612cf7565b8152602001612c52612d4a565b8152602001612c5f612d6b565b81525090565b612c8791905b80821115612c83576000816000905550600101612c6b565b5090565b90565b6040518060600160405280600073ffffffffffffffffffffffffffffffffffffffff16815260200160608152602001606081525090565b6040518060c001604052806060815260200160608152602001606081526020016060815260200160608152602001606081525090565b604051806101400160405280606081526020016060815260200160608152602001606081526020016060815260200160608152602001606081526020016060815260200160608152602001606081525090565b60405180606001604052806060815260200160608152602001606081525090565b6040518060200160405280606081525090565b600081359050612d8d81613bbe565b92915050565b600082601f830112612da457600080fd5b8135612db7612db282613a91565b613a64565b91508082526020830160208301858383011115612dd357600080fd5b612dde838284613b6b565b50505092915050565b600060208284031215612df957600080fd5b600082013567ffffffffffffffff811115612e1357600080fd5b612e1f84828501612d93565b91505092915050565b60008060408385031215612e3b57600080fd5b600083013567ffffffffffffffff811115612e5557600080fd5b612e6185828601612d93565b925050602083013567ffffffffffffffff811115612e7e57600080fd5b612e8a85828601612d93565b9150509250929050565b600080600060608486031215612ea957600080fd5b600084013567ffffffffffffffff811115612ec357600080fd5b612ecf86828701612d93565b935050602084013567ffffffffffffffff811115612eec57600080fd5b612ef886828701612d93565b9250506040612f0986828701612d7e565b9150509250925092565b600080600060608486031215612f2857600080fd5b600084013567ffffffffffffffff811115612f4257600080fd5b612f4e86828701612d93565b935050602084013567ffffffffffffffff811115612f6b57600080fd5b612f7786828701612d93565b925050604084013567ffffffffffffffff811115612f9457600080fd5b612fa086828701612d93565b9150509250925092565b600080600080600080600060e0888a031215612fc557600080fd5b600088013567ffffffffffffffff811115612fdf57600080fd5b612feb8a828b01612d93565b975050602088013567ffffffffffffffff81111561300857600080fd5b6130148a828b01612d93565b965050604088013567ffffffffffffffff81111561303157600080fd5b61303d8a828b01612d93565b955050606088013567ffffffffffffffff81111561305a57600080fd5b6130668a828b01612d93565b945050608088013567ffffffffffffffff81111561308357600080fd5b61308f8a828b01612d93565b93505060a088013567ffffffffffffffff8111156130ac57600080fd5b6130b88a828b01612d93565b92505060c088013567ffffffffffffffff8111156130d557600080fd5b6130e18a828b01612d93565b91505092959891949750929550565b60008060008060008060008060008060006101608c8e03121561311257600080fd5b60008c013567ffffffffffffffff81111561312c57600080fd5b6131388e828f01612d93565b9b505060208c013567ffffffffffffffff81111561315557600080fd5b6131618e828f01612d93565b9a505060408c013567ffffffffffffffff81111561317e57600080fd5b61318a8e828f01612d93565b99505060608c013567ffffffffffffffff8111156131a757600080fd5b6131b38e828f01612d93565b98505060808c013567ffffffffffffffff8111156131d057600080fd5b6131dc8e828f01612d93565b97505060a08c013567ffffffffffffffff8111156131f957600080fd5b6132058e828f01612d93565b96505060c08c013567ffffffffffffffff81111561322257600080fd5b61322e8e828f01612d93565b95505060e08c013567ffffffffffffffff81111561324b57600080fd5b6132578e828f01612d93565b9450506101008c013567ffffffffffffffff81111561327557600080fd5b6132818e828f01612d93565b9350506101208c013567ffffffffffffffff81111561329f57600080fd5b6132ab8e828f01612d93565b9250506101408c013567ffffffffffffffff8111156132c957600080fd5b6132d58e828f01612d93565b9150509295989b509295989b9093969950565b60006132f483836133b1565b905092915050565b61330581613b39565b82525050565b600061331682613acd565b6133208185613afb565b93508360208202850161333285613abd565b8060005b8581101561336e578484038952815161334f85826132e8565b945061335a83613aee565b925060208a01995050600181019050613336565b50829750879550505050505092915050565b600061338b82613ae3565b6133958185613b2e565b93506133a5818560208601613b7a565b80840191505092915050565b60006133bc82613ad8565b6133c68185613b0c565b93506133d6818560208601613b7a565b6133df81613bad565b840191505092915050565b60006133f7601583613b1d565b91507f54657374494420616c72656164792065786973747300000000000000000000006000830152602082019050919050565b600060608301600083015161344260008601826132fc565b506020830151848203602086015261345a82826133b1565b9150506040830151848203604086015261347482826133b1565b9150508091505092915050565b600060a083016000830151848203600086015261349e828261342a565b915050602083015184820360208601526134b882826136a5565b915050604083015184820360408601526134d2828261386a565b915050606083015184820360608601526134ec8282613571565b9150506080830151848203608086015261350682826135cf565b9150508091505092915050565b6000606083016000830151848203600086015261353082826133b1565b9150506020830151848203602086015261354a82826133b1565b9150506040830151848203604086015261356482826133b1565b9150508091505092915050565b6000606083016000830151848203600086015261358e82826133b1565b915050602083015184820360208601526135a882826133b1565b915050604083015184820360408601526135c282826133b1565b9150508091505092915050565b600060208301600083015184820360008601526135ec82826133b1565b9150508091505092915050565b600060c083016000830151848203600086015261361682826133b1565b9150506020830151848203602086015261363082826133b1565b9150506040830151848203604086015261364a82826133b1565b9150506060830151848203606086015261366482826133b1565b9150506080830151848203608086015261367e82826133b1565b91505060a083015184820360a086015261369882826133b1565b9150508091505092915050565b600060c08301600083015184820360008601526136c282826133b1565b915050602083015184820360208601526136dc82826133b1565b915050604083015184820360408601526136f682826133b1565b9150506060830151848203606086015261371082826133b1565b9150506080830151848203608086015261372a82826133b1565b91505060a083015184820360a086015261374482826133b1565b9150508091505092915050565b600061014083016000830151848203600086015261376f82826133b1565b9150506020830151848203602086015261378982826133b1565b915050604083015184820360408601526137a382826133b1565b915050606083015184820360608601526137bd82826133b1565b915050608083015184820360808601526137d782826133b1565b91505060a083015184820360a08601526137f182826133b1565b91505060c083015184820360c086015261380b82826133b1565b91505060e083015184820360e086015261382582826133b1565b91505061010083015184820361010086015261384182826133b1565b91505061012083015184820361012086015261385d82826133b1565b9150508091505092915050565b600061014083016000830151848203600086015261388882826133b1565b915050602083015184820360208601526138a282826133b1565b915050604083015184820360408601526138bc82826133b1565b915050606083015184820360608601526138d682826133b1565b915050608083015184820360808601526138f082826133b1565b91505060a083015184820360a086015261390a82826133b1565b91505060c083015184820360c086015261392482826133b1565b91505060e083015184820360e086015261393e82826133b1565b91505061010083015184820361010086015261395a82826133b1565b91505061012083015184820361012086015261397682826133b1565b9150508091505092915050565b600061398f8284613380565b915081905092915050565b600060208201905081810360008301526139b4818461330b565b905092915050565b600060208201905081810360008301526139d5816133ea565b9050919050565b600060208201905081810360008301526139f68184613481565b905092915050565b60006020820190508181036000830152613a188184613513565b905092915050565b60006020820190508181036000830152613a3a81846135f9565b905092915050565b60006020820190508181036000830152613a5c8184613751565b905092915050565b6000604051905081810181811067ffffffffffffffff82111715613a8757600080fd5b8060405250919050565b600067ffffffffffffffff821115613aa857600080fd5b601f19601f8301169050602081019050919050565b6000819050602082019050919050565b600081519050919050565b600081519050919050565b600081519050919050565b6000602082019050919050565b600082825260208201905092915050565b600082825260208201905092915050565b600082825260208201905092915050565b600081905092915050565b6000613b4482613b4b565b9050919050565b600073ffffffffffffffffffffffffffffffffffffffff82169050919050565b82818337600083830152505050565b60005b83811015613b98578082015181840152602081019050613b7d565b83811115613ba7576000848401525b50505050565b6000601f19601f8301169050919050565b613bc781613b39565b8114613bd257600080fd5b5056fea365627a7a72315820706cc7fbf67da01868daa66e0c5cf6aa2771daa2c25a1f793c1a8e23324700326c6578706572696d656e74616cf564736f6c63430005100040",
  "source": "// SPDX-License-Identifier: MIT\r\npragma solidity ^0.5.16;\r\npragma experimental ABIEncoderV2;\r\n\r\ncontract MentalHealth {\r\n    struct PatientCredentials {\r\n        address cryptoWalletAddress;\r\n        string healthID;\r\n        string testID;\r\n    }\r\n\r\n    struct mhtChildhoodDetails {\r\n        string questionOne;\r\n        string questionTwo;\r\n        string questionThree;\r\n        string questionFour;\r\n        string questionFive;\r\n        string score;\r\n    }\r\n\r\n    struct mhtPHQ9Details {\r\n        string questionOne;\r\n        string questionTwo;\r\n        string questionThree;\r\n        string questionFour;\r\n        string questionFive;\r\n        string questionSix;\r\n        string questionSeven;\r\n        string questionEight;\r\n        string questionNine;\r\n        string score;\r\n    }\r\n\r\n    struct SentimentDetails {\r\n        string textSentiment;\r\n        string audioHash;\r\n        string score;\r\n    }\r\n\r\n    struct VideoAnalysis {\r\n        string blinkCount;\r\n    }\r\n\r\n    struct PatientMHTest {\r\n        PatientCredentials credentials;\r\n        mhtChildhoodDetails mhtcd;\r\n        mhtPHQ9Details mhtphqDetails;\r\n        SentimentDetails sentimentDetails;\r\n        VideoAnalysis videoDetails;\r\n    }\r\n\r\n    mapping(string => string[]) private healthIDToTestIDs;\r\n    mapping(string => PatientMHTest) private testIDToPatientTest;\r\n\r\n    function initializePatientMHTest( string memory _healthID, string memory _testID, address _cryptoWalletAddress ) public {\r\n        require(bytes(testIDToPatientTest[_testID].credentials.testID).length == 0, \"TestID already exists\");\r\n\r\n        healthIDToTestIDs[_healthID].push(_testID);\r\n\r\n        testIDToPatientTest[_testID] = PatientMHTest({\r\n            credentials: PatientCredentials({\r\n                healthID: _healthID,\r\n                testID: _testID,\r\n                cryptoWalletAddress: _cryptoWalletAddress\r\n            }),\r\n            mhtcd: mhtChildhoodDetails(\"\", \"\", \"\", \"\", \"\", \"\"),\r\n            mhtphqDetails: mhtPHQ9Details(\"\", \"\", \"\", \"\", \"\", \"\", \"\", \"\", \"\", \"\"),\r\n            sentimentDetails: SentimentDetails(\"\", \"\", \"\"),\r\n            videoDetails: VideoAnalysis(\"\")\r\n        });\r\n    }\r\n\r\n    function initializeChildhoodDetails( string memory _testID, string memory _questionOne, string memory _questionTwo, string memory _questionThree, string memory _questionFour, string memory _questionFive, string memory _score ) public {\r\n        mhtChildhoodDetails memory mhtcd = mhtChildhoodDetails({\r\n            questionOne: _questionOne,\r\n            questionTwo: _questionTwo,\r\n            questionThree: _questionThree,\r\n            questionFour: _questionFour,\r\n            questionFive: _questionFive,\r\n            score: _score\r\n        });\r\n\r\n        testIDToPatientTest[_testID].mhtcd = mhtcd;\r\n    }\r\n\r\n    function initializePHQ9Details( string memory _testID, string memory _questionOne, string memory _questionTwo, string memory _questionThree, string memory _questionFour, string memory _questionFive, string memory _questionSix, string memory _questionSeven, string memory _questionEight, string memory _questionNine, string memory _score ) public {\r\n        mhtPHQ9Details memory mhtphqDetails = mhtPHQ9Details({\r\n            questionOne: _questionOne,\r\n            questionTwo: _questionTwo,\r\n            questionThree: _questionThree,\r\n            questionFour: _questionFour,\r\n            questionFive: _questionFive,\r\n            questionSix: _questionSix,\r\n            questionSeven: _questionSeven,\r\n            questionEight: _questionEight,\r\n            questionNine: _questionNine,\r\n            score: _score\r\n        });\r\n\r\n        testIDToPatientTest[_testID].mhtphqDetails = mhtphqDetails;\r\n    }\r\n\r\n    function initializeSentimentDetails( string memory _testID, string memory _text, string memory _hash ) public {\r\n        SentimentDetails memory sentimentDetails = SentimentDetails({\r\n            textSentiment: _text,\r\n            audioHash: _hash,\r\n            score: \"\"\r\n        });\r\n\r\n        testIDToPatientTest[_testID].sentimentDetails = sentimentDetails;\r\n    }\r\n\r\n    function initializeSentimentalScore( string memory _testID, string memory _score) public {\r\n        string memory prevText = testIDToPatientTest[_testID].sentimentDetails.textSentiment;\r\n        string memory prevHash = testIDToPatientTest[_testID].sentimentDetails.audioHash;\r\n        SentimentDetails memory sentimentDetails = SentimentDetails({\r\n            textSentiment: prevText,\r\n            audioHash: prevHash,\r\n            score: _score\r\n        });\r\n        \r\n        testIDToPatientTest[_testID].sentimentDetails = sentimentDetails;\r\n    }\r\n\r\n    function getAllTestIDs(string memory _healthID) public view returns (string[] memory) {\r\n        return healthIDToTestIDs[_healthID];\r\n    }\r\n\r\n    function getChildhoodDetails(string memory _testID) public view returns (mhtChildhoodDetails memory) {\r\n        return testIDToPatientTest[_testID].mhtcd;\r\n    }\r\n\r\n    function getPHQ9Details(string memory _testID) public view returns (mhtPHQ9Details memory) {\r\n        return testIDToPatientTest[_testID].mhtphqDetails;\r\n    }\r\n\r\n    function getSentimentDetails(string memory _testID) public view returns (SentimentDetails memory) {\r\n        return testIDToPatientTest[_testID].sentimentDetails;\r\n    }\r\n\r\n    function getCompleteTestDetails(string memory _testID) public view returns (PatientMHTest memory) {\r\n        return testIDToPatientTest[_testID];\r\n    }\r\n}",
  "sourcePath": "C:\\Users\\Aman\\Desktop\\GITHUB\\WellWise_Core\\src\\contracts\\MentalHealth.sol",
  "compiler": {
    "name": "solc",
    "version": "0.5.16+commit.9c3226ce.Emscripten.clang"
  },
  "schemaVersion": "3.4.16",
  "updatedAt": "2025-01-11T07:46:54.525Z",
  "networkType": "ethereum",
  "devdoc": {
    "methods": {}
  },
  "userdoc": {
    "methods": {}
  }
}