{
  "contractName": "PatientRegistration",
  "abi": [
    {
      "anonymous": false,
      "inputs": [
        {
          "indexed": false,
          "internalType": "string",
          "name": "healthID",
          "type": "string"
        },
        {
          "indexed": false,
          "internalType": "string",
          "name": "name",
          "type": "string"
        },
        {
          "indexed": false,
          "internalType": "address",
          "name": "cryptoWalletAddress",
          "type": "address"
        }
      ],
      "name": "PatientRegistered",
      "type": "event"
    },
    {
      "constant": true,
      "inputs": [
        {
          "internalType": "string",
          "name": "",
          "type": "string"
        }
      ],
      "name": "isPatientRegistered",
      "outputs": [
        {
          "internalType": "bool",
          "name": "",
          "type": "bool"
        }
      ],
      "payable": false,
      "stateMutability": "view",
      "type": "function"
    },
    {
      "constant": false,
      "inputs": [
        {
          "internalType": "string",
          "name": "_healthID",
          "type": "string"
        },
        {
          "internalType": "string",
          "name": "_name",
          "type": "string"
        },
        {
          "internalType": "string",
          "name": "_email",
          "type": "string"
        },
        {
          "internalType": "string",
          "name": "_password",
          "type": "string"
        },
        {
          "internalType": "address",
          "name": "_cryptoWalletAddress",
          "type": "address"
        }
      ],
      "name": "registerPatientCredentials",
      "outputs": [],
      "payable": false,
      "stateMutability": "nonpayable",
      "type": "function"
    },
    {
      "constant": false,
      "inputs": [
        {
          "internalType": "string",
          "name": "_healthID",
          "type": "string"
        },
        {
          "internalType": "string",
          "name": "_gender",
          "type": "string"
        },
        {
          "internalType": "uint256",
          "name": "_age",
          "type": "uint256"
        },
        {
          "internalType": "uint256",
          "name": "_date",
          "type": "uint256"
        },
        {
          "internalType": "uint256",
          "name": "_month",
          "type": "uint256"
        },
        {
          "internalType": "uint256",
          "name": "_year",
          "type": "uint256"
        },
        {
          "internalType": "bool",
          "name": "_maritalStatus",
          "type": "bool"
        },
        {
          "internalType": "string",
          "name": "_disabilities",
          "type": "string"
        }
      ],
      "name": "registerPatientPersonalDetails",
      "outputs": [],
      "payable": false,
      "stateMutability": "nonpayable",
      "type": "function"
    },
    {
      "constant": false,
      "inputs": [
        {
          "internalType": "string",
          "name": "_healthId",
          "type": "string"
        },
        {
          "internalType": "uint256",
          "name": "_contactNumber",
          "type": "uint256"
        },
        {
          "internalType": "string",
          "name": "_appartmentNumber",
          "type": "string"
        },
        {
          "internalType": "string",
          "name": "_street",
          "type": "string"
        },
        {
          "internalType": "string",
          "name": "_city",
          "type": "string"
        },
        {
          "internalType": "string",
          "name": "_state",
          "type": "string"
        },
        {
          "internalType": "string",
          "name": "_country",
          "type": "string"
        }
      ],
      "name": "registerPatientContactDetails",
      "outputs": [],
      "payable": false,
      "stateMutability": "nonpayable",
      "type": "function"
    },
    {
      "constant": false,
      "inputs": [
        {
          "internalType": "string",
          "name": "_healthID",
          "type": "string"
        },
        {
          "internalType": "uint256",
          "name": "_weight",
          "type": "uint256"
        },
        {
          "internalType": "uint256",
          "name": "_feet",
          "type": "uint256"
        },
        {
          "internalType": "uint256",
          "name": "_inches",
          "type": "uint256"
        },
        {
          "internalType": "string",
          "name": "_allergies",
          "type": "string"
        },
        {
          "internalType": "bool",
          "name": "_isDiabetic",
          "type": "bool"
        },
        {
          "internalType": "bool",
          "name": "_isHypertension",
          "type": "bool"
        }
      ],
      "name": "registerPatientMedicalDetails",
      "outputs": [],
      "payable": false,
      "stateMutability": "nonpayable",
      "type": "function"
    },
    {
      "constant": false,
      "inputs": [
        {
          "internalType": "string",
          "name": "_healthID",
          "type": "string"
        },
        {
          "internalType": "string",
          "name": "_smokingStatus",
          "type": "string"
        },
        {
          "internalType": "string",
          "name": "_alcoholConsumption",
          "type": "string"
        },
        {
          "internalType": "string",
          "name": "_exerciseHabit",
          "type": "string"
        }
      ],
      "name": "registerPatientLifestyleDetails",
      "outputs": [],
      "payable": false,
      "stateMutability": "nonpayable",
      "type": "function"
    },
    {
      "constant": false,
      "inputs": [
        {
          "internalType": "string",
          "name": "_healthID",
          "type": "string"
        },
        {
          "internalType": "string",
          "name": "_insuranceProvider",
          "type": "string"
        },
        {
          "internalType": "uint256",
          "name": "_policyNumber",
          "type": "uint256"
        }
      ],
      "name": "registerPatientPolicyDetails",
      "outputs": [],
      "payable": false,
      "stateMutability": "nonpayable",
      "type": "function"
    },
    {
      "constant": true,
      "inputs": [
        {
          "internalType": "string",
          "name": "_healthID",
          "type": "string"
        }
      ],
      "name": "isRegisteredPatient",
      "outputs": [
        {
          "internalType": "bool",
          "name": "",
          "type": "bool"
        }
      ],
      "payable": false,
      "stateMutability": "view",
      "type": "function"
    },
    {
      "constant": true,
      "inputs": [
        {
          "internalType": "string",
          "name": "_healthID",
          "type": "string"
        },
        {
          "internalType": "string",
          "name": "_password",
          "type": "string"
        }
      ],
      "name": "validatePassword",
      "outputs": [
        {
          "internalType": "bool",
          "name": "",
          "type": "bool"
        }
      ],
      "payable": false,
      "stateMutability": "view",
      "type": "function"
    },
    {
      "constant": true,
      "inputs": [
        {
          "internalType": "string",
          "name": "_healthID",
          "type": "string"
        }
      ],
      "name": "getPatientCredentials",
      "outputs": [
        {
          "internalType": "address",
          "name": "cryptoWalletAddress",
          "type": "address"
        },
        {
          "internalType": "string",
          "name": "name",
          "type": "string"
        },
        {
          "internalType": "string",
          "name": "healthID",
          "type": "string"
        },
        {
          "internalType": "string",
          "name": "email",
          "type": "string"
        }
      ],
      "payable": false,
      "stateMutability": "view",
      "type": "function"
    },
    {
      "constant": true,
      "inputs": [
        {
          "internalType": "string",
          "name": "_healthID",
          "type": "string"
        }
      ],
      "name": "getPatientPersonalDetails",
      "outputs": [
        {
          "internalType": "string",
          "name": "gender",
          "type": "string"
        },
        {
          "internalType": "uint256",
          "name": "age",
          "type": "uint256"
        },
        {
          "internalType": "uint256",
          "name": "date",
          "type": "uint256"
        },
        {
          "internalType": "uint256",
          "name": "month",
          "type": "uint256"
        },
        {
          "internalType": "uint256",
          "name": "year",
          "type": "uint256"
        },
        {
          "internalType": "bool",
          "name": "maritalStatus",
          "type": "bool"
        },
        {
          "internalType": "string",
          "name": "disabilities",
          "type": "string"
        }
      ],
      "payable": false,
      "stateMutability": "view",
      "type": "function"
    },
    {
      "constant": true,
      "inputs": [
        {
          "internalType": "string",
          "name": "_healthId",
          "type": "string"
        }
      ],
      "name": "getPatientContactDetails",
      "outputs": [
        {
          "internalType": "uint256",
          "name": "contactNumber",
          "type": "uint256"
        },
        {
          "internalType": "string",
          "name": "appartmentNumber",
          "type": "string"
        },
        {
          "internalType": "string",
          "name": "street",
          "type": "string"
        },
        {
          "internalType": "string",
          "name": "city",
          "type": "string"
        },
        {
          "internalType": "string",
          "name": "state",
          "type": "string"
        },
        {
          "internalType": "string",
          "name": "country",
          "type": "string"
        }
      ],
      "payable": false,
      "stateMutability": "view",
      "type": "function"
    },
    {
      "constant": true,
      "inputs": [
        {
          "internalType": "string",
          "name": "_healthID",
          "type": "string"
        }
      ],
      "name": "getPatientMedicalDetails",
      "outputs": [
        {
          "internalType": "uint256",
          "name": "weight",
          "type": "uint256"
        },
        {
          "internalType": "uint256",
          "name": "feet",
          "type": "uint256"
        },
        {
          "internalType": "uint256",
          "name": "inches",
          "type": "uint256"
        },
        {
          "internalType": "string",
          "name": "allergies",
          "type": "string"
        },
        {
          "internalType": "bool",
          "name": "isDiabetic",
          "type": "bool"
        },
        {
          "internalType": "bool",
          "name": "isHypertension",
          "type": "bool"
        }
      ],
      "payable": false,
      "stateMutability": "view",
      "type": "function"
    },
    {
      "constant": true,
      "inputs": [
        {
          "internalType": "string",
          "name": "_healthID",
          "type": "string"
        }
      ],
      "name": "getPatientLifestyleDetails",
      "outputs": [
        {
          "internalType": "string",
          "name": "smokingStatus",
          "type": "string"
        },
        {
          "internalType": "string",
          "name": "alcoholConsumption",
          "type": "string"
        },
        {
          "internalType": "string",
          "name": "exerciseHabit",
          "type": "string"
        }
      ],
      "payable": false,
      "stateMutability": "view",
      "type": "function"
    },
    {
      "constant": true,
      "inputs": [
        {
          "internalType": "string",
          "name": "_healthID",
          "type": "string"
        }
      ],
      "name": "getPatientPolicyDetails",
      "outputs": [
        {
          "internalType": "string",
          "name": "insuranceProvider",
          "type": "string"
        },
        {
          "internalType": "uint256",
          "name": "policyNumber",
          "type": "uint256"
        }
      ],
      "payable": false,
      "stateMutability": "view",
      "type": "function"
    }
  ],
  "bytecode": "0x608060405234801561001057600080fd5b50614119806100206000396000f3fe608060405234801561001057600080fd5b50600436106100f55760003560e01c80636508ecd111610097578063c4f7e24711610066578063c4f7e2471461171f578063e9edabc11461187e578063f47325c414611a8a578063f725264114611ca8576100f5565b80636508ecd114610d8a578063715193e3146111425780637babdb26146112ca578063b195e5ad14611434576100f5565b806336f23af3116100d357806336f23af31461069c5780633a7084e51461091c578063418176c514610b5b5780634f10c6c214610cb7576100f5565b806316251df8146100fa5780631e30b609146102355780631ee074da146103fc575b600080fd5b6101b36004803603602081101561011057600080fd5b810190808035906020019064010000000081111561012d57600080fd5b82018360208201111561013f57600080fd5b8035906020019184600183028401116401000000008311171561016157600080fd5b91908080601f016020809104026020016040519081016040528093929190818152602001838380828437600081840152601f19601f820116905080830192505050505050509192919290505050611d7b565b6040518080602001838152602001828103825284818151815260200191508051906020019080838360005b838110156101f95780820151818401526020810190506101de565b50505050905090810190601f1680156102265780820380516001836020036101000a031916815260200191505b50935050505060405180910390f35b6102ee6004803603602081101561024b57600080fd5b810190808035906020019064010000000081111561026857600080fd5b82018360208201111561027a57600080fd5b8035906020019184600183028401116401000000008311171561029c57600080fd5b91908080601f016020809104026020016040519081016040528093929190818152602001838380828437600081840152601f19601f820116905080830192505050505050509192919290505050611f89565b6040518080602001888152602001878152602001868152602001858152602001841515151581526020018060200183810383528a818151815260200191508051906020019080838360005b83811015610354578082015181840152602081019050610339565b50505050905090810190601f1680156103815780820380516001836020036101000a031916815260200191505b50838103825284818151815260200191508051906020019080838360005b838110156103ba57808201518184015260208101905061039f565b50505050905090810190601f1680156103e75780820380516001836020036101000a031916815260200191505b50995050505050505050505060405180910390f35b61069a600480360360a081101561041257600080fd5b810190808035906020019064010000000081111561042f57600080fd5b82018360208201111561044157600080fd5b8035906020019184600183028401116401000000008311171561046357600080fd5b91908080601f016020809104026020016040519081016040528093929190818152602001838380828437600081840152601f19601f820116905080830192505050505050509192919290803590602001906401000000008111156104c657600080fd5b8201836020820111156104d857600080fd5b803590602001918460018302840111640100000000831117156104fa57600080fd5b91908080601f016020809104026020016040519081016040528093929190818152602001838380828437600081840152601f19601f8201169050808301925050505050505091929192908035906020019064010000000081111561055d57600080fd5b82018360208201111561056f57600080fd5b8035906020019184600183028401116401000000008311171561059157600080fd5b91908080601f016020809104026020016040519081016040528093929190818152602001838380828437600081840152601f19601f820116905080830192505050505050509192919290803590602001906401000000008111156105f457600080fd5b82018360208201111561060657600080fd5b8035906020019184600183028401116401000000008311171561062857600080fd5b91908080601f016020809104026020016040519081016040528093929190818152602001838380828437600081840152601f19601f820116905080830192505050505050509192919290803573ffffffffffffffffffffffffffffffffffffffff169060200190929190505050612280565b005b61091a600480360360808110156106b257600080fd5b81019080803590602001906401000000008111156106cf57600080fd5b8201836020820111156106e157600080fd5b8035906020019184600183028401116401000000008311171561070357600080fd5b91908080601f016020809104026020016040519081016040528093929190818152602001838380828437600081840152601f19601f8201169050808301925050505050505091929192908035906020019064010000000081111561076657600080fd5b82018360208201111561077857600080fd5b8035906020019184600183028401116401000000008311171561079a57600080fd5b91908080601f016020809104026020016040519081016040528093929190818152602001838380828437600081840152601f19601f820116905080830192505050505050509192919290803590602001906401000000008111156107fd57600080fd5b82018360208201111561080f57600080fd5b8035906020019184600183028401116401000000008311171561083157600080fd5b91908080601f016020809104026020016040519081016040528093929190818152602001838380828437600081840152601f19601f8201169050808301925050505050505091929192908035906020019064010000000081111561089457600080fd5b8201836020820111156108a657600080fd5b803590602001918460018302840111640100000000831117156108c857600080fd5b91908080601f016020809104026020016040519081016040528093929190818152602001838380828437600081840152601f19601f8201169050808301925050505050505091929192905050506125ad565b005b6109d56004803603602081101561093257600080fd5b810190808035906020019064010000000081111561094f57600080fd5b82018360208201111561096157600080fd5b8035906020019184600183028401116401000000008311171561098357600080fd5b91908080601f016020809104026020016040519081016040528093929190818152602001838380828437600081840152601f19601f82011690508083019250505050505050919291929050505061277d565b604051808573ffffffffffffffffffffffffffffffffffffffff1673ffffffffffffffffffffffffffffffffffffffff168152602001806020018060200180602001848103845287818151815260200191508051906020019080838360005b83811015610a4f578082015181840152602081019050610a34565b50505050905090810190601f168015610a7c5780820380516001836020036101000a031916815260200191505b50848103835286818151815260200191508051906020019080838360005b83811015610ab5578082015181840152602081019050610a9a565b50505050905090810190601f168015610ae25780820380516001836020036101000a031916815260200191505b50848103825285818151815260200191508051906020019080838360005b83811015610b1b578082015181840152602081019050610b00565b50505050905090810190601f168015610b485780820380516001836020036101000a031916815260200191505b5097505050505050505060405180910390f35b610cb560048036036060811015610b7157600080fd5b8101908080359060200190640100000000811115610b8e57600080fd5b820183602082011115610ba057600080fd5b80359060200191846001830284011164010000000083111715610bc257600080fd5b91908080601f016020809104026020016040519081016040528093929190818152602001838380828437600081840152601f19601f82011690508083019250505050505050919291929080359060200190640100000000811115610c2557600080fd5b820183602082011115610c3757600080fd5b80359060200191846001830284011164010000000083111715610c5957600080fd5b91908080601f016020809104026020016040519081016040528093929190818152602001838380828437600081840152601f19601f82011690508083019250505050505050919291929080359060200190929190505050612afb565b005b610d7060048036036020811015610ccd57600080fd5b8101908080359060200190640100000000811115610cea57600080fd5b820183602082011115610cfc57600080fd5b80359060200191846001830284011164010000000083111715610d1e57600080fd5b91908080601f016020809104026020016040519081016040528093929190818152602001838380828437600081840152601f19601f820116905080830192505050505050509192919290505050612c94565b604051808215151515815260200191505060405180910390f35b611140600480360360e0811015610da057600080fd5b8101908080359060200190640100000000811115610dbd57600080fd5b820183602082011115610dcf57600080fd5b80359060200191846001830284011164010000000083111715610df157600080fd5b91908080601f016020809104026020016040519081016040528093929190818152602001838380828437600081840152601f19601f8201169050808301925050505050505091929192908035906020019092919080359060200190640100000000811115610e5e57600080fd5b820183602082011115610e7057600080fd5b80359060200191846001830284011164010000000083111715610e9257600080fd5b91908080601f016020809104026020016040519081016040528093929190818152602001838380828437600081840152601f19601f82011690508083019250505050505050919291929080359060200190640100000000811115610ef557600080fd5b820183602082011115610f0757600080fd5b80359060200191846001830284011164010000000083111715610f2957600080fd5b91908080601f016020809104026020016040519081016040528093929190818152602001838380828437600081840152601f19601f82011690508083019250505050505050919291929080359060200190640100000000811115610f8c57600080fd5b820183602082011115610f9e57600080fd5b80359060200191846001830284011164010000000083111715610fc057600080fd5b91908080601f016020809104026020016040519081016040528093929190818152602001838380828437600081840152601f19601f8201169050808301925050505050505091929192908035906020019064010000000081111561102357600080fd5b82018360208201111561103557600080fd5b8035906020019184600183028401116401000000008311171561105757600080fd5b91908080601f016020809104026020016040519081016040528093929190818152602001838380828437600081840152601f19601f820116905080830192505050505050509192919290803590602001906401000000008111156110ba57600080fd5b8201836020820111156110cc57600080fd5b803590602001918460018302840111640100000000831117156110ee57600080fd5b91908080601f016020809104026020016040519081016040528093929190818152602001838380828437600081840152601f19601f820116905080830192505050505050509192919290505050612cca565b005b6112c8600480360360e081101561115857600080fd5b810190808035906020019064010000000081111561117557600080fd5b82018360208201111561118757600080fd5b803590602001918460018302840111640100000000831117156111a957600080fd5b91908080601f016020809104026020016040519081016040528093929190818152602001838380828437600081840152601f19601f8201169050808301925050505050505091929192908035906020019092919080359060200190929190803590602001909291908035906020019064010000000081111561122a57600080fd5b82018360208201111561123c57600080fd5b8035906020019184600183028401116401000000008311171561125e57600080fd5b91908080601f016020809104026020016040519081016040528093929190818152602001838380828437600081840152601f19601f820116905080830192505050505050509192919290803515159060200190929190803515159060200190929190505050612ef3565b005b61141a600480360360408110156112e057600080fd5b81019080803590602001906401000000008111156112fd57600080fd5b82018360208201111561130f57600080fd5b8035906020019184600183028401116401000000008311171561133157600080fd5b91908080601f016020809104026020016040519081016040528093929190818152602001838380828437600081840152601f19601f8201169050808301925050505050505091929192908035906020019064010000000081111561139457600080fd5b8201836020820111156113a657600080fd5b803590602001918460018302840111640100000000831117156113c857600080fd5b91908080601f016020809104026020016040519081016040528093929190818152602001838380828437600081840152601f19601f820116905080830192505050505050509192919290505050613100565b604051808215151515815260200191505060405180910390f35b6114ed6004803603602081101561144a57600080fd5b810190808035906020019064010000000081111561146757600080fd5b82018360208201111561147957600080fd5b8035906020019184600183028401116401000000008311171561149b57600080fd5b91908080601f016020809104026020016040519081016040528093929190818152602001838380828437600081840152601f19601f82011690508083019250505050505050919291929050505061334d565b60405180878152602001806020018060200180602001806020018060200186810386528b818151815260200191508051906020019080838360005b83811015611543578082015181840152602081019050611528565b50505050905090810190601f1680156115705780820380516001836020036101000a031916815260200191505b5086810385528a818151815260200191508051906020019080838360005b838110156115a957808201518184015260208101905061158e565b50505050905090810190601f1680156115d65780820380516001836020036101000a031916815260200191505b50868103845289818151815260200191508051906020019080838360005b8381101561160f5780820151818401526020810190506115f4565b50505050905090810190601f16801561163c5780820380516001836020036101000a031916815260200191505b50868103835288818151815260200191508051906020019080838360005b8381101561167557808201518184015260208101905061165a565b50505050905090810190601f1680156116a25780820380516001836020036101000a031916815260200191505b50868103825287818151815260200191508051906020019080838360005b838110156116db5780820151818401526020810190506116c0565b50505050905090810190601f1680156117085780820380516001836020036101000a031916815260200191505b509b50505050505050505050505060405180910390f35b6117d86004803603602081101561173557600080fd5b810190808035906020019064010000000081111561175257600080fd5b82018360208201111561176457600080fd5b8035906020019184600183028401116401000000008311171561178657600080fd5b91908080601f016020809104026020016040519081016040528093929190818152602001838380828437600081840152601f19601f8201169050808301925050505050505091929192905050506137fa565b60405180878152602001868152602001858152602001806020018415151515815260200183151515158152602001828103825285818151815260200191508051906020019080838360005b8381101561183e578082015181840152602081019050611823565b50505050905090810190601f16801561186b5780820380516001836020036101000a031916815260200191505b5097505050505050505060405180910390f35b6119376004803603602081101561189457600080fd5b81019080803590602001906401000000008111156118b157600080fd5b8201836020820111156118c357600080fd5b803590602001918460018302840111640100000000831117156118e557600080fd5b91908080601f016020809104026020016040519081016040528093929190818152602001838380828437600081840152601f19601f820116905080830192505050505050509192919290505050613a55565b60405180806020018060200180602001848103845287818151815260200191508051906020019080838360005b8381101561197f578082015181840152602081019050611964565b50505050905090810190601f1680156119ac5780820380516001836020036101000a031916815260200191505b50848103835286818151815260200191508051906020019080838360005b838110156119e55780820151818401526020810190506119ca565b50505050905090810190601f168015611a125780820380516001836020036101000a031916815260200191505b50848103825285818151815260200191508051906020019080838360005b83811015611a4b578082015181840152602081019050611a30565b50505050905090810190601f168015611a785780820380516001836020036101000a031916815260200191505b50965050505050505060405180910390f35b611ca66004803603610100811015611aa157600080fd5b8101908080359060200190640100000000811115611abe57600080fd5b820183602082011115611ad057600080fd5b80359060200191846001830284011164010000000083111715611af257600080fd5b91908080601f016020809104026020016040519081016040528093929190818152602001838380828437600081840152601f19601f82011690508083019250505050505050919291929080359060200190640100000000811115611b5557600080fd5b820183602082011115611b6757600080fd5b80359060200191846001830284011164010000000083111715611b8957600080fd5b91908080601f016020809104026020016040519081016040528093929190818152602001838380828437600081840152601f19601f8201169050808301925050505050505091929192908035906020019092919080359060200190929190803590602001909291908035906020019092919080351515906020019092919080359060200190640100000000811115611c2057600080fd5b820183602082011115611c3257600080fd5b80359060200191846001830284011164010000000083111715611c5457600080fd5b91908080601f016020809104026020016040519081016040528093929190818152602001838380828437600081840152601f19601f820116905080830192505050505050509192919290505050613da7565b005b611d6160048036036020811015611cbe57600080fd5b8101908080359060200190640100000000811115611cdb57600080fd5b820183602082011115611ced57600080fd5b80359060200191846001830284011164010000000083111715611d0f57600080fd5b91908080601f016020809104026020016040519081016040528093929190818152602001838380828437600081840152601f19601f820116905080830192505050505050509192919290505050613fc0565b604051808215151515815260200191505060405180910390f35b6060600080836040518082805190602001908083835b60208310611db45780518252602082019150602081019050602083039250611d91565b6001836020036101000a038019825116818451168082178552505050505050905001915050908152602001604051809103902060009054906101000a900460ff16611e67576040517f08c379a00000000000000000000000000000000000000000000000000000000081526004018080602001828103825260168152602001807f50617469656e74206e6f7420726567697374657265640000000000000000000081525060200191505060405180910390fd5b60006001846040518082805190602001908083835b60208310611e9f5780518252602082019150602081019050602083039250611e7c565b6001836020036101000a0380198251168184511680821785525050505050509050019150509081526020016040518091039020905080601a0160000181601a0160010154818054600181600116156101000203166002900480601f016020809104026020016040519081016040528092919081815260200182805460018160011615610100020316600290048015611f785780601f10611f4d57610100808354040283529160200191611f78565b820191906000526020600020905b815481529060010190602001808311611f5b57829003601f168201915b505050505091509250925050915091565b6060600080600080600060606000886040518082805190602001908083835b60208310611fcb5780518252602082019150602081019050602083039250611fa8565b6001836020036101000a038019825116818451168082178552505050505050905001915050908152602001604051809103902060009054906101000a900460ff1661207e576040517f08c379a00000000000000000000000000000000000000000000000000000000081526004018080602001828103825260168152602001807f50617469656e74206e6f7420726567697374657265640000000000000000000081525060200191505060405180910390fd5b60006001896040518082805190602001908083835b602083106120b65780518252602082019150602081019050602083039250612093565b6001836020036101000a038019825116818451168082178552505050505050905001915050908152602001604051809103902090508060050160000181600501600101548260050160020154836005016003015484600501600401548560050160050160009054906101000a900460ff1686600501600601868054600181600116156101000203166002900480601f0160208091040260200160405190810160405280929190818152602001828054600181600116156101000203166002900480156121c35780601f10612198576101008083540402835291602001916121c3565b820191906000526020600020905b8154815290600101906020018083116121a657829003601f168201915b50505050509650808054600181600116156101000203166002900480601f01602080910402602001604051908101604052809291908181526020018280546001816001161561010002031660029004801561225f5780601f106122345761010080835404028352916020019161225f565b820191906000526020600020905b81548152906001019060200180831161224257829003601f168201915b50505050509050975097509750975097509750975050919395979092949650565b6040518060a001604052808273ffffffffffffffffffffffffffffffffffffffff168152602001858152602001868152602001848152602001838152506001866040518082805190602001908083835b602083106122f357805182526020820191506020810190506020830392506122d0565b6001836020036101000a038019825116818451168082178552505050505050905001915050908152602001604051809103902060000160008201518160000160006101000a81548173ffffffffffffffffffffffffffffffffffffffff021916908373ffffffffffffffffffffffffffffffffffffffff160217905550602082015181600101908051906020019061238c92919061403f565b5060408201518160020190805190602001906123a992919061403f565b5060608201518160030190805190602001906123c692919061403f565b5060808201518160040190805190602001906123e392919061403f565b5090505060016000866040518082805190602001908083835b6020831061241f57805182526020820191506020810190506020830392506123fc565b6001836020036101000a038019825116818451168082178552505050505050905001915050908152602001604051809103902060006101000a81548160ff0219169083151502179055507f319ae3a95b9a410d647835a7e64d54ddf28faf35a698f0a2b63999585fa38edc8585836040518080602001806020018473ffffffffffffffffffffffffffffffffffffffff1673ffffffffffffffffffffffffffffffffffffffff168152602001838103835286818151815260200191508051906020019080838360005b838110156125035780820151818401526020810190506124e8565b50505050905090810190601f1680156125305780820380516001836020036101000a031916815260200191505b50838103825285818151815260200191508051906020019080838360005b8381101561256957808201518184015260208101905061254e565b50505050905090810190601f1680156125965780820380516001836020036101000a031916815260200191505b509550505050505060405180910390a15050505050565b6000846040518082805190602001908083835b602083106125e357805182526020820191506020810190506020830392506125c0565b6001836020036101000a038019825116818451168082178552505050505050905001915050908152602001604051809103902060009054906101000a900460ff16612696576040517f08c379a00000000000000000000000000000000000000000000000000000000081526004018080602001828103825260168152602001807f50617469656e74206e6f7420726567697374657265640000000000000000000081525060200191505060405180910390fd5b6040518060600160405280848152602001838152602001828152506001856040518082805190602001908083835b602083106126e757805182526020820191506020810190506020830392506126c4565b6001836020036101000a0380198251168184511680821785525050505050509050019150509081526020016040518091039020601701600082015181600001908051906020019061273992919061403f565b50602082015181600101908051906020019061275692919061403f565b50604082015181600201908051906020019061277392919061403f565b5090505050505050565b600060608060606000856040518082805190602001908083835b602083106127ba5780518252602082019150602081019050602083039250612797565b6001836020036101000a038019825116818451168082178552505050505050905001915050908152602001604051809103902060009054906101000a900460ff1661286d576040517f08c379a00000000000000000000000000000000000000000000000000000000081526004018080602001828103825260168152602001807f50617469656e74206e6f7420726567697374657265640000000000000000000081525060200191505060405180910390fd5b60006001866040518082805190602001908083835b602083106128a55780518252602082019150602081019050602083039250612882565b6001836020036101000a038019825116818451168082178552505050505050905001915050908152602001604051809103902090508060000160000160009054906101000a900473ffffffffffffffffffffffffffffffffffffffff16816000016001018260000160020183600001600301828054600181600116156101000203166002900480601f0160208091040260200160405190810160405280929190818152602001828054600181600116156101000203166002900480156129ac5780601f10612981576101008083540402835291602001916129ac565b820191906000526020600020905b81548152906001019060200180831161298f57829003601f168201915b50505050509250818054600181600116156101000203166002900480601f016020809104026020016040519081016040528092919081815260200182805460018160011615610100020316600290048015612a485780601f10612a1d57610100808354040283529160200191612a48565b820191906000526020600020905b815481529060010190602001808311612a2b57829003601f168201915b50505050509150808054600181600116156101000203166002900480601f016020809104026020016040519081016040528092919081815260200182805460018160011615610100020316600290048015612ae45780601f10612ab957610100808354040283529160200191612ae4565b820191906000526020600020905b815481529060010190602001808311612ac757829003601f168201915b505050505090509450945094509450509193509193565b6000836040518082805190602001908083835b60208310612b315780518252602082019150602081019050602083039250612b0e565b6001836020036101000a038019825116818451168082178552505050505050905001915050908152602001604051809103902060009054906101000a900460ff16612be4576040517f08c379a00000000000000000000000000000000000000000000000000000000081526004018080602001828103825260168152602001807f50617469656e74206e6f7420726567697374657265640000000000000000000081525060200191505060405180910390fd5b6040518060400160405280838152602001828152506001846040518082805190602001908083835b60208310612c2f5780518252602082019150602081019050602083039250612c0c565b6001836020036101000a0380198251168184511680821785525050505050509050019150509081526020016040518091039020601a016000820151816000019080519060200190612c8192919061403f565b5060208201518160010155905050505050565b6000818051602081018201805184825260208301602085012081835280955050505050506000915054906101000a900460ff1681565b6000876040518082805190602001908083835b60208310612d005780518252602082019150602081019050602083039250612cdd565b6001836020036101000a038019825116818451168082178552505050505050905001915050908152602001604051809103902060009054906101000a900460ff16612db3576040517f08c379a00000000000000000000000000000000000000000000000000000000081526004018080602001828103825260168152602001807f50617469656e74206e6f7420726567697374657265640000000000000000000081525060200191505060405180910390fd5b6040518060c00160405280878152602001868152602001858152602001848152602001838152602001828152506001886040518082805190602001908083835b60208310612e165780518252602082019150602081019050602083039250612df3565b6001836020036101000a0380198251168184511680821785525050505050509050019150509081526020016040518091039020600c01600082015181600001556020820151816001019080519060200190612e7292919061403f565b506040820151816002019080519060200190612e8f92919061403f565b506060820151816003019080519060200190612eac92919061403f565b506080820151816004019080519060200190612ec992919061403f565b5060a0820151816005019080519060200190612ee692919061403f565b5090505050505050505050565b6000876040518082805190602001908083835b60208310612f295780518252602082019150602081019050602083039250612f06565b6001836020036101000a038019825116818451168082178552505050505050905001915050908152602001604051809103902060009054906101000a900460ff16612fdc576040517f08c379a00000000000000000000000000000000000000000000000000000000081526004018080602001828103825260168152602001807f50617469656e74206e6f7420726567697374657265640000000000000000000081525060200191505060405180910390fd5b6040518060c0016040528087815260200186815260200185815260200184815260200183151581526020018215158152506001886040518082805190602001908083835b602083106130435780518252602082019150602081019050602083039250613020565b6001836020036101000a038019825116818451168082178552505050505050905001915050908152602001604051809103902060120160008201518160000155602082015181600101556040820151816002015560608201518160030190805190602001906130b392919061403f565b5060808201518160040160006101000a81548160ff02191690831515021790555060a08201518160040160016101000a81548160ff02191690831515021790555090505050505050505050565b600080836040518082805190602001908083835b602083106131375780518252602082019150602081019050602083039250613114565b6001836020036101000a038019825116818451168082178552505050505050905001915050908152602001604051809103902060009054906101000a900460ff166131ea576040517f08c379a00000000000000000000000000000000000000000000000000000000081526004018080602001828103825260168152602001807f50617469656e74206e6f7420726567697374657265640000000000000000000081525060200191505060405180910390fd5b6001836040518082805190602001908083835b6020831061322057805182526020820191506020810190506020830392506131fd565b6001836020036101000a038019825116818451168082178552505050505050905001915050908152602001604051809103902060000160040160405160200180828054600181600116156101000203166002900480156132b75780601f106132955761010080835404028352918201916132b7565b820191906000526020600020905b8154815290600101906020018083116132a3575b505091505060405160208183030381529060405280519060200120826040516020018082805190602001908083835b6020831061330957805182526020820191506020810190506020830392506132e6565b6001836020036101000a0380198251168184511680821785525050505050509050019150506040516020818303038152906040528051906020012014905092915050565b600060608060608060606000876040518082805190602001908083835b6020831061338d578051825260208201915060208101905060208303925061336a565b6001836020036101000a038019825116818451168082178552505050505050905001915050908152602001604051809103902060009054906101000a900460ff16613440576040517f08c379a00000000000000000000000000000000000000000000000000000000081526004018080602001828103825260168152602001807f50617469656e74206e6f7420726567697374657265640000000000000000000081525060200191505060405180910390fd5b60006001886040518082805190602001908083835b602083106134785780518252602082019150602081019050602083039250613455565b6001836020036101000a0380198251168184511680821785525050505050509050019150509081526020016040518091039020905080600c016000015481600c0160010182600c0160020183600c0160030184600c0160040185600c01600501848054600181600116156101000203166002900480601f01602080910402602001604051908101604052809291908181526020018280546001816001161561010002031660029004801561356d5780601f106135425761010080835404028352916020019161356d565b820191906000526020600020905b81548152906001019060200180831161355057829003601f168201915b50505050509450838054600181600116156101000203166002900480601f0160208091040260200160405190810160405280929190818152602001828054600181600116156101000203166002900480156136095780601f106135de57610100808354040283529160200191613609565b820191906000526020600020905b8154815290600101906020018083116135ec57829003601f168201915b50505050509350828054600181600116156101000203166002900480601f0160208091040260200160405190810160405280929190818152602001828054600181600116156101000203166002900480156136a55780601f1061367a576101008083540402835291602001916136a5565b820191906000526020600020905b81548152906001019060200180831161368857829003601f168201915b50505050509250818054600181600116156101000203166002900480601f0160208091040260200160405190810160405280929190818152602001828054600181600116156101000203166002900480156137415780601f1061371657610100808354040283529160200191613741565b820191906000526020600020905b81548152906001019060200180831161372457829003601f168201915b50505050509150808054600181600116156101000203166002900480601f0160208091040260200160405190810160405280929190818152602001828054600181600116156101000203166002900480156137dd5780601f106137b2576101008083540402835291602001916137dd565b820191906000526020600020905b8154815290600101906020018083116137c057829003601f168201915b505050505090509650965096509650965096505091939550919395565b600080600060606000806000876040518082805190602001908083835b6020831061383a5780518252602082019150602081019050602083039250613817565b6001836020036101000a038019825116818451168082178552505050505050905001915050908152602001604051809103902060009054906101000a900460ff166138ed576040517f08c379a00000000000000000000000000000000000000000000000000000000081526004018080602001828103825260168152602001807f50617469656e74206e6f7420726567697374657265640000000000000000000081525060200191505060405180910390fd5b60006001886040518082805190602001908083835b602083106139255780518252602082019150602081019050602083039250613902565b6001836020036101000a03801982511681845116808217855250505050505090500191505090815260200160405180910390209050806012016000015481601201600101548260120160020154836012016003018460120160040160009054906101000a900460ff168560120160040160019054906101000a900460ff16828054600181600116156101000203166002900480601f016020809104026020016040519081016040528092919081815260200182805460018160011615610100020316600290048015613a385780601f10613a0d57610100808354040283529160200191613a38565b820191906000526020600020905b815481529060010190602001808311613a1b57829003601f168201915b505050505092509650965096509650965096505091939550919395565b60608060606000846040518082805190602001908083835b60208310613a905780518252602082019150602081019050602083039250613a6d565b6001836020036101000a038019825116818451168082178552505050505050905001915050908152602001604051809103902060009054906101000a900460ff16613b43576040517f08c379a00000000000000000000000000000000000000000000000000000000081526004018080602001828103825260168152602001807f50617469656e74206e6f7420726567697374657265640000000000000000000081525060200191505060405180910390fd5b60006001856040518082805190602001908083835b60208310613b7b5780518252602082019150602081019050602083039250613b58565b6001836020036101000a03801982511681845116808217855250505050505090500191505090815260200160405180910390209050806017016000018160170160010182601701600201828054600181600116156101000203166002900480601f016020809104026020016040519081016040528092919081815260200182805460018160011615610100020316600290048015613c5a5780601f10613c2f57610100808354040283529160200191613c5a565b820191906000526020600020905b815481529060010190602001808311613c3d57829003601f168201915b50505050509250818054600181600116156101000203166002900480601f016020809104026020016040519081016040528092919081815260200182805460018160011615610100020316600290048015613cf65780601f10613ccb57610100808354040283529160200191613cf6565b820191906000526020600020905b815481529060010190602001808311613cd957829003601f168201915b50505050509150808054600181600116156101000203166002900480601f016020809104026020016040519081016040528092919081815260200182805460018160011615610100020316600290048015613d925780601f10613d6757610100808354040283529160200191613d92565b820191906000526020600020905b815481529060010190602001808311613d7557829003601f168201915b50505050509050935093509350509193909250565b6000886040518082805190602001908083835b60208310613ddd5780518252602082019150602081019050602083039250613dba565b6001836020036101000a038019825116818451168082178552505050505050905001915050908152602001604051809103902060009054906101000a900460ff16613e90576040517f08c379a00000000000000000000000000000000000000000000000000000000081526004018080602001828103825260168152602001807f50617469656e74206e6f7420726567697374657265640000000000000000000081525060200191505060405180910390fd5b6040518060e001604052808881526020018781526020018681526020018581526020018481526020018315158152602001828152506001896040518082805190602001908083835b60208310613efb5780518252602082019150602081019050602083039250613ed8565b6001836020036101000a03801982511681845116808217855250505050505090500191505090815260200160405180910390206005016000820151816000019080519060200190613f4d92919061403f565b506020820151816001015560408201518160020155606082015181600301556080820151816004015560a08201518160050160006101000a81548160ff02191690831515021790555060c0820151816006019080519060200190613fb292919061403f565b509050505050505050505050565b600080826040518082805190602001908083835b60208310613ff75780518252602082019150602081019050602083039250613fd4565b6001836020036101000a038019825116818451168082178552505050505050905001915050908152602001604051809103902060009054906101000a900460ff169050919050565b828054600181600116156101000203166002900490600052602060002090601f016020900481019282601f1061408057805160ff19168380011785556140ae565b828001600101855582156140ae579182015b828111156140ad578251825591602001919060010190614092565b5b5090506140bb91906140bf565b5090565b6140e191905b808211156140dd5760008160009055506001016140c5565b5090565b9056fea265627a7a723158201015dd02d55dc3dda722948832ce0a522108177855fd07d03dfee933f69d627a64736f6c63430005100032",
  "source": "// SPDX-License-Identifier: MIT\r\npragma solidity ^0.5.16;\r\n\r\ncontract PatientRegistration {\r\n    struct PatientCredentials {\r\n        address cryptoWalletAddress;\r\n        string name;\r\n        string healthID;\r\n        string email;\r\n        string password;\r\n    }\r\n\r\n    struct PatientPersonalDetails {\r\n        string gender;\r\n        uint256 age;\r\n        uint256 date;\r\n        uint256 month;\r\n        uint256 year;\r\n        bool maritalStatus;\r\n        string disabilities;\r\n    }\r\n\r\n    struct PatientContactDetails {\r\n        uint256 contactNumber;\r\n        string appartmentNumber;\r\n        string street;\r\n        string city;\r\n        string state;\r\n        string country;\r\n    }\r\n\r\n    struct PatientMedicalDetails {\r\n        uint256 weight;\r\n        uint256 feet;\r\n        uint256 inches;\r\n        string allergies;\r\n        bool isDiabetic;\r\n        bool isHypertension;\r\n    }\r\n\r\n    struct PatientLifestyleDetails {\r\n        string smokingStatus;\r\n        string alcoholConsumption;\r\n        string exerciseHabit;\r\n    }\r\n\r\n    struct PatientPolicyDetails {\r\n        string insuranceProvider;\r\n        uint256 policyNumber;\r\n    }\r\n\r\n    struct Patient {\r\n        PatientCredentials credential;\r\n        PatientPersonalDetails personalDetails;\r\n        PatientContactDetails contactDetails;\r\n        PatientMedicalDetails medicalDetails;\r\n        PatientLifestyleDetails lifestyleDetails;\r\n        PatientPolicyDetails policyDetails;\r\n    }\r\n\r\n    mapping(string => bool) public isPatientRegistered;\r\n    mapping(string => Patient) private patients;\r\n\r\n    event PatientRegistered(string healthID, string name, address cryptoWalletAddress);\r\n\r\n    function registerPatientCredentials( string memory _healthID, string memory _name, string memory _email, string memory _password, address _cryptoWalletAddress ) public {\r\n        patients[_healthID].credential = PatientCredentials({\r\n            cryptoWalletAddress: _cryptoWalletAddress,\r\n            name: _name,\r\n            healthID: _healthID,\r\n            email: _email,\r\n            password: _password\r\n        });\r\n\r\n        isPatientRegistered[_healthID] = true;\r\n        emit PatientRegistered(_healthID, _name, _cryptoWalletAddress);\r\n    }\r\n\r\n    function registerPatientPersonalDetails( string memory _healthID, string memory _gender, uint256 _age, uint256 _date, uint256 _month, uint256 _year, bool _maritalStatus, string memory _disabilities ) public {\r\n        require(isPatientRegistered[_healthID], \"Patient not registered\");\r\n\r\n        patients[_healthID].personalDetails = PatientPersonalDetails({\r\n            gender: _gender,\r\n            age: _age,\r\n            date: _date,\r\n            month: _month,\r\n            year: _year,\r\n            maritalStatus: _maritalStatus,\r\n            disabilities: _disabilities\r\n        });\r\n    }\r\n\r\n    function registerPatientContactDetails( string memory _healthId, uint256 _contactNumber, string memory _appartmentNumber, string memory _street, string memory _city, string memory _state, string memory _country ) public {\r\n        require(isPatientRegistered[_healthId], \"Patient not registered\");\r\n\r\n        patients[_healthId].contactDetails = PatientContactDetails({\r\n            contactNumber: _contactNumber,\r\n            appartmentNumber: _appartmentNumber,\r\n            street: _street,\r\n            city: _city,\r\n            state: _state,\r\n            country: _country\r\n        });\r\n    }\r\n\r\n    function registerPatientMedicalDetails( string memory _healthID, uint256 _weight, uint256 _feet, uint256 _inches, string memory _allergies, bool _isDiabetic, bool _isHypertension ) public {\r\n        require(isPatientRegistered[_healthID], \"Patient not registered\");\r\n\r\n        patients[_healthID].medicalDetails = PatientMedicalDetails({\r\n            weight: _weight,\r\n            feet: _feet,\r\n            inches: _inches,\r\n            allergies: _allergies,\r\n            isDiabetic: _isDiabetic,\r\n            isHypertension: _isHypertension\r\n        });\r\n    }\r\n\r\n    function registerPatientLifestyleDetails( string memory _healthID, string memory _smokingStatus, string memory _alcoholConsumption, string memory _exerciseHabit ) public {\r\n        require(isPatientRegistered[_healthID], \"Patient not registered\");\r\n\r\n        patients[_healthID].lifestyleDetails = PatientLifestyleDetails({\r\n            smokingStatus: _smokingStatus,\r\n            alcoholConsumption: _alcoholConsumption,\r\n            exerciseHabit: _exerciseHabit\r\n        });\r\n    }\r\n\r\n    function registerPatientPolicyDetails( string memory _healthID, string memory _insuranceProvider, uint256 _policyNumber ) public {\r\n        require(isPatientRegistered[_healthID], \"Patient not registered\");\r\n\r\n        patients[_healthID].policyDetails = PatientPolicyDetails({\r\n            insuranceProvider: _insuranceProvider,\r\n            policyNumber: _policyNumber\r\n        });\r\n    }\r\n\r\n    function isRegisteredPatient(string memory _healthID) public view returns (bool) {\r\n        return isPatientRegistered[_healthID];\r\n    }\r\n\r\n    function validatePassword(string memory _healthID, string memory _password) public view returns (bool) {\r\n        require(isPatientRegistered[_healthID], \"Patient not registered\");\r\n        return keccak256(abi.encodePacked(_password)) == keccak256(abi.encodePacked(patients[_healthID].credential.password));\r\n    }\r\n\r\n    function getPatientCredentials(string memory _healthID) public view returns ( address cryptoWalletAddress, string memory name, string memory healthID, string memory email ) {\r\n        require(isPatientRegistered[_healthID], \"Patient not registered\");\r\n\r\n        Patient storage patient = patients[_healthID];\r\n\r\n        return (\r\n            patient.credential.cryptoWalletAddress,\r\n            patient.credential.name,\r\n            patient.credential.healthID,\r\n            patient.credential.email\r\n        );\r\n    }\r\n\r\n    function getPatientPersonalDetails(string memory _healthID) public view returns ( string memory gender, uint256 age, uint256 date, uint256 month, uint256 year, bool maritalStatus, string memory disabilities ) {\r\n        require(isPatientRegistered[_healthID], \"Patient not registered\");\r\n\r\n        Patient storage patient = patients[_healthID];\r\n\r\n        return (\r\n            patient.personalDetails.gender,\r\n            patient.personalDetails.age,\r\n            patient.personalDetails.date,\r\n            patient.personalDetails.month,\r\n            patient.personalDetails.year,\r\n            patient.personalDetails.maritalStatus,\r\n            patient.personalDetails.disabilities\r\n        );\r\n    }\r\n\r\n    function getPatientContactDetails(string memory _healthId) public view returns ( uint256 contactNumber, string memory appartmentNumber, string memory street, string memory city, string memory state, string memory country ) {\r\n        require(isPatientRegistered[_healthId], \"Patient not registered\");\r\n\r\n        Patient storage patient = patients[_healthId];\r\n\r\n        return (\r\n            patient.contactDetails.contactNumber,\r\n            patient.contactDetails.appartmentNumber,\r\n            patient.contactDetails.street,\r\n            patient.contactDetails.city,\r\n            patient.contactDetails.state,\r\n            patient.contactDetails.country\r\n        );\r\n    }\r\n\r\n    function getPatientMedicalDetails(string memory _healthID) public view returns ( uint256 weight, uint256 feet, uint256 inches, string memory allergies, bool isDiabetic, bool isHypertension ) {\r\n        require(isPatientRegistered[_healthID], \"Patient not registered\");\r\n\r\n        Patient storage patient = patients[_healthID];\r\n\r\n        return (\r\n            patient.medicalDetails.weight,\r\n            patient.medicalDetails.feet,\r\n            patient.medicalDetails.inches,\r\n            patient.medicalDetails.allergies,\r\n            patient.medicalDetails.isDiabetic,\r\n            patient.medicalDetails.isHypertension\r\n        );\r\n    }\r\n\r\n    function getPatientLifestyleDetails(string memory _healthID) public view returns ( string memory smokingStatus, string memory alcoholConsumption, string memory exerciseHabit ) {\r\n        require(isPatientRegistered[_healthID], \"Patient not registered\");\r\n\r\n        Patient storage patient = patients[_healthID];\r\n\r\n        return (\r\n            patient.lifestyleDetails.smokingStatus,\r\n            patient.lifestyleDetails.alcoholConsumption,\r\n            patient.lifestyleDetails.exerciseHabit\r\n        );\r\n    }\r\n\r\n    function getPatientPolicyDetails(string memory _healthID) public view returns ( string memory insuranceProvider, uint256 policyNumber ) {\r\n        require(isPatientRegistered[_healthID], \"Patient not registered\");\r\n\r\n        Patient storage patient = patients[_healthID];\r\n\r\n        return (\r\n            patient.policyDetails.insuranceProvider,\r\n            patient.policyDetails.policyNumber\r\n        );\r\n    }\r\n}",
  "sourcePath": "C:\\Users\\Aman\\Desktop\\GITHUB\\WellWise_Core\\src\\contracts\\PatientRegistration.sol",
  "compiler": {
    "name": "solc",
    "version": "0.5.16+commit.9c3226ce.Emscripten.clang"
  },
  "schemaVersion": "3.4.16",
  "updatedAt": "2024-12-28T09:14:16.056Z",
  "networkType": "ethereum",
  "devdoc": {
    "methods": {}
  },
  "userdoc": {
    "methods": {}
  }
}