{
  "contractName": "PatientRegistration",
  "abi": [
    {
      "anonymous": false,
      "inputs": [
        {
          "indexed": false,
          "internalType": "string",
          "name": "healthID",
          "type": "string"
        },
        {
          "indexed": false,
          "internalType": "string",
          "name": "name",
          "type": "string"
        },
        {
          "indexed": false,
          "internalType": "address",
          "name": "cryptoWalletAddress",
          "type": "address"
        }
      ],
      "name": "PatientRegistered",
      "type": "event"
    },
    {
      "constant": true,
      "inputs": [
        {
          "internalType": "string",
          "name": "",
          "type": "string"
        }
      ],
      "name": "isPatientRegistered",
      "outputs": [
        {
          "internalType": "bool",
          "name": "",
          "type": "bool"
        }
      ],
      "payable": false,
      "stateMutability": "view",
      "type": "function"
    },
    {
      "constant": false,
      "inputs": [
        {
          "internalType": "string",
          "name": "_healthID",
          "type": "string"
        },
        {
          "internalType": "string",
          "name": "_name",
          "type": "string"
        },
        {
          "internalType": "string",
          "name": "_email",
          "type": "string"
        },
        {
          "internalType": "string",
          "name": "_password",
          "type": "string"
        },
        {
          "internalType": "address",
          "name": "_cryptoWalletAddress",
          "type": "address"
        }
      ],
      "name": "registerPatientCredentials",
      "outputs": [],
      "payable": false,
      "stateMutability": "nonpayable",
      "type": "function"
    },
    {
      "constant": false,
      "inputs": [
        {
          "internalType": "string",
          "name": "_healthID",
          "type": "string"
        },
        {
          "internalType": "string",
          "name": "_gender",
          "type": "string"
        },
        {
          "internalType": "uint256",
          "name": "_age",
          "type": "uint256"
        },
        {
          "internalType": "uint256",
          "name": "_date",
          "type": "uint256"
        },
        {
          "internalType": "uint256",
          "name": "_month",
          "type": "uint256"
        },
        {
          "internalType": "uint256",
          "name": "_year",
          "type": "uint256"
        },
        {
          "internalType": "string",
          "name": "_maritalStatus",
          "type": "string"
        },
        {
          "internalType": "string",
          "name": "_disabilities",
          "type": "string"
        }
      ],
      "name": "registerPatientPersonalDetails",
      "outputs": [],
      "payable": false,
      "stateMutability": "nonpayable",
      "type": "function"
    },
    {
      "constant": false,
      "inputs": [
        {
          "internalType": "string",
          "name": "_healthId",
          "type": "string"
        },
        {
          "internalType": "uint256",
          "name": "_contactNumber",
          "type": "uint256"
        },
        {
          "internalType": "string",
          "name": "_appartmentNumber",
          "type": "string"
        },
        {
          "internalType": "string",
          "name": "_street",
          "type": "string"
        },
        {
          "internalType": "string",
          "name": "_city",
          "type": "string"
        },
        {
          "internalType": "string",
          "name": "_state",
          "type": "string"
        },
        {
          "internalType": "string",
          "name": "_country",
          "type": "string"
        }
      ],
      "name": "registerPatientContactDetails",
      "outputs": [],
      "payable": false,
      "stateMutability": "nonpayable",
      "type": "function"
    },
    {
      "constant": false,
      "inputs": [
        {
          "internalType": "string",
          "name": "_healthID",
          "type": "string"
        },
        {
          "internalType": "uint256",
          "name": "_weight",
          "type": "uint256"
        },
        {
          "internalType": "uint256",
          "name": "_feet",
          "type": "uint256"
        },
        {
          "internalType": "uint256",
          "name": "_inches",
          "type": "uint256"
        },
        {
          "internalType": "string",
          "name": "_allergies",
          "type": "string"
        },
        {
          "internalType": "bool",
          "name": "_isDiabetic",
          "type": "bool"
        },
        {
          "internalType": "bool",
          "name": "_isHypertension",
          "type": "bool"
        }
      ],
      "name": "registerPatientMedicalDetails",
      "outputs": [],
      "payable": false,
      "stateMutability": "nonpayable",
      "type": "function"
    },
    {
      "constant": false,
      "inputs": [
        {
          "internalType": "string",
          "name": "_healthID",
          "type": "string"
        },
        {
          "internalType": "string",
          "name": "_smokingStatus",
          "type": "string"
        },
        {
          "internalType": "string",
          "name": "_alcoholConsumption",
          "type": "string"
        },
        {
          "internalType": "string",
          "name": "_exerciseHabit",
          "type": "string"
        }
      ],
      "name": "registerPatientLifestyleDetails",
      "outputs": [],
      "payable": false,
      "stateMutability": "nonpayable",
      "type": "function"
    },
    {
      "constant": false,
      "inputs": [
        {
          "internalType": "string",
          "name": "_healthID",
          "type": "string"
        },
        {
          "internalType": "string",
          "name": "_insuranceProvider",
          "type": "string"
        },
        {
          "internalType": "uint256",
          "name": "_policyNumber",
          "type": "uint256"
        }
      ],
      "name": "registerPatientPolicyDetails",
      "outputs": [],
      "payable": false,
      "stateMutability": "nonpayable",
      "type": "function"
    },
    {
      "constant": true,
      "inputs": [
        {
          "internalType": "string",
          "name": "_healthID",
          "type": "string"
        }
      ],
      "name": "isRegisteredPatient",
      "outputs": [
        {
          "internalType": "bool",
          "name": "",
          "type": "bool"
        }
      ],
      "payable": false,
      "stateMutability": "view",
      "type": "function"
    },
    {
      "constant": true,
      "inputs": [
        {
          "internalType": "string",
          "name": "_healthID",
          "type": "string"
        },
        {
          "internalType": "string",
          "name": "_password",
          "type": "string"
        }
      ],
      "name": "validatePassword",
      "outputs": [
        {
          "internalType": "bool",
          "name": "",
          "type": "bool"
        }
      ],
      "payable": false,
      "stateMutability": "view",
      "type": "function"
    },
    {
      "constant": true,
      "inputs": [
        {
          "internalType": "string",
          "name": "_healthID",
          "type": "string"
        }
      ],
      "name": "getPatientCredentials",
      "outputs": [
        {
          "internalType": "address",
          "name": "cryptoWalletAddress",
          "type": "address"
        },
        {
          "internalType": "string",
          "name": "name",
          "type": "string"
        },
        {
          "internalType": "string",
          "name": "healthID",
          "type": "string"
        },
        {
          "internalType": "string",
          "name": "email",
          "type": "string"
        }
      ],
      "payable": false,
      "stateMutability": "view",
      "type": "function"
    },
    {
      "constant": true,
      "inputs": [
        {
          "internalType": "string",
          "name": "_healthID",
          "type": "string"
        }
      ],
      "name": "getPatientPersonalDetails",
      "outputs": [
        {
          "internalType": "string",
          "name": "gender",
          "type": "string"
        },
        {
          "internalType": "uint256",
          "name": "age",
          "type": "uint256"
        },
        {
          "internalType": "uint256",
          "name": "date",
          "type": "uint256"
        },
        {
          "internalType": "uint256",
          "name": "month",
          "type": "uint256"
        },
        {
          "internalType": "uint256",
          "name": "year",
          "type": "uint256"
        },
        {
          "internalType": "string",
          "name": "maritalStatus",
          "type": "string"
        },
        {
          "internalType": "string",
          "name": "disabilities",
          "type": "string"
        }
      ],
      "payable": false,
      "stateMutability": "view",
      "type": "function"
    },
    {
      "constant": true,
      "inputs": [
        {
          "internalType": "string",
          "name": "_healthId",
          "type": "string"
        }
      ],
      "name": "getPatientContactDetails",
      "outputs": [
        {
          "internalType": "uint256",
          "name": "contactNumber",
          "type": "uint256"
        },
        {
          "internalType": "string",
          "name": "appartmentNumber",
          "type": "string"
        },
        {
          "internalType": "string",
          "name": "street",
          "type": "string"
        },
        {
          "internalType": "string",
          "name": "city",
          "type": "string"
        },
        {
          "internalType": "string",
          "name": "state",
          "type": "string"
        },
        {
          "internalType": "string",
          "name": "country",
          "type": "string"
        }
      ],
      "payable": false,
      "stateMutability": "view",
      "type": "function"
    },
    {
      "constant": true,
      "inputs": [
        {
          "internalType": "string",
          "name": "_healthID",
          "type": "string"
        }
      ],
      "name": "getPatientMedicalDetails",
      "outputs": [
        {
          "internalType": "uint256",
          "name": "weight",
          "type": "uint256"
        },
        {
          "internalType": "uint256",
          "name": "feet",
          "type": "uint256"
        },
        {
          "internalType": "uint256",
          "name": "inches",
          "type": "uint256"
        },
        {
          "internalType": "string",
          "name": "allergies",
          "type": "string"
        },
        {
          "internalType": "bool",
          "name": "isDiabetic",
          "type": "bool"
        },
        {
          "internalType": "bool",
          "name": "isHypertension",
          "type": "bool"
        }
      ],
      "payable": false,
      "stateMutability": "view",
      "type": "function"
    },
    {
      "constant": true,
      "inputs": [
        {
          "internalType": "string",
          "name": "_healthID",
          "type": "string"
        }
      ],
      "name": "getPatientLifestyleDetails",
      "outputs": [
        {
          "internalType": "string",
          "name": "smokingStatus",
          "type": "string"
        },
        {
          "internalType": "string",
          "name": "alcoholConsumption",
          "type": "string"
        },
        {
          "internalType": "string",
          "name": "exerciseHabit",
          "type": "string"
        }
      ],
      "payable": false,
      "stateMutability": "view",
      "type": "function"
    },
    {
      "constant": true,
      "inputs": [
        {
          "internalType": "string",
          "name": "_healthID",
          "type": "string"
        }
      ],
      "name": "getPatientPolicyDetails",
      "outputs": [
        {
          "internalType": "string",
          "name": "insuranceProvider",
          "type": "string"
        },
        {
          "internalType": "uint256",
          "name": "policyNumber",
          "type": "uint256"
        }
      ],
      "payable": false,
      "stateMutability": "view",
      "type": "function"
    }
  ],
  "bytecode": "0x608060405234801561001057600080fd5b5061428d806100206000396000f3fe608060405234801561001057600080fd5b50600436106100f55760003560e01c80634f10c6c211610097578063b195e5ad11610066578063b195e5ad1461173e578063c4f7e24714611a29578063e9edabc114611b88578063f725264114611d94576100f5565b80634f10c6c214610fc15780636508ecd114611094578063715193e31461144c5780637babdb26146115d4576100f5565b806336f23af3116100d357806336f23af3146106fd5780633a7084e51461097d578063418176c514610bbc578063418d662914610d18576100f5565b806316251df8146100fa5780631e30b609146102355780631ee074da1461045d575b600080fd5b6101b36004803603602081101561011057600080fd5b810190808035906020019064010000000081111561012d57600080fd5b82018360208201111561013f57600080fd5b8035906020019184600183028401116401000000008311171561016157600080fd5b91908080601f016020809104026020016040519081016040528093929190818152602001838380828437600081840152601f19601f820116905080830192505050505050509192919290505050611e67565b6040518080602001838152602001828103825284818151815260200191508051906020019080838360005b838110156101f95780820151818401526020810190506101de565b50505050905090810190601f1680156102265780820380516001836020036101000a031916815260200191505b50935050505060405180910390f35b6102ee6004803603602081101561024b57600080fd5b810190808035906020019064010000000081111561026857600080fd5b82018360208201111561027a57600080fd5b8035906020019184600183028401116401000000008311171561029c57600080fd5b91908080601f016020809104026020016040519081016040528093929190818152602001838380828437600081840152601f19601f820116905080830192505050505050509192919290505050612075565b6040518080602001888152602001878152602001868152602001858152602001806020018060200184810384528b818151815260200191508051906020019080838360005b8381101561034e578082015181840152602081019050610333565b50505050905090810190601f16801561037b5780820380516001836020036101000a031916815260200191505b50848103835286818151815260200191508051906020019080838360005b838110156103b4578082015181840152602081019050610399565b50505050905090810190601f1680156103e15780820380516001836020036101000a031916815260200191505b50848103825285818151815260200191508051906020019080838360005b8381101561041a5780820151818401526020810190506103ff565b50505050905090810190601f1680156104475780820380516001836020036101000a031916815260200191505b509a505050505050505050505060405180910390f35b6106fb600480360360a081101561047357600080fd5b810190808035906020019064010000000081111561049057600080fd5b8201836020820111156104a257600080fd5b803590602001918460018302840111640100000000831117156104c457600080fd5b91908080601f016020809104026020016040519081016040528093929190818152602001838380828437600081840152601f19601f8201169050808301925050505050505091929192908035906020019064010000000081111561052757600080fd5b82018360208201111561053957600080fd5b8035906020019184600183028401116401000000008311171561055b57600080fd5b91908080601f016020809104026020016040519081016040528093929190818152602001838380828437600081840152601f19601f820116905080830192505050505050509192919290803590602001906401000000008111156105be57600080fd5b8201836020820111156105d057600080fd5b803590602001918460018302840111640100000000831117156105f257600080fd5b91908080601f016020809104026020016040519081016040528093929190818152602001838380828437600081840152601f19601f8201169050808301925050505050505091929192908035906020019064010000000081111561065557600080fd5b82018360208201111561066757600080fd5b8035906020019184600183028401116401000000008311171561068957600080fd5b91908080601f016020809104026020016040519081016040528093929190818152602001838380828437600081840152601f19601f820116905080830192505050505050509192919290803573ffffffffffffffffffffffffffffffffffffffff1690602001909291905050506123f9565b005b61097b6004803603608081101561071357600080fd5b810190808035906020019064010000000081111561073057600080fd5b82018360208201111561074257600080fd5b8035906020019184600183028401116401000000008311171561076457600080fd5b91908080601f016020809104026020016040519081016040528093929190818152602001838380828437600081840152601f19601f820116905080830192505050505050509192919290803590602001906401000000008111156107c757600080fd5b8201836020820111156107d957600080fd5b803590602001918460018302840111640100000000831117156107fb57600080fd5b91908080601f016020809104026020016040519081016040528093929190818152602001838380828437600081840152601f19601f8201169050808301925050505050505091929192908035906020019064010000000081111561085e57600080fd5b82018360208201111561087057600080fd5b8035906020019184600183028401116401000000008311171561089257600080fd5b91908080601f016020809104026020016040519081016040528093929190818152602001838380828437600081840152601f19601f820116905080830192505050505050509192919290803590602001906401000000008111156108f557600080fd5b82018360208201111561090757600080fd5b8035906020019184600183028401116401000000008311171561092957600080fd5b91908080601f016020809104026020016040519081016040528093929190818152602001838380828437600081840152601f19601f820116905080830192505050505050509192919290505050612726565b005b610a366004803603602081101561099357600080fd5b81019080803590602001906401000000008111156109b057600080fd5b8201836020820111156109c257600080fd5b803590602001918460018302840111640100000000831117156109e457600080fd5b91908080601f016020809104026020016040519081016040528093929190818152602001838380828437600081840152601f19601f8201169050808301925050505050505091929192905050506128f6565b604051808573ffffffffffffffffffffffffffffffffffffffff1673ffffffffffffffffffffffffffffffffffffffff168152602001806020018060200180602001848103845287818151815260200191508051906020019080838360005b83811015610ab0578082015181840152602081019050610a95565b50505050905090810190601f168015610add5780820380516001836020036101000a031916815260200191505b50848103835286818151815260200191508051906020019080838360005b83811015610b16578082015181840152602081019050610afb565b50505050905090810190601f168015610b435780820380516001836020036101000a031916815260200191505b50848103825285818151815260200191508051906020019080838360005b83811015610b7c578082015181840152602081019050610b61565b50505050905090810190601f168015610ba95780820380516001836020036101000a031916815260200191505b5097505050505050505060405180910390f35b610d1660048036036060811015610bd257600080fd5b8101908080359060200190640100000000811115610bef57600080fd5b820183602082011115610c0157600080fd5b80359060200191846001830284011164010000000083111715610c2357600080fd5b91908080601f016020809104026020016040519081016040528093929190818152602001838380828437600081840152601f19601f82011690508083019250505050505050919291929080359060200190640100000000811115610c8657600080fd5b820183602082011115610c9857600080fd5b80359060200191846001830284011164010000000083111715610cba57600080fd5b91908080601f016020809104026020016040519081016040528093929190818152602001838380828437600081840152601f19601f82011690508083019250505050505050919291929080359060200190929190505050612c74565b005b610fbf6004803603610100811015610d2f57600080fd5b8101908080359060200190640100000000811115610d4c57600080fd5b820183602082011115610d5e57600080fd5b80359060200191846001830284011164010000000083111715610d8057600080fd5b91908080601f016020809104026020016040519081016040528093929190818152602001838380828437600081840152601f19601f82011690508083019250505050505050919291929080359060200190640100000000811115610de357600080fd5b820183602082011115610df557600080fd5b80359060200191846001830284011164010000000083111715610e1757600080fd5b91908080601f016020809104026020016040519081016040528093929190818152602001838380828437600081840152601f19601f8201169050808301925050505050505091929192908035906020019092919080359060200190929190803590602001909291908035906020019092919080359060200190640100000000811115610ea257600080fd5b820183602082011115610eb457600080fd5b80359060200191846001830284011164010000000083111715610ed657600080fd5b91908080601f016020809104026020016040519081016040528093929190818152602001838380828437600081840152601f19601f82011690508083019250505050505050919291929080359060200190640100000000811115610f3957600080fd5b820183602082011115610f4b57600080fd5b80359060200191846001830284011164010000000083111715610f6d57600080fd5b91908080601f016020809104026020016040519081016040528093929190818152602001838380828437600081840152601f19601f820116905080830192505050505050509192919290505050612e0d565b005b61107a60048036036020811015610fd757600080fd5b8101908080359060200190640100000000811115610ff457600080fd5b82018360208201111561100657600080fd5b8035906020019184600183028401116401000000008311171561102857600080fd5b91908080601f016020809104026020016040519081016040528093929190818152602001838380828437600081840152601f19601f820116905080830192505050505050509192919290505050613021565b604051808215151515815260200191505060405180910390f35b61144a600480360360e08110156110aa57600080fd5b81019080803590602001906401000000008111156110c757600080fd5b8201836020820111156110d957600080fd5b803590602001918460018302840111640100000000831117156110fb57600080fd5b91908080601f016020809104026020016040519081016040528093929190818152602001838380828437600081840152601f19601f820116905080830192505050505050509192919290803590602001909291908035906020019064010000000081111561116857600080fd5b82018360208201111561117a57600080fd5b8035906020019184600183028401116401000000008311171561119c57600080fd5b91908080601f016020809104026020016040519081016040528093929190818152602001838380828437600081840152601f19601f820116905080830192505050505050509192919290803590602001906401000000008111156111ff57600080fd5b82018360208201111561121157600080fd5b8035906020019184600183028401116401000000008311171561123357600080fd5b91908080601f016020809104026020016040519081016040528093929190818152602001838380828437600081840152601f19601f8201169050808301925050505050505091929192908035906020019064010000000081111561129657600080fd5b8201836020820111156112a857600080fd5b803590602001918460018302840111640100000000831117156112ca57600080fd5b91908080601f016020809104026020016040519081016040528093929190818152602001838380828437600081840152601f19601f8201169050808301925050505050505091929192908035906020019064010000000081111561132d57600080fd5b82018360208201111561133f57600080fd5b8035906020019184600183028401116401000000008311171561136157600080fd5b91908080601f016020809104026020016040519081016040528093929190818152602001838380828437600081840152601f19601f820116905080830192505050505050509192919290803590602001906401000000008111156113c457600080fd5b8201836020820111156113d657600080fd5b803590602001918460018302840111640100000000831117156113f857600080fd5b91908080601f016020809104026020016040519081016040528093929190818152602001838380828437600081840152601f19601f820116905080830192505050505050509192919290505050613057565b005b6115d2600480360360e081101561146257600080fd5b810190808035906020019064010000000081111561147f57600080fd5b82018360208201111561149157600080fd5b803590602001918460018302840111640100000000831117156114b357600080fd5b91908080601f016020809104026020016040519081016040528093929190818152602001838380828437600081840152601f19601f8201169050808301925050505050505091929192908035906020019092919080359060200190929190803590602001909291908035906020019064010000000081111561153457600080fd5b82018360208201111561154657600080fd5b8035906020019184600183028401116401000000008311171561156857600080fd5b91908080601f016020809104026020016040519081016040528093929190818152602001838380828437600081840152601f19601f820116905080830192505050505050509192919290803515159060200190929190803515159060200190929190505050613280565b005b611724600480360360408110156115ea57600080fd5b810190808035906020019064010000000081111561160757600080fd5b82018360208201111561161957600080fd5b8035906020019184600183028401116401000000008311171561163b57600080fd5b91908080601f016020809104026020016040519081016040528093929190818152602001838380828437600081840152601f19601f8201169050808301925050505050505091929192908035906020019064010000000081111561169e57600080fd5b8201836020820111156116b057600080fd5b803590602001918460018302840111640100000000831117156116d257600080fd5b91908080601f016020809104026020016040519081016040528093929190818152602001838380828437600081840152601f19601f82011690508083019250505050505050919291929050505061348d565b604051808215151515815260200191505060405180910390f35b6117f76004803603602081101561175457600080fd5b810190808035906020019064010000000081111561177157600080fd5b82018360208201111561178357600080fd5b803590602001918460018302840111640100000000831117156117a557600080fd5b91908080601f016020809104026020016040519081016040528093929190818152602001838380828437600081840152601f19601f8201169050808301925050505050505091929192905050506136da565b60405180878152602001806020018060200180602001806020018060200186810386528b818151815260200191508051906020019080838360005b8381101561184d578082015181840152602081019050611832565b50505050905090810190601f16801561187a5780820380516001836020036101000a031916815260200191505b5086810385528a818151815260200191508051906020019080838360005b838110156118b3578082015181840152602081019050611898565b50505050905090810190601f1680156118e05780820380516001836020036101000a031916815260200191505b50868103845289818151815260200191508051906020019080838360005b838110156119195780820151818401526020810190506118fe565b50505050905090810190601f1680156119465780820380516001836020036101000a031916815260200191505b50868103835288818151815260200191508051906020019080838360005b8381101561197f578082015181840152602081019050611964565b50505050905090810190601f1680156119ac5780820380516001836020036101000a031916815260200191505b50868103825287818151815260200191508051906020019080838360005b838110156119e55780820151818401526020810190506119ca565b50505050905090810190601f168015611a125780820380516001836020036101000a031916815260200191505b509b50505050505050505050505060405180910390f35b611ae260048036036020811015611a3f57600080fd5b8101908080359060200190640100000000811115611a5c57600080fd5b820183602082011115611a6e57600080fd5b80359060200191846001830284011164010000000083111715611a9057600080fd5b91908080601f016020809104026020016040519081016040528093929190818152602001838380828437600081840152601f19601f820116905080830192505050505050509192919290505050613b87565b60405180878152602001868152602001858152602001806020018415151515815260200183151515158152602001828103825285818151815260200191508051906020019080838360005b83811015611b48578082015181840152602081019050611b2d565b50505050905090810190601f168015611b755780820380516001836020036101000a031916815260200191505b5097505050505050505060405180910390f35b611c4160048036036020811015611b9e57600080fd5b8101908080359060200190640100000000811115611bbb57600080fd5b820183602082011115611bcd57600080fd5b80359060200191846001830284011164010000000083111715611bef57600080fd5b91908080601f016020809104026020016040519081016040528093929190818152602001838380828437600081840152601f19601f820116905080830192505050505050509192919290505050613de2565b60405180806020018060200180602001848103845287818151815260200191508051906020019080838360005b83811015611c89578082015181840152602081019050611c6e565b50505050905090810190601f168015611cb65780820380516001836020036101000a031916815260200191505b50848103835286818151815260200191508051906020019080838360005b83811015611cef578082015181840152602081019050611cd4565b50505050905090810190601f168015611d1c5780820380516001836020036101000a031916815260200191505b50848103825285818151815260200191508051906020019080838360005b83811015611d55578082015181840152602081019050611d3a565b50505050905090810190601f168015611d825780820380516001836020036101000a031916815260200191505b50965050505050505060405180910390f35b611e4d60048036036020811015611daa57600080fd5b8101908080359060200190640100000000811115611dc757600080fd5b820183602082011115611dd957600080fd5b80359060200191846001830284011164010000000083111715611dfb57600080fd5b91908080601f016020809104026020016040519081016040528093929190818152602001838380828437600081840152601f19601f820116905080830192505050505050509192919290505050614134565b604051808215151515815260200191505060405180910390f35b6060600080836040518082805190602001908083835b60208310611ea05780518252602082019150602081019050602083039250611e7d565b6001836020036101000a038019825116818451168082178552505050505050905001915050908152602001604051809103902060009054906101000a900460ff16611f53576040517f08c379a00000000000000000000000000000000000000000000000000000000081526004018080602001828103825260168152602001807f50617469656e74206e6f7420726567697374657265640000000000000000000081525060200191505060405180910390fd5b60006001846040518082805190602001908083835b60208310611f8b5780518252602082019150602081019050602083039250611f68565b6001836020036101000a0380198251168184511680821785525050505050509050019150509081526020016040518091039020905080601a0160000181601a0160010154818054600181600116156101000203166002900480601f0160208091040260200160405190810160405280929190818152602001828054600181600116156101000203166002900480156120645780601f1061203957610100808354040283529160200191612064565b820191906000526020600020905b81548152906001019060200180831161204757829003601f168201915b505050505091509250925050915091565b60606000806000806060806000886040518082805190602001908083835b602083106120b65780518252602082019150602081019050602083039250612093565b6001836020036101000a038019825116818451168082178552505050505050905001915050908152602001604051809103902060009054906101000a900460ff16612169576040517f08c379a00000000000000000000000000000000000000000000000000000000081526004018080602001828103825260168152602001807f50617469656e74206e6f7420726567697374657265640000000000000000000081525060200191505060405180910390fd5b60006001896040518082805190602001908083835b602083106121a1578051825260208201915060208101905060208303925061217e565b6001836020036101000a038019825116818451168082178552505050505050905001915050908152602001604051809103902090508060050160000181600501600101548260050160020154836005016003015484600501600401548560050160050186600501600601868054600181600116156101000203166002900480601f0160208091040260200160405190810160405280929190818152602001828054600181600116156101000203166002900480156122a05780601f10612275576101008083540402835291602001916122a0565b820191906000526020600020905b81548152906001019060200180831161228357829003601f168201915b50505050509650818054600181600116156101000203166002900480601f01602080910402602001604051908101604052809291908181526020018280546001816001161561010002031660029004801561233c5780601f106123115761010080835404028352916020019161233c565b820191906000526020600020905b81548152906001019060200180831161231f57829003601f168201915b50505050509150808054600181600116156101000203166002900480601f0160208091040260200160405190810160405280929190818152602001828054600181600116156101000203166002900480156123d85780601f106123ad576101008083540402835291602001916123d8565b820191906000526020600020905b8154815290600101906020018083116123bb57829003601f168201915b50505050509050975097509750975097509750975050919395979092949650565b6040518060a001604052808273ffffffffffffffffffffffffffffffffffffffff168152602001858152602001868152602001848152602001838152506001866040518082805190602001908083835b6020831061246c5780518252602082019150602081019050602083039250612449565b6001836020036101000a038019825116818451168082178552505050505050905001915050908152602001604051809103902060000160008201518160000160006101000a81548173ffffffffffffffffffffffffffffffffffffffff021916908373ffffffffffffffffffffffffffffffffffffffff16021790555060208201518160010190805190602001906125059291906141b3565b5060408201518160020190805190602001906125229291906141b3565b50606082015181600301908051906020019061253f9291906141b3565b50608082015181600401908051906020019061255c9291906141b3565b5090505060016000866040518082805190602001908083835b602083106125985780518252602082019150602081019050602083039250612575565b6001836020036101000a038019825116818451168082178552505050505050905001915050908152602001604051809103902060006101000a81548160ff0219169083151502179055507f319ae3a95b9a410d647835a7e64d54ddf28faf35a698f0a2b63999585fa38edc8585836040518080602001806020018473ffffffffffffffffffffffffffffffffffffffff1673ffffffffffffffffffffffffffffffffffffffff168152602001838103835286818151815260200191508051906020019080838360005b8381101561267c578082015181840152602081019050612661565b50505050905090810190601f1680156126a95780820380516001836020036101000a031916815260200191505b50838103825285818151815260200191508051906020019080838360005b838110156126e25780820151818401526020810190506126c7565b50505050905090810190601f16801561270f5780820380516001836020036101000a031916815260200191505b509550505050505060405180910390a15050505050565b6000846040518082805190602001908083835b6020831061275c5780518252602082019150602081019050602083039250612739565b6001836020036101000a038019825116818451168082178552505050505050905001915050908152602001604051809103902060009054906101000a900460ff1661280f576040517f08c379a00000000000000000000000000000000000000000000000000000000081526004018080602001828103825260168152602001807f50617469656e74206e6f7420726567697374657265640000000000000000000081525060200191505060405180910390fd5b6040518060600160405280848152602001838152602001828152506001856040518082805190602001908083835b60208310612860578051825260208201915060208101905060208303925061283d565b6001836020036101000a038019825116818451168082178552505050505050905001915050908152602001604051809103902060170160008201518160000190805190602001906128b29291906141b3565b5060208201518160010190805190602001906128cf9291906141b3565b5060408201518160020190805190602001906128ec9291906141b3565b5090505050505050565b600060608060606000856040518082805190602001908083835b602083106129335780518252602082019150602081019050602083039250612910565b6001836020036101000a038019825116818451168082178552505050505050905001915050908152602001604051809103902060009054906101000a900460ff166129e6576040517f08c379a00000000000000000000000000000000000000000000000000000000081526004018080602001828103825260168152602001807f50617469656e74206e6f7420726567697374657265640000000000000000000081525060200191505060405180910390fd5b60006001866040518082805190602001908083835b60208310612a1e57805182526020820191506020810190506020830392506129fb565b6001836020036101000a038019825116818451168082178552505050505050905001915050908152602001604051809103902090508060000160000160009054906101000a900473ffffffffffffffffffffffffffffffffffffffff16816000016001018260000160020183600001600301828054600181600116156101000203166002900480601f016020809104026020016040519081016040528092919081815260200182805460018160011615610100020316600290048015612b255780601f10612afa57610100808354040283529160200191612b25565b820191906000526020600020905b815481529060010190602001808311612b0857829003601f168201915b50505050509250818054600181600116156101000203166002900480601f016020809104026020016040519081016040528092919081815260200182805460018160011615610100020316600290048015612bc15780601f10612b9657610100808354040283529160200191612bc1565b820191906000526020600020905b815481529060010190602001808311612ba457829003601f168201915b50505050509150808054600181600116156101000203166002900480601f016020809104026020016040519081016040528092919081815260200182805460018160011615610100020316600290048015612c5d5780601f10612c3257610100808354040283529160200191612c5d565b820191906000526020600020905b815481529060010190602001808311612c4057829003601f168201915b505050505090509450945094509450509193509193565b6000836040518082805190602001908083835b60208310612caa5780518252602082019150602081019050602083039250612c87565b6001836020036101000a038019825116818451168082178552505050505050905001915050908152602001604051809103902060009054906101000a900460ff16612d5d576040517f08c379a00000000000000000000000000000000000000000000000000000000081526004018080602001828103825260168152602001807f50617469656e74206e6f7420726567697374657265640000000000000000000081525060200191505060405180910390fd5b6040518060400160405280838152602001828152506001846040518082805190602001908083835b60208310612da85780518252602082019150602081019050602083039250612d85565b6001836020036101000a0380198251168184511680821785525050505050509050019150509081526020016040518091039020601a016000820151816000019080519060200190612dfa9291906141b3565b5060208201518160010155905050505050565b6000886040518082805190602001908083835b60208310612e435780518252602082019150602081019050602083039250612e20565b6001836020036101000a038019825116818451168082178552505050505050905001915050908152602001604051809103902060009054906101000a900460ff16612ef6576040517f08c379a00000000000000000000000000000000000000000000000000000000081526004018080602001828103825260168152602001807f50617469656e74206e6f7420726567697374657265640000000000000000000081525060200191505060405180910390fd5b6040518060e00160405280888152602001878152602001868152602001858152602001848152602001838152602001828152506001896040518082805190602001908083835b60208310612f5f5780518252602082019150602081019050602083039250612f3c565b6001836020036101000a03801982511681845116808217855250505050505090500191505090815260200160405180910390206005016000820151816000019080519060200190612fb19291906141b3565b506020820151816001015560408201518160020155606082015181600301556080820151816004015560a0820151816005019080519060200190612ff69291906141b3565b5060c08201518160060190805190602001906130139291906141b3565b509050505050505050505050565b6000818051602081018201805184825260208301602085012081835280955050505050506000915054906101000a900460ff1681565b6000876040518082805190602001908083835b6020831061308d578051825260208201915060208101905060208303925061306a565b6001836020036101000a038019825116818451168082178552505050505050905001915050908152602001604051809103902060009054906101000a900460ff16613140576040517f08c379a00000000000000000000000000000000000000000000000000000000081526004018080602001828103825260168152602001807f50617469656e74206e6f7420726567697374657265640000000000000000000081525060200191505060405180910390fd5b6040518060c00160405280878152602001868152602001858152602001848152602001838152602001828152506001886040518082805190602001908083835b602083106131a35780518252602082019150602081019050602083039250613180565b6001836020036101000a0380198251168184511680821785525050505050509050019150509081526020016040518091039020600c016000820151816000015560208201518160010190805190602001906131ff9291906141b3565b50604082015181600201908051906020019061321c9291906141b3565b5060608201518160030190805190602001906132399291906141b3565b5060808201518160040190805190602001906132569291906141b3565b5060a08201518160050190805190602001906132739291906141b3565b5090505050505050505050565b6000876040518082805190602001908083835b602083106132b65780518252602082019150602081019050602083039250613293565b6001836020036101000a038019825116818451168082178552505050505050905001915050908152602001604051809103902060009054906101000a900460ff16613369576040517f08c379a00000000000000000000000000000000000000000000000000000000081526004018080602001828103825260168152602001807f50617469656e74206e6f7420726567697374657265640000000000000000000081525060200191505060405180910390fd5b6040518060c0016040528087815260200186815260200185815260200184815260200183151581526020018215158152506001886040518082805190602001908083835b602083106133d057805182526020820191506020810190506020830392506133ad565b6001836020036101000a038019825116818451168082178552505050505050905001915050908152602001604051809103902060120160008201518160000155602082015181600101556040820151816002015560608201518160030190805190602001906134409291906141b3565b5060808201518160040160006101000a81548160ff02191690831515021790555060a08201518160040160016101000a81548160ff02191690831515021790555090505050505050505050565b600080836040518082805190602001908083835b602083106134c457805182526020820191506020810190506020830392506134a1565b6001836020036101000a038019825116818451168082178552505050505050905001915050908152602001604051809103902060009054906101000a900460ff16613577576040517f08c379a00000000000000000000000000000000000000000000000000000000081526004018080602001828103825260168152602001807f50617469656e74206e6f7420726567697374657265640000000000000000000081525060200191505060405180910390fd5b6001836040518082805190602001908083835b602083106135ad578051825260208201915060208101905060208303925061358a565b6001836020036101000a038019825116818451168082178552505050505050905001915050908152602001604051809103902060000160040160405160200180828054600181600116156101000203166002900480156136445780601f10613622576101008083540402835291820191613644565b820191906000526020600020905b815481529060010190602001808311613630575b505091505060405160208183030381529060405280519060200120826040516020018082805190602001908083835b602083106136965780518252602082019150602081019050602083039250613673565b6001836020036101000a0380198251168184511680821785525050505050509050019150506040516020818303038152906040528051906020012014905092915050565b600060608060608060606000876040518082805190602001908083835b6020831061371a57805182526020820191506020810190506020830392506136f7565b6001836020036101000a038019825116818451168082178552505050505050905001915050908152602001604051809103902060009054906101000a900460ff166137cd576040517f08c379a00000000000000000000000000000000000000000000000000000000081526004018080602001828103825260168152602001807f50617469656e74206e6f7420726567697374657265640000000000000000000081525060200191505060405180910390fd5b60006001886040518082805190602001908083835b6020831061380557805182526020820191506020810190506020830392506137e2565b6001836020036101000a0380198251168184511680821785525050505050509050019150509081526020016040518091039020905080600c016000015481600c0160010182600c0160020183600c0160030184600c0160040185600c01600501848054600181600116156101000203166002900480601f0160208091040260200160405190810160405280929190818152602001828054600181600116156101000203166002900480156138fa5780601f106138cf576101008083540402835291602001916138fa565b820191906000526020600020905b8154815290600101906020018083116138dd57829003601f168201915b50505050509450838054600181600116156101000203166002900480601f0160208091040260200160405190810160405280929190818152602001828054600181600116156101000203166002900480156139965780601f1061396b57610100808354040283529160200191613996565b820191906000526020600020905b81548152906001019060200180831161397957829003601f168201915b50505050509350828054600181600116156101000203166002900480601f016020809104026020016040519081016040528092919081815260200182805460018160011615610100020316600290048015613a325780601f10613a0757610100808354040283529160200191613a32565b820191906000526020600020905b815481529060010190602001808311613a1557829003601f168201915b50505050509250818054600181600116156101000203166002900480601f016020809104026020016040519081016040528092919081815260200182805460018160011615610100020316600290048015613ace5780601f10613aa357610100808354040283529160200191613ace565b820191906000526020600020905b815481529060010190602001808311613ab157829003601f168201915b50505050509150808054600181600116156101000203166002900480601f016020809104026020016040519081016040528092919081815260200182805460018160011615610100020316600290048015613b6a5780601f10613b3f57610100808354040283529160200191613b6a565b820191906000526020600020905b815481529060010190602001808311613b4d57829003601f168201915b505050505090509650965096509650965096505091939550919395565b600080600060606000806000876040518082805190602001908083835b60208310613bc75780518252602082019150602081019050602083039250613ba4565b6001836020036101000a038019825116818451168082178552505050505050905001915050908152602001604051809103902060009054906101000a900460ff16613c7a576040517f08c379a00000000000000000000000000000000000000000000000000000000081526004018080602001828103825260168152602001807f50617469656e74206e6f7420726567697374657265640000000000000000000081525060200191505060405180910390fd5b60006001886040518082805190602001908083835b60208310613cb25780518252602082019150602081019050602083039250613c8f565b6001836020036101000a03801982511681845116808217855250505050505090500191505090815260200160405180910390209050806012016000015481601201600101548260120160020154836012016003018460120160040160009054906101000a900460ff168560120160040160019054906101000a900460ff16828054600181600116156101000203166002900480601f016020809104026020016040519081016040528092919081815260200182805460018160011615610100020316600290048015613dc55780601f10613d9a57610100808354040283529160200191613dc5565b820191906000526020600020905b815481529060010190602001808311613da857829003601f168201915b505050505092509650965096509650965096505091939550919395565b60608060606000846040518082805190602001908083835b60208310613e1d5780518252602082019150602081019050602083039250613dfa565b6001836020036101000a038019825116818451168082178552505050505050905001915050908152602001604051809103902060009054906101000a900460ff16613ed0576040517f08c379a00000000000000000000000000000000000000000000000000000000081526004018080602001828103825260168152602001807f50617469656e74206e6f7420726567697374657265640000000000000000000081525060200191505060405180910390fd5b60006001856040518082805190602001908083835b60208310613f085780518252602082019150602081019050602083039250613ee5565b6001836020036101000a03801982511681845116808217855250505050505090500191505090815260200160405180910390209050806017016000018160170160010182601701600201828054600181600116156101000203166002900480601f016020809104026020016040519081016040528092919081815260200182805460018160011615610100020316600290048015613fe75780601f10613fbc57610100808354040283529160200191613fe7565b820191906000526020600020905b815481529060010190602001808311613fca57829003601f168201915b50505050509250818054600181600116156101000203166002900480601f0160208091040260200160405190810160405280929190818152602001828054600181600116156101000203166002900480156140835780601f1061405857610100808354040283529160200191614083565b820191906000526020600020905b81548152906001019060200180831161406657829003601f168201915b50505050509150808054600181600116156101000203166002900480601f01602080910402602001604051908101604052809291908181526020018280546001816001161561010002031660029004801561411f5780601f106140f45761010080835404028352916020019161411f565b820191906000526020600020905b81548152906001019060200180831161410257829003601f168201915b50505050509050935093509350509193909250565b600080826040518082805190602001908083835b6020831061416b5780518252602082019150602081019050602083039250614148565b6001836020036101000a038019825116818451168082178552505050505050905001915050908152602001604051809103902060009054906101000a900460ff169050919050565b828054600181600116156101000203166002900490600052602060002090601f016020900481019282601f106141f457805160ff1916838001178555614222565b82800160010185558215614222579182015b82811115614221578251825591602001919060010190614206565b5b50905061422f9190614233565b5090565b61425591905b80821115614251576000816000905550600101614239565b5090565b9056fea265627a7a72315820c2d37a98a14469571ad8d6eecddbcfa333e1514acf46b940b6c76fec64d0568c64736f6c63430005100032",
  "source": "// SPDX-License-Identifier: MIT\r\npragma solidity ^0.5.16;\r\n\r\ncontract PatientRegistration {\r\n    struct PatientCredentials {\r\n        address cryptoWalletAddress;\r\n        string name;\r\n        string healthID;\r\n        string email;\r\n        string password;\r\n    }\r\n\r\n    struct PatientPersonalDetails {\r\n        string gender;\r\n        uint256 age;\r\n        uint256 date;\r\n        uint256 month;\r\n        uint256 year;\r\n        string maritalStatus;\r\n        string disabilities;\r\n    }\r\n\r\n    struct PatientContactDetails {\r\n        uint256 contactNumber;\r\n        string appartmentNumber;\r\n        string street;\r\n        string city;\r\n        string state;\r\n        string country;\r\n    }\r\n\r\n    struct PatientMedicalDetails {\r\n        uint256 weight;\r\n        uint256 feet;\r\n        uint256 inches;\r\n        string allergies;\r\n        bool isDiabetic;\r\n        bool isHypertension;\r\n    }\r\n\r\n    struct PatientLifestyleDetails {\r\n        string smokingStatus;\r\n        string alcoholConsumption;\r\n        string exerciseHabit;\r\n    }\r\n\r\n    struct PatientPolicyDetails {\r\n        string insuranceProvider;\r\n        uint256 policyNumber;\r\n    }\r\n\r\n    struct Patient {\r\n        PatientCredentials credential;\r\n        PatientPersonalDetails personalDetails;\r\n        PatientContactDetails contactDetails;\r\n        PatientMedicalDetails medicalDetails;\r\n        PatientLifestyleDetails lifestyleDetails;\r\n        PatientPolicyDetails policyDetails;\r\n    }\r\n\r\n    mapping(string => bool) public isPatientRegistered;\r\n    mapping(string => Patient) private patients;\r\n\r\n    event PatientRegistered(string healthID, string name, address cryptoWalletAddress);\r\n\r\n    function registerPatientCredentials( string memory _healthID, string memory _name, string memory _email, string memory _password, address _cryptoWalletAddress ) public {\r\n        patients[_healthID].credential = PatientCredentials({\r\n            cryptoWalletAddress: _cryptoWalletAddress,\r\n            name: _name,\r\n            healthID: _healthID,\r\n            email: _email,\r\n            password: _password\r\n        });\r\n\r\n        isPatientRegistered[_healthID] = true;\r\n        emit PatientRegistered(_healthID, _name, _cryptoWalletAddress);\r\n    }\r\n\r\n    function registerPatientPersonalDetails( string memory _healthID, string memory _gender, uint256 _age, uint256 _date, uint256 _month, uint256 _year, string memory _maritalStatus, string memory _disabilities ) public {\r\n        require(isPatientRegistered[_healthID], \"Patient not registered\");\r\n\r\n        patients[_healthID].personalDetails = PatientPersonalDetails({\r\n            gender: _gender,\r\n            age: _age,\r\n            date: _date,\r\n            month: _month,\r\n            year: _year,\r\n            maritalStatus: _maritalStatus,\r\n            disabilities: _disabilities\r\n        });\r\n    }\r\n\r\n    function registerPatientContactDetails( string memory _healthId, uint256 _contactNumber, string memory _appartmentNumber, string memory _street, string memory _city, string memory _state, string memory _country ) public {\r\n        require(isPatientRegistered[_healthId], \"Patient not registered\");\r\n\r\n        patients[_healthId].contactDetails = PatientContactDetails({\r\n            contactNumber: _contactNumber,\r\n            appartmentNumber: _appartmentNumber,\r\n            street: _street,\r\n            city: _city,\r\n            state: _state,\r\n            country: _country\r\n        });\r\n    }\r\n\r\n    function registerPatientMedicalDetails( string memory _healthID, uint256 _weight, uint256 _feet, uint256 _inches, string memory _allergies, bool _isDiabetic, bool _isHypertension ) public {\r\n        require(isPatientRegistered[_healthID], \"Patient not registered\");\r\n\r\n        patients[_healthID].medicalDetails = PatientMedicalDetails({\r\n            weight: _weight,\r\n            feet: _feet,\r\n            inches: _inches,\r\n            allergies: _allergies,\r\n            isDiabetic: _isDiabetic,\r\n            isHypertension: _isHypertension\r\n        });\r\n    }\r\n\r\n    function registerPatientLifestyleDetails( string memory _healthID, string memory _smokingStatus, string memory _alcoholConsumption, string memory _exerciseHabit ) public {\r\n        require(isPatientRegistered[_healthID], \"Patient not registered\");\r\n\r\n        patients[_healthID].lifestyleDetails = PatientLifestyleDetails({\r\n            smokingStatus: _smokingStatus,\r\n            alcoholConsumption: _alcoholConsumption,\r\n            exerciseHabit: _exerciseHabit\r\n        });\r\n    }\r\n\r\n    function registerPatientPolicyDetails( string memory _healthID, string memory _insuranceProvider, uint256 _policyNumber ) public {\r\n        require(isPatientRegistered[_healthID], \"Patient not registered\");\r\n\r\n        patients[_healthID].policyDetails = PatientPolicyDetails({\r\n            insuranceProvider: _insuranceProvider,\r\n            policyNumber: _policyNumber\r\n        });\r\n    }\r\n\r\n    function isRegisteredPatient(string memory _healthID) public view returns (bool) {\r\n        return isPatientRegistered[_healthID];\r\n    }\r\n\r\n    function validatePassword(string memory _healthID, string memory _password) public view returns (bool) {\r\n        require(isPatientRegistered[_healthID], \"Patient not registered\");\r\n        return keccak256(abi.encodePacked(_password)) == keccak256(abi.encodePacked(patients[_healthID].credential.password));\r\n    }\r\n\r\n    function getPatientCredentials(string memory _healthID) public view returns ( address cryptoWalletAddress, string memory name, string memory healthID, string memory email ) {\r\n        require(isPatientRegistered[_healthID], \"Patient not registered\");\r\n\r\n        Patient storage patient = patients[_healthID];\r\n\r\n        return (\r\n            patient.credential.cryptoWalletAddress,\r\n            patient.credential.name,\r\n            patient.credential.healthID,\r\n            patient.credential.email\r\n        );\r\n    }\r\n\r\n    function getPatientPersonalDetails(string memory _healthID) public view returns ( string memory gender, uint256 age, uint256 date, uint256 month, uint256 year, string memory maritalStatus, string memory disabilities ) {\r\n        require(isPatientRegistered[_healthID], \"Patient not registered\");\r\n\r\n        Patient storage patient = patients[_healthID];\r\n\r\n        return (\r\n            patient.personalDetails.gender,\r\n            patient.personalDetails.age,\r\n            patient.personalDetails.date,\r\n            patient.personalDetails.month,\r\n            patient.personalDetails.year,\r\n            patient.personalDetails.maritalStatus,\r\n            patient.personalDetails.disabilities\r\n        );\r\n    }\r\n\r\n    function getPatientContactDetails(string memory _healthId) public view returns ( uint256 contactNumber, string memory appartmentNumber, string memory street, string memory city, string memory state, string memory country ) {\r\n        require(isPatientRegistered[_healthId], \"Patient not registered\");\r\n\r\n        Patient storage patient = patients[_healthId];\r\n\r\n        return (\r\n            patient.contactDetails.contactNumber,\r\n            patient.contactDetails.appartmentNumber,\r\n            patient.contactDetails.street,\r\n            patient.contactDetails.city,\r\n            patient.contactDetails.state,\r\n            patient.contactDetails.country\r\n        );\r\n    }\r\n\r\n    function getPatientMedicalDetails(string memory _healthID) public view returns ( uint256 weight, uint256 feet, uint256 inches, string memory allergies, bool isDiabetic, bool isHypertension ) {\r\n        require(isPatientRegistered[_healthID], \"Patient not registered\");\r\n\r\n        Patient storage patient = patients[_healthID];\r\n\r\n        return (\r\n            patient.medicalDetails.weight,\r\n            patient.medicalDetails.feet,\r\n            patient.medicalDetails.inches,\r\n            patient.medicalDetails.allergies,\r\n            patient.medicalDetails.isDiabetic,\r\n            patient.medicalDetails.isHypertension\r\n        );\r\n    }\r\n\r\n    function getPatientLifestyleDetails(string memory _healthID) public view returns ( string memory smokingStatus, string memory alcoholConsumption, string memory exerciseHabit ) {\r\n        require(isPatientRegistered[_healthID], \"Patient not registered\");\r\n\r\n        Patient storage patient = patients[_healthID];\r\n\r\n        return (\r\n            patient.lifestyleDetails.smokingStatus,\r\n            patient.lifestyleDetails.alcoholConsumption,\r\n            patient.lifestyleDetails.exerciseHabit\r\n        );\r\n    }\r\n\r\n    function getPatientPolicyDetails(string memory _healthID) public view returns ( string memory insuranceProvider, uint256 policyNumber ) {\r\n        require(isPatientRegistered[_healthID], \"Patient not registered\");\r\n\r\n        Patient storage patient = patients[_healthID];\r\n\r\n        return (\r\n            patient.policyDetails.insuranceProvider,\r\n            patient.policyDetails.policyNumber\r\n        );\r\n    }\r\n}",
  "sourcePath": "C:\\Users\\Aman\\Desktop\\GITHUB\\WellWise_Core\\src\\contracts\\PatientRegistration.sol",
  "compiler": {
    "name": "solc",
    "version": "0.5.16+commit.9c3226ce.Emscripten.clang"
  },
  "schemaVersion": "3.4.16",
  "updatedAt": "2025-01-08T21:00:43.803Z",
  "networkType": "ethereum",
  "devdoc": {
    "methods": {}
  },
  "userdoc": {
    "methods": {}
  }
}