{
  "contractName": "PatientRegistration",
  "abi": [
    {
      "anonymous": false,
      "inputs": [
        {
          "indexed": false,
          "internalType": "string",
          "name": "healthID",
          "type": "string"
        },
        {
          "indexed": false,
          "internalType": "string",
          "name": "name",
          "type": "string"
        },
        {
          "indexed": false,
          "internalType": "address",
          "name": "cryptoWalletAddress",
          "type": "address"
        }
      ],
      "name": "PatientRegistered",
      "type": "event"
    },
    {
      "constant": true,
      "inputs": [
        {
          "internalType": "string",
          "name": "",
          "type": "string"
        }
      ],
      "name": "isPatientRegistered",
      "outputs": [
        {
          "internalType": "bool",
          "name": "",
          "type": "bool"
        }
      ],
      "payable": false,
      "stateMutability": "view",
      "type": "function"
    },
    {
      "constant": false,
      "inputs": [
        {
          "internalType": "string",
          "name": "_healthID",
          "type": "string"
        },
        {
          "internalType": "string",
          "name": "_name",
          "type": "string"
        },
        {
          "internalType": "string",
          "name": "_email",
          "type": "string"
        },
        {
          "internalType": "string",
          "name": "_password",
          "type": "string"
        },
        {
          "internalType": "address",
          "name": "_cryptoWalletAddress",
          "type": "address"
        }
      ],
      "name": "registerPatientCredentials",
      "outputs": [],
      "payable": false,
      "stateMutability": "nonpayable",
      "type": "function"
    },
    {
      "constant": false,
      "inputs": [
        {
          "internalType": "string",
          "name": "_healthID",
          "type": "string"
        },
        {
          "internalType": "string",
          "name": "_gender",
          "type": "string"
        },
        {
          "internalType": "uint256",
          "name": "_age",
          "type": "uint256"
        },
        {
          "internalType": "uint256",
          "name": "_date",
          "type": "uint256"
        },
        {
          "internalType": "uint256",
          "name": "_month",
          "type": "uint256"
        },
        {
          "internalType": "uint256",
          "name": "_year",
          "type": "uint256"
        },
        {
          "internalType": "bool",
          "name": "_maritalStatus",
          "type": "bool"
        },
        {
          "internalType": "string",
          "name": "_disabilities",
          "type": "string"
        }
      ],
      "name": "registerPatientPersonalDetails",
      "outputs": [],
      "payable": false,
      "stateMutability": "nonpayable",
      "type": "function"
    },
    {
      "constant": false,
      "inputs": [
        {
          "internalType": "string",
          "name": "_healthID",
          "type": "string"
        },
        {
          "internalType": "uint256",
          "name": "_weight",
          "type": "uint256"
        },
        {
          "internalType": "uint256",
          "name": "_feet",
          "type": "uint256"
        },
        {
          "internalType": "uint256",
          "name": "_inches",
          "type": "uint256"
        },
        {
          "internalType": "string",
          "name": "_allergies",
          "type": "string"
        },
        {
          "internalType": "bool",
          "name": "_isDiabetic",
          "type": "bool"
        },
        {
          "internalType": "bool",
          "name": "_isHypertension",
          "type": "bool"
        }
      ],
      "name": "registerPatientMedicalDetails",
      "outputs": [],
      "payable": false,
      "stateMutability": "nonpayable",
      "type": "function"
    },
    {
      "constant": false,
      "inputs": [
        {
          "internalType": "string",
          "name": "_healthID",
          "type": "string"
        },
        {
          "internalType": "string",
          "name": "_smokingStatus",
          "type": "string"
        },
        {
          "internalType": "string",
          "name": "_alcoholConsumption",
          "type": "string"
        },
        {
          "internalType": "string",
          "name": "_exerciseHabit",
          "type": "string"
        }
      ],
      "name": "registerPatientLifestyleDetails",
      "outputs": [],
      "payable": false,
      "stateMutability": "nonpayable",
      "type": "function"
    },
    {
      "constant": false,
      "inputs": [
        {
          "internalType": "string",
          "name": "_healthID",
          "type": "string"
        },
        {
          "internalType": "string",
          "name": "_insuranceProvider",
          "type": "string"
        },
        {
          "internalType": "uint256",
          "name": "_policyNumber",
          "type": "uint256"
        }
      ],
      "name": "registerPatientPolicyDetails",
      "outputs": [],
      "payable": false,
      "stateMutability": "nonpayable",
      "type": "function"
    },
    {
      "constant": true,
      "inputs": [
        {
          "internalType": "string",
          "name": "_healthID",
          "type": "string"
        }
      ],
      "name": "isRegisteredPatient",
      "outputs": [
        {
          "internalType": "bool",
          "name": "",
          "type": "bool"
        }
      ],
      "payable": false,
      "stateMutability": "view",
      "type": "function"
    },
    {
      "constant": true,
      "inputs": [
        {
          "internalType": "string",
          "name": "_healthID",
          "type": "string"
        },
        {
          "internalType": "string",
          "name": "_password",
          "type": "string"
        }
      ],
      "name": "validatePassword",
      "outputs": [
        {
          "internalType": "bool",
          "name": "",
          "type": "bool"
        }
      ],
      "payable": false,
      "stateMutability": "view",
      "type": "function"
    },
    {
      "constant": true,
      "inputs": [
        {
          "internalType": "string",
          "name": "_healthID",
          "type": "string"
        }
      ],
      "name": "getPatientCredentials",
      "outputs": [
        {
          "internalType": "address",
          "name": "cryptoWalletAddress",
          "type": "address"
        },
        {
          "internalType": "string",
          "name": "name",
          "type": "string"
        },
        {
          "internalType": "string",
          "name": "healthID",
          "type": "string"
        },
        {
          "internalType": "string",
          "name": "email",
          "type": "string"
        }
      ],
      "payable": false,
      "stateMutability": "view",
      "type": "function"
    },
    {
      "constant": true,
      "inputs": [
        {
          "internalType": "string",
          "name": "_healthID",
          "type": "string"
        }
      ],
      "name": "getPatientPersonalDetails",
      "outputs": [
        {
          "internalType": "string",
          "name": "gender",
          "type": "string"
        },
        {
          "internalType": "uint256",
          "name": "age",
          "type": "uint256"
        },
        {
          "internalType": "uint256",
          "name": "date",
          "type": "uint256"
        },
        {
          "internalType": "uint256",
          "name": "month",
          "type": "uint256"
        },
        {
          "internalType": "uint256",
          "name": "year",
          "type": "uint256"
        },
        {
          "internalType": "bool",
          "name": "maritalStatus",
          "type": "bool"
        },
        {
          "internalType": "string",
          "name": "disabilities",
          "type": "string"
        }
      ],
      "payable": false,
      "stateMutability": "view",
      "type": "function"
    },
    {
      "constant": true,
      "inputs": [
        {
          "internalType": "string",
          "name": "_healthID",
          "type": "string"
        }
      ],
      "name": "getPatientMedicalDetails",
      "outputs": [
        {
          "internalType": "uint256",
          "name": "weight",
          "type": "uint256"
        },
        {
          "internalType": "uint256",
          "name": "feet",
          "type": "uint256"
        },
        {
          "internalType": "uint256",
          "name": "inches",
          "type": "uint256"
        },
        {
          "internalType": "string",
          "name": "allergies",
          "type": "string"
        },
        {
          "internalType": "bool",
          "name": "isDiabetic",
          "type": "bool"
        },
        {
          "internalType": "bool",
          "name": "isHypertension",
          "type": "bool"
        }
      ],
      "payable": false,
      "stateMutability": "view",
      "type": "function"
    },
    {
      "constant": true,
      "inputs": [
        {
          "internalType": "string",
          "name": "_healthID",
          "type": "string"
        }
      ],
      "name": "getPatientLifestyleDetails",
      "outputs": [
        {
          "internalType": "string",
          "name": "smokingStatus",
          "type": "string"
        },
        {
          "internalType": "string",
          "name": "alcoholConsumption",
          "type": "string"
        },
        {
          "internalType": "string",
          "name": "exerciseHabit",
          "type": "string"
        }
      ],
      "payable": false,
      "stateMutability": "view",
      "type": "function"
    },
    {
      "constant": true,
      "inputs": [
        {
          "internalType": "string",
          "name": "_healthID",
          "type": "string"
        }
      ],
      "name": "getPatientPolicyDetails",
      "outputs": [
        {
          "internalType": "string",
          "name": "insuranceProvider",
          "type": "string"
        },
        {
          "internalType": "uint256",
          "name": "policyNumber",
          "type": "uint256"
        }
      ],
      "payable": false,
      "stateMutability": "view",
      "type": "function"
    }
  ],
  "bytecode": "0x608060405234801561001057600080fd5b5061337a806100206000396000f3fe608060405234801561001057600080fd5b50600436106100cf5760003560e01c80634f10c6c21161008c578063c4f7e24711610066578063c4f7e24714611056578063e9edabc1146111b5578063f47325c4146113c1578063f7252641146115df576100cf565b80634f10c6c214610c91578063715193e314610d645780637babdb2614610eec576100cf565b806316251df8146100d45780631e30b6091461020f5780631ee074da146103d657806336f23af3146106765780633a7084e5146108f6578063418176c514610b35575b600080fd5b61018d600480360360208110156100ea57600080fd5b810190808035906020019064010000000081111561010757600080fd5b82018360208201111561011957600080fd5b8035906020019184600183028401116401000000008311171561013b57600080fd5b91908080601f016020809104026020016040519081016040528093929190818152602001838380828437600081840152601f19601f8201169050808301925050505050505091929192905050506116b2565b6040518080602001838152602001828103825284818151815260200191508051906020019080838360005b838110156101d35780820151818401526020810190506101b8565b50505050905090810190601f1680156102005780820380516001836020036101000a031916815260200191505b50935050505060405180910390f35b6102c86004803603602081101561022557600080fd5b810190808035906020019064010000000081111561024257600080fd5b82018360208201111561025457600080fd5b8035906020019184600183028401116401000000008311171561027657600080fd5b91908080601f016020809104026020016040519081016040528093929190818152602001838380828437600081840152601f19601f8201169050808301925050505050505091929192905050506118c0565b6040518080602001888152602001878152602001868152602001858152602001841515151581526020018060200183810383528a818151815260200191508051906020019080838360005b8381101561032e578082015181840152602081019050610313565b50505050905090810190601f16801561035b5780820380516001836020036101000a031916815260200191505b50838103825284818151815260200191508051906020019080838360005b83811015610394578082015181840152602081019050610379565b50505050905090810190601f1680156103c15780820380516001836020036101000a031916815260200191505b50995050505050505050505060405180910390f35b610674600480360360a08110156103ec57600080fd5b810190808035906020019064010000000081111561040957600080fd5b82018360208201111561041b57600080fd5b8035906020019184600183028401116401000000008311171561043d57600080fd5b91908080601f016020809104026020016040519081016040528093929190818152602001838380828437600081840152601f19601f820116905080830192505050505050509192919290803590602001906401000000008111156104a057600080fd5b8201836020820111156104b257600080fd5b803590602001918460018302840111640100000000831117156104d457600080fd5b91908080601f016020809104026020016040519081016040528093929190818152602001838380828437600081840152601f19601f8201169050808301925050505050505091929192908035906020019064010000000081111561053757600080fd5b82018360208201111561054957600080fd5b8035906020019184600183028401116401000000008311171561056b57600080fd5b91908080601f016020809104026020016040519081016040528093929190818152602001838380828437600081840152601f19601f820116905080830192505050505050509192919290803590602001906401000000008111156105ce57600080fd5b8201836020820111156105e057600080fd5b8035906020019184600183028401116401000000008311171561060257600080fd5b91908080601f016020809104026020016040519081016040528093929190818152602001838380828437600081840152601f19601f820116905080830192505050505050509192919290803573ffffffffffffffffffffffffffffffffffffffff169060200190929190505050611bb7565b005b6108f46004803603608081101561068c57600080fd5b81019080803590602001906401000000008111156106a957600080fd5b8201836020820111156106bb57600080fd5b803590602001918460018302840111640100000000831117156106dd57600080fd5b91908080601f016020809104026020016040519081016040528093929190818152602001838380828437600081840152601f19601f8201169050808301925050505050505091929192908035906020019064010000000081111561074057600080fd5b82018360208201111561075257600080fd5b8035906020019184600183028401116401000000008311171561077457600080fd5b91908080601f016020809104026020016040519081016040528093929190818152602001838380828437600081840152601f19601f820116905080830192505050505050509192919290803590602001906401000000008111156107d757600080fd5b8201836020820111156107e957600080fd5b8035906020019184600183028401116401000000008311171561080b57600080fd5b91908080601f016020809104026020016040519081016040528093929190818152602001838380828437600081840152601f19601f8201169050808301925050505050505091929192908035906020019064010000000081111561086e57600080fd5b82018360208201111561088057600080fd5b803590602001918460018302840111640100000000831117156108a257600080fd5b91908080601f016020809104026020016040519081016040528093929190818152602001838380828437600081840152601f19601f820116905080830192505050505050509192919290505050611ee4565b005b6109af6004803603602081101561090c57600080fd5b810190808035906020019064010000000081111561092957600080fd5b82018360208201111561093b57600080fd5b8035906020019184600183028401116401000000008311171561095d57600080fd5b91908080601f016020809104026020016040519081016040528093929190818152602001838380828437600081840152601f19601f8201169050808301925050505050505091929192905050506120b4565b604051808573ffffffffffffffffffffffffffffffffffffffff1673ffffffffffffffffffffffffffffffffffffffff168152602001806020018060200180602001848103845287818151815260200191508051906020019080838360005b83811015610a29578082015181840152602081019050610a0e565b50505050905090810190601f168015610a565780820380516001836020036101000a031916815260200191505b50848103835286818151815260200191508051906020019080838360005b83811015610a8f578082015181840152602081019050610a74565b50505050905090810190601f168015610abc5780820380516001836020036101000a031916815260200191505b50848103825285818151815260200191508051906020019080838360005b83811015610af5578082015181840152602081019050610ada565b50505050905090810190601f168015610b225780820380516001836020036101000a031916815260200191505b5097505050505050505060405180910390f35b610c8f60048036036060811015610b4b57600080fd5b8101908080359060200190640100000000811115610b6857600080fd5b820183602082011115610b7a57600080fd5b80359060200191846001830284011164010000000083111715610b9c57600080fd5b91908080601f016020809104026020016040519081016040528093929190818152602001838380828437600081840152601f19601f82011690508083019250505050505050919291929080359060200190640100000000811115610bff57600080fd5b820183602082011115610c1157600080fd5b80359060200191846001830284011164010000000083111715610c3357600080fd5b91908080601f016020809104026020016040519081016040528093929190818152602001838380828437600081840152601f19601f82011690508083019250505050505050919291929080359060200190929190505050612432565b005b610d4a60048036036020811015610ca757600080fd5b8101908080359060200190640100000000811115610cc457600080fd5b820183602082011115610cd657600080fd5b80359060200191846001830284011164010000000083111715610cf857600080fd5b91908080601f016020809104026020016040519081016040528093929190818152602001838380828437600081840152601f19601f8201169050808301925050505050505091929192905050506125cb565b604051808215151515815260200191505060405180910390f35b610eea600480360360e0811015610d7a57600080fd5b8101908080359060200190640100000000811115610d9757600080fd5b820183602082011115610da957600080fd5b80359060200191846001830284011164010000000083111715610dcb57600080fd5b91908080601f016020809104026020016040519081016040528093929190818152602001838380828437600081840152601f19601f82011690508083019250505050505050919291929080359060200190929190803590602001909291908035906020019092919080359060200190640100000000811115610e4c57600080fd5b820183602082011115610e5e57600080fd5b80359060200191846001830284011164010000000083111715610e8057600080fd5b91908080601f016020809104026020016040519081016040528093929190818152602001838380828437600081840152601f19601f820116905080830192505050505050509192919290803515159060200190929190803515159060200190929190505050612601565b005b61103c60048036036040811015610f0257600080fd5b8101908080359060200190640100000000811115610f1f57600080fd5b820183602082011115610f3157600080fd5b80359060200191846001830284011164010000000083111715610f5357600080fd5b91908080601f016020809104026020016040519081016040528093929190818152602001838380828437600081840152601f19601f82011690508083019250505050505050919291929080359060200190640100000000811115610fb657600080fd5b820183602082011115610fc857600080fd5b80359060200191846001830284011164010000000083111715610fea57600080fd5b91908080601f016020809104026020016040519081016040528093929190818152602001838380828437600081840152601f19601f82011690508083019250505050505050919291929050505061280e565b604051808215151515815260200191505060405180910390f35b61110f6004803603602081101561106c57600080fd5b810190808035906020019064010000000081111561108957600080fd5b82018360208201111561109b57600080fd5b803590602001918460018302840111640100000000831117156110bd57600080fd5b91908080601f016020809104026020016040519081016040528093929190818152602001838380828437600081840152601f19601f820116905080830192505050505050509192919290505050612a5b565b60405180878152602001868152602001858152602001806020018415151515815260200183151515158152602001828103825285818151815260200191508051906020019080838360005b8381101561117557808201518184015260208101905061115a565b50505050905090810190601f1680156111a25780820380516001836020036101000a031916815260200191505b5097505050505050505060405180910390f35b61126e600480360360208110156111cb57600080fd5b81019080803590602001906401000000008111156111e857600080fd5b8201836020820111156111fa57600080fd5b8035906020019184600183028401116401000000008311171561121c57600080fd5b91908080601f016020809104026020016040519081016040528093929190818152602001838380828437600081840152601f19601f820116905080830192505050505050509192919290505050612cb6565b60405180806020018060200180602001848103845287818151815260200191508051906020019080838360005b838110156112b657808201518184015260208101905061129b565b50505050905090810190601f1680156112e35780820380516001836020036101000a031916815260200191505b50848103835286818151815260200191508051906020019080838360005b8381101561131c578082015181840152602081019050611301565b50505050905090810190601f1680156113495780820380516001836020036101000a031916815260200191505b50848103825285818151815260200191508051906020019080838360005b83811015611382578082015181840152602081019050611367565b50505050905090810190601f1680156113af5780820380516001836020036101000a031916815260200191505b50965050505050505060405180910390f35b6115dd60048036036101008110156113d857600080fd5b81019080803590602001906401000000008111156113f557600080fd5b82018360208201111561140757600080fd5b8035906020019184600183028401116401000000008311171561142957600080fd5b91908080601f016020809104026020016040519081016040528093929190818152602001838380828437600081840152601f19601f8201169050808301925050505050505091929192908035906020019064010000000081111561148c57600080fd5b82018360208201111561149e57600080fd5b803590602001918460018302840111640100000000831117156114c057600080fd5b91908080601f016020809104026020016040519081016040528093929190818152602001838380828437600081840152601f19601f820116905080830192505050505050509192919290803590602001909291908035906020019092919080359060200190929190803590602001909291908035151590602001909291908035906020019064010000000081111561155757600080fd5b82018360208201111561156957600080fd5b8035906020019184600183028401116401000000008311171561158b57600080fd5b91908080601f016020809104026020016040519081016040528093929190818152602001838380828437600081840152601f19601f820116905080830192505050505050509192919290505050613008565b005b611698600480360360208110156115f557600080fd5b810190808035906020019064010000000081111561161257600080fd5b82018360208201111561162457600080fd5b8035906020019184600183028401116401000000008311171561164657600080fd5b91908080601f016020809104026020016040519081016040528093929190818152602001838380828437600081840152601f19601f820116905080830192505050505050509192919290505050613221565b604051808215151515815260200191505060405180910390f35b6060600080836040518082805190602001908083835b602083106116eb57805182526020820191506020810190506020830392506116c8565b6001836020036101000a038019825116818451168082178552505050505050905001915050908152602001604051809103902060009054906101000a900460ff1661179e576040517f08c379a00000000000000000000000000000000000000000000000000000000081526004018080602001828103825260168152602001807f50617469656e74206e6f7420726567697374657265640000000000000000000081525060200191505060405180910390fd5b60006001846040518082805190602001908083835b602083106117d657805182526020820191506020810190506020830392506117b3565b6001836020036101000a03801982511681845116808217855250505050505090500191505090815260200160405180910390209050806014016000018160140160010154818054600181600116156101000203166002900480601f0160208091040260200160405190810160405280929190818152602001828054600181600116156101000203166002900480156118af5780601f10611884576101008083540402835291602001916118af565b820191906000526020600020905b81548152906001019060200180831161189257829003601f168201915b505050505091509250925050915091565b6060600080600080600060606000886040518082805190602001908083835b6020831061190257805182526020820191506020810190506020830392506118df565b6001836020036101000a038019825116818451168082178552505050505050905001915050908152602001604051809103902060009054906101000a900460ff166119b5576040517f08c379a00000000000000000000000000000000000000000000000000000000081526004018080602001828103825260168152602001807f50617469656e74206e6f7420726567697374657265640000000000000000000081525060200191505060405180910390fd5b60006001896040518082805190602001908083835b602083106119ed57805182526020820191506020810190506020830392506119ca565b6001836020036101000a038019825116818451168082178552505050505050905001915050908152602001604051809103902090508060050160000181600501600101548260050160020154836005016003015484600501600401548560050160050160009054906101000a900460ff1686600501600601868054600181600116156101000203166002900480601f016020809104026020016040519081016040528092919081815260200182805460018160011615610100020316600290048015611afa5780601f10611acf57610100808354040283529160200191611afa565b820191906000526020600020905b815481529060010190602001808311611add57829003601f168201915b50505050509650808054600181600116156101000203166002900480601f016020809104026020016040519081016040528092919081815260200182805460018160011615610100020316600290048015611b965780601f10611b6b57610100808354040283529160200191611b96565b820191906000526020600020905b815481529060010190602001808311611b7957829003601f168201915b50505050509050975097509750975097509750975050919395979092949650565b6040518060a001604052808273ffffffffffffffffffffffffffffffffffffffff168152602001858152602001868152602001848152602001838152506001866040518082805190602001908083835b60208310611c2a5780518252602082019150602081019050602083039250611c07565b6001836020036101000a038019825116818451168082178552505050505050905001915050908152602001604051809103902060000160008201518160000160006101000a81548173ffffffffffffffffffffffffffffffffffffffff021916908373ffffffffffffffffffffffffffffffffffffffff1602179055506020820151816001019080519060200190611cc39291906132a0565b506040820151816002019080519060200190611ce09291906132a0565b506060820151816003019080519060200190611cfd9291906132a0565b506080820151816004019080519060200190611d1a9291906132a0565b5090505060016000866040518082805190602001908083835b60208310611d565780518252602082019150602081019050602083039250611d33565b6001836020036101000a038019825116818451168082178552505050505050905001915050908152602001604051809103902060006101000a81548160ff0219169083151502179055507f319ae3a95b9a410d647835a7e64d54ddf28faf35a698f0a2b63999585fa38edc8585836040518080602001806020018473ffffffffffffffffffffffffffffffffffffffff1673ffffffffffffffffffffffffffffffffffffffff168152602001838103835286818151815260200191508051906020019080838360005b83811015611e3a578082015181840152602081019050611e1f565b50505050905090810190601f168015611e675780820380516001836020036101000a031916815260200191505b50838103825285818151815260200191508051906020019080838360005b83811015611ea0578082015181840152602081019050611e85565b50505050905090810190601f168015611ecd5780820380516001836020036101000a031916815260200191505b509550505050505060405180910390a15050505050565b6000846040518082805190602001908083835b60208310611f1a5780518252602082019150602081019050602083039250611ef7565b6001836020036101000a038019825116818451168082178552505050505050905001915050908152602001604051809103902060009054906101000a900460ff16611fcd576040517f08c379a00000000000000000000000000000000000000000000000000000000081526004018080602001828103825260168152602001807f50617469656e74206e6f7420726567697374657265640000000000000000000081525060200191505060405180910390fd5b6040518060600160405280848152602001838152602001828152506001856040518082805190602001908083835b6020831061201e5780518252602082019150602081019050602083039250611ffb565b6001836020036101000a038019825116818451168082178552505050505050905001915050908152602001604051809103902060110160008201518160000190805190602001906120709291906132a0565b50602082015181600101908051906020019061208d9291906132a0565b5060408201518160020190805190602001906120aa9291906132a0565b5090505050505050565b600060608060606000856040518082805190602001908083835b602083106120f157805182526020820191506020810190506020830392506120ce565b6001836020036101000a038019825116818451168082178552505050505050905001915050908152602001604051809103902060009054906101000a900460ff166121a4576040517f08c379a00000000000000000000000000000000000000000000000000000000081526004018080602001828103825260168152602001807f50617469656e74206e6f7420726567697374657265640000000000000000000081525060200191505060405180910390fd5b60006001866040518082805190602001908083835b602083106121dc57805182526020820191506020810190506020830392506121b9565b6001836020036101000a038019825116818451168082178552505050505050905001915050908152602001604051809103902090508060000160000160009054906101000a900473ffffffffffffffffffffffffffffffffffffffff16816000016001018260000160020183600001600301828054600181600116156101000203166002900480601f0160208091040260200160405190810160405280929190818152602001828054600181600116156101000203166002900480156122e35780601f106122b8576101008083540402835291602001916122e3565b820191906000526020600020905b8154815290600101906020018083116122c657829003601f168201915b50505050509250818054600181600116156101000203166002900480601f01602080910402602001604051908101604052809291908181526020018280546001816001161561010002031660029004801561237f5780601f106123545761010080835404028352916020019161237f565b820191906000526020600020905b81548152906001019060200180831161236257829003601f168201915b50505050509150808054600181600116156101000203166002900480601f01602080910402602001604051908101604052809291908181526020018280546001816001161561010002031660029004801561241b5780601f106123f05761010080835404028352916020019161241b565b820191906000526020600020905b8154815290600101906020018083116123fe57829003601f168201915b505050505090509450945094509450509193509193565b6000836040518082805190602001908083835b602083106124685780518252602082019150602081019050602083039250612445565b6001836020036101000a038019825116818451168082178552505050505050905001915050908152602001604051809103902060009054906101000a900460ff1661251b576040517f08c379a00000000000000000000000000000000000000000000000000000000081526004018080602001828103825260168152602001807f50617469656e74206e6f7420726567697374657265640000000000000000000081525060200191505060405180910390fd5b6040518060400160405280838152602001828152506001846040518082805190602001908083835b602083106125665780518252602082019150602081019050602083039250612543565b6001836020036101000a038019825116818451168082178552505050505050905001915050908152602001604051809103902060140160008201518160000190805190602001906125b89291906132a0565b5060208201518160010155905050505050565b6000818051602081018201805184825260208301602085012081835280955050505050506000915054906101000a900460ff1681565b6000876040518082805190602001908083835b602083106126375780518252602082019150602081019050602083039250612614565b6001836020036101000a038019825116818451168082178552505050505050905001915050908152602001604051809103902060009054906101000a900460ff166126ea576040517f08c379a00000000000000000000000000000000000000000000000000000000081526004018080602001828103825260168152602001807f50617469656e74206e6f7420726567697374657265640000000000000000000081525060200191505060405180910390fd5b6040518060c0016040528087815260200186815260200185815260200184815260200183151581526020018215158152506001886040518082805190602001908083835b60208310612751578051825260208201915060208101905060208303925061272e565b6001836020036101000a0380198251168184511680821785525050505050509050019150509081526020016040518091039020600c0160008201518160000155602082015181600101556040820151816002015560608201518160030190805190602001906127c19291906132a0565b5060808201518160040160006101000a81548160ff02191690831515021790555060a08201518160040160016101000a81548160ff02191690831515021790555090505050505050505050565b600080836040518082805190602001908083835b602083106128455780518252602082019150602081019050602083039250612822565b6001836020036101000a038019825116818451168082178552505050505050905001915050908152602001604051809103902060009054906101000a900460ff166128f8576040517f08c379a00000000000000000000000000000000000000000000000000000000081526004018080602001828103825260168152602001807f50617469656e74206e6f7420726567697374657265640000000000000000000081525060200191505060405180910390fd5b6001836040518082805190602001908083835b6020831061292e578051825260208201915060208101905060208303925061290b565b6001836020036101000a038019825116818451168082178552505050505050905001915050908152602001604051809103902060000160040160405160200180828054600181600116156101000203166002900480156129c55780601f106129a35761010080835404028352918201916129c5565b820191906000526020600020905b8154815290600101906020018083116129b1575b505091505060405160208183030381529060405280519060200120826040516020018082805190602001908083835b60208310612a1757805182526020820191506020810190506020830392506129f4565b6001836020036101000a0380198251168184511680821785525050505050509050019150506040516020818303038152906040528051906020012014905092915050565b600080600060606000806000876040518082805190602001908083835b60208310612a9b5780518252602082019150602081019050602083039250612a78565b6001836020036101000a038019825116818451168082178552505050505050905001915050908152602001604051809103902060009054906101000a900460ff16612b4e576040517f08c379a00000000000000000000000000000000000000000000000000000000081526004018080602001828103825260168152602001807f50617469656e74206e6f7420726567697374657265640000000000000000000081525060200191505060405180910390fd5b60006001886040518082805190602001908083835b60208310612b865780518252602082019150602081019050602083039250612b63565b6001836020036101000a0380198251168184511680821785525050505050509050019150509081526020016040518091039020905080600c016000015481600c016001015482600c016002015483600c0160030184600c0160040160009054906101000a900460ff1685600c0160040160019054906101000a900460ff16828054600181600116156101000203166002900480601f016020809104026020016040519081016040528092919081815260200182805460018160011615610100020316600290048015612c995780601f10612c6e57610100808354040283529160200191612c99565b820191906000526020600020905b815481529060010190602001808311612c7c57829003601f168201915b505050505092509650965096509650965096505091939550919395565b60608060606000846040518082805190602001908083835b60208310612cf15780518252602082019150602081019050602083039250612cce565b6001836020036101000a038019825116818451168082178552505050505050905001915050908152602001604051809103902060009054906101000a900460ff16612da4576040517f08c379a00000000000000000000000000000000000000000000000000000000081526004018080602001828103825260168152602001807f50617469656e74206e6f7420726567697374657265640000000000000000000081525060200191505060405180910390fd5b60006001856040518082805190602001908083835b60208310612ddc5780518252602082019150602081019050602083039250612db9565b6001836020036101000a03801982511681845116808217855250505050505090500191505090815260200160405180910390209050806011016000018160110160010182601101600201828054600181600116156101000203166002900480601f016020809104026020016040519081016040528092919081815260200182805460018160011615610100020316600290048015612ebb5780601f10612e9057610100808354040283529160200191612ebb565b820191906000526020600020905b815481529060010190602001808311612e9e57829003601f168201915b50505050509250818054600181600116156101000203166002900480601f016020809104026020016040519081016040528092919081815260200182805460018160011615610100020316600290048015612f575780601f10612f2c57610100808354040283529160200191612f57565b820191906000526020600020905b815481529060010190602001808311612f3a57829003601f168201915b50505050509150808054600181600116156101000203166002900480601f016020809104026020016040519081016040528092919081815260200182805460018160011615610100020316600290048015612ff35780601f10612fc857610100808354040283529160200191612ff3565b820191906000526020600020905b815481529060010190602001808311612fd657829003601f168201915b50505050509050935093509350509193909250565b6000886040518082805190602001908083835b6020831061303e578051825260208201915060208101905060208303925061301b565b6001836020036101000a038019825116818451168082178552505050505050905001915050908152602001604051809103902060009054906101000a900460ff166130f1576040517f08c379a00000000000000000000000000000000000000000000000000000000081526004018080602001828103825260168152602001807f50617469656e74206e6f7420726567697374657265640000000000000000000081525060200191505060405180910390fd5b6040518060e001604052808881526020018781526020018681526020018581526020018481526020018315158152602001828152506001896040518082805190602001908083835b6020831061315c5780518252602082019150602081019050602083039250613139565b6001836020036101000a038019825116818451168082178552505050505050905001915050908152602001604051809103902060050160008201518160000190805190602001906131ae9291906132a0565b506020820151816001015560408201518160020155606082015181600301556080820151816004015560a08201518160050160006101000a81548160ff02191690831515021790555060c08201518160060190805190602001906132139291906132a0565b509050505050505050505050565b600080826040518082805190602001908083835b602083106132585780518252602082019150602081019050602083039250613235565b6001836020036101000a038019825116818451168082178552505050505050905001915050908152602001604051809103902060009054906101000a900460ff169050919050565b828054600181600116156101000203166002900490600052602060002090601f016020900481019282601f106132e157805160ff191683800117855561330f565b8280016001018555821561330f579182015b8281111561330e5782518255916020019190600101906132f3565b5b50905061331c9190613320565b5090565b61334291905b8082111561333e576000816000905550600101613326565b5090565b9056fea265627a7a72315820dc843ddb6d5acb700d1dcd39ced419d411387e1b55289852c063b5918c574b6064736f6c63430005100032",
  "source": "// SPDX-License-Identifier: MIT\r\npragma solidity ^0.5.16;\r\n\r\ncontract PatientRegistration {\r\n    struct PatientCredentials {\r\n        address cryptoWalletAddress;\r\n        string name;\r\n        string healthID;\r\n        string email;\r\n        string password;\r\n    }\r\n\r\n    struct PatientPersonalDetails {\r\n        string gender;\r\n        uint256 age;\r\n        uint256 date;\r\n        uint256 month;\r\n        uint256 year;\r\n        bool maritalStatus;\r\n        string disabilities;\r\n    }\r\n\r\n    struct PatientMedicalDetails {\r\n        uint256 weight;\r\n        uint256 feet;\r\n        uint256 inches;\r\n        string allergies;\r\n        bool isDiabetic;\r\n        bool isHypertension;\r\n    }\r\n\r\n    struct PatientLifestyleDetails {\r\n        string smokingStatus;\r\n        string alcoholConsumption;\r\n        string exerciseHabit;\r\n    }\r\n\r\n    struct PatientPolicyDetails {\r\n        string insuranceProvider;\r\n        uint256 policyNumber;\r\n    }\r\n\r\n    struct Patient {\r\n        PatientCredentials credential;\r\n        PatientPersonalDetails personalDetails;\r\n        PatientMedicalDetails medicalDetails;\r\n        PatientLifestyleDetails lifestyleDetails;\r\n        PatientPolicyDetails policyDetails;\r\n    }\r\n\r\n    mapping(string => bool) public isPatientRegistered;\r\n    mapping(string => Patient) private patients;\r\n\r\n    event PatientRegistered(string healthID, string name, address cryptoWalletAddress);\r\n\r\n    function registerPatientCredentials( string memory _healthID, string memory _name, string memory _email, string memory _password, address _cryptoWalletAddress ) public {\r\n        patients[_healthID].credential = PatientCredentials({\r\n            cryptoWalletAddress: _cryptoWalletAddress,\r\n            name: _name,\r\n            healthID: _healthID,\r\n            email: _email,\r\n            password: _password\r\n        });\r\n\r\n        isPatientRegistered[_healthID] = true;\r\n        emit PatientRegistered(_healthID, _name, _cryptoWalletAddress);\r\n    }\r\n\r\n    function registerPatientPersonalDetails( string memory _healthID, string memory _gender, uint256 _age, uint256 _date, uint256 _month, uint256 _year, bool _maritalStatus, string memory _disabilities ) public {\r\n        require(isPatientRegistered[_healthID], \"Patient not registered\");\r\n\r\n        patients[_healthID].personalDetails = PatientPersonalDetails({\r\n            gender: _gender,\r\n            age: _age,\r\n            date: _date,\r\n            month: _month,\r\n            year: _year,\r\n            maritalStatus: _maritalStatus,\r\n            disabilities: _disabilities\r\n        });\r\n    }\r\n\r\n    function registerPatientMedicalDetails( string memory _healthID, uint256 _weight, uint256 _feet, uint256 _inches, string memory _allergies, bool _isDiabetic, bool _isHypertension ) public {\r\n        require(isPatientRegistered[_healthID], \"Patient not registered\");\r\n\r\n        patients[_healthID].medicalDetails = PatientMedicalDetails({\r\n            weight: _weight,\r\n            feet: _feet,\r\n            inches: _inches,\r\n            allergies: _allergies,\r\n            isDiabetic: _isDiabetic,\r\n            isHypertension: _isHypertension\r\n        });\r\n    }\r\n\r\n    function registerPatientLifestyleDetails( string memory _healthID, string memory _smokingStatus, string memory _alcoholConsumption, string memory _exerciseHabit ) public {\r\n        require(isPatientRegistered[_healthID], \"Patient not registered\");\r\n\r\n        patients[_healthID].lifestyleDetails = PatientLifestyleDetails({\r\n            smokingStatus: _smokingStatus,\r\n            alcoholConsumption: _alcoholConsumption,\r\n            exerciseHabit: _exerciseHabit\r\n        });\r\n    }\r\n\r\n    function registerPatientPolicyDetails( string memory _healthID, string memory _insuranceProvider, uint256 _policyNumber ) public {\r\n        require(isPatientRegistered[_healthID], \"Patient not registered\");\r\n\r\n        patients[_healthID].policyDetails = PatientPolicyDetails({\r\n            insuranceProvider: _insuranceProvider,\r\n            policyNumber: _policyNumber\r\n        });\r\n    }\r\n\r\n    function isRegisteredPatient(string memory _healthID) public view returns (bool) {\r\n        return isPatientRegistered[_healthID];\r\n    }\r\n\r\n    function validatePassword(string memory _healthID, string memory _password) public view returns (bool) {\r\n        require(isPatientRegistered[_healthID], \"Patient not registered\");\r\n        return keccak256(abi.encodePacked(_password)) == keccak256(abi.encodePacked(patients[_healthID].credential.password));\r\n    }\r\n\r\n    function getPatientCredentials(string memory _healthID) public view returns ( address cryptoWalletAddress, string memory name, string memory healthID, string memory email ) {\r\n        require(isPatientRegistered[_healthID], \"Patient not registered\");\r\n\r\n        Patient storage patient = patients[_healthID];\r\n\r\n        return (\r\n            patient.credential.cryptoWalletAddress,\r\n            patient.credential.name,\r\n            patient.credential.healthID,\r\n            patient.credential.email\r\n        );\r\n    }\r\n\r\n    function getPatientPersonalDetails(string memory _healthID) public view returns ( string memory gender, uint256 age, uint256 date, uint256 month, uint256 year, bool maritalStatus, string memory disabilities ) {\r\n        require(isPatientRegistered[_healthID], \"Patient not registered\");\r\n\r\n        Patient storage patient = patients[_healthID];\r\n\r\n        return (\r\n            patient.personalDetails.gender,\r\n            patient.personalDetails.age,\r\n            patient.personalDetails.date,\r\n            patient.personalDetails.month,\r\n            patient.personalDetails.year,\r\n            patient.personalDetails.maritalStatus,\r\n            patient.personalDetails.disabilities\r\n        );\r\n    }\r\n\r\n    function getPatientMedicalDetails(string memory _healthID) public view returns ( uint256 weight, uint256 feet, uint256 inches, string memory allergies, bool isDiabetic, bool isHypertension ) {\r\n        require(isPatientRegistered[_healthID], \"Patient not registered\");\r\n\r\n        Patient storage patient = patients[_healthID];\r\n\r\n        return (\r\n            patient.medicalDetails.weight,\r\n            patient.medicalDetails.feet,\r\n            patient.medicalDetails.inches,\r\n            patient.medicalDetails.allergies,\r\n            patient.medicalDetails.isDiabetic,\r\n            patient.medicalDetails.isHypertension\r\n        );\r\n    }\r\n\r\n    function getPatientLifestyleDetails(string memory _healthID) public view returns ( string memory smokingStatus, string memory alcoholConsumption, string memory exerciseHabit ) {\r\n        require(isPatientRegistered[_healthID], \"Patient not registered\");\r\n\r\n        Patient storage patient = patients[_healthID];\r\n\r\n        return (\r\n            patient.lifestyleDetails.smokingStatus,\r\n            patient.lifestyleDetails.alcoholConsumption,\r\n            patient.lifestyleDetails.exerciseHabit\r\n        );\r\n    }\r\n\r\n    function getPatientPolicyDetails(string memory _healthID) public view returns ( string memory insuranceProvider, uint256 policyNumber ) {\r\n        require(isPatientRegistered[_healthID], \"Patient not registered\");\r\n\r\n        Patient storage patient = patients[_healthID];\r\n\r\n        return (\r\n            patient.policyDetails.insuranceProvider,\r\n            patient.policyDetails.policyNumber\r\n        );\r\n    }\r\n}",
  "sourcePath": "C:\\Users\\Aman\\Desktop\\GITHUB\\WellWise_Core\\src\\contracts\\PatientRegistration.sol",
  "compiler": {
    "name": "solc",
    "version": "0.5.16+commit.9c3226ce.Emscripten.clang"
  },
  "schemaVersion": "3.4.16",
  "updatedAt": "2024-12-25T21:12:23.988Z",
  "networkType": "ethereum",
  "devdoc": {
    "methods": {}
  },
  "userdoc": {
    "methods": {}
  }
}